{"contracts/SpinnerNew.sol":{"SpinnerNew":{"abi":[{"inputs":[{"internalType":"uint16","name":"_totalSegments","type":"uint16"},{"internalType":"address","name":"_feeRelayer","type":"address"},{"internalType":"uint256","name":"_countPerKaia","type":"uint256"}],"stateMutability":"nonpayable","type":"constructor"},{"inputs":[],"name":"ReentrancyGuardReentrantCall","type":"error"},{"anonymous":false,"inputs":[{"indexed":true,"internalType":"address","name":"user","type":"address"},{"indexed":false,"internalType":"uint256","name":"amount","type":"uint256"}],"name":"DepositKaia","type":"event"},{"anonymous":false,"inputs":[{"indexed":true,"internalType":"bytes32","name":"role","type":"bytes32"},{"indexed":true,"internalType":"address","name":"account","type":"address"},{"indexed":true,"internalType":"address","name":"admin","type":"address"}],"name":"RoleGranted","type":"event"},{"anonymous":false,"inputs":[{"indexed":true,"internalType":"bytes32","name":"role","type":"bytes32"},{"indexed":true,"internalType":"address","name":"account","type":"address"},{"indexed":true,"internalType":"address","name":"admin","type":"address"}],"name":"RoleRevoked","type":"event"},{"anonymous":false,"inputs":[{"indexed":true,"internalType":"address","name":"user","type":"address"},{"indexed":false,"internalType":"uint256","name":"segment","type":"uint256"},{"indexed":false,"internalType":"uint256","name":"randomNumber","type":"uint256"},{"indexed":false,"internalType":"uint256","name":"timestamp","type":"uint256"}],"name":"SpinResult","type":"event"},{"inputs":[],"name":"ADMIN_ROLE","outputs":[{"internalType":"bytes32","name":"","type":"bytes32"}],"stateMutability":"view","type":"function"},{"inputs":[],"name":"MAX_PROBABILITY","outputs":[{"internalType":"uint256","name":"","type":"uint256"}],"stateMutability":"view","type":"function"},{"inputs":[],"name":"PRECISION","outputs":[{"internalType":"uint256","name":"","type":"uint256"}],"stateMutability":"view","type":"function"},{"inputs":[],"name":"countPerKaia","outputs":[{"internalType":"uint256","name":"","type":"uint256"}],"stateMutability":"view","type":"function"},{"inputs":[],"name":"depositKaia","outputs":[],"stateMutability":"payable","type":"function"},{"inputs":[],"name":"feeRelayer","outputs":[{"internalType":"address","name":"","type":"address"}],"stateMutability":"view","type":"function"},{"inputs":[],"name":"getActiveStatus","outputs":[{"internalType":"bool","name":"","type":"bool"}],"stateMutability":"view","type":"function"},{"inputs":[],"name":"getProbabilities","outputs":[{"internalType":"uint64[]","name":"probabilities","type":"uint64[]"}],"stateMutability":"view","type":"function"},{"inputs":[],"name":"getRemainingAmounts","outputs":[{"internalType":"uint64[]","name":"amounts","type":"uint64[]"}],"stateMutability":"view","type":"function"},{"inputs":[],"name":"getSegmentAmounts","outputs":[{"internalType":"uint64[]","name":"amounts","type":"uint64[]"}],"stateMutability":"view","type":"function"},{"inputs":[{"internalType":"address","name":"user","type":"address"},{"internalType":"uint16","name":"segment","type":"uint16"}],"name":"getUserSegmentHits","outputs":[{"internalType":"uint256","name":"","type":"uint256"}],"stateMutability":"view","type":"function"},{"inputs":[{"internalType":"address","name":"user","type":"address"}],"name":"getUserSegmentHitsAll","outputs":[{"internalType":"uint256[]","name":"","type":"uint256[]"}],"stateMutability":"view","type":"function"},{"inputs":[{"internalType":"address","name":"user","type":"address"}],"name":"getUserSpinCount","outputs":[{"internalType":"uint64","name":"","type":"uint64"}],"stateMutability":"view","type":"function"},{"inputs":[{"internalType":"address","name":"user","type":"address"}],"name":"getUserSpinsAvailable","outputs":[{"internalType":"uint256","name":"","type":"uint256"}],"stateMutability":"view","type":"function"},{"inputs":[{"internalType":"bytes32","name":"role","type":"bytes32"},{"internalType":"address","name":"account","type":"address"}],"name":"grantRole","outputs":[],"stateMutability":"nonpayable","type":"function"},{"inputs":[{"internalType":"bytes32","name":"role","type":"bytes32"},{"internalType":"address","name":"account","type":"address"}],"name":"hasRole","outputs":[{"internalType":"bool","name":"","type":"bool"}],"stateMutability":"view","type":"function"},{"inputs":[],"name":"isActive","outputs":[{"internalType":"bool","name":"","type":"bool"}],"stateMutability":"view","type":"function"},{"inputs":[{"internalType":"bytes32","name":"role","type":"bytes32"},{"internalType":"address","name":"account","type":"address"}],"name":"revokeRole","outputs":[],"stateMutability":"nonpayable","type":"function"},{"inputs":[{"internalType":"uint16","name":"","type":"uint16"}],"name":"segmentAmounts","outputs":[{"internalType":"uint64","name":"","type":"uint64"}],"stateMutability":"view","type":"function"},{"inputs":[{"internalType":"uint16","name":"","type":"uint16"}],"name":"segmentProbabilities","outputs":[{"internalType":"uint64","name":"","type":"uint64"}],"stateMutability":"view","type":"function"},{"inputs":[{"internalType":"uint16","name":"","type":"uint16"}],"name":"segmentRemaining","outputs":[{"internalType":"uint64","name":"","type":"uint64"}],"stateMutability":"view","type":"function"},{"inputs":[{"internalType":"bool","name":"_isActive","type":"bool"}],"name":"setActive","outputs":[],"stateMutability":"nonpayable","type":"function"},{"inputs":[{"internalType":"uint256","name":"_countPerKaia","type":"uint256"}],"name":"setCountPerKaia","outputs":[],"stateMutability":"nonpayable","type":"function"},{"inputs":[{"internalType":"address","name":"_feeRelayer","type":"address"}],"name":"setFeeRelayer","outputs":[],"stateMutability":"nonpayable","type":"function"},{"inputs":[{"internalType":"uint64[]","name":"amounts","type":"uint64[]"},{"internalType":"uint64[]","name":"probabilities","type":"uint64[]"}],"name":"setSegmentAmounts","outputs":[],"stateMutability":"nonpayable","type":"function"},{"inputs":[{"internalType":"uint16","name":"_totalSegments","type":"uint16"}],"name":"setTotalSegments","outputs":[],"stateMutability":"nonpayable","type":"function"},{"inputs":[],"name":"spin","outputs":[{"internalType":"uint16","name":"segment","type":"uint16"},{"internalType":"uint256","name":"randomNumber","type":"uint256"}],"stateMutability":"nonpayable","type":"function"},{"inputs":[],"name":"totalSegments","outputs":[{"internalType":"uint16","name":"","type":"uint16"}],"stateMutability":"view","type":"function"},{"inputs":[],"name":"totalSpins","outputs":[{"internalType":"uint256","name":"","type":"uint256"}],"stateMutability":"view","type":"function"},{"inputs":[{"internalType":"address","name":"","type":"address"},{"internalType":"uint256","name":"","type":"uint256"}],"name":"userSegmentHits","outputs":[{"internalType":"uint256","name":"","type":"uint256"}],"stateMutability":"view","type":"function"},{"inputs":[{"internalType":"address","name":"","type":"address"}],"name":"userSpinCount","outputs":[{"internalType":"uint64","name":"","type":"uint64"}],"stateMutability":"view","type":"function"},{"inputs":[{"internalType":"address","name":"","type":"address"}],"name":"userSpinsAvailable","outputs":[{"internalType":"uint256","name":"","type":"uint256"}],"stateMutability":"view","type":"function"}],"evm":{"bytecode":{"linkReferences":{},"object":"60806040523480156200001157600080fd5b5060405162002d0238038062002d02833981810160405281019062000037919062000286565b60018081905550620000536000801b33620000db60201b60201c565b6000600860006101000a81548160ff02191690831515021790555082600260006101000a81548161ffff021916908361ffff160217905550816002806101000a81548173ffffffffffffffffffffffffffffffffffffffff021916908373ffffffffffffffffffffffffffffffffffffffff16021790555080600381905550505050620002e2565b600160008084815260200190815260200160002060008373ffffffffffffffffffffffffffffffffffffffff1673ffffffffffffffffffffffffffffffffffffffff16815260200190815260200160002060006101000a81548160ff0219169083151502179055503373ffffffffffffffffffffffffffffffffffffffff168173ffffffffffffffffffffffffffffffffffffffff16837f2f8788117e7eff1d82e926ec794901d17c78024a50270940304540a733656f0d60405160405180910390a45050565b600080fd5b600061ffff82169050919050565b620001c081620001a7565b8114620001cc57600080fd5b50565b600081519050620001e081620001b5565b92915050565b600073ffffffffffffffffffffffffffffffffffffffff82169050919050565b60006200021382620001e6565b9050919050565b620002258162000206565b81146200023157600080fd5b50565b60008151905062000245816200021a565b92915050565b6000819050919050565b62000260816200024b565b81146200026c57600080fd5b50565b600081519050620002808162000255565b92915050565b600080600060608486031215620002a257620002a1620001a2565b5b6000620002b286828701620001cf565b9350506020620002c58682870162000234565b9250506040620002d8868287016200026f565b9150509250925092565b612a1080620002f26000396000f3fe6080604052600436106101e35760003560e01c8063901b203611610102578063cc40a8ca11610095578063f3e6761011610064578063f3e6761014610724578063fae2ac1e1461074f578063fc34173614610778578063fe8e1dc2146107a3576101e3565b8063cc40a8ca14610667578063d547741f14610692578063d96cff32146106bb578063f0acd7d5146106f8576101e3565b8063aaf5eb68116100d1578063aaf5eb68146105bf578063acec338a146105ea578063bc17530a14610613578063bc4af01b1461063c576101e3565b8063901b2036146104f157806391d148541461051c57806395ee121714610559578063a6794c7c14610582576101e3565b806359f96f8e1161017a57806375b238fc1161014957806375b238fc1461042157806379081d9d1461044c5780638acf974d146104895780638ea1f363146104c6576101e3565b806359f96f8e146103725780635f16b5181461037c578063656c0ead146103a75780636cd6e4cf146103e4576101e3565b806321dbc5bf116101b657806321dbc5bf146102b657806322f3e2d4146102f35780632f2ff15d1461031e5780634db33ba214610347576101e3565b8063062f7b8c146101e85780630661939d146102135780631039b1d9146102505780631dc2a4881461028d575b600080fd5b3480156101f457600080fd5b506101fd6107e0565b60405161020a9190611c5b565b60405180910390f35b34801561021f57600080fd5b5061023a60048036038101906102359190611cc1565b6108de565b6040516102479190611cfd565b60405180910390f35b34801561025c57600080fd5b5061027760048036038101906102729190611d76565b610905565b6040516102849190611dbc565b60405180910390f35b34801561029957600080fd5b506102b460048036038101906102af9190611d76565b61094e565b005b3480156102c257600080fd5b506102dd60048036038101906102d89190611cc1565b6109df565b6040516102ea9190611cfd565b60405180910390f35b3480156102ff57600080fd5b50610308610a06565b6040516103159190611df2565b60405180910390f35b34801561032a57600080fd5b5061034560048036038101906103409190611e43565b610a19565b005b34801561035357600080fd5b5061035c610a75565b6040516103699190611dbc565b60405180910390f35b61037a610a7b565b005b34801561038857600080fd5b50610391610bd9565b60405161039e9190611c5b565b60405180910390f35b3480156103b357600080fd5b506103ce60048036038101906103c99190611d76565b610cd7565b6040516103db9190611cfd565b60405180910390f35b3480156103f057600080fd5b5061040b60048036038101906104069190611d76565b610d34565b6040516104189190611cfd565b60405180910390f35b34801561042d57600080fd5b50610436610d5b565b6040516104439190611e92565b60405180910390f35b34801561045857600080fd5b50610473600480360381019061046e9190611d76565b610d62565b6040516104809190611f6b565b60405180910390f35b34801561049557600080fd5b506104b060048036038101906104ab9190611cc1565b610e77565b6040516104bd9190611cfd565b60405180910390f35b3480156104d257600080fd5b506104db610e9e565b6040516104e89190611f9c565b60405180910390f35b3480156104fd57600080fd5b50610506610eb2565b6040516105139190611dbc565b60405180910390f35b34801561052857600080fd5b50610543600480360381019061053e9190611e43565b610eb8565b6040516105509190611df2565b60405180910390f35b34801561056557600080fd5b50610580600480360381019061057b919061201c565b610f1f565b005b34801561058e57600080fd5b506105a960048036038101906105a4919061209d565b6111ad565b6040516105b69190611dbc565b60405180910390f35b3480156105cb57600080fd5b506105d461120c565b6040516105e19190611dbc565b60405180910390f35b3480156105f657600080fd5b50610611600480360381019061060c9190612109565b611218565b005b34801561061f57600080fd5b5061063a60048036038101906106359190611cc1565b611283565b005b34801561064857600080fd5b50610651611338565b60405161065e9190611c5b565b60405180910390f35b34801561067357600080fd5b5061067c611436565b6040516106899190611dbc565b60405180910390f35b34801561069e57600080fd5b506106b960048036038101906106b49190611e43565b61143d565b005b3480156106c757600080fd5b506106e260048036038101906106dd9190611d76565b611499565b6040516106ef9190611dbc565b60405180910390f35b34801561070457600080fd5b5061070d6114b1565b60405161071b929190612136565b60405180910390f35b34801561073057600080fd5b506107396118f4565b6040516107469190611df2565b60405180910390f35b34801561075b57600080fd5b506107766004803603810190610771919061218b565b61190b565b005b34801561078457600080fd5b5061078d611963565b60405161079a91906121c7565b60405180910390f35b3480156107af57600080fd5b506107ca60048036038101906107c591906121e2565b611987565b6040516107d79190611dbc565b60405180910390f35b6060600260009054906101000a900461ffff1661ffff1667ffffffffffffffff8111156108105761080f612222565b5b60405190808252806020026020018201604052801561083e5781602001602082028036833780820191505090505b50905060005b600260009054906101000a900461ffff1661ffff168161ffff1610156108da57600660008261ffff1661ffff16815260200190815260200160002060009054906101000a900467ffffffffffffffff16828261ffff16815181106108ab576108aa612251565b5b602002602001019067ffffffffffffffff16908167ffffffffffffffff16815250508080600101915050610844565b5090565b60046020528060005260406000206000915054906101000a900467ffffffffffffffff1681565b6000600960008373ffffffffffffffffffffffffffffffffffffffff1673ffffffffffffffffffffffffffffffffffffffff168152602001908152602001600020549050919050565b6000801b61095c8133610eb8565b61099b576040517f08c379a000000000000000000000000000000000000000000000000000000000815260040161099290612303565b60405180910390fd5b816002806101000a81548173ffffffffffffffffffffffffffffffffffffffff021916908373ffffffffffffffffffffffffffffffffffffffff1602179055505050565b60066020528060005260406000206000915054906101000a900467ffffffffffffffff1681565b600860009054906101000a900460ff1681565b6000801b610a278133610eb8565b610a66576040517f08c379a0000000000000000000000000000000000000000000000000000000008152600401610a5d90612303565b60405180910390fd5b610a7083836119ac565b505050565b60035481565b6001341015610abf576040517f08c379a0000000000000000000000000000000000000000000000000000000008152600401610ab690612395565b60405180910390fd5b34600354610acd91906123e4565b600960003373ffffffffffffffffffffffffffffffffffffffff1673ffffffffffffffffffffffffffffffffffffffff1681526020019081526020016000206000828254610b1b9190612426565b9250508190555060028054906101000a900473ffffffffffffffffffffffffffffffffffffffff1673ffffffffffffffffffffffffffffffffffffffff166108fc349081150290604051600060405180830381858888f19350505050158015610b88573d6000803e3d6000fd5b503373ffffffffffffffffffffffffffffffffffffffff167f4509b2a09614c8293787820e24f9f20fc70f381a55440471b3ace0c0edf20a5d34604051610bcf9190611dbc565b60405180910390a2565b6060600260009054906101000a900461ffff1661ffff1667ffffffffffffffff811115610c0957610c08612222565b5b604051908082528060200260200182016040528015610c375781602001602082028036833780820191505090505b50905060005b600260009054906101000a900461ffff1661ffff168161ffff161015610cd357600560008261ffff1661ffff16815260200190815260200160002060009054906101000a900467ffffffffffffffff16828261ffff1681518110610ca457610ca3612251565b5b602002602001019067ffffffffffffffff16908167ffffffffffffffff16815250508080600101915050610c3d565b5090565b6000600a60008373ffffffffffffffffffffffffffffffffffffffff1673ffffffffffffffffffffffffffffffffffffffff16815260200190815260200160002060009054906101000a900467ffffffffffffffff169050919050565b600a6020528060005260406000206000915054906101000a900467ffffffffffffffff1681565b6000801b81565b60606000600260009054906101000a900461ffff1661ffff1667ffffffffffffffff811115610d9457610d93612222565b5b604051908082528060200260200182016040528015610dc25781602001602082028036833780820191505090505b50905060005b600260009054906101000a900461ffff1661ffff168161ffff161015610e6d57600b60008573ffffffffffffffffffffffffffffffffffffffff1673ffffffffffffffffffffffffffffffffffffffff16815260200190815260200160002060008261ffff16815260200190815260200160002054828261ffff1681518110610e5457610e53612251565b5b6020026020010181815250508080600101915050610dc8565b5080915050919050565b60056020528060005260406000206000915054906101000a900467ffffffffffffffff1681565b600260009054906101000a900461ffff1681565b60075481565b600080600084815260200190815260200160002060008373ffffffffffffffffffffffffffffffffffffffff1673ffffffffffffffffffffffffffffffffffffffff16815260200190815260200160002060009054906101000a900460ff16905092915050565b6000801b610f2d8133610eb8565b610f6c576040517f08c379a0000000000000000000000000000000000000000000000000000000008152600401610f6390612303565b60405180910390fd5b828290508585905014610fb4576040517f08c379a0000000000000000000000000000000000000000000000000000000008152600401610fab906124a6565b60405180910390fd5b629896808383600186869050610fca91906124c6565b818110610fda57610fd9612251565b5b9050602002016020810190610fef9190612526565b67ffffffffffffffff1614611039576040517f08c379a0000000000000000000000000000000000000000000000000000000008152600401611030906125c5565b60405180910390fd5b60005b858590508161ffff1610156111a55785858261ffff1681811061106257611061612251565b5b90506020020160208101906110779190612526565b600460008361ffff1661ffff16815260200190815260200160002060006101000a81548167ffffffffffffffff021916908367ffffffffffffffff16021790555085858261ffff168181106110cf576110ce612251565b5b90506020020160208101906110e49190612526565b600560008361ffff1661ffff16815260200190815260200160002060006101000a81548167ffffffffffffffff021916908367ffffffffffffffff16021790555083838261ffff1681811061113c5761113b612251565b5b90506020020160208101906111519190612526565b600660008361ffff1661ffff16815260200190815260200160002060006101000a81548167ffffffffffffffff021916908367ffffffffffffffff160217905550808061119d906125e5565b91505061103c565b505050505050565b6000600b60008473ffffffffffffffffffffffffffffffffffffffff1673ffffffffffffffffffffffffffffffffffffffff16815260200190815260200160002060008361ffff16815260200190815260200160002054905092915050565b670de0b6b3a764000081565b6000801b6112268133610eb8565b611265576040517f08c379a000000000000000000000000000000000000000000000000000000000815260040161125c90612303565b60405180910390fd5b81600860006101000a81548160ff0219169083151502179055505050565b6000801b6112918133610eb8565b6112d0576040517f08c379a00000000000000000000000000000000000000000000000000000000081526004016112c790612303565b60405180910390fd5b60008261ffff1611611317576040517f08c379a000000000000000000000000000000000000000000000000000000000815260040161130e90612681565b60405180910390fd5b81600260006101000a81548161ffff021916908361ffff1602179055505050565b6060600260009054906101000a900461ffff1661ffff1667ffffffffffffffff81111561136857611367612222565b5b6040519080825280602002602001820160405280156113965781602001602082028036833780820191505090505b50905060005b600260009054906101000a900461ffff1661ffff168161ffff16101561143257600460008261ffff1661ffff16815260200190815260200160002060009054906101000a900467ffffffffffffffff16828261ffff168151811061140357611402612251565b5b602002602001019067ffffffffffffffff16908167ffffffffffffffff1681525050808060010191505061139c565b5090565b6298968081565b6000801b61144b8133610eb8565b61148a576040517f08c379a000000000000000000000000000000000000000000000000000000000815260040161148190612303565b60405180910390fd5b6114948383611a73565b505050565b60096020528060005260406000206000915090505481565b6000806114bc611b3a565b600860009054906101000a900460ff1661150b576040517f08c379a0000000000000000000000000000000000000000000000000000000008152600401611502906126ed565b60405180910390fd5b6000806000601e90505b8215801561152257508082105b1561175f5760016298968042443360075487604051602001611548959493929190612776565b6040516020818303038152906040528051906020012060001c61156b9190612804565b6115759190612426565b935060005b600260009054906101000a900461ffff1661ffff168161ffff1610801561159f575083155b1561174b57600660008261ffff1661ffff16815260200190815260200160002060009054906101000a900467ffffffffffffffff1667ffffffffffffffff168511611738576000600460008361ffff1661ffff16815260200190815260200160002060009054906101000a900467ffffffffffffffff1667ffffffffffffffff16148061166557506000600560008361ffff1661ffff16815260200190815260200160002060009054906101000a900467ffffffffffffffff1667ffffffffffffffff16115b1561173757600193508095506007600081548092919061168490612835565b91905055506000600560008361ffff1661ffff16815260200190815260200160002060009054906101000a900467ffffffffffffffff1667ffffffffffffffff16111561173257600560008261ffff1661ffff168152602001908152602001600020600081819054906101000a900467ffffffffffffffff168092919061170a9061287d565b91906101000a81548167ffffffffffffffff021916908367ffffffffffffffff160217905550505b61174b565b5b8080611743906125e5565b91505061157a565b50818061175790612835565b925050611515565b8261179f576040517f08c379a000000000000000000000000000000000000000000000000000000000815260040161179690612918565b60405180910390fd5b600a60003373ffffffffffffffffffffffffffffffffffffffff1673ffffffffffffffffffffffffffffffffffffffff168152602001908152602001600020600081819054906101000a900467ffffffffffffffff168092919061180290612938565b91906101000a81548167ffffffffffffffff021916908367ffffffffffffffff16021790555050600b60003373ffffffffffffffffffffffffffffffffffffffff1673ffffffffffffffffffffffffffffffffffffffff16815260200190815260200160002060008661ffff168152602001908152602001600020600081548092919061188e90612835565b91905055503373ffffffffffffffffffffffffffffffffffffffff167ff825702cbc83605d7fababea4c41c307150aab23ae229acda80af9d946aa42928686426040516118dd939291906129a3565b60405180910390a25050506118f0611b80565b9091565b6000600860009054906101000a900460ff16905090565b6000801b6119198133610eb8565b611958576040517f08c379a000000000000000000000000000000000000000000000000000000000815260040161194f90612303565b60405180910390fd5b816003819055505050565b60028054906101000a900473ffffffffffffffffffffffffffffffffffffffff1681565b600b602052816000526040600020602052806000526040600020600091509150505481565b600160008084815260200190815260200160002060008373ffffffffffffffffffffffffffffffffffffffff1673ffffffffffffffffffffffffffffffffffffffff16815260200190815260200160002060006101000a81548160ff0219169083151502179055503373ffffffffffffffffffffffffffffffffffffffff168173ffffffffffffffffffffffffffffffffffffffff16837f2f8788117e7eff1d82e926ec794901d17c78024a50270940304540a733656f0d60405160405180910390a45050565b600080600084815260200190815260200160002060008373ffffffffffffffffffffffffffffffffffffffff1673ffffffffffffffffffffffffffffffffffffffff16815260200190815260200160002060006101000a81548160ff0219169083151502179055503373ffffffffffffffffffffffffffffffffffffffff168173ffffffffffffffffffffffffffffffffffffffff16837ff6391f5c32d9c69d2a47ea670b442974b53935d1edc7fd64eb21e047a839171b60405160405180910390a45050565b600260015403611b76576040517f3ee5aeb500000000000000000000000000000000000000000000000000000000815260040160405180910390fd5b6002600181905550565b60018081905550565b600081519050919050565b600082825260208201905092915050565b6000819050602082019050919050565b600067ffffffffffffffff82169050919050565b611bd281611bb5565b82525050565b6000611be48383611bc9565b60208301905092915050565b6000602082019050919050565b6000611c0882611b89565b611c128185611b94565b9350611c1d83611ba5565b8060005b83811015611c4e578151611c358882611bd8565b9750611c4083611bf0565b925050600181019050611c21565b5085935050505092915050565b60006020820190508181036000830152611c758184611bfd565b905092915050565b600080fd5b600080fd5b600061ffff82169050919050565b611c9e81611c87565b8114611ca957600080fd5b50565b600081359050611cbb81611c95565b92915050565b600060208284031215611cd757611cd6611c7d565b5b6000611ce584828501611cac565b91505092915050565b611cf781611bb5565b82525050565b6000602082019050611d126000830184611cee565b92915050565b600073ffffffffffffffffffffffffffffffffffffffff82169050919050565b6000611d4382611d18565b9050919050565b611d5381611d38565b8114611d5e57600080fd5b50565b600081359050611d7081611d4a565b92915050565b600060208284031215611d8c57611d8b611c7d565b5b6000611d9a84828501611d61565b91505092915050565b6000819050919050565b611db681611da3565b82525050565b6000602082019050611dd16000830184611dad565b92915050565b60008115159050919050565b611dec81611dd7565b82525050565b6000602082019050611e076000830184611de3565b92915050565b6000819050919050565b611e2081611e0d565b8114611e2b57600080fd5b50565b600081359050611e3d81611e17565b92915050565b60008060408385031215611e5a57611e59611c7d565b5b6000611e6885828601611e2e565b9250506020611e7985828601611d61565b9150509250929050565b611e8c81611e0d565b82525050565b6000602082019050611ea76000830184611e83565b92915050565b600081519050919050565b600082825260208201905092915050565b6000819050602082019050919050565b611ee281611da3565b82525050565b6000611ef48383611ed9565b60208301905092915050565b6000602082019050919050565b6000611f1882611ead565b611f228185611eb8565b9350611f2d83611ec9565b8060005b83811015611f5e578151611f458882611ee8565b9750611f5083611f00565b925050600181019050611f31565b5085935050505092915050565b60006020820190508181036000830152611f858184611f0d565b905092915050565b611f9681611c87565b82525050565b6000602082019050611fb16000830184611f8d565b92915050565b600080fd5b600080fd5b600080fd5b60008083601f840112611fdc57611fdb611fb7565b5b8235905067ffffffffffffffff811115611ff957611ff8611fbc565b5b60208301915083602082028301111561201557612014611fc1565b5b9250929050565b6000806000806040858703121561203657612035611c7d565b5b600085013567ffffffffffffffff81111561205457612053611c82565b5b61206087828801611fc6565b9450945050602085013567ffffffffffffffff81111561208357612082611c82565b5b61208f87828801611fc6565b925092505092959194509250565b600080604083850312156120b4576120b3611c7d565b5b60006120c285828601611d61565b92505060206120d385828601611cac565b9150509250929050565b6120e681611dd7565b81146120f157600080fd5b50565b600081359050612103816120dd565b92915050565b60006020828403121561211f5761211e611c7d565b5b600061212d848285016120f4565b91505092915050565b600060408201905061214b6000830185611f8d565b6121586020830184611dad565b9392505050565b61216881611da3565b811461217357600080fd5b50565b6000813590506121858161215f565b92915050565b6000602082840312156121a1576121a0611c7d565b5b60006121af84828501612176565b91505092915050565b6121c181611d38565b82525050565b60006020820190506121dc60008301846121b8565b92915050565b600080604083850312156121f9576121f8611c7d565b5b600061220785828601611d61565b925050602061221885828601612176565b9150509250929050565b7f4e487b7100000000000000000000000000000000000000000000000000000000600052604160045260246000fd5b7f4e487b7100000000000000000000000000000000000000000000000000000000600052603260045260246000fd5b600082825260208201905092915050565b7f416363657373436f6e74726f6c3a2073656e646572206d75737420686176652060008201527f7468652061646d696e20726f6c65000000000000000000000000000000000000602082015250565b60006122ed602e83612280565b91506122f882612291565b604082019050919050565b6000602082019050818103600083015261231c816122e0565b9050919050565b7f4465706f73697420616d6f756e74206d7573742062652067726561746572207460008201527f68616e2030000000000000000000000000000000000000000000000000000000602082015250565b600061237f602583612280565b915061238a82612323565b604082019050919050565b600060208201905081810360008301526123ae81612372565b9050919050565b7f4e487b7100000000000000000000000000000000000000000000000000000000600052601160045260246000fd5b60006123ef82611da3565b91506123fa83611da3565b925082820261240881611da3565b9150828204841483151761241f5761241e6123b5565b5b5092915050565b600061243182611da3565b915061243c83611da3565b9250828201905080821115612454576124536123b5565b5b92915050565b7f4c656e677468206d69736d617463680000000000000000000000000000000000600082015250565b6000612490600f83612280565b915061249b8261245a565b602082019050919050565b600060208201905081810360008301526124bf81612483565b9050919050565b60006124d182611da3565b91506124dc83611da3565b92508282039050818111156124f4576124f36123b5565b5b92915050565b61250381611bb5565b811461250e57600080fd5b50565b600081359050612520816124fa565b92915050565b60006020828403121561253c5761253b611c7d565b5b600061254a84828501612511565b91505092915050565b7f4c6173742070726f626162696c697479206d757374206265203130303030303060008201527f3000000000000000000000000000000000000000000000000000000000000000602082015250565b60006125af602183612280565b91506125ba82612553565b604082019050919050565b600060208201905081810360008301526125de816125a2565b9050919050565b60006125f082611c87565b915061ffff8203612604576126036123b5565b5b600182019050919050565b7f546f74616c207365676d656e7473206d7573742062652067726561746572207460008201527f68616e2030000000000000000000000000000000000000000000000000000000602082015250565b600061266b602583612280565b91506126768261260f565b604082019050919050565b6000602082019050818103600083015261269a8161265e565b9050919050565b7f5370696e6e6572206e6f74206163746976650000000000000000000000000000600082015250565b60006126d7601283612280565b91506126e2826126a1565b602082019050919050565b60006020820190508181036000830152612706816126ca565b9050919050565b6000819050919050565b61272861272382611da3565b61270d565b82525050565b60008160601b9050919050565b60006127468261272e565b9050919050565b60006127588261273b565b9050919050565b61277061276b82611d38565b61274d565b82525050565b60006127828288612717565b6020820191506127928287612717565b6020820191506127a2828661275f565b6014820191506127b28285612717565b6020820191506127c28284612717565b6020820191508190509695505050505050565b7f4e487b7100000000000000000000000000000000000000000000000000000000600052601260045260246000fd5b600061280f82611da3565b915061281a83611da3565b92508261282a576128296127d5565b5b828206905092915050565b600061284082611da3565b91507fffffffffffffffffffffffffffffffffffffffffffffffffffffffffffffffff8203612872576128716123b5565b5b600182019050919050565b600061288882611bb5565b91506000820361289b5761289a6123b5565b5b600182039050919050565b7f4e6f2076616c6964207365676d656e747320617661696c61626c65206166746560008201527f7220333020617474656d70747300000000000000000000000000000000000000602082015250565b6000612902602d83612280565b915061290d826128a6565b604082019050919050565b60006020820190508181036000830152612931816128f5565b9050919050565b600061294382611bb5565b915067ffffffffffffffff820361295d5761295c6123b5565b5b600182019050919050565b6000819050919050565b600061298d61298861298384611c87565b612968565b611da3565b9050919050565b61299d81612972565b82525050565b60006060820190506129b86000830186612994565b6129c56020830185611dad565b6129d26040830184611dad565b94935050505056fea264697066735822122041c9a29761f47f94577829305f04f1b72fc5678c14aa2448e819b6d0fa6c8f9a64736f6c63430008180033","opcodes":"PUSH1 0x80 PUSH1 0x40 MSTORE CALLVALUE DUP1 ISZERO PUSH3 0x11 JUMPI PUSH1 0x0 DUP1 REVERT JUMPDEST POP PUSH1 0x40 MLOAD PUSH3 0x2D02 CODESIZE SUB DUP1 PUSH3 0x2D02 DUP4 CODECOPY DUP2 DUP2 ADD PUSH1 0x40 MSTORE DUP2 ADD SWAP1 PUSH3 0x37 SWAP2 SWAP1 PUSH3 0x286 JUMP JUMPDEST PUSH1 0x1 DUP1 DUP2 SWAP1 SSTORE POP PUSH3 0x53 PUSH1 0x0 DUP1 SHL CALLER PUSH3 0xDB PUSH1 0x20 SHL PUSH1 0x20 SHR JUMP JUMPDEST PUSH1 0x0 PUSH1 0x8 PUSH1 0x0 PUSH2 0x100 EXP DUP2 SLOAD DUP2 PUSH1 0xFF MUL NOT AND SWAP1 DUP4 ISZERO ISZERO MUL OR SWAP1 SSTORE POP DUP3 PUSH1 0x2 PUSH1 0x0 PUSH2 0x100 EXP DUP2 SLOAD DUP2 PUSH2 0xFFFF MUL NOT AND SWAP1 DUP4 PUSH2 0xFFFF AND MUL OR SWAP1 SSTORE POP DUP2 PUSH1 0x2 DUP1 PUSH2 0x100 EXP DUP2 SLOAD DUP2 PUSH20 0xFFFFFFFFFFFFFFFFFFFFFFFFFFFFFFFFFFFFFFFF MUL NOT AND SWAP1 DUP4 PUSH20 0xFFFFFFFFFFFFFFFFFFFFFFFFFFFFFFFFFFFFFFFF AND MUL OR SWAP1 SSTORE POP DUP1 PUSH1 0x3 DUP2 SWAP1 SSTORE POP POP POP POP PUSH3 0x2E2 JUMP JUMPDEST PUSH1 0x1 PUSH1 0x0 DUP1 DUP5 DUP2 MSTORE PUSH1 0x20 ADD SWAP1 DUP2 MSTORE PUSH1 0x20 ADD PUSH1 0x0 KECCAK256 PUSH1 0x0 DUP4 PUSH20 0xFFFFFFFFFFFFFFFFFFFFFFFFFFFFFFFFFFFFFFFF AND PUSH20 0xFFFFFFFFFFFFFFFFFFFFFFFFFFFFFFFFFFFFFFFF AND DUP2 MSTORE PUSH1 0x20 ADD SWAP1 DUP2 MSTORE PUSH1 0x20 ADD PUSH1 0x0 KECCAK256 PUSH1 0x0 PUSH2 0x100 EXP DUP2 SLOAD DUP2 PUSH1 0xFF MUL NOT AND SWAP1 DUP4 ISZERO ISZERO MUL OR SWAP1 SSTORE POP CALLER PUSH20 0xFFFFFFFFFFFFFFFFFFFFFFFFFFFFFFFFFFFFFFFF AND DUP2 PUSH20 0xFFFFFFFFFFFFFFFFFFFFFFFFFFFFFFFFFFFFFFFF AND DUP4 PUSH32 0x2F8788117E7EFF1D82E926EC794901D17C78024A50270940304540A733656F0D PUSH1 0x40 MLOAD PUSH1 0x40 MLOAD DUP1 SWAP2 SUB SWAP1 LOG4 POP POP JUMP JUMPDEST PUSH1 0x0 DUP1 REVERT JUMPDEST PUSH1 0x0 PUSH2 0xFFFF DUP3 AND SWAP1 POP SWAP2 SWAP1 POP JUMP JUMPDEST PUSH3 0x1C0 DUP2 PUSH3 0x1A7 JUMP JUMPDEST DUP2 EQ PUSH3 0x1CC JUMPI PUSH1 0x0 DUP1 REVERT JUMPDEST POP JUMP JUMPDEST PUSH1 0x0 DUP2 MLOAD SWAP1 POP PUSH3 0x1E0 DUP2 PUSH3 0x1B5 JUMP JUMPDEST SWAP3 SWAP2 POP POP JUMP JUMPDEST PUSH1 0x0 PUSH20 0xFFFFFFFFFFFFFFFFFFFFFFFFFFFFFFFFFFFFFFFF DUP3 AND SWAP1 POP SWAP2 SWAP1 POP JUMP JUMPDEST PUSH1 0x0 PUSH3 0x213 DUP3 PUSH3 0x1E6 JUMP JUMPDEST SWAP1 POP SWAP2 SWAP1 POP JUMP JUMPDEST PUSH3 0x225 DUP2 PUSH3 0x206 JUMP JUMPDEST DUP2 EQ PUSH3 0x231 JUMPI PUSH1 0x0 DUP1 REVERT JUMPDEST POP JUMP JUMPDEST PUSH1 0x0 DUP2 MLOAD SWAP1 POP PUSH3 0x245 DUP2 PUSH3 0x21A JUMP JUMPDEST SWAP3 SWAP2 POP POP JUMP JUMPDEST PUSH1 0x0 DUP2 SWAP1 POP SWAP2 SWAP1 POP JUMP JUMPDEST PUSH3 0x260 DUP2 PUSH3 0x24B JUMP JUMPDEST DUP2 EQ PUSH3 0x26C JUMPI PUSH1 0x0 DUP1 REVERT JUMPDEST POP JUMP JUMPDEST PUSH1 0x0 DUP2 MLOAD SWAP1 POP PUSH3 0x280 DUP2 PUSH3 0x255 JUMP JUMPDEST SWAP3 SWAP2 POP POP JUMP JUMPDEST PUSH1 0x0 DUP1 PUSH1 0x0 PUSH1 0x60 DUP5 DUP7 SUB SLT ISZERO PUSH3 0x2A2 JUMPI PUSH3 0x2A1 PUSH3 0x1A2 JUMP JUMPDEST JUMPDEST PUSH1 0x0 PUSH3 0x2B2 DUP7 DUP3 DUP8 ADD PUSH3 0x1CF JUMP JUMPDEST SWAP4 POP POP PUSH1 0x20 PUSH3 0x2C5 DUP7 DUP3 DUP8 ADD PUSH3 0x234 JUMP JUMPDEST SWAP3 POP POP PUSH1 0x40 PUSH3 0x2D8 DUP7 DUP3 DUP8 ADD PUSH3 0x26F JUMP JUMPDEST SWAP2 POP POP SWAP3 POP SWAP3 POP SWAP3 JUMP JUMPDEST PUSH2 0x2A10 DUP1 PUSH3 0x2F2 PUSH1 0x0 CODECOPY PUSH1 0x0 RETURN INVALID PUSH1 0x80 PUSH1 0x40 MSTORE PUSH1 0x4 CALLDATASIZE LT PUSH2 0x1E3 JUMPI PUSH1 0x0 CALLDATALOAD PUSH1 0xE0 SHR DUP1 PUSH4 0x901B2036 GT PUSH2 0x102 JUMPI DUP1 PUSH4 0xCC40A8CA GT PUSH2 0x95 JUMPI DUP1 PUSH4 0xF3E67610 GT PUSH2 0x64 JUMPI DUP1 PUSH4 0xF3E67610 EQ PUSH2 0x724 JUMPI DUP1 PUSH4 0xFAE2AC1E EQ PUSH2 0x74F JUMPI DUP1 PUSH4 0xFC341736 EQ PUSH2 0x778 JUMPI DUP1 PUSH4 0xFE8E1DC2 EQ PUSH2 0x7A3 JUMPI PUSH2 0x1E3 JUMP JUMPDEST DUP1 PUSH4 0xCC40A8CA EQ PUSH2 0x667 JUMPI DUP1 PUSH4 0xD547741F EQ PUSH2 0x692 JUMPI DUP1 PUSH4 0xD96CFF32 EQ PUSH2 0x6BB JUMPI DUP1 PUSH4 0xF0ACD7D5 EQ PUSH2 0x6F8 JUMPI PUSH2 0x1E3 JUMP JUMPDEST DUP1 PUSH4 0xAAF5EB68 GT PUSH2 0xD1 JUMPI DUP1 PUSH4 0xAAF5EB68 EQ PUSH2 0x5BF JUMPI DUP1 PUSH4 0xACEC338A EQ PUSH2 0x5EA JUMPI DUP1 PUSH4 0xBC17530A EQ PUSH2 0x613 JUMPI DUP1 PUSH4 0xBC4AF01B EQ PUSH2 0x63C JUMPI PUSH2 0x1E3 JUMP JUMPDEST DUP1 PUSH4 0x901B2036 EQ PUSH2 0x4F1 JUMPI DUP1 PUSH4 0x91D14854 EQ PUSH2 0x51C JUMPI DUP1 PUSH4 0x95EE1217 EQ PUSH2 0x559 JUMPI DUP1 PUSH4 0xA6794C7C EQ PUSH2 0x582 JUMPI PUSH2 0x1E3 JUMP JUMPDEST DUP1 PUSH4 0x59F96F8E GT PUSH2 0x17A JUMPI DUP1 PUSH4 0x75B238FC GT PUSH2 0x149 JUMPI DUP1 PUSH4 0x75B238FC EQ PUSH2 0x421 JUMPI DUP1 PUSH4 0x79081D9D EQ PUSH2 0x44C JUMPI DUP1 PUSH4 0x8ACF974D EQ PUSH2 0x489 JUMPI DUP1 PUSH4 0x8EA1F363 EQ PUSH2 0x4C6 JUMPI PUSH2 0x1E3 JUMP JUMPDEST DUP1 PUSH4 0x59F96F8E EQ PUSH2 0x372 JUMPI DUP1 PUSH4 0x5F16B518 EQ PUSH2 0x37C JUMPI DUP1 PUSH4 0x656C0EAD EQ PUSH2 0x3A7 JUMPI DUP1 PUSH4 0x6CD6E4CF EQ PUSH2 0x3E4 JUMPI PUSH2 0x1E3 JUMP JUMPDEST DUP1 PUSH4 0x21DBC5BF GT PUSH2 0x1B6 JUMPI DUP1 PUSH4 0x21DBC5BF EQ PUSH2 0x2B6 JUMPI DUP1 PUSH4 0x22F3E2D4 EQ PUSH2 0x2F3 JUMPI DUP1 PUSH4 0x2F2FF15D EQ PUSH2 0x31E JUMPI DUP1 PUSH4 0x4DB33BA2 EQ PUSH2 0x347 JUMPI PUSH2 0x1E3 JUMP JUMPDEST DUP1 PUSH4 0x62F7B8C EQ PUSH2 0x1E8 JUMPI DUP1 PUSH4 0x661939D EQ PUSH2 0x213 JUMPI DUP1 PUSH4 0x1039B1D9 EQ PUSH2 0x250 JUMPI DUP1 PUSH4 0x1DC2A488 EQ PUSH2 0x28D JUMPI JUMPDEST PUSH1 0x0 DUP1 REVERT JUMPDEST CALLVALUE DUP1 ISZERO PUSH2 0x1F4 JUMPI PUSH1 0x0 DUP1 REVERT JUMPDEST POP PUSH2 0x1FD PUSH2 0x7E0 JUMP JUMPDEST PUSH1 0x40 MLOAD PUSH2 0x20A SWAP2 SWAP1 PUSH2 0x1C5B JUMP JUMPDEST PUSH1 0x40 MLOAD DUP1 SWAP2 SUB SWAP1 RETURN JUMPDEST CALLVALUE DUP1 ISZERO PUSH2 0x21F JUMPI PUSH1 0x0 DUP1 REVERT JUMPDEST POP PUSH2 0x23A PUSH1 0x4 DUP1 CALLDATASIZE SUB DUP2 ADD SWAP1 PUSH2 0x235 SWAP2 SWAP1 PUSH2 0x1CC1 JUMP JUMPDEST PUSH2 0x8DE JUMP JUMPDEST PUSH1 0x40 MLOAD PUSH2 0x247 SWAP2 SWAP1 PUSH2 0x1CFD JUMP JUMPDEST PUSH1 0x40 MLOAD DUP1 SWAP2 SUB SWAP1 RETURN JUMPDEST CALLVALUE DUP1 ISZERO PUSH2 0x25C JUMPI PUSH1 0x0 DUP1 REVERT JUMPDEST POP PUSH2 0x277 PUSH1 0x4 DUP1 CALLDATASIZE SUB DUP2 ADD SWAP1 PUSH2 0x272 SWAP2 SWAP1 PUSH2 0x1D76 JUMP JUMPDEST PUSH2 0x905 JUMP JUMPDEST PUSH1 0x40 MLOAD PUSH2 0x284 SWAP2 SWAP1 PUSH2 0x1DBC JUMP JUMPDEST PUSH1 0x40 MLOAD DUP1 SWAP2 SUB SWAP1 RETURN JUMPDEST CALLVALUE DUP1 ISZERO PUSH2 0x299 JUMPI PUSH1 0x0 DUP1 REVERT JUMPDEST POP PUSH2 0x2B4 PUSH1 0x4 DUP1 CALLDATASIZE SUB DUP2 ADD SWAP1 PUSH2 0x2AF SWAP2 SWAP1 PUSH2 0x1D76 JUMP JUMPDEST PUSH2 0x94E JUMP JUMPDEST STOP JUMPDEST CALLVALUE DUP1 ISZERO PUSH2 0x2C2 JUMPI PUSH1 0x0 DUP1 REVERT JUMPDEST POP PUSH2 0x2DD PUSH1 0x4 DUP1 CALLDATASIZE SUB DUP2 ADD SWAP1 PUSH2 0x2D8 SWAP2 SWAP1 PUSH2 0x1CC1 JUMP JUMPDEST PUSH2 0x9DF JUMP JUMPDEST PUSH1 0x40 MLOAD PUSH2 0x2EA SWAP2 SWAP1 PUSH2 0x1CFD JUMP JUMPDEST PUSH1 0x40 MLOAD DUP1 SWAP2 SUB SWAP1 RETURN JUMPDEST CALLVALUE DUP1 ISZERO PUSH2 0x2FF JUMPI PUSH1 0x0 DUP1 REVERT JUMPDEST POP PUSH2 0x308 PUSH2 0xA06 JUMP JUMPDEST PUSH1 0x40 MLOAD PUSH2 0x315 SWAP2 SWAP1 PUSH2 0x1DF2 JUMP JUMPDEST PUSH1 0x40 MLOAD DUP1 SWAP2 SUB SWAP1 RETURN JUMPDEST CALLVALUE DUP1 ISZERO PUSH2 0x32A JUMPI PUSH1 0x0 DUP1 REVERT JUMPDEST POP PUSH2 0x345 PUSH1 0x4 DUP1 CALLDATASIZE SUB DUP2 ADD SWAP1 PUSH2 0x340 SWAP2 SWAP1 PUSH2 0x1E43 JUMP JUMPDEST PUSH2 0xA19 JUMP JUMPDEST STOP JUMPDEST CALLVALUE DUP1 ISZERO PUSH2 0x353 JUMPI PUSH1 0x0 DUP1 REVERT JUMPDEST POP PUSH2 0x35C PUSH2 0xA75 JUMP JUMPDEST PUSH1 0x40 MLOAD PUSH2 0x369 SWAP2 SWAP1 PUSH2 0x1DBC JUMP JUMPDEST PUSH1 0x40 MLOAD DUP1 SWAP2 SUB SWAP1 RETURN JUMPDEST PUSH2 0x37A PUSH2 0xA7B JUMP JUMPDEST STOP JUMPDEST CALLVALUE DUP1 ISZERO PUSH2 0x388 JUMPI PUSH1 0x0 DUP1 REVERT JUMPDEST POP PUSH2 0x391 PUSH2 0xBD9 JUMP JUMPDEST PUSH1 0x40 MLOAD PUSH2 0x39E SWAP2 SWAP1 PUSH2 0x1C5B JUMP JUMPDEST PUSH1 0x40 MLOAD DUP1 SWAP2 SUB SWAP1 RETURN JUMPDEST CALLVALUE DUP1 ISZERO PUSH2 0x3B3 JUMPI PUSH1 0x0 DUP1 REVERT JUMPDEST POP PUSH2 0x3CE PUSH1 0x4 DUP1 CALLDATASIZE SUB DUP2 ADD SWAP1 PUSH2 0x3C9 SWAP2 SWAP1 PUSH2 0x1D76 JUMP JUMPDEST PUSH2 0xCD7 JUMP JUMPDEST PUSH1 0x40 MLOAD PUSH2 0x3DB SWAP2 SWAP1 PUSH2 0x1CFD JUMP JUMPDEST PUSH1 0x40 MLOAD DUP1 SWAP2 SUB SWAP1 RETURN JUMPDEST CALLVALUE DUP1 ISZERO PUSH2 0x3F0 JUMPI PUSH1 0x0 DUP1 REVERT JUMPDEST POP PUSH2 0x40B PUSH1 0x4 DUP1 CALLDATASIZE SUB DUP2 ADD SWAP1 PUSH2 0x406 SWAP2 SWAP1 PUSH2 0x1D76 JUMP JUMPDEST PUSH2 0xD34 JUMP JUMPDEST PUSH1 0x40 MLOAD PUSH2 0x418 SWAP2 SWAP1 PUSH2 0x1CFD JUMP JUMPDEST PUSH1 0x40 MLOAD DUP1 SWAP2 SUB SWAP1 RETURN JUMPDEST CALLVALUE DUP1 ISZERO PUSH2 0x42D JUMPI PUSH1 0x0 DUP1 REVERT JUMPDEST POP PUSH2 0x436 PUSH2 0xD5B JUMP JUMPDEST PUSH1 0x40 MLOAD PUSH2 0x443 SWAP2 SWAP1 PUSH2 0x1E92 JUMP JUMPDEST PUSH1 0x40 MLOAD DUP1 SWAP2 SUB SWAP1 RETURN JUMPDEST CALLVALUE DUP1 ISZERO PUSH2 0x458 JUMPI PUSH1 0x0 DUP1 REVERT JUMPDEST POP PUSH2 0x473 PUSH1 0x4 DUP1 CALLDATASIZE SUB DUP2 ADD SWAP1 PUSH2 0x46E SWAP2 SWAP1 PUSH2 0x1D76 JUMP JUMPDEST PUSH2 0xD62 JUMP JUMPDEST PUSH1 0x40 MLOAD PUSH2 0x480 SWAP2 SWAP1 PUSH2 0x1F6B JUMP JUMPDEST PUSH1 0x40 MLOAD DUP1 SWAP2 SUB SWAP1 RETURN JUMPDEST CALLVALUE DUP1 ISZERO PUSH2 0x495 JUMPI PUSH1 0x0 DUP1 REVERT JUMPDEST POP PUSH2 0x4B0 PUSH1 0x4 DUP1 CALLDATASIZE SUB DUP2 ADD SWAP1 PUSH2 0x4AB SWAP2 SWAP1 PUSH2 0x1CC1 JUMP JUMPDEST PUSH2 0xE77 JUMP JUMPDEST PUSH1 0x40 MLOAD PUSH2 0x4BD SWAP2 SWAP1 PUSH2 0x1CFD JUMP JUMPDEST PUSH1 0x40 MLOAD DUP1 SWAP2 SUB SWAP1 RETURN JUMPDEST CALLVALUE DUP1 ISZERO PUSH2 0x4D2 JUMPI PUSH1 0x0 DUP1 REVERT JUMPDEST POP PUSH2 0x4DB PUSH2 0xE9E JUMP JUMPDEST PUSH1 0x40 MLOAD PUSH2 0x4E8 SWAP2 SWAP1 PUSH2 0x1F9C JUMP JUMPDEST PUSH1 0x40 MLOAD DUP1 SWAP2 SUB SWAP1 RETURN JUMPDEST CALLVALUE DUP1 ISZERO PUSH2 0x4FD JUMPI PUSH1 0x0 DUP1 REVERT JUMPDEST POP PUSH2 0x506 PUSH2 0xEB2 JUMP JUMPDEST PUSH1 0x40 MLOAD PUSH2 0x513 SWAP2 SWAP1 PUSH2 0x1DBC JUMP JUMPDEST PUSH1 0x40 MLOAD DUP1 SWAP2 SUB SWAP1 RETURN JUMPDEST CALLVALUE DUP1 ISZERO PUSH2 0x528 JUMPI PUSH1 0x0 DUP1 REVERT JUMPDEST POP PUSH2 0x543 PUSH1 0x4 DUP1 CALLDATASIZE SUB DUP2 ADD SWAP1 PUSH2 0x53E SWAP2 SWAP1 PUSH2 0x1E43 JUMP JUMPDEST PUSH2 0xEB8 JUMP JUMPDEST PUSH1 0x40 MLOAD PUSH2 0x550 SWAP2 SWAP1 PUSH2 0x1DF2 JUMP JUMPDEST PUSH1 0x40 MLOAD DUP1 SWAP2 SUB SWAP1 RETURN JUMPDEST CALLVALUE DUP1 ISZERO PUSH2 0x565 JUMPI PUSH1 0x0 DUP1 REVERT JUMPDEST POP PUSH2 0x580 PUSH1 0x4 DUP1 CALLDATASIZE SUB DUP2 ADD SWAP1 PUSH2 0x57B SWAP2 SWAP1 PUSH2 0x201C JUMP JUMPDEST PUSH2 0xF1F JUMP JUMPDEST STOP JUMPDEST CALLVALUE DUP1 ISZERO PUSH2 0x58E JUMPI PUSH1 0x0 DUP1 REVERT JUMPDEST POP PUSH2 0x5A9 PUSH1 0x4 DUP1 CALLDATASIZE SUB DUP2 ADD SWAP1 PUSH2 0x5A4 SWAP2 SWAP1 PUSH2 0x209D JUMP JUMPDEST PUSH2 0x11AD JUMP JUMPDEST PUSH1 0x40 MLOAD PUSH2 0x5B6 SWAP2 SWAP1 PUSH2 0x1DBC JUMP JUMPDEST PUSH1 0x40 MLOAD DUP1 SWAP2 SUB SWAP1 RETURN JUMPDEST CALLVALUE DUP1 ISZERO PUSH2 0x5CB JUMPI PUSH1 0x0 DUP1 REVERT JUMPDEST POP PUSH2 0x5D4 PUSH2 0x120C JUMP JUMPDEST PUSH1 0x40 MLOAD PUSH2 0x5E1 SWAP2 SWAP1 PUSH2 0x1DBC JUMP JUMPDEST PUSH1 0x40 MLOAD DUP1 SWAP2 SUB SWAP1 RETURN JUMPDEST CALLVALUE DUP1 ISZERO PUSH2 0x5F6 JUMPI PUSH1 0x0 DUP1 REVERT JUMPDEST POP PUSH2 0x611 PUSH1 0x4 DUP1 CALLDATASIZE SUB DUP2 ADD SWAP1 PUSH2 0x60C SWAP2 SWAP1 PUSH2 0x2109 JUMP JUMPDEST PUSH2 0x1218 JUMP JUMPDEST STOP JUMPDEST CALLVALUE DUP1 ISZERO PUSH2 0x61F JUMPI PUSH1 0x0 DUP1 REVERT JUMPDEST POP PUSH2 0x63A PUSH1 0x4 DUP1 CALLDATASIZE SUB DUP2 ADD SWAP1 PUSH2 0x635 SWAP2 SWAP1 PUSH2 0x1CC1 JUMP JUMPDEST PUSH2 0x1283 JUMP JUMPDEST STOP JUMPDEST CALLVALUE DUP1 ISZERO PUSH2 0x648 JUMPI PUSH1 0x0 DUP1 REVERT JUMPDEST POP PUSH2 0x651 PUSH2 0x1338 JUMP JUMPDEST PUSH1 0x40 MLOAD PUSH2 0x65E SWAP2 SWAP1 PUSH2 0x1C5B JUMP JUMPDEST PUSH1 0x40 MLOAD DUP1 SWAP2 SUB SWAP1 RETURN JUMPDEST CALLVALUE DUP1 ISZERO PUSH2 0x673 JUMPI PUSH1 0x0 DUP1 REVERT JUMPDEST POP PUSH2 0x67C PUSH2 0x1436 JUMP JUMPDEST PUSH1 0x40 MLOAD PUSH2 0x689 SWAP2 SWAP1 PUSH2 0x1DBC JUMP JUMPDEST PUSH1 0x40 MLOAD DUP1 SWAP2 SUB SWAP1 RETURN JUMPDEST CALLVALUE DUP1 ISZERO PUSH2 0x69E JUMPI PUSH1 0x0 DUP1 REVERT JUMPDEST POP PUSH2 0x6B9 PUSH1 0x4 DUP1 CALLDATASIZE SUB DUP2 ADD SWAP1 PUSH2 0x6B4 SWAP2 SWAP1 PUSH2 0x1E43 JUMP JUMPDEST PUSH2 0x143D JUMP JUMPDEST STOP JUMPDEST CALLVALUE DUP1 ISZERO PUSH2 0x6C7 JUMPI PUSH1 0x0 DUP1 REVERT JUMPDEST POP PUSH2 0x6E2 PUSH1 0x4 DUP1 CALLDATASIZE SUB DUP2 ADD SWAP1 PUSH2 0x6DD SWAP2 SWAP1 PUSH2 0x1D76 JUMP JUMPDEST PUSH2 0x1499 JUMP JUMPDEST PUSH1 0x40 MLOAD PUSH2 0x6EF SWAP2 SWAP1 PUSH2 0x1DBC JUMP JUMPDEST PUSH1 0x40 MLOAD DUP1 SWAP2 SUB SWAP1 RETURN JUMPDEST CALLVALUE DUP1 ISZERO PUSH2 0x704 JUMPI PUSH1 0x0 DUP1 REVERT JUMPDEST POP PUSH2 0x70D PUSH2 0x14B1 JUMP JUMPDEST PUSH1 0x40 MLOAD PUSH2 0x71B SWAP3 SWAP2 SWAP1 PUSH2 0x2136 JUMP JUMPDEST PUSH1 0x40 MLOAD DUP1 SWAP2 SUB SWAP1 RETURN JUMPDEST CALLVALUE DUP1 ISZERO PUSH2 0x730 JUMPI PUSH1 0x0 DUP1 REVERT JUMPDEST POP PUSH2 0x739 PUSH2 0x18F4 JUMP JUMPDEST PUSH1 0x40 MLOAD PUSH2 0x746 SWAP2 SWAP1 PUSH2 0x1DF2 JUMP JUMPDEST PUSH1 0x40 MLOAD DUP1 SWAP2 SUB SWAP1 RETURN JUMPDEST CALLVALUE DUP1 ISZERO PUSH2 0x75B JUMPI PUSH1 0x0 DUP1 REVERT JUMPDEST POP PUSH2 0x776 PUSH1 0x4 DUP1 CALLDATASIZE SUB DUP2 ADD SWAP1 PUSH2 0x771 SWAP2 SWAP1 PUSH2 0x218B JUMP JUMPDEST PUSH2 0x190B JUMP JUMPDEST STOP JUMPDEST CALLVALUE DUP1 ISZERO PUSH2 0x784 JUMPI PUSH1 0x0 DUP1 REVERT JUMPDEST POP PUSH2 0x78D PUSH2 0x1963 JUMP JUMPDEST PUSH1 0x40 MLOAD PUSH2 0x79A SWAP2 SWAP1 PUSH2 0x21C7 JUMP JUMPDEST PUSH1 0x40 MLOAD DUP1 SWAP2 SUB SWAP1 RETURN JUMPDEST CALLVALUE DUP1 ISZERO PUSH2 0x7AF JUMPI PUSH1 0x0 DUP1 REVERT JUMPDEST POP PUSH2 0x7CA PUSH1 0x4 DUP1 CALLDATASIZE SUB DUP2 ADD SWAP1 PUSH2 0x7C5 SWAP2 SWAP1 PUSH2 0x21E2 JUMP JUMPDEST PUSH2 0x1987 JUMP JUMPDEST PUSH1 0x40 MLOAD PUSH2 0x7D7 SWAP2 SWAP1 PUSH2 0x1DBC JUMP JUMPDEST PUSH1 0x40 MLOAD DUP1 SWAP2 SUB SWAP1 RETURN JUMPDEST PUSH1 0x60 PUSH1 0x2 PUSH1 0x0 SWAP1 SLOAD SWAP1 PUSH2 0x100 EXP SWAP1 DIV PUSH2 0xFFFF AND PUSH2 0xFFFF AND PUSH8 0xFFFFFFFFFFFFFFFF DUP2 GT ISZERO PUSH2 0x810 JUMPI PUSH2 0x80F PUSH2 0x2222 JUMP JUMPDEST JUMPDEST PUSH1 0x40 MLOAD SWAP1 DUP1 DUP3 MSTORE DUP1 PUSH1 0x20 MUL PUSH1 0x20 ADD DUP3 ADD PUSH1 0x40 MSTORE DUP1 ISZERO PUSH2 0x83E JUMPI DUP2 PUSH1 0x20 ADD PUSH1 0x20 DUP3 MUL DUP1 CALLDATASIZE DUP4 CALLDATACOPY DUP1 DUP3 ADD SWAP2 POP POP SWAP1 POP JUMPDEST POP SWAP1 POP PUSH1 0x0 JUMPDEST PUSH1 0x2 PUSH1 0x0 SWAP1 SLOAD SWAP1 PUSH2 0x100 EXP SWAP1 DIV PUSH2 0xFFFF AND PUSH2 0xFFFF AND DUP2 PUSH2 0xFFFF AND LT ISZERO PUSH2 0x8DA JUMPI PUSH1 0x6 PUSH1 0x0 DUP3 PUSH2 0xFFFF AND PUSH2 0xFFFF AND DUP2 MSTORE PUSH1 0x20 ADD SWAP1 DUP2 MSTORE PUSH1 0x20 ADD PUSH1 0x0 KECCAK256 PUSH1 0x0 SWAP1 SLOAD SWAP1 PUSH2 0x100 EXP SWAP1 DIV PUSH8 0xFFFFFFFFFFFFFFFF AND DUP3 DUP3 PUSH2 0xFFFF AND DUP2 MLOAD DUP2 LT PUSH2 0x8AB JUMPI PUSH2 0x8AA PUSH2 0x2251 JUMP JUMPDEST JUMPDEST PUSH1 0x20 MUL PUSH1 0x20 ADD ADD SWAP1 PUSH8 0xFFFFFFFFFFFFFFFF AND SWAP1 DUP2 PUSH8 0xFFFFFFFFFFFFFFFF AND DUP2 MSTORE POP POP DUP1 DUP1 PUSH1 0x1 ADD SWAP2 POP POP PUSH2 0x844 JUMP JUMPDEST POP SWAP1 JUMP JUMPDEST PUSH1 0x4 PUSH1 0x20 MSTORE DUP1 PUSH1 0x0 MSTORE PUSH1 0x40 PUSH1 0x0 KECCAK256 PUSH1 0x0 SWAP2 POP SLOAD SWAP1 PUSH2 0x100 EXP SWAP1 DIV PUSH8 0xFFFFFFFFFFFFFFFF AND DUP2 JUMP JUMPDEST PUSH1 0x0 PUSH1 0x9 PUSH1 0x0 DUP4 PUSH20 0xFFFFFFFFFFFFFFFFFFFFFFFFFFFFFFFFFFFFFFFF AND PUSH20 0xFFFFFFFFFFFFFFFFFFFFFFFFFFFFFFFFFFFFFFFF AND DUP2 MSTORE PUSH1 0x20 ADD SWAP1 DUP2 MSTORE PUSH1 0x20 ADD PUSH1 0x0 KECCAK256 SLOAD SWAP1 POP SWAP2 SWAP1 POP JUMP JUMPDEST PUSH1 0x0 DUP1 SHL PUSH2 0x95C DUP2 CALLER PUSH2 0xEB8 JUMP JUMPDEST PUSH2 0x99B JUMPI PUSH1 0x40 MLOAD PUSH32 0x8C379A000000000000000000000000000000000000000000000000000000000 DUP2 MSTORE PUSH1 0x4 ADD PUSH2 0x992 SWAP1 PUSH2 0x2303 JUMP JUMPDEST PUSH1 0x40 MLOAD DUP1 SWAP2 SUB SWAP1 REVERT JUMPDEST DUP2 PUSH1 0x2 DUP1 PUSH2 0x100 EXP DUP2 SLOAD DUP2 PUSH20 0xFFFFFFFFFFFFFFFFFFFFFFFFFFFFFFFFFFFFFFFF MUL NOT AND SWAP1 DUP4 PUSH20 0xFFFFFFFFFFFFFFFFFFFFFFFFFFFFFFFFFFFFFFFF AND MUL OR SWAP1 SSTORE POP POP POP JUMP JUMPDEST PUSH1 0x6 PUSH1 0x20 MSTORE DUP1 PUSH1 0x0 MSTORE PUSH1 0x40 PUSH1 0x0 KECCAK256 PUSH1 0x0 SWAP2 POP SLOAD SWAP1 PUSH2 0x100 EXP SWAP1 DIV PUSH8 0xFFFFFFFFFFFFFFFF AND DUP2 JUMP JUMPDEST PUSH1 0x8 PUSH1 0x0 SWAP1 SLOAD SWAP1 PUSH2 0x100 EXP SWAP1 DIV PUSH1 0xFF AND DUP2 JUMP JUMPDEST PUSH1 0x0 DUP1 SHL PUSH2 0xA27 DUP2 CALLER PUSH2 0xEB8 JUMP JUMPDEST PUSH2 0xA66 JUMPI PUSH1 0x40 MLOAD PUSH32 0x8C379A000000000000000000000000000000000000000000000000000000000 DUP2 MSTORE PUSH1 0x4 ADD PUSH2 0xA5D SWAP1 PUSH2 0x2303 JUMP JUMPDEST PUSH1 0x40 MLOAD DUP1 SWAP2 SUB SWAP1 REVERT JUMPDEST PUSH2 0xA70 DUP4 DUP4 PUSH2 0x19AC JUMP JUMPDEST POP POP POP JUMP JUMPDEST PUSH1 0x3 SLOAD DUP2 JUMP JUMPDEST PUSH1 0x1 CALLVALUE LT ISZERO PUSH2 0xABF JUMPI PUSH1 0x40 MLOAD PUSH32 0x8C379A000000000000000000000000000000000000000000000000000000000 DUP2 MSTORE PUSH1 0x4 ADD PUSH2 0xAB6 SWAP1 PUSH2 0x2395 JUMP JUMPDEST PUSH1 0x40 MLOAD DUP1 SWAP2 SUB SWAP1 REVERT JUMPDEST CALLVALUE PUSH1 0x3 SLOAD PUSH2 0xACD SWAP2 SWAP1 PUSH2 0x23E4 JUMP JUMPDEST PUSH1 0x9 PUSH1 0x0 CALLER PUSH20 0xFFFFFFFFFFFFFFFFFFFFFFFFFFFFFFFFFFFFFFFF AND PUSH20 0xFFFFFFFFFFFFFFFFFFFFFFFFFFFFFFFFFFFFFFFF AND DUP2 MSTORE PUSH1 0x20 ADD SWAP1 DUP2 MSTORE PUSH1 0x20 ADD PUSH1 0x0 KECCAK256 PUSH1 0x0 DUP3 DUP3 SLOAD PUSH2 0xB1B SWAP2 SWAP1 PUSH2 0x2426 JUMP JUMPDEST SWAP3 POP POP DUP2 SWAP1 SSTORE POP PUSH1 0x2 DUP1 SLOAD SWAP1 PUSH2 0x100 EXP SWAP1 DIV PUSH20 0xFFFFFFFFFFFFFFFFFFFFFFFFFFFFFFFFFFFFFFFF AND PUSH20 0xFFFFFFFFFFFFFFFFFFFFFFFFFFFFFFFFFFFFFFFF AND PUSH2 0x8FC CALLVALUE SWAP1 DUP2 ISZERO MUL SWAP1 PUSH1 0x40 MLOAD PUSH1 0x0 PUSH1 0x40 MLOAD DUP1 DUP4 SUB DUP2 DUP6 DUP9 DUP9 CALL SWAP4 POP POP POP POP ISZERO DUP1 ISZERO PUSH2 0xB88 JUMPI RETURNDATASIZE PUSH1 0x0 DUP1 RETURNDATACOPY RETURNDATASIZE PUSH1 0x0 REVERT JUMPDEST POP CALLER PUSH20 0xFFFFFFFFFFFFFFFFFFFFFFFFFFFFFFFFFFFFFFFF AND PUSH32 0x4509B2A09614C8293787820E24F9F20FC70F381A55440471B3ACE0C0EDF20A5D CALLVALUE PUSH1 0x40 MLOAD PUSH2 0xBCF SWAP2 SWAP1 PUSH2 0x1DBC JUMP JUMPDEST PUSH1 0x40 MLOAD DUP1 SWAP2 SUB SWAP1 LOG2 JUMP JUMPDEST PUSH1 0x60 PUSH1 0x2 PUSH1 0x0 SWAP1 SLOAD SWAP1 PUSH2 0x100 EXP SWAP1 DIV PUSH2 0xFFFF AND PUSH2 0xFFFF AND PUSH8 0xFFFFFFFFFFFFFFFF DUP2 GT ISZERO PUSH2 0xC09 JUMPI PUSH2 0xC08 PUSH2 0x2222 JUMP JUMPDEST JUMPDEST PUSH1 0x40 MLOAD SWAP1 DUP1 DUP3 MSTORE DUP1 PUSH1 0x20 MUL PUSH1 0x20 ADD DUP3 ADD PUSH1 0x40 MSTORE DUP1 ISZERO PUSH2 0xC37 JUMPI DUP2 PUSH1 0x20 ADD PUSH1 0x20 DUP3 MUL DUP1 CALLDATASIZE DUP4 CALLDATACOPY DUP1 DUP3 ADD SWAP2 POP POP SWAP1 POP JUMPDEST POP SWAP1 POP PUSH1 0x0 JUMPDEST PUSH1 0x2 PUSH1 0x0 SWAP1 SLOAD SWAP1 PUSH2 0x100 EXP SWAP1 DIV PUSH2 0xFFFF AND PUSH2 0xFFFF AND DUP2 PUSH2 0xFFFF AND LT ISZERO PUSH2 0xCD3 JUMPI PUSH1 0x5 PUSH1 0x0 DUP3 PUSH2 0xFFFF AND PUSH2 0xFFFF AND DUP2 MSTORE PUSH1 0x20 ADD SWAP1 DUP2 MSTORE PUSH1 0x20 ADD PUSH1 0x0 KECCAK256 PUSH1 0x0 SWAP1 SLOAD SWAP1 PUSH2 0x100 EXP SWAP1 DIV PUSH8 0xFFFFFFFFFFFFFFFF AND DUP3 DUP3 PUSH2 0xFFFF AND DUP2 MLOAD DUP2 LT PUSH2 0xCA4 JUMPI PUSH2 0xCA3 PUSH2 0x2251 JUMP JUMPDEST JUMPDEST PUSH1 0x20 MUL PUSH1 0x20 ADD ADD SWAP1 PUSH8 0xFFFFFFFFFFFFFFFF AND SWAP1 DUP2 PUSH8 0xFFFFFFFFFFFFFFFF AND DUP2 MSTORE POP POP DUP1 DUP1 PUSH1 0x1 ADD SWAP2 POP POP PUSH2 0xC3D JUMP JUMPDEST POP SWAP1 JUMP JUMPDEST PUSH1 0x0 PUSH1 0xA PUSH1 0x0 DUP4 PUSH20 0xFFFFFFFFFFFFFFFFFFFFFFFFFFFFFFFFFFFFFFFF AND PUSH20 0xFFFFFFFFFFFFFFFFFFFFFFFFFFFFFFFFFFFFFFFF AND DUP2 MSTORE PUSH1 0x20 ADD SWAP1 DUP2 MSTORE PUSH1 0x20 ADD PUSH1 0x0 KECCAK256 PUSH1 0x0 SWAP1 SLOAD SWAP1 PUSH2 0x100 EXP SWAP1 DIV PUSH8 0xFFFFFFFFFFFFFFFF AND SWAP1 POP SWAP2 SWAP1 POP JUMP JUMPDEST PUSH1 0xA PUSH1 0x20 MSTORE DUP1 PUSH1 0x0 MSTORE PUSH1 0x40 PUSH1 0x0 KECCAK256 PUSH1 0x0 SWAP2 POP SLOAD SWAP1 PUSH2 0x100 EXP SWAP1 DIV PUSH8 0xFFFFFFFFFFFFFFFF AND DUP2 JUMP JUMPDEST PUSH1 0x0 DUP1 SHL DUP2 JUMP JUMPDEST PUSH1 0x60 PUSH1 0x0 PUSH1 0x2 PUSH1 0x0 SWAP1 SLOAD SWAP1 PUSH2 0x100 EXP SWAP1 DIV PUSH2 0xFFFF AND PUSH2 0xFFFF AND PUSH8 0xFFFFFFFFFFFFFFFF DUP2 GT ISZERO PUSH2 0xD94 JUMPI PUSH2 0xD93 PUSH2 0x2222 JUMP JUMPDEST JUMPDEST PUSH1 0x40 MLOAD SWAP1 DUP1 DUP3 MSTORE DUP1 PUSH1 0x20 MUL PUSH1 0x20 ADD DUP3 ADD PUSH1 0x40 MSTORE DUP1 ISZERO PUSH2 0xDC2 JUMPI DUP2 PUSH1 0x20 ADD PUSH1 0x20 DUP3 MUL DUP1 CALLDATASIZE DUP4 CALLDATACOPY DUP1 DUP3 ADD SWAP2 POP POP SWAP1 POP JUMPDEST POP SWAP1 POP PUSH1 0x0 JUMPDEST PUSH1 0x2 PUSH1 0x0 SWAP1 SLOAD SWAP1 PUSH2 0x100 EXP SWAP1 DIV PUSH2 0xFFFF AND PUSH2 0xFFFF AND DUP2 PUSH2 0xFFFF AND LT ISZERO PUSH2 0xE6D JUMPI PUSH1 0xB PUSH1 0x0 DUP6 PUSH20 0xFFFFFFFFFFFFFFFFFFFFFFFFFFFFFFFFFFFFFFFF AND PUSH20 0xFFFFFFFFFFFFFFFFFFFFFFFFFFFFFFFFFFFFFFFF AND DUP2 MSTORE PUSH1 0x20 ADD SWAP1 DUP2 MSTORE PUSH1 0x20 ADD PUSH1 0x0 KECCAK256 PUSH1 0x0 DUP3 PUSH2 0xFFFF AND DUP2 MSTORE PUSH1 0x20 ADD SWAP1 DUP2 MSTORE PUSH1 0x20 ADD PUSH1 0x0 KECCAK256 SLOAD DUP3 DUP3 PUSH2 0xFFFF AND DUP2 MLOAD DUP2 LT PUSH2 0xE54 JUMPI PUSH2 0xE53 PUSH2 0x2251 JUMP JUMPDEST JUMPDEST PUSH1 0x20 MUL PUSH1 0x20 ADD ADD DUP2 DUP2 MSTORE POP POP DUP1 DUP1 PUSH1 0x1 ADD SWAP2 POP POP PUSH2 0xDC8 JUMP JUMPDEST POP DUP1 SWAP2 POP POP SWAP2 SWAP1 POP JUMP JUMPDEST PUSH1 0x5 PUSH1 0x20 MSTORE DUP1 PUSH1 0x0 MSTORE PUSH1 0x40 PUSH1 0x0 KECCAK256 PUSH1 0x0 SWAP2 POP SLOAD SWAP1 PUSH2 0x100 EXP SWAP1 DIV PUSH8 0xFFFFFFFFFFFFFFFF AND DUP2 JUMP JUMPDEST PUSH1 0x2 PUSH1 0x0 SWAP1 SLOAD SWAP1 PUSH2 0x100 EXP SWAP1 DIV PUSH2 0xFFFF AND DUP2 JUMP JUMPDEST PUSH1 0x7 SLOAD DUP2 JUMP JUMPDEST PUSH1 0x0 DUP1 PUSH1 0x0 DUP5 DUP2 MSTORE PUSH1 0x20 ADD SWAP1 DUP2 MSTORE PUSH1 0x20 ADD PUSH1 0x0 KECCAK256 PUSH1 0x0 DUP4 PUSH20 0xFFFFFFFFFFFFFFFFFFFFFFFFFFFFFFFFFFFFFFFF AND PUSH20 0xFFFFFFFFFFFFFFFFFFFFFFFFFFFFFFFFFFFFFFFF AND DUP2 MSTORE PUSH1 0x20 ADD SWAP1 DUP2 MSTORE PUSH1 0x20 ADD PUSH1 0x0 KECCAK256 PUSH1 0x0 SWAP1 SLOAD SWAP1 PUSH2 0x100 EXP SWAP1 DIV PUSH1 0xFF AND SWAP1 POP SWAP3 SWAP2 POP POP JUMP JUMPDEST PUSH1 0x0 DUP1 SHL PUSH2 0xF2D DUP2 CALLER PUSH2 0xEB8 JUMP JUMPDEST PUSH2 0xF6C JUMPI PUSH1 0x40 MLOAD PUSH32 0x8C379A000000000000000000000000000000000000000000000000000000000 DUP2 MSTORE PUSH1 0x4 ADD PUSH2 0xF63 SWAP1 PUSH2 0x2303 JUMP JUMPDEST PUSH1 0x40 MLOAD DUP1 SWAP2 SUB SWAP1 REVERT JUMPDEST DUP3 DUP3 SWAP1 POP DUP6 DUP6 SWAP1 POP EQ PUSH2 0xFB4 JUMPI PUSH1 0x40 MLOAD PUSH32 0x8C379A000000000000000000000000000000000000000000000000000000000 DUP2 MSTORE PUSH1 0x4 ADD PUSH2 0xFAB SWAP1 PUSH2 0x24A6 JUMP JUMPDEST PUSH1 0x40 MLOAD DUP1 SWAP2 SUB SWAP1 REVERT JUMPDEST PUSH3 0x989680 DUP4 DUP4 PUSH1 0x1 DUP7 DUP7 SWAP1 POP PUSH2 0xFCA SWAP2 SWAP1 PUSH2 0x24C6 JUMP JUMPDEST DUP2 DUP2 LT PUSH2 0xFDA JUMPI PUSH2 0xFD9 PUSH2 0x2251 JUMP JUMPDEST JUMPDEST SWAP1 POP PUSH1 0x20 MUL ADD PUSH1 0x20 DUP2 ADD SWAP1 PUSH2 0xFEF SWAP2 SWAP1 PUSH2 0x2526 JUMP JUMPDEST PUSH8 0xFFFFFFFFFFFFFFFF AND EQ PUSH2 0x1039 JUMPI PUSH1 0x40 MLOAD PUSH32 0x8C379A000000000000000000000000000000000000000000000000000000000 DUP2 MSTORE PUSH1 0x4 ADD PUSH2 0x1030 SWAP1 PUSH2 0x25C5 JUMP JUMPDEST PUSH1 0x40 MLOAD DUP1 SWAP2 SUB SWAP1 REVERT JUMPDEST PUSH1 0x0 JUMPDEST DUP6 DUP6 SWAP1 POP DUP2 PUSH2 0xFFFF AND LT ISZERO PUSH2 0x11A5 JUMPI DUP6 DUP6 DUP3 PUSH2 0xFFFF AND DUP2 DUP2 LT PUSH2 0x1062 JUMPI PUSH2 0x1061 PUSH2 0x2251 JUMP JUMPDEST JUMPDEST SWAP1 POP PUSH1 0x20 MUL ADD PUSH1 0x20 DUP2 ADD SWAP1 PUSH2 0x1077 SWAP2 SWAP1 PUSH2 0x2526 JUMP JUMPDEST PUSH1 0x4 PUSH1 0x0 DUP4 PUSH2 0xFFFF AND PUSH2 0xFFFF AND DUP2 MSTORE PUSH1 0x20 ADD SWAP1 DUP2 MSTORE PUSH1 0x20 ADD PUSH1 0x0 KECCAK256 PUSH1 0x0 PUSH2 0x100 EXP DUP2 SLOAD DUP2 PUSH8 0xFFFFFFFFFFFFFFFF MUL NOT AND SWAP1 DUP4 PUSH8 0xFFFFFFFFFFFFFFFF AND MUL OR SWAP1 SSTORE POP DUP6 DUP6 DUP3 PUSH2 0xFFFF AND DUP2 DUP2 LT PUSH2 0x10CF JUMPI PUSH2 0x10CE PUSH2 0x2251 JUMP JUMPDEST JUMPDEST SWAP1 POP PUSH1 0x20 MUL ADD PUSH1 0x20 DUP2 ADD SWAP1 PUSH2 0x10E4 SWAP2 SWAP1 PUSH2 0x2526 JUMP JUMPDEST PUSH1 0x5 PUSH1 0x0 DUP4 PUSH2 0xFFFF AND PUSH2 0xFFFF AND DUP2 MSTORE PUSH1 0x20 ADD SWAP1 DUP2 MSTORE PUSH1 0x20 ADD PUSH1 0x0 KECCAK256 PUSH1 0x0 PUSH2 0x100 EXP DUP2 SLOAD DUP2 PUSH8 0xFFFFFFFFFFFFFFFF MUL NOT AND SWAP1 DUP4 PUSH8 0xFFFFFFFFFFFFFFFF AND MUL OR SWAP1 SSTORE POP DUP4 DUP4 DUP3 PUSH2 0xFFFF AND DUP2 DUP2 LT PUSH2 0x113C JUMPI PUSH2 0x113B PUSH2 0x2251 JUMP JUMPDEST JUMPDEST SWAP1 POP PUSH1 0x20 MUL ADD PUSH1 0x20 DUP2 ADD SWAP1 PUSH2 0x1151 SWAP2 SWAP1 PUSH2 0x2526 JUMP JUMPDEST PUSH1 0x6 PUSH1 0x0 DUP4 PUSH2 0xFFFF AND PUSH2 0xFFFF AND DUP2 MSTORE PUSH1 0x20 ADD SWAP1 DUP2 MSTORE PUSH1 0x20 ADD PUSH1 0x0 KECCAK256 PUSH1 0x0 PUSH2 0x100 EXP DUP2 SLOAD DUP2 PUSH8 0xFFFFFFFFFFFFFFFF MUL NOT AND SWAP1 DUP4 PUSH8 0xFFFFFFFFFFFFFFFF AND MUL OR SWAP1 SSTORE POP DUP1 DUP1 PUSH2 0x119D SWAP1 PUSH2 0x25E5 JUMP JUMPDEST SWAP2 POP POP PUSH2 0x103C JUMP JUMPDEST POP POP POP POP POP POP JUMP JUMPDEST PUSH1 0x0 PUSH1 0xB PUSH1 0x0 DUP5 PUSH20 0xFFFFFFFFFFFFFFFFFFFFFFFFFFFFFFFFFFFFFFFF AND PUSH20 0xFFFFFFFFFFFFFFFFFFFFFFFFFFFFFFFFFFFFFFFF AND DUP2 MSTORE PUSH1 0x20 ADD SWAP1 DUP2 MSTORE PUSH1 0x20 ADD PUSH1 0x0 KECCAK256 PUSH1 0x0 DUP4 PUSH2 0xFFFF AND DUP2 MSTORE PUSH1 0x20 ADD SWAP1 DUP2 MSTORE PUSH1 0x20 ADD PUSH1 0x0 KECCAK256 SLOAD SWAP1 POP SWAP3 SWAP2 POP POP JUMP JUMPDEST PUSH8 0xDE0B6B3A7640000 DUP2 JUMP JUMPDEST PUSH1 0x0 DUP1 SHL PUSH2 0x1226 DUP2 CALLER PUSH2 0xEB8 JUMP JUMPDEST PUSH2 0x1265 JUMPI PUSH1 0x40 MLOAD PUSH32 0x8C379A000000000000000000000000000000000000000000000000000000000 DUP2 MSTORE PUSH1 0x4 ADD PUSH2 0x125C SWAP1 PUSH2 0x2303 JUMP JUMPDEST PUSH1 0x40 MLOAD DUP1 SWAP2 SUB SWAP1 REVERT JUMPDEST DUP2 PUSH1 0x8 PUSH1 0x0 PUSH2 0x100 EXP DUP2 SLOAD DUP2 PUSH1 0xFF MUL NOT AND SWAP1 DUP4 ISZERO ISZERO MUL OR SWAP1 SSTORE POP POP POP JUMP JUMPDEST PUSH1 0x0 DUP1 SHL PUSH2 0x1291 DUP2 CALLER PUSH2 0xEB8 JUMP JUMPDEST PUSH2 0x12D0 JUMPI PUSH1 0x40 MLOAD PUSH32 0x8C379A000000000000000000000000000000000000000000000000000000000 DUP2 MSTORE PUSH1 0x4 ADD PUSH2 0x12C7 SWAP1 PUSH2 0x2303 JUMP JUMPDEST PUSH1 0x40 MLOAD DUP1 SWAP2 SUB SWAP1 REVERT JUMPDEST PUSH1 0x0 DUP3 PUSH2 0xFFFF AND GT PUSH2 0x1317 JUMPI PUSH1 0x40 MLOAD PUSH32 0x8C379A000000000000000000000000000000000000000000000000000000000 DUP2 MSTORE PUSH1 0x4 ADD PUSH2 0x130E SWAP1 PUSH2 0x2681 JUMP JUMPDEST PUSH1 0x40 MLOAD DUP1 SWAP2 SUB SWAP1 REVERT JUMPDEST DUP2 PUSH1 0x2 PUSH1 0x0 PUSH2 0x100 EXP DUP2 SLOAD DUP2 PUSH2 0xFFFF MUL NOT AND SWAP1 DUP4 PUSH2 0xFFFF AND MUL OR SWAP1 SSTORE POP POP POP JUMP JUMPDEST PUSH1 0x60 PUSH1 0x2 PUSH1 0x0 SWAP1 SLOAD SWAP1 PUSH2 0x100 EXP SWAP1 DIV PUSH2 0xFFFF AND PUSH2 0xFFFF AND PUSH8 0xFFFFFFFFFFFFFFFF DUP2 GT ISZERO PUSH2 0x1368 JUMPI PUSH2 0x1367 PUSH2 0x2222 JUMP JUMPDEST JUMPDEST PUSH1 0x40 MLOAD SWAP1 DUP1 DUP3 MSTORE DUP1 PUSH1 0x20 MUL PUSH1 0x20 ADD DUP3 ADD PUSH1 0x40 MSTORE DUP1 ISZERO PUSH2 0x1396 JUMPI DUP2 PUSH1 0x20 ADD PUSH1 0x20 DUP3 MUL DUP1 CALLDATASIZE DUP4 CALLDATACOPY DUP1 DUP3 ADD SWAP2 POP POP SWAP1 POP JUMPDEST POP SWAP1 POP PUSH1 0x0 JUMPDEST PUSH1 0x2 PUSH1 0x0 SWAP1 SLOAD SWAP1 PUSH2 0x100 EXP SWAP1 DIV PUSH2 0xFFFF AND PUSH2 0xFFFF AND DUP2 PUSH2 0xFFFF AND LT ISZERO PUSH2 0x1432 JUMPI PUSH1 0x4 PUSH1 0x0 DUP3 PUSH2 0xFFFF AND PUSH2 0xFFFF AND DUP2 MSTORE PUSH1 0x20 ADD SWAP1 DUP2 MSTORE PUSH1 0x20 ADD PUSH1 0x0 KECCAK256 PUSH1 0x0 SWAP1 SLOAD SWAP1 PUSH2 0x100 EXP SWAP1 DIV PUSH8 0xFFFFFFFFFFFFFFFF AND DUP3 DUP3 PUSH2 0xFFFF AND DUP2 MLOAD DUP2 LT PUSH2 0x1403 JUMPI PUSH2 0x1402 PUSH2 0x2251 JUMP JUMPDEST JUMPDEST PUSH1 0x20 MUL PUSH1 0x20 ADD ADD SWAP1 PUSH8 0xFFFFFFFFFFFFFFFF AND SWAP1 DUP2 PUSH8 0xFFFFFFFFFFFFFFFF AND DUP2 MSTORE POP POP DUP1 DUP1 PUSH1 0x1 ADD SWAP2 POP POP PUSH2 0x139C JUMP JUMPDEST POP SWAP1 JUMP JUMPDEST PUSH3 0x989680 DUP2 JUMP JUMPDEST PUSH1 0x0 DUP1 SHL PUSH2 0x144B DUP2 CALLER PUSH2 0xEB8 JUMP JUMPDEST PUSH2 0x148A JUMPI PUSH1 0x40 MLOAD PUSH32 0x8C379A000000000000000000000000000000000000000000000000000000000 DUP2 MSTORE PUSH1 0x4 ADD PUSH2 0x1481 SWAP1 PUSH2 0x2303 JUMP JUMPDEST PUSH1 0x40 MLOAD DUP1 SWAP2 SUB SWAP1 REVERT JUMPDEST PUSH2 0x1494 DUP4 DUP4 PUSH2 0x1A73 JUMP JUMPDEST POP POP POP JUMP JUMPDEST PUSH1 0x9 PUSH1 0x20 MSTORE DUP1 PUSH1 0x0 MSTORE PUSH1 0x40 PUSH1 0x0 KECCAK256 PUSH1 0x0 SWAP2 POP SWAP1 POP SLOAD DUP2 JUMP JUMPDEST PUSH1 0x0 DUP1 PUSH2 0x14BC PUSH2 0x1B3A JUMP JUMPDEST PUSH1 0x8 PUSH1 0x0 SWAP1 SLOAD SWAP1 PUSH2 0x100 EXP SWAP1 DIV PUSH1 0xFF AND PUSH2 0x150B JUMPI PUSH1 0x40 MLOAD PUSH32 0x8C379A000000000000000000000000000000000000000000000000000000000 DUP2 MSTORE PUSH1 0x4 ADD PUSH2 0x1502 SWAP1 PUSH2 0x26ED JUMP JUMPDEST PUSH1 0x40 MLOAD DUP1 SWAP2 SUB SWAP1 REVERT JUMPDEST PUSH1 0x0 DUP1 PUSH1 0x0 PUSH1 0x1E SWAP1 POP JUMPDEST DUP3 ISZERO DUP1 ISZERO PUSH2 0x1522 JUMPI POP DUP1 DUP3 LT JUMPDEST ISZERO PUSH2 0x175F JUMPI PUSH1 0x1 PUSH3 0x989680 TIMESTAMP PREVRANDAO CALLER PUSH1 0x7 SLOAD DUP8 PUSH1 0x40 MLOAD PUSH1 0x20 ADD PUSH2 0x1548 SWAP6 SWAP5 SWAP4 SWAP3 SWAP2 SWAP1 PUSH2 0x2776 JUMP JUMPDEST PUSH1 0x40 MLOAD PUSH1 0x20 DUP2 DUP4 SUB SUB DUP2 MSTORE SWAP1 PUSH1 0x40 MSTORE DUP1 MLOAD SWAP1 PUSH1 0x20 ADD KECCAK256 PUSH1 0x0 SHR PUSH2 0x156B SWAP2 SWAP1 PUSH2 0x2804 JUMP JUMPDEST PUSH2 0x1575 SWAP2 SWAP1 PUSH2 0x2426 JUMP JUMPDEST SWAP4 POP PUSH1 0x0 JUMPDEST PUSH1 0x2 PUSH1 0x0 SWAP1 SLOAD SWAP1 PUSH2 0x100 EXP SWAP1 DIV PUSH2 0xFFFF AND PUSH2 0xFFFF AND DUP2 PUSH2 0xFFFF AND LT DUP1 ISZERO PUSH2 0x159F JUMPI POP DUP4 ISZERO JUMPDEST ISZERO PUSH2 0x174B JUMPI PUSH1 0x6 PUSH1 0x0 DUP3 PUSH2 0xFFFF AND PUSH2 0xFFFF AND DUP2 MSTORE PUSH1 0x20 ADD SWAP1 DUP2 MSTORE PUSH1 0x20 ADD PUSH1 0x0 KECCAK256 PUSH1 0x0 SWAP1 SLOAD SWAP1 PUSH2 0x100 EXP SWAP1 DIV PUSH8 0xFFFFFFFFFFFFFFFF AND PUSH8 0xFFFFFFFFFFFFFFFF AND DUP6 GT PUSH2 0x1738 JUMPI PUSH1 0x0 PUSH1 0x4 PUSH1 0x0 DUP4 PUSH2 0xFFFF AND PUSH2 0xFFFF AND DUP2 MSTORE PUSH1 0x20 ADD SWAP1 DUP2 MSTORE PUSH1 0x20 ADD PUSH1 0x0 KECCAK256 PUSH1 0x0 SWAP1 SLOAD SWAP1 PUSH2 0x100 EXP SWAP1 DIV PUSH8 0xFFFFFFFFFFFFFFFF AND PUSH8 0xFFFFFFFFFFFFFFFF AND EQ DUP1 PUSH2 0x1665 JUMPI POP PUSH1 0x0 PUSH1 0x5 PUSH1 0x0 DUP4 PUSH2 0xFFFF AND PUSH2 0xFFFF AND DUP2 MSTORE PUSH1 0x20 ADD SWAP1 DUP2 MSTORE PUSH1 0x20 ADD PUSH1 0x0 KECCAK256 PUSH1 0x0 SWAP1 SLOAD SWAP1 PUSH2 0x100 EXP SWAP1 DIV PUSH8 0xFFFFFFFFFFFFFFFF AND PUSH8 0xFFFFFFFFFFFFFFFF AND GT JUMPDEST ISZERO PUSH2 0x1737 JUMPI PUSH1 0x1 SWAP4 POP DUP1 SWAP6 POP PUSH1 0x7 PUSH1 0x0 DUP2 SLOAD DUP1 SWAP3 SWAP2 SWAP1 PUSH2 0x1684 SWAP1 PUSH2 0x2835 JUMP JUMPDEST SWAP2 SWAP1 POP SSTORE POP PUSH1 0x0 PUSH1 0x5 PUSH1 0x0 DUP4 PUSH2 0xFFFF AND PUSH2 0xFFFF AND DUP2 MSTORE PUSH1 0x20 ADD SWAP1 DUP2 MSTORE PUSH1 0x20 ADD PUSH1 0x0 KECCAK256 PUSH1 0x0 SWAP1 SLOAD SWAP1 PUSH2 0x100 EXP SWAP1 DIV PUSH8 0xFFFFFFFFFFFFFFFF AND PUSH8 0xFFFFFFFFFFFFFFFF AND GT ISZERO PUSH2 0x1732 JUMPI PUSH1 0x5 PUSH1 0x0 DUP3 PUSH2 0xFFFF AND PUSH2 0xFFFF AND DUP2 MSTORE PUSH1 0x20 ADD SWAP1 DUP2 MSTORE PUSH1 0x20 ADD PUSH1 0x0 KECCAK256 PUSH1 0x0 DUP2 DUP2 SWAP1 SLOAD SWAP1 PUSH2 0x100 EXP SWAP1 DIV PUSH8 0xFFFFFFFFFFFFFFFF AND DUP1 SWAP3 SWAP2 SWAP1 PUSH2 0x170A SWAP1 PUSH2 0x287D JUMP JUMPDEST SWAP2 SWAP1 PUSH2 0x100 EXP DUP2 SLOAD DUP2 PUSH8 0xFFFFFFFFFFFFFFFF MUL NOT AND SWAP1 DUP4 PUSH8 0xFFFFFFFFFFFFFFFF AND MUL OR SWAP1 SSTORE POP POP JUMPDEST PUSH2 0x174B JUMP JUMPDEST JUMPDEST DUP1 DUP1 PUSH2 0x1743 SWAP1 PUSH2 0x25E5 JUMP JUMPDEST SWAP2 POP POP PUSH2 0x157A JUMP JUMPDEST POP DUP2 DUP1 PUSH2 0x1757 SWAP1 PUSH2 0x2835 JUMP JUMPDEST SWAP3 POP POP PUSH2 0x1515 JUMP JUMPDEST DUP3 PUSH2 0x179F JUMPI PUSH1 0x40 MLOAD PUSH32 0x8C379A000000000000000000000000000000000000000000000000000000000 DUP2 MSTORE PUSH1 0x4 ADD PUSH2 0x1796 SWAP1 PUSH2 0x2918 JUMP JUMPDEST PUSH1 0x40 MLOAD DUP1 SWAP2 SUB SWAP1 REVERT JUMPDEST PUSH1 0xA PUSH1 0x0 CALLER PUSH20 0xFFFFFFFFFFFFFFFFFFFFFFFFFFFFFFFFFFFFFFFF AND PUSH20 0xFFFFFFFFFFFFFFFFFFFFFFFFFFFFFFFFFFFFFFFF AND DUP2 MSTORE PUSH1 0x20 ADD SWAP1 DUP2 MSTORE PUSH1 0x20 ADD PUSH1 0x0 KECCAK256 PUSH1 0x0 DUP2 DUP2 SWAP1 SLOAD SWAP1 PUSH2 0x100 EXP SWAP1 DIV PUSH8 0xFFFFFFFFFFFFFFFF AND DUP1 SWAP3 SWAP2 SWAP1 PUSH2 0x1802 SWAP1 PUSH2 0x2938 JUMP JUMPDEST SWAP2 SWAP1 PUSH2 0x100 EXP DUP2 SLOAD DUP2 PUSH8 0xFFFFFFFFFFFFFFFF MUL NOT AND SWAP1 DUP4 PUSH8 0xFFFFFFFFFFFFFFFF AND MUL OR SWAP1 SSTORE POP POP PUSH1 0xB PUSH1 0x0 CALLER PUSH20 0xFFFFFFFFFFFFFFFFFFFFFFFFFFFFFFFFFFFFFFFF AND PUSH20 0xFFFFFFFFFFFFFFFFFFFFFFFFFFFFFFFFFFFFFFFF AND DUP2 MSTORE PUSH1 0x20 ADD SWAP1 DUP2 MSTORE PUSH1 0x20 ADD PUSH1 0x0 KECCAK256 PUSH1 0x0 DUP7 PUSH2 0xFFFF AND DUP2 MSTORE PUSH1 0x20 ADD SWAP1 DUP2 MSTORE PUSH1 0x20 ADD PUSH1 0x0 KECCAK256 PUSH1 0x0 DUP2 SLOAD DUP1 SWAP3 SWAP2 SWAP1 PUSH2 0x188E SWAP1 PUSH2 0x2835 JUMP JUMPDEST SWAP2 SWAP1 POP SSTORE POP CALLER PUSH20 0xFFFFFFFFFFFFFFFFFFFFFFFFFFFFFFFFFFFFFFFF AND PUSH32 0xF825702CBC83605D7FABABEA4C41C307150AAB23AE229ACDA80AF9D946AA4292 DUP7 DUP7 TIMESTAMP PUSH1 0x40 MLOAD PUSH2 0x18DD SWAP4 SWAP3 SWAP2 SWAP1 PUSH2 0x29A3 JUMP JUMPDEST PUSH1 0x40 MLOAD DUP1 SWAP2 SUB SWAP1 LOG2 POP POP POP PUSH2 0x18F0 PUSH2 0x1B80 JUMP JUMPDEST SWAP1 SWAP2 JUMP JUMPDEST PUSH1 0x0 PUSH1 0x8 PUSH1 0x0 SWAP1 SLOAD SWAP1 PUSH2 0x100 EXP SWAP1 DIV PUSH1 0xFF AND SWAP1 POP SWAP1 JUMP JUMPDEST PUSH1 0x0 DUP1 SHL PUSH2 0x1919 DUP2 CALLER PUSH2 0xEB8 JUMP JUMPDEST PUSH2 0x1958 JUMPI PUSH1 0x40 MLOAD PUSH32 0x8C379A000000000000000000000000000000000000000000000000000000000 DUP2 MSTORE PUSH1 0x4 ADD PUSH2 0x194F SWAP1 PUSH2 0x2303 JUMP JUMPDEST PUSH1 0x40 MLOAD DUP1 SWAP2 SUB SWAP1 REVERT JUMPDEST DUP2 PUSH1 0x3 DUP2 SWAP1 SSTORE POP POP POP JUMP JUMPDEST PUSH1 0x2 DUP1 SLOAD SWAP1 PUSH2 0x100 EXP SWAP1 DIV PUSH20 0xFFFFFFFFFFFFFFFFFFFFFFFFFFFFFFFFFFFFFFFF AND DUP2 JUMP JUMPDEST PUSH1 0xB PUSH1 0x20 MSTORE DUP2 PUSH1 0x0 MSTORE PUSH1 0x40 PUSH1 0x0 KECCAK256 PUSH1 0x20 MSTORE DUP1 PUSH1 0x0 MSTORE PUSH1 0x40 PUSH1 0x0 KECCAK256 PUSH1 0x0 SWAP2 POP SWAP2 POP POP SLOAD DUP2 JUMP JUMPDEST PUSH1 0x1 PUSH1 0x0 DUP1 DUP5 DUP2 MSTORE PUSH1 0x20 ADD SWAP1 DUP2 MSTORE PUSH1 0x20 ADD PUSH1 0x0 KECCAK256 PUSH1 0x0 DUP4 PUSH20 0xFFFFFFFFFFFFFFFFFFFFFFFFFFFFFFFFFFFFFFFF AND PUSH20 0xFFFFFFFFFFFFFFFFFFFFFFFFFFFFFFFFFFFFFFFF AND DUP2 MSTORE PUSH1 0x20 ADD SWAP1 DUP2 MSTORE PUSH1 0x20 ADD PUSH1 0x0 KECCAK256 PUSH1 0x0 PUSH2 0x100 EXP DUP2 SLOAD DUP2 PUSH1 0xFF MUL NOT AND SWAP1 DUP4 ISZERO ISZERO MUL OR SWAP1 SSTORE POP CALLER PUSH20 0xFFFFFFFFFFFFFFFFFFFFFFFFFFFFFFFFFFFFFFFF AND DUP2 PUSH20 0xFFFFFFFFFFFFFFFFFFFFFFFFFFFFFFFFFFFFFFFF AND DUP4 PUSH32 0x2F8788117E7EFF1D82E926EC794901D17C78024A50270940304540A733656F0D PUSH1 0x40 MLOAD PUSH1 0x40 MLOAD DUP1 SWAP2 SUB SWAP1 LOG4 POP POP JUMP JUMPDEST PUSH1 0x0 DUP1 PUSH1 0x0 DUP5 DUP2 MSTORE PUSH1 0x20 ADD SWAP1 DUP2 MSTORE PUSH1 0x20 ADD PUSH1 0x0 KECCAK256 PUSH1 0x0 DUP4 PUSH20 0xFFFFFFFFFFFFFFFFFFFFFFFFFFFFFFFFFFFFFFFF AND PUSH20 0xFFFFFFFFFFFFFFFFFFFFFFFFFFFFFFFFFFFFFFFF AND DUP2 MSTORE PUSH1 0x20 ADD SWAP1 DUP2 MSTORE PUSH1 0x20 ADD PUSH1 0x0 KECCAK256 PUSH1 0x0 PUSH2 0x100 EXP DUP2 SLOAD DUP2 PUSH1 0xFF MUL NOT AND SWAP1 DUP4 ISZERO ISZERO MUL OR SWAP1 SSTORE POP CALLER PUSH20 0xFFFFFFFFFFFFFFFFFFFFFFFFFFFFFFFFFFFFFFFF AND DUP2 PUSH20 0xFFFFFFFFFFFFFFFFFFFFFFFFFFFFFFFFFFFFFFFF AND DUP4 PUSH32 0xF6391F5C32D9C69D2A47EA670B442974B53935D1EDC7FD64EB21E047A839171B PUSH1 0x40 MLOAD PUSH1 0x40 MLOAD DUP1 SWAP2 SUB SWAP1 LOG4 POP POP JUMP JUMPDEST PUSH1 0x2 PUSH1 0x1 SLOAD SUB PUSH2 0x1B76 JUMPI PUSH1 0x40 MLOAD PUSH32 0x3EE5AEB500000000000000000000000000000000000000000000000000000000 DUP2 MSTORE PUSH1 0x4 ADD PUSH1 0x40 MLOAD DUP1 SWAP2 SUB SWAP1 REVERT JUMPDEST PUSH1 0x2 PUSH1 0x1 DUP2 SWAP1 SSTORE POP JUMP JUMPDEST PUSH1 0x1 DUP1 DUP2 SWAP1 SSTORE POP JUMP JUMPDEST PUSH1 0x0 DUP2 MLOAD SWAP1 POP SWAP2 SWAP1 POP JUMP JUMPDEST PUSH1 0x0 DUP3 DUP3 MSTORE PUSH1 0x20 DUP3 ADD SWAP1 POP SWAP3 SWAP2 POP POP JUMP JUMPDEST PUSH1 0x0 DUP2 SWAP1 POP PUSH1 0x20 DUP3 ADD SWAP1 POP SWAP2 SWAP1 POP JUMP JUMPDEST PUSH1 0x0 PUSH8 0xFFFFFFFFFFFFFFFF DUP3 AND SWAP1 POP SWAP2 SWAP1 POP JUMP JUMPDEST PUSH2 0x1BD2 DUP2 PUSH2 0x1BB5 JUMP JUMPDEST DUP3 MSTORE POP POP JUMP JUMPDEST PUSH1 0x0 PUSH2 0x1BE4 DUP4 DUP4 PUSH2 0x1BC9 JUMP JUMPDEST PUSH1 0x20 DUP4 ADD SWAP1 POP SWAP3 SWAP2 POP POP JUMP JUMPDEST PUSH1 0x0 PUSH1 0x20 DUP3 ADD SWAP1 POP SWAP2 SWAP1 POP JUMP JUMPDEST PUSH1 0x0 PUSH2 0x1C08 DUP3 PUSH2 0x1B89 JUMP JUMPDEST PUSH2 0x1C12 DUP2 DUP6 PUSH2 0x1B94 JUMP JUMPDEST SWAP4 POP PUSH2 0x1C1D DUP4 PUSH2 0x1BA5 JUMP JUMPDEST DUP1 PUSH1 0x0 JUMPDEST DUP4 DUP2 LT ISZERO PUSH2 0x1C4E JUMPI DUP2 MLOAD PUSH2 0x1C35 DUP9 DUP3 PUSH2 0x1BD8 JUMP JUMPDEST SWAP8 POP PUSH2 0x1C40 DUP4 PUSH2 0x1BF0 JUMP JUMPDEST SWAP3 POP POP PUSH1 0x1 DUP2 ADD SWAP1 POP PUSH2 0x1C21 JUMP JUMPDEST POP DUP6 SWAP4 POP POP POP POP SWAP3 SWAP2 POP POP JUMP JUMPDEST PUSH1 0x0 PUSH1 0x20 DUP3 ADD SWAP1 POP DUP2 DUP2 SUB PUSH1 0x0 DUP4 ADD MSTORE PUSH2 0x1C75 DUP2 DUP5 PUSH2 0x1BFD JUMP JUMPDEST SWAP1 POP SWAP3 SWAP2 POP POP JUMP JUMPDEST PUSH1 0x0 DUP1 REVERT JUMPDEST PUSH1 0x0 DUP1 REVERT JUMPDEST PUSH1 0x0 PUSH2 0xFFFF DUP3 AND SWAP1 POP SWAP2 SWAP1 POP JUMP JUMPDEST PUSH2 0x1C9E DUP2 PUSH2 0x1C87 JUMP JUMPDEST DUP2 EQ PUSH2 0x1CA9 JUMPI PUSH1 0x0 DUP1 REVERT JUMPDEST POP JUMP JUMPDEST PUSH1 0x0 DUP2 CALLDATALOAD SWAP1 POP PUSH2 0x1CBB DUP2 PUSH2 0x1C95 JUMP JUMPDEST SWAP3 SWAP2 POP POP JUMP JUMPDEST PUSH1 0x0 PUSH1 0x20 DUP3 DUP5 SUB SLT ISZERO PUSH2 0x1CD7 JUMPI PUSH2 0x1CD6 PUSH2 0x1C7D JUMP JUMPDEST JUMPDEST PUSH1 0x0 PUSH2 0x1CE5 DUP5 DUP3 DUP6 ADD PUSH2 0x1CAC JUMP JUMPDEST SWAP2 POP POP SWAP3 SWAP2 POP POP JUMP JUMPDEST PUSH2 0x1CF7 DUP2 PUSH2 0x1BB5 JUMP JUMPDEST DUP3 MSTORE POP POP JUMP JUMPDEST PUSH1 0x0 PUSH1 0x20 DUP3 ADD SWAP1 POP PUSH2 0x1D12 PUSH1 0x0 DUP4 ADD DUP5 PUSH2 0x1CEE JUMP JUMPDEST SWAP3 SWAP2 POP POP JUMP JUMPDEST PUSH1 0x0 PUSH20 0xFFFFFFFFFFFFFFFFFFFFFFFFFFFFFFFFFFFFFFFF DUP3 AND SWAP1 POP SWAP2 SWAP1 POP JUMP JUMPDEST PUSH1 0x0 PUSH2 0x1D43 DUP3 PUSH2 0x1D18 JUMP JUMPDEST SWAP1 POP SWAP2 SWAP1 POP JUMP JUMPDEST PUSH2 0x1D53 DUP2 PUSH2 0x1D38 JUMP JUMPDEST DUP2 EQ PUSH2 0x1D5E JUMPI PUSH1 0x0 DUP1 REVERT JUMPDEST POP JUMP JUMPDEST PUSH1 0x0 DUP2 CALLDATALOAD SWAP1 POP PUSH2 0x1D70 DUP2 PUSH2 0x1D4A JUMP JUMPDEST SWAP3 SWAP2 POP POP JUMP JUMPDEST PUSH1 0x0 PUSH1 0x20 DUP3 DUP5 SUB SLT ISZERO PUSH2 0x1D8C JUMPI PUSH2 0x1D8B PUSH2 0x1C7D JUMP JUMPDEST JUMPDEST PUSH1 0x0 PUSH2 0x1D9A DUP5 DUP3 DUP6 ADD PUSH2 0x1D61 JUMP JUMPDEST SWAP2 POP POP SWAP3 SWAP2 POP POP JUMP JUMPDEST PUSH1 0x0 DUP2 SWAP1 POP SWAP2 SWAP1 POP JUMP JUMPDEST PUSH2 0x1DB6 DUP2 PUSH2 0x1DA3 JUMP JUMPDEST DUP3 MSTORE POP POP JUMP JUMPDEST PUSH1 0x0 PUSH1 0x20 DUP3 ADD SWAP1 POP PUSH2 0x1DD1 PUSH1 0x0 DUP4 ADD DUP5 PUSH2 0x1DAD JUMP JUMPDEST SWAP3 SWAP2 POP POP JUMP JUMPDEST PUSH1 0x0 DUP2 ISZERO ISZERO SWAP1 POP SWAP2 SWAP1 POP JUMP JUMPDEST PUSH2 0x1DEC DUP2 PUSH2 0x1DD7 JUMP JUMPDEST DUP3 MSTORE POP POP JUMP JUMPDEST PUSH1 0x0 PUSH1 0x20 DUP3 ADD SWAP1 POP PUSH2 0x1E07 PUSH1 0x0 DUP4 ADD DUP5 PUSH2 0x1DE3 JUMP JUMPDEST SWAP3 SWAP2 POP POP JUMP JUMPDEST PUSH1 0x0 DUP2 SWAP1 POP SWAP2 SWAP1 POP JUMP JUMPDEST PUSH2 0x1E20 DUP2 PUSH2 0x1E0D JUMP JUMPDEST DUP2 EQ PUSH2 0x1E2B JUMPI PUSH1 0x0 DUP1 REVERT JUMPDEST POP JUMP JUMPDEST PUSH1 0x0 DUP2 CALLDATALOAD SWAP1 POP PUSH2 0x1E3D DUP2 PUSH2 0x1E17 JUMP JUMPDEST SWAP3 SWAP2 POP POP JUMP JUMPDEST PUSH1 0x0 DUP1 PUSH1 0x40 DUP4 DUP6 SUB SLT ISZERO PUSH2 0x1E5A JUMPI PUSH2 0x1E59 PUSH2 0x1C7D JUMP JUMPDEST JUMPDEST PUSH1 0x0 PUSH2 0x1E68 DUP6 DUP3 DUP7 ADD PUSH2 0x1E2E JUMP JUMPDEST SWAP3 POP POP PUSH1 0x20 PUSH2 0x1E79 DUP6 DUP3 DUP7 ADD PUSH2 0x1D61 JUMP JUMPDEST SWAP2 POP POP SWAP3 POP SWAP3 SWAP1 POP JUMP JUMPDEST PUSH2 0x1E8C DUP2 PUSH2 0x1E0D JUMP JUMPDEST DUP3 MSTORE POP POP JUMP JUMPDEST PUSH1 0x0 PUSH1 0x20 DUP3 ADD SWAP1 POP PUSH2 0x1EA7 PUSH1 0x0 DUP4 ADD DUP5 PUSH2 0x1E83 JUMP JUMPDEST SWAP3 SWAP2 POP POP JUMP JUMPDEST PUSH1 0x0 DUP2 MLOAD SWAP1 POP SWAP2 SWAP1 POP JUMP JUMPDEST PUSH1 0x0 DUP3 DUP3 MSTORE PUSH1 0x20 DUP3 ADD SWAP1 POP SWAP3 SWAP2 POP POP JUMP JUMPDEST PUSH1 0x0 DUP2 SWAP1 POP PUSH1 0x20 DUP3 ADD SWAP1 POP SWAP2 SWAP1 POP JUMP JUMPDEST PUSH2 0x1EE2 DUP2 PUSH2 0x1DA3 JUMP JUMPDEST DUP3 MSTORE POP POP JUMP JUMPDEST PUSH1 0x0 PUSH2 0x1EF4 DUP4 DUP4 PUSH2 0x1ED9 JUMP JUMPDEST PUSH1 0x20 DUP4 ADD SWAP1 POP SWAP3 SWAP2 POP POP JUMP JUMPDEST PUSH1 0x0 PUSH1 0x20 DUP3 ADD SWAP1 POP SWAP2 SWAP1 POP JUMP JUMPDEST PUSH1 0x0 PUSH2 0x1F18 DUP3 PUSH2 0x1EAD JUMP JUMPDEST PUSH2 0x1F22 DUP2 DUP6 PUSH2 0x1EB8 JUMP JUMPDEST SWAP4 POP PUSH2 0x1F2D DUP4 PUSH2 0x1EC9 JUMP JUMPDEST DUP1 PUSH1 0x0 JUMPDEST DUP4 DUP2 LT ISZERO PUSH2 0x1F5E JUMPI DUP2 MLOAD PUSH2 0x1F45 DUP9 DUP3 PUSH2 0x1EE8 JUMP JUMPDEST SWAP8 POP PUSH2 0x1F50 DUP4 PUSH2 0x1F00 JUMP JUMPDEST SWAP3 POP POP PUSH1 0x1 DUP2 ADD SWAP1 POP PUSH2 0x1F31 JUMP JUMPDEST POP DUP6 SWAP4 POP POP POP POP SWAP3 SWAP2 POP POP JUMP JUMPDEST PUSH1 0x0 PUSH1 0x20 DUP3 ADD SWAP1 POP DUP2 DUP2 SUB PUSH1 0x0 DUP4 ADD MSTORE PUSH2 0x1F85 DUP2 DUP5 PUSH2 0x1F0D JUMP JUMPDEST SWAP1 POP SWAP3 SWAP2 POP POP JUMP JUMPDEST PUSH2 0x1F96 DUP2 PUSH2 0x1C87 JUMP JUMPDEST DUP3 MSTORE POP POP JUMP JUMPDEST PUSH1 0x0 PUSH1 0x20 DUP3 ADD SWAP1 POP PUSH2 0x1FB1 PUSH1 0x0 DUP4 ADD DUP5 PUSH2 0x1F8D JUMP JUMPDEST SWAP3 SWAP2 POP POP JUMP JUMPDEST PUSH1 0x0 DUP1 REVERT JUMPDEST PUSH1 0x0 DUP1 REVERT JUMPDEST PUSH1 0x0 DUP1 REVERT JUMPDEST PUSH1 0x0 DUP1 DUP4 PUSH1 0x1F DUP5 ADD SLT PUSH2 0x1FDC JUMPI PUSH2 0x1FDB PUSH2 0x1FB7 JUMP JUMPDEST JUMPDEST DUP3 CALLDATALOAD SWAP1 POP PUSH8 0xFFFFFFFFFFFFFFFF DUP2 GT ISZERO PUSH2 0x1FF9 JUMPI PUSH2 0x1FF8 PUSH2 0x1FBC JUMP JUMPDEST JUMPDEST PUSH1 0x20 DUP4 ADD SWAP2 POP DUP4 PUSH1 0x20 DUP3 MUL DUP4 ADD GT ISZERO PUSH2 0x2015 JUMPI PUSH2 0x2014 PUSH2 0x1FC1 JUMP JUMPDEST JUMPDEST SWAP3 POP SWAP3 SWAP1 POP JUMP JUMPDEST PUSH1 0x0 DUP1 PUSH1 0x0 DUP1 PUSH1 0x40 DUP6 DUP8 SUB SLT ISZERO PUSH2 0x2036 JUMPI PUSH2 0x2035 PUSH2 0x1C7D JUMP JUMPDEST JUMPDEST PUSH1 0x0 DUP6 ADD CALLDATALOAD PUSH8 0xFFFFFFFFFFFFFFFF DUP2 GT ISZERO PUSH2 0x2054 JUMPI PUSH2 0x2053 PUSH2 0x1C82 JUMP JUMPDEST JUMPDEST PUSH2 0x2060 DUP8 DUP3 DUP9 ADD PUSH2 0x1FC6 JUMP JUMPDEST SWAP5 POP SWAP5 POP POP PUSH1 0x20 DUP6 ADD CALLDATALOAD PUSH8 0xFFFFFFFFFFFFFFFF DUP2 GT ISZERO PUSH2 0x2083 JUMPI PUSH2 0x2082 PUSH2 0x1C82 JUMP JUMPDEST JUMPDEST PUSH2 0x208F DUP8 DUP3 DUP9 ADD PUSH2 0x1FC6 JUMP JUMPDEST SWAP3 POP SWAP3 POP POP SWAP3 SWAP6 SWAP2 SWAP5 POP SWAP3 POP JUMP JUMPDEST PUSH1 0x0 DUP1 PUSH1 0x40 DUP4 DUP6 SUB SLT ISZERO PUSH2 0x20B4 JUMPI PUSH2 0x20B3 PUSH2 0x1C7D JUMP JUMPDEST JUMPDEST PUSH1 0x0 PUSH2 0x20C2 DUP6 DUP3 DUP7 ADD PUSH2 0x1D61 JUMP JUMPDEST SWAP3 POP POP PUSH1 0x20 PUSH2 0x20D3 DUP6 DUP3 DUP7 ADD PUSH2 0x1CAC JUMP JUMPDEST SWAP2 POP POP SWAP3 POP SWAP3 SWAP1 POP JUMP JUMPDEST PUSH2 0x20E6 DUP2 PUSH2 0x1DD7 JUMP JUMPDEST DUP2 EQ PUSH2 0x20F1 JUMPI PUSH1 0x0 DUP1 REVERT JUMPDEST POP JUMP JUMPDEST PUSH1 0x0 DUP2 CALLDATALOAD SWAP1 POP PUSH2 0x2103 DUP2 PUSH2 0x20DD JUMP JUMPDEST SWAP3 SWAP2 POP POP JUMP JUMPDEST PUSH1 0x0 PUSH1 0x20 DUP3 DUP5 SUB SLT ISZERO PUSH2 0x211F JUMPI PUSH2 0x211E PUSH2 0x1C7D JUMP JUMPDEST JUMPDEST PUSH1 0x0 PUSH2 0x212D DUP5 DUP3 DUP6 ADD PUSH2 0x20F4 JUMP JUMPDEST SWAP2 POP POP SWAP3 SWAP2 POP POP JUMP JUMPDEST PUSH1 0x0 PUSH1 0x40 DUP3 ADD SWAP1 POP PUSH2 0x214B PUSH1 0x0 DUP4 ADD DUP6 PUSH2 0x1F8D JUMP JUMPDEST PUSH2 0x2158 PUSH1 0x20 DUP4 ADD DUP5 PUSH2 0x1DAD JUMP JUMPDEST SWAP4 SWAP3 POP POP POP JUMP JUMPDEST PUSH2 0x2168 DUP2 PUSH2 0x1DA3 JUMP JUMPDEST DUP2 EQ PUSH2 0x2173 JUMPI PUSH1 0x0 DUP1 REVERT JUMPDEST POP JUMP JUMPDEST PUSH1 0x0 DUP2 CALLDATALOAD SWAP1 POP PUSH2 0x2185 DUP2 PUSH2 0x215F JUMP JUMPDEST SWAP3 SWAP2 POP POP JUMP JUMPDEST PUSH1 0x0 PUSH1 0x20 DUP3 DUP5 SUB SLT ISZERO PUSH2 0x21A1 JUMPI PUSH2 0x21A0 PUSH2 0x1C7D JUMP JUMPDEST JUMPDEST PUSH1 0x0 PUSH2 0x21AF DUP5 DUP3 DUP6 ADD PUSH2 0x2176 JUMP JUMPDEST SWAP2 POP POP SWAP3 SWAP2 POP POP JUMP JUMPDEST PUSH2 0x21C1 DUP2 PUSH2 0x1D38 JUMP JUMPDEST DUP3 MSTORE POP POP JUMP JUMPDEST PUSH1 0x0 PUSH1 0x20 DUP3 ADD SWAP1 POP PUSH2 0x21DC PUSH1 0x0 DUP4 ADD DUP5 PUSH2 0x21B8 JUMP JUMPDEST SWAP3 SWAP2 POP POP JUMP JUMPDEST PUSH1 0x0 DUP1 PUSH1 0x40 DUP4 DUP6 SUB SLT ISZERO PUSH2 0x21F9 JUMPI PUSH2 0x21F8 PUSH2 0x1C7D JUMP JUMPDEST JUMPDEST PUSH1 0x0 PUSH2 0x2207 DUP6 DUP3 DUP7 ADD PUSH2 0x1D61 JUMP JUMPDEST SWAP3 POP POP PUSH1 0x20 PUSH2 0x2218 DUP6 DUP3 DUP7 ADD PUSH2 0x2176 JUMP JUMPDEST SWAP2 POP POP SWAP3 POP SWAP3 SWAP1 POP JUMP JUMPDEST PUSH32 0x4E487B7100000000000000000000000000000000000000000000000000000000 PUSH1 0x0 MSTORE PUSH1 0x41 PUSH1 0x4 MSTORE PUSH1 0x24 PUSH1 0x0 REVERT JUMPDEST PUSH32 0x4E487B7100000000000000000000000000000000000000000000000000000000 PUSH1 0x0 MSTORE PUSH1 0x32 PUSH1 0x4 MSTORE PUSH1 0x24 PUSH1 0x0 REVERT JUMPDEST PUSH1 0x0 DUP3 DUP3 MSTORE PUSH1 0x20 DUP3 ADD SWAP1 POP SWAP3 SWAP2 POP POP JUMP JUMPDEST PUSH32 0x416363657373436F6E74726F6C3A2073656E646572206D757374206861766520 PUSH1 0x0 DUP3 ADD MSTORE PUSH32 0x7468652061646D696E20726F6C65000000000000000000000000000000000000 PUSH1 0x20 DUP3 ADD MSTORE POP JUMP JUMPDEST PUSH1 0x0 PUSH2 0x22ED PUSH1 0x2E DUP4 PUSH2 0x2280 JUMP JUMPDEST SWAP2 POP PUSH2 0x22F8 DUP3 PUSH2 0x2291 JUMP JUMPDEST PUSH1 0x40 DUP3 ADD SWAP1 POP SWAP2 SWAP1 POP JUMP JUMPDEST PUSH1 0x0 PUSH1 0x20 DUP3 ADD SWAP1 POP DUP2 DUP2 SUB PUSH1 0x0 DUP4 ADD MSTORE PUSH2 0x231C DUP2 PUSH2 0x22E0 JUMP JUMPDEST SWAP1 POP SWAP2 SWAP1 POP JUMP JUMPDEST PUSH32 0x4465706F73697420616D6F756E74206D75737420626520677265617465722074 PUSH1 0x0 DUP3 ADD MSTORE PUSH32 0x68616E2030000000000000000000000000000000000000000000000000000000 PUSH1 0x20 DUP3 ADD MSTORE POP JUMP JUMPDEST PUSH1 0x0 PUSH2 0x237F PUSH1 0x25 DUP4 PUSH2 0x2280 JUMP JUMPDEST SWAP2 POP PUSH2 0x238A DUP3 PUSH2 0x2323 JUMP JUMPDEST PUSH1 0x40 DUP3 ADD SWAP1 POP SWAP2 SWAP1 POP JUMP JUMPDEST PUSH1 0x0 PUSH1 0x20 DUP3 ADD SWAP1 POP DUP2 DUP2 SUB PUSH1 0x0 DUP4 ADD MSTORE PUSH2 0x23AE DUP2 PUSH2 0x2372 JUMP JUMPDEST SWAP1 POP SWAP2 SWAP1 POP JUMP JUMPDEST PUSH32 0x4E487B7100000000000000000000000000000000000000000000000000000000 PUSH1 0x0 MSTORE PUSH1 0x11 PUSH1 0x4 MSTORE PUSH1 0x24 PUSH1 0x0 REVERT JUMPDEST PUSH1 0x0 PUSH2 0x23EF DUP3 PUSH2 0x1DA3 JUMP JUMPDEST SWAP2 POP PUSH2 0x23FA DUP4 PUSH2 0x1DA3 JUMP JUMPDEST SWAP3 POP DUP3 DUP3 MUL PUSH2 0x2408 DUP2 PUSH2 0x1DA3 JUMP JUMPDEST SWAP2 POP DUP3 DUP3 DIV DUP5 EQ DUP4 ISZERO OR PUSH2 0x241F JUMPI PUSH2 0x241E PUSH2 0x23B5 JUMP JUMPDEST JUMPDEST POP SWAP3 SWAP2 POP POP JUMP JUMPDEST PUSH1 0x0 PUSH2 0x2431 DUP3 PUSH2 0x1DA3 JUMP JUMPDEST SWAP2 POP PUSH2 0x243C DUP4 PUSH2 0x1DA3 JUMP JUMPDEST SWAP3 POP DUP3 DUP3 ADD SWAP1 POP DUP1 DUP3 GT ISZERO PUSH2 0x2454 JUMPI PUSH2 0x2453 PUSH2 0x23B5 JUMP JUMPDEST JUMPDEST SWAP3 SWAP2 POP POP JUMP JUMPDEST PUSH32 0x4C656E677468206D69736D617463680000000000000000000000000000000000 PUSH1 0x0 DUP3 ADD MSTORE POP JUMP JUMPDEST PUSH1 0x0 PUSH2 0x2490 PUSH1 0xF DUP4 PUSH2 0x2280 JUMP JUMPDEST SWAP2 POP PUSH2 0x249B DUP3 PUSH2 0x245A JUMP JUMPDEST PUSH1 0x20 DUP3 ADD SWAP1 POP SWAP2 SWAP1 POP JUMP JUMPDEST PUSH1 0x0 PUSH1 0x20 DUP3 ADD SWAP1 POP DUP2 DUP2 SUB PUSH1 0x0 DUP4 ADD MSTORE PUSH2 0x24BF DUP2 PUSH2 0x2483 JUMP JUMPDEST SWAP1 POP SWAP2 SWAP1 POP JUMP JUMPDEST PUSH1 0x0 PUSH2 0x24D1 DUP3 PUSH2 0x1DA3 JUMP JUMPDEST SWAP2 POP PUSH2 0x24DC DUP4 PUSH2 0x1DA3 JUMP JUMPDEST SWAP3 POP DUP3 DUP3 SUB SWAP1 POP DUP2 DUP2 GT ISZERO PUSH2 0x24F4 JUMPI PUSH2 0x24F3 PUSH2 0x23B5 JUMP JUMPDEST JUMPDEST SWAP3 SWAP2 POP POP JUMP JUMPDEST PUSH2 0x2503 DUP2 PUSH2 0x1BB5 JUMP JUMPDEST DUP2 EQ PUSH2 0x250E JUMPI PUSH1 0x0 DUP1 REVERT JUMPDEST POP JUMP JUMPDEST PUSH1 0x0 DUP2 CALLDATALOAD SWAP1 POP PUSH2 0x2520 DUP2 PUSH2 0x24FA JUMP JUMPDEST SWAP3 SWAP2 POP POP JUMP JUMPDEST PUSH1 0x0 PUSH1 0x20 DUP3 DUP5 SUB SLT ISZERO PUSH2 0x253C JUMPI PUSH2 0x253B PUSH2 0x1C7D JUMP JUMPDEST JUMPDEST PUSH1 0x0 PUSH2 0x254A DUP5 DUP3 DUP6 ADD PUSH2 0x2511 JUMP JUMPDEST SWAP2 POP POP SWAP3 SWAP2 POP POP JUMP JUMPDEST PUSH32 0x4C6173742070726F626162696C697479206D7573742062652031303030303030 PUSH1 0x0 DUP3 ADD MSTORE PUSH32 0x3000000000000000000000000000000000000000000000000000000000000000 PUSH1 0x20 DUP3 ADD MSTORE POP JUMP JUMPDEST PUSH1 0x0 PUSH2 0x25AF PUSH1 0x21 DUP4 PUSH2 0x2280 JUMP JUMPDEST SWAP2 POP PUSH2 0x25BA DUP3 PUSH2 0x2553 JUMP JUMPDEST PUSH1 0x40 DUP3 ADD SWAP1 POP SWAP2 SWAP1 POP JUMP JUMPDEST PUSH1 0x0 PUSH1 0x20 DUP3 ADD SWAP1 POP DUP2 DUP2 SUB PUSH1 0x0 DUP4 ADD MSTORE PUSH2 0x25DE DUP2 PUSH2 0x25A2 JUMP JUMPDEST SWAP1 POP SWAP2 SWAP1 POP JUMP JUMPDEST PUSH1 0x0 PUSH2 0x25F0 DUP3 PUSH2 0x1C87 JUMP JUMPDEST SWAP2 POP PUSH2 0xFFFF DUP3 SUB PUSH2 0x2604 JUMPI PUSH2 0x2603 PUSH2 0x23B5 JUMP JUMPDEST JUMPDEST PUSH1 0x1 DUP3 ADD SWAP1 POP SWAP2 SWAP1 POP JUMP JUMPDEST PUSH32 0x546F74616C207365676D656E7473206D75737420626520677265617465722074 PUSH1 0x0 DUP3 ADD MSTORE PUSH32 0x68616E2030000000000000000000000000000000000000000000000000000000 PUSH1 0x20 DUP3 ADD MSTORE POP JUMP JUMPDEST PUSH1 0x0 PUSH2 0x266B PUSH1 0x25 DUP4 PUSH2 0x2280 JUMP JUMPDEST SWAP2 POP PUSH2 0x2676 DUP3 PUSH2 0x260F JUMP JUMPDEST PUSH1 0x40 DUP3 ADD SWAP1 POP SWAP2 SWAP1 POP JUMP JUMPDEST PUSH1 0x0 PUSH1 0x20 DUP3 ADD SWAP1 POP DUP2 DUP2 SUB PUSH1 0x0 DUP4 ADD MSTORE PUSH2 0x269A DUP2 PUSH2 0x265E JUMP JUMPDEST SWAP1 POP SWAP2 SWAP1 POP JUMP JUMPDEST PUSH32 0x5370696E6E6572206E6F74206163746976650000000000000000000000000000 PUSH1 0x0 DUP3 ADD MSTORE POP JUMP JUMPDEST PUSH1 0x0 PUSH2 0x26D7 PUSH1 0x12 DUP4 PUSH2 0x2280 JUMP JUMPDEST SWAP2 POP PUSH2 0x26E2 DUP3 PUSH2 0x26A1 JUMP JUMPDEST PUSH1 0x20 DUP3 ADD SWAP1 POP SWAP2 SWAP1 POP JUMP JUMPDEST PUSH1 0x0 PUSH1 0x20 DUP3 ADD SWAP1 POP DUP2 DUP2 SUB PUSH1 0x0 DUP4 ADD MSTORE PUSH2 0x2706 DUP2 PUSH2 0x26CA JUMP JUMPDEST SWAP1 POP SWAP2 SWAP1 POP JUMP JUMPDEST PUSH1 0x0 DUP2 SWAP1 POP SWAP2 SWAP1 POP JUMP JUMPDEST PUSH2 0x2728 PUSH2 0x2723 DUP3 PUSH2 0x1DA3 JUMP JUMPDEST PUSH2 0x270D JUMP JUMPDEST DUP3 MSTORE POP POP JUMP JUMPDEST PUSH1 0x0 DUP2 PUSH1 0x60 SHL SWAP1 POP SWAP2 SWAP1 POP JUMP JUMPDEST PUSH1 0x0 PUSH2 0x2746 DUP3 PUSH2 0x272E JUMP JUMPDEST SWAP1 POP SWAP2 SWAP1 POP JUMP JUMPDEST PUSH1 0x0 PUSH2 0x2758 DUP3 PUSH2 0x273B JUMP JUMPDEST SWAP1 POP SWAP2 SWAP1 POP JUMP JUMPDEST PUSH2 0x2770 PUSH2 0x276B DUP3 PUSH2 0x1D38 JUMP JUMPDEST PUSH2 0x274D JUMP JUMPDEST DUP3 MSTORE POP POP JUMP JUMPDEST PUSH1 0x0 PUSH2 0x2782 DUP3 DUP9 PUSH2 0x2717 JUMP JUMPDEST PUSH1 0x20 DUP3 ADD SWAP2 POP PUSH2 0x2792 DUP3 DUP8 PUSH2 0x2717 JUMP JUMPDEST PUSH1 0x20 DUP3 ADD SWAP2 POP PUSH2 0x27A2 DUP3 DUP7 PUSH2 0x275F JUMP JUMPDEST PUSH1 0x14 DUP3 ADD SWAP2 POP PUSH2 0x27B2 DUP3 DUP6 PUSH2 0x2717 JUMP JUMPDEST PUSH1 0x20 DUP3 ADD SWAP2 POP PUSH2 0x27C2 DUP3 DUP5 PUSH2 0x2717 JUMP JUMPDEST PUSH1 0x20 DUP3 ADD SWAP2 POP DUP2 SWAP1 POP SWAP7 SWAP6 POP POP POP POP POP POP JUMP JUMPDEST PUSH32 0x4E487B7100000000000000000000000000000000000000000000000000000000 PUSH1 0x0 MSTORE PUSH1 0x12 PUSH1 0x4 MSTORE PUSH1 0x24 PUSH1 0x0 REVERT JUMPDEST PUSH1 0x0 PUSH2 0x280F DUP3 PUSH2 0x1DA3 JUMP JUMPDEST SWAP2 POP PUSH2 0x281A DUP4 PUSH2 0x1DA3 JUMP JUMPDEST SWAP3 POP DUP3 PUSH2 0x282A JUMPI PUSH2 0x2829 PUSH2 0x27D5 JUMP JUMPDEST JUMPDEST DUP3 DUP3 MOD SWAP1 POP SWAP3 SWAP2 POP POP JUMP JUMPDEST PUSH1 0x0 PUSH2 0x2840 DUP3 PUSH2 0x1DA3 JUMP JUMPDEST SWAP2 POP PUSH32 0xFFFFFFFFFFFFFFFFFFFFFFFFFFFFFFFFFFFFFFFFFFFFFFFFFFFFFFFFFFFFFFFF DUP3 SUB PUSH2 0x2872 JUMPI PUSH2 0x2871 PUSH2 0x23B5 JUMP JUMPDEST JUMPDEST PUSH1 0x1 DUP3 ADD SWAP1 POP SWAP2 SWAP1 POP JUMP JUMPDEST PUSH1 0x0 PUSH2 0x2888 DUP3 PUSH2 0x1BB5 JUMP JUMPDEST SWAP2 POP PUSH1 0x0 DUP3 SUB PUSH2 0x289B JUMPI PUSH2 0x289A PUSH2 0x23B5 JUMP JUMPDEST JUMPDEST PUSH1 0x1 DUP3 SUB SWAP1 POP SWAP2 SWAP1 POP JUMP JUMPDEST PUSH32 0x4E6F2076616C6964207365676D656E747320617661696C61626C652061667465 PUSH1 0x0 DUP3 ADD MSTORE PUSH32 0x7220333020617474656D70747300000000000000000000000000000000000000 PUSH1 0x20 DUP3 ADD MSTORE POP JUMP JUMPDEST PUSH1 0x0 PUSH2 0x2902 PUSH1 0x2D DUP4 PUSH2 0x2280 JUMP JUMPDEST SWAP2 POP PUSH2 0x290D DUP3 PUSH2 0x28A6 JUMP JUMPDEST PUSH1 0x40 DUP3 ADD SWAP1 POP SWAP2 SWAP1 POP JUMP JUMPDEST PUSH1 0x0 PUSH1 0x20 DUP3 ADD SWAP1 POP DUP2 DUP2 SUB PUSH1 0x0 DUP4 ADD MSTORE PUSH2 0x2931 DUP2 PUSH2 0x28F5 JUMP JUMPDEST SWAP1 POP SWAP2 SWAP1 POP JUMP JUMPDEST PUSH1 0x0 PUSH2 0x2943 DUP3 PUSH2 0x1BB5 JUMP JUMPDEST SWAP2 POP PUSH8 0xFFFFFFFFFFFFFFFF DUP3 SUB PUSH2 0x295D JUMPI PUSH2 0x295C PUSH2 0x23B5 JUMP JUMPDEST JUMPDEST PUSH1 0x1 DUP3 ADD SWAP1 POP SWAP2 SWAP1 POP JUMP JUMPDEST PUSH1 0x0 DUP2 SWAP1 POP SWAP2 SWAP1 POP JUMP JUMPDEST PUSH1 0x0 PUSH2 0x298D PUSH2 0x2988 PUSH2 0x2983 DUP5 PUSH2 0x1C87 JUMP JUMPDEST PUSH2 0x2968 JUMP JUMPDEST PUSH2 0x1DA3 JUMP JUMPDEST SWAP1 POP SWAP2 SWAP1 POP JUMP JUMPDEST PUSH2 0x299D DUP2 PUSH2 0x2972 JUMP JUMPDEST DUP3 MSTORE POP POP JUMP JUMPDEST PUSH1 0x0 PUSH1 0x60 DUP3 ADD SWAP1 POP PUSH2 0x29B8 PUSH1 0x0 DUP4 ADD DUP7 PUSH2 0x2994 JUMP JUMPDEST PUSH2 0x29C5 PUSH1 0x20 DUP4 ADD DUP6 PUSH2 0x1DAD JUMP JUMPDEST PUSH2 0x29D2 PUSH1 0x40 DUP4 ADD DUP5 PUSH2 0x1DAD JUMP JUMPDEST SWAP5 SWAP4 POP POP POP POP JUMP INVALID LOG2 PUSH5 0x6970667358 0x22 SLT KECCAK256 COINBASE 0xC9 LOG2 SWAP8 PUSH2 0xF47F SWAP5 JUMPI PUSH25 0x29305F04F1B72FC5678C14AA2448E819B6D0FA6C8F9A64736F PUSH13 0x63430008180033000000000000 "},"methodIdentifiers":{"ADMIN_ROLE()":"75b238fc","MAX_PROBABILITY()":"cc40a8ca","PRECISION()":"aaf5eb68","countPerKaia()":"4db33ba2","depositKaia()":"59f96f8e","feeRelayer()":"fc341736","getActiveStatus()":"f3e67610","getProbabilities()":"062f7b8c","getRemainingAmounts()":"5f16b518","getSegmentAmounts()":"bc4af01b","getUserSegmentHits(address,uint16)":"a6794c7c","getUserSegmentHitsAll(address)":"79081d9d","getUserSpinCount(address)":"656c0ead","getUserSpinsAvailable(address)":"1039b1d9","grantRole(bytes32,address)":"2f2ff15d","hasRole(bytes32,address)":"91d14854","isActive()":"22f3e2d4","revokeRole(bytes32,address)":"d547741f","segmentAmounts(uint16)":"0661939d","segmentProbabilities(uint16)":"21dbc5bf","segmentRemaining(uint16)":"8acf974d","setActive(bool)":"acec338a","setCountPerKaia(uint256)":"fae2ac1e","setFeeRelayer(address)":"1dc2a488","setSegmentAmounts(uint64[],uint64[])":"95ee1217","setTotalSegments(uint16)":"bc17530a","spin()":"f0acd7d5","totalSegments()":"8ea1f363","totalSpins()":"901b2036","userSegmentHits(address,uint256)":"fe8e1dc2","userSpinCount(address)":"6cd6e4cf","userSpinsAvailable(address)":"d96cff32"}}}}}