{"contracts/Spinner.sol":{"Spinner":{"abi":[{"inputs":[{"internalType":"uint16","name":"_totalSegments","type":"uint16"},{"internalType":"address","name":"_feeRelayer","type":"address"},{"internalType":"uint256","name":"_countPerKaia","type":"uint256"}],"stateMutability":"nonpayable","type":"constructor"},{"inputs":[],"name":"ReentrancyGuardReentrantCall","type":"error"},{"anonymous":false,"inputs":[{"indexed":true,"internalType":"address","name":"user","type":"address"},{"indexed":false,"internalType":"uint256","name":"blockNumber","type":"uint256"}],"name":"RechargeSpins","type":"event"},{"anonymous":false,"inputs":[{"indexed":true,"internalType":"bytes32","name":"role","type":"bytes32"},{"indexed":true,"internalType":"address","name":"account","type":"address"},{"indexed":true,"internalType":"address","name":"admin","type":"address"}],"name":"RoleGranted","type":"event"},{"anonymous":false,"inputs":[{"indexed":true,"internalType":"bytes32","name":"role","type":"bytes32"},{"indexed":true,"internalType":"address","name":"account","type":"address"},{"indexed":true,"internalType":"address","name":"admin","type":"address"}],"name":"RoleRevoked","type":"event"},{"anonymous":false,"inputs":[{"indexed":true,"internalType":"address","name":"user","type":"address"},{"indexed":false,"internalType":"uint256","name":"segment","type":"uint256"},{"indexed":false,"internalType":"uint256","name":"randomNumber","type":"uint256"},{"indexed":false,"internalType":"uint256","name":"timestamp","type":"uint256"}],"name":"SpinResult","type":"event"},{"inputs":[],"name":"ADMIN_ROLE","outputs":[{"internalType":"bytes32","name":"","type":"bytes32"}],"stateMutability":"view","type":"function"},{"inputs":[],"name":"MAX_PROBABILITY","outputs":[{"internalType":"uint256","name":"","type":"uint256"}],"stateMutability":"view","type":"function"},{"inputs":[],"name":"PRECISION","outputs":[{"internalType":"uint256","name":"","type":"uint256"}],"stateMutability":"view","type":"function"},{"inputs":[],"name":"countPerKaia","outputs":[{"internalType":"uint256","name":"","type":"uint256"}],"stateMutability":"view","type":"function"},{"inputs":[],"name":"endBlock","outputs":[{"internalType":"uint256","name":"","type":"uint256"}],"stateMutability":"view","type":"function"},{"inputs":[],"name":"feeRelayer","outputs":[{"internalType":"address","name":"","type":"address"}],"stateMutability":"view","type":"function"},{"inputs":[],"name":"freeSpinPerDay","outputs":[{"internalType":"uint256","name":"","type":"uint256"}],"stateMutability":"view","type":"function"},{"inputs":[{"internalType":"address","name":"user","type":"address"}],"name":"getLastRechargeBlock","outputs":[{"internalType":"uint256","name":"","type":"uint256"},{"internalType":"uint256","name":"","type":"uint256"}],"stateMutability":"view","type":"function"},{"inputs":[],"name":"getProbabilities","outputs":[{"internalType":"uint64[]","name":"probabilities","type":"uint64[]"}],"stateMutability":"view","type":"function"},{"inputs":[],"name":"getRemainingAmounts","outputs":[{"internalType":"uint64[]","name":"amounts","type":"uint64[]"}],"stateMutability":"view","type":"function"},{"inputs":[],"name":"getSegmentAmounts","outputs":[{"internalType":"uint64[]","name":"amounts","type":"uint64[]"}],"stateMutability":"view","type":"function"},{"inputs":[{"internalType":"address","name":"user","type":"address"},{"internalType":"uint16","name":"segment","type":"uint16"}],"name":"getUserSegmentHits","outputs":[{"internalType":"uint256","name":"","type":"uint256"}],"stateMutability":"view","type":"function"},{"inputs":[{"internalType":"address","name":"user","type":"address"}],"name":"getUserSegmentHitsAll","outputs":[{"internalType":"uint256[]","name":"","type":"uint256[]"}],"stateMutability":"view","type":"function"},{"inputs":[{"internalType":"address","name":"user","type":"address"}],"name":"getUserSpinCount","outputs":[{"internalType":"uint64","name":"","type":"uint64"}],"stateMutability":"view","type":"function"},{"inputs":[{"internalType":"address","name":"user","type":"address"}],"name":"getUserSpinsAvailable","outputs":[{"internalType":"uint256","name":"","type":"uint256"}],"stateMutability":"view","type":"function"},{"inputs":[{"internalType":"bytes32","name":"role","type":"bytes32"},{"internalType":"address","name":"account","type":"address"}],"name":"grantRole","outputs":[],"stateMutability":"nonpayable","type":"function"},{"inputs":[{"internalType":"bytes32","name":"role","type":"bytes32"},{"internalType":"address","name":"account","type":"address"}],"name":"hasRole","outputs":[{"internalType":"bool","name":"","type":"bool"}],"stateMutability":"view","type":"function"},{"inputs":[],"name":"isActive","outputs":[{"internalType":"bool","name":"","type":"bool"}],"stateMutability":"view","type":"function"},{"inputs":[{"internalType":"address","name":"","type":"address"}],"name":"lastRechargeBlock","outputs":[{"internalType":"uint256","name":"","type":"uint256"}],"stateMutability":"view","type":"function"},{"inputs":[],"name":"rechargeBlockInterval","outputs":[{"internalType":"uint256","name":"","type":"uint256"}],"stateMutability":"view","type":"function"},{"inputs":[{"internalType":"address","name":"user","type":"address"}],"name":"rechargeSpins","outputs":[],"stateMutability":"nonpayable","type":"function"},{"inputs":[{"internalType":"bytes32","name":"role","type":"bytes32"},{"internalType":"address","name":"account","type":"address"}],"name":"revokeRole","outputs":[],"stateMutability":"nonpayable","type":"function"},{"inputs":[{"internalType":"uint16","name":"","type":"uint16"}],"name":"segmentAmounts","outputs":[{"internalType":"uint64","name":"","type":"uint64"}],"stateMutability":"view","type":"function"},{"inputs":[{"internalType":"uint16","name":"","type":"uint16"}],"name":"segmentProbabilities","outputs":[{"internalType":"uint64","name":"","type":"uint64"}],"stateMutability":"view","type":"function"},{"inputs":[{"internalType":"uint16","name":"","type":"uint16"}],"name":"segmentRemaining","outputs":[{"internalType":"uint64","name":"","type":"uint64"}],"stateMutability":"view","type":"function"},{"inputs":[{"internalType":"uint256","name":"_startBlock","type":"uint256"},{"internalType":"uint256","name":"_endBlock","type":"uint256"}],"name":"setBlockRange","outputs":[],"stateMutability":"nonpayable","type":"function"},{"inputs":[{"internalType":"uint256","name":"_countPerKaia","type":"uint256"}],"name":"setCountPerKaia","outputs":[],"stateMutability":"nonpayable","type":"function"},{"inputs":[{"internalType":"address","name":"_feeRelayer","type":"address"}],"name":"setFeeRelayer","outputs":[],"stateMutability":"nonpayable","type":"function"},{"inputs":[{"internalType":"uint256","name":"_freeSpinsPerDay","type":"uint256"}],"name":"setFreeSpinsPerDay","outputs":[],"stateMutability":"nonpayable","type":"function"},{"inputs":[{"internalType":"uint256","name":"_rechargeBlockInterval","type":"uint256"}],"name":"setRechargeBlockInterval","outputs":[],"stateMutability":"nonpayable","type":"function"},{"inputs":[{"internalType":"uint64[]","name":"amounts","type":"uint64[]"},{"internalType":"uint64[]","name":"probabilities","type":"uint64[]"}],"name":"setSegmentAmounts","outputs":[],"stateMutability":"nonpayable","type":"function"},{"inputs":[{"internalType":"uint16","name":"_totalSegments","type":"uint16"}],"name":"setTotalSegments","outputs":[],"stateMutability":"nonpayable","type":"function"},{"inputs":[],"name":"spin","outputs":[{"internalType":"uint16","name":"segment","type":"uint16"},{"internalType":"uint256","name":"randomNumber","type":"uint256"}],"stateMutability":"nonpayable","type":"function"},{"inputs":[],"name":"startBlock","outputs":[{"internalType":"uint256","name":"","type":"uint256"}],"stateMutability":"view","type":"function"},{"inputs":[],"name":"totalSegments","outputs":[{"internalType":"uint16","name":"","type":"uint16"}],"stateMutability":"view","type":"function"},{"inputs":[],"name":"totalSpins","outputs":[{"internalType":"uint256","name":"","type":"uint256"}],"stateMutability":"view","type":"function"},{"inputs":[{"internalType":"address","name":"","type":"address"},{"internalType":"uint256","name":"","type":"uint256"}],"name":"userSegmentHits","outputs":[{"internalType":"uint256","name":"","type":"uint256"}],"stateMutability":"view","type":"function"},{"inputs":[{"internalType":"address","name":"","type":"address"}],"name":"userSpinCount","outputs":[{"internalType":"uint64","name":"","type":"uint64"}],"stateMutability":"view","type":"function"},{"inputs":[{"internalType":"address","name":"","type":"address"}],"name":"userSpinsAvailable","outputs":[{"internalType":"uint256","name":"","type":"uint256"}],"stateMutability":"view","type":"function"}],"evm":{"bytecode":{"linkReferences":{},"object":"60806040526064600255620151806003553480156200001d57600080fd5b506040516200322838038062003228833981810160405281019062000043919062000288565b600180819055506200005f6000801b33620000dd60201b60201c565b82600460006101000a81548161ffff021916908361ffff16021790555081600460026101000a81548173ffffffffffffffffffffffffffffffffffffffff021916908373ffffffffffffffffffffffffffffffffffffffff160217905550806005819055506000600a819055506000600b81905550505050620002e4565b600160008084815260200190815260200160002060008373ffffffffffffffffffffffffffffffffffffffff1673ffffffffffffffffffffffffffffffffffffffff16815260200190815260200160002060006101000a81548160ff0219169083151502179055503373ffffffffffffffffffffffffffffffffffffffff168173ffffffffffffffffffffffffffffffffffffffff16837f2f8788117e7eff1d82e926ec794901d17c78024a50270940304540a733656f0d60405160405180910390a45050565b600080fd5b600061ffff82169050919050565b620001c281620001a9565b8114620001ce57600080fd5b50565b600081519050620001e281620001b7565b92915050565b600073ffffffffffffffffffffffffffffffffffffffff82169050919050565b60006200021582620001e8565b9050919050565b620002278162000208565b81146200023357600080fd5b50565b60008151905062000247816200021c565b92915050565b6000819050919050565b62000262816200024d565b81146200026e57600080fd5b50565b600081519050620002828162000257565b92915050565b600080600060608486031215620002a457620002a3620001a4565b5b6000620002b486828701620001d1565b9350506020620002c78682870162000236565b9250506040620002da8682870162000271565b9150509250925092565b612f3480620002f46000396000f3fe608060405234801561001057600080fd5b506004361061023d5760003560e01c806379081d9d1161013b578063bc17530a116100b8578063eb9c9d9b1161007c578063eb9c9d9b14610707578063f0acd7d514610723578063fae2ac1e14610742578063fc3417361461075e578063fe8e1dc21461077c5761023d565b8063bc17530a14610663578063bc4af01b1461067f578063cc40a8ca1461069d578063d547741f146106bb578063d96cff32146106d75761023d565b806391d14854116100ff57806391d14854146105ad57806392eefe2b146105dd57806395ee1217146105f9578063a6794c7c14610615578063aaf5eb68146106455761023d565b806379081d9d146104e15780637cd0fa5c146105115780638acf974d146105415780638ea1f36314610571578063901b20361461058f5761023d565b80633cb85a8d116101c9578063656c0ead1161018d578063656c0ead146104165780636a5acd6b146104465780636cd6e4cf146104775780636ef45e7d146104a757806375b238fc146104c35761023d565b80633cb85a8d1461038057806348cd4cb11461039e5780634db33ba2146103bc57806350211e75146103da5780635f16b518146103f85761023d565b8063150095eb11610210578063150095eb146102de5780631dc2a488146102fa57806321dbc5bf1461031657806322f3e2d4146103465780632f2ff15d146103645761023d565b8063062f7b8c146102425780630661939d14610260578063083c6323146102905780631039b1d9146102ae575b600080fd5b61024a6107ac565b6040516102579190611f66565b60405180910390f35b61027a60048036038101906102759190611fcc565b6108aa565b6040516102879190612008565b60405180910390f35b6102986108d1565b6040516102a5919061203c565b60405180910390f35b6102c860048036038101906102c391906120b5565b6108d7565b6040516102d5919061203c565b60405180910390f35b6102f860048036038101906102f3919061210e565b610920565b005b610314600480360381019061030f91906120b5565b610978565b005b610330600480360381019061032b9190611fcc565b610a0a565b60405161033d9190612008565b60405180910390f35b61034e610a31565b60405161035b9190612156565b60405180910390f35b61037e600480360381019061037991906121a7565b610a67565b005b610388610ac3565b604051610395919061203c565b60405180910390f35b6103a6610ac9565b6040516103b3919061203c565b60405180910390f35b6103c4610acf565b6040516103d1919061203c565b60405180910390f35b6103e2610ad5565b6040516103ef919061203c565b60405180910390f35b610400610adb565b60405161040d9190611f66565b60405180910390f35b610430600480360381019061042b91906120b5565b610bd9565b60405161043d9190612008565b60405180910390f35b610460600480360381019061045b91906120b5565b610c36565b60405161046e9291906121e7565b60405180910390f35b610491600480360381019061048c91906120b5565b610c83565b60405161049e9190612008565b60405180910390f35b6104c160048036038101906104bc9190612210565b610caa565b005b6104cb610d9a565b6040516104d8919061225f565b60405180910390f35b6104fb60048036038101906104f691906120b5565b610da1565b6040516105089190612338565b60405180910390f35b61052b600480360381019061052691906120b5565b610eb6565b604051610538919061203c565b60405180910390f35b61055b60048036038101906105569190611fcc565b610ece565b6040516105689190612008565b60405180910390f35b610579610ef5565b6040516105869190612369565b60405180910390f35b610597610f09565b6040516105a4919061203c565b60405180910390f35b6105c760048036038101906105c291906121a7565b610f0f565b6040516105d49190612156565b60405180910390f35b6105f760048036038101906105f2919061210e565b610f76565b005b610613600480360381019061060e91906123e9565b610fce565b005b61062f600480360381019061062a919061246a565b61125d565b60405161063c919061203c565b60405180910390f35b61064d6112bc565b60405161065a919061203c565b60405180910390f35b61067d60048036038101906106789190611fcc565b6112c8565b005b61068761137d565b6040516106949190611f66565b60405180910390f35b6106a561147b565b6040516106b2919061203c565b60405180910390f35b6106d560048036038101906106d091906121a7565b611483565b005b6106f160048036038101906106ec91906120b5565b6114df565b6040516106fe919061203c565b60405180910390f35b610721600480360381019061071c91906120b5565b6114f7565b005b61072b611701565b6040516107399291906124aa565b60405180910390f35b61075c6004803603810190610757919061210e565b611c14565b005b610766611c6c565b60405161077391906124e2565b60405180910390f35b610796600480360381019061079191906124fd565b611c92565b6040516107a3919061203c565b60405180910390f35b6060600460009054906101000a900461ffff1661ffff1667ffffffffffffffff8111156107dc576107db61253d565b5b60405190808252806020026020018201604052801561080a5781602001602082028036833780820191505090505b50905060005b600460009054906101000a900461ffff1661ffff168161ffff1610156108a657600860008261ffff1661ffff16815260200190815260200160002060009054906101000a900467ffffffffffffffff16828261ffff16815181106108775761087661256c565b5b602002602001019067ffffffffffffffff16908167ffffffffffffffff16815250508080600101915050610810565b5090565b60066020528060005260406000206000915054906101000a900467ffffffffffffffff1681565b600b5481565b6000600d60008373ffffffffffffffffffffffffffffffffffffffff1673ffffffffffffffffffffffffffffffffffffffff168152602001908152602001600020549050919050565b6000801b61092e8133610f0f565b61096d576040517f08c379a00000000000000000000000000000000000000000000000000000000081526004016109649061261e565b60405180910390fd5b816002819055505050565b6000801b6109868133610f0f565b6109c5576040517f08c379a00000000000000000000000000000000000000000000000000000000081526004016109bc9061261e565b60405180910390fd5b81600460026101000a81548173ffffffffffffffffffffffffffffffffffffffff021916908373ffffffffffffffffffffffffffffffffffffffff1602179055505050565b60086020528060005260406000206000915054906101000a900467ffffffffffffffff1681565b600080600a5414158015610a475750600a544310155b8015610a6257506000600b541480610a615750600b544311155b5b905090565b6000801b610a758133610f0f565b610ab4576040517f08c379a0000000000000000000000000000000000000000000000000000000008152600401610aab9061261e565b60405180910390fd5b610abe8383611cb7565b505050565b60035481565b600a5481565b60055481565b60025481565b6060600460009054906101000a900461ffff1661ffff1667ffffffffffffffff811115610b0b57610b0a61253d565b5b604051908082528060200260200182016040528015610b395781602001602082028036833780820191505090505b50905060005b600460009054906101000a900461ffff1661ffff168161ffff161015610bd557600760008261ffff1661ffff16815260200190815260200160002060009054906101000a900467ffffffffffffffff16828261ffff1681518110610ba657610ba561256c565b5b602002602001019067ffffffffffffffff16908167ffffffffffffffff16815250508080600101915050610b3f565b5090565b6000600e60008373ffffffffffffffffffffffffffffffffffffffff1673ffffffffffffffffffffffffffffffffffffffff16815260200190815260200160002060009054906101000a900467ffffffffffffffff169050919050565b600080600c60008473ffffffffffffffffffffffffffffffffffffffff1673ffffffffffffffffffffffffffffffffffffffff168152602001908152602001600020544391509150915091565b600e6020528060005260406000206000915054906101000a900467ffffffffffffffff1681565b6000801b610cb88133610f0f565b610cf7576040517f08c379a0000000000000000000000000000000000000000000000000000000008152600401610cee9061261e565b60405180910390fd5b43831015610d3a576040517f08c379a0000000000000000000000000000000000000000000000000000000008152600401610d31906126b0565b60405180910390fd5b6000821480610d4857508282115b610d87576040517f08c379a0000000000000000000000000000000000000000000000000000000008152600401610d7e90612742565b60405180910390fd5b82600a8190555081600b81905550505050565b6000801b81565b60606000600460009054906101000a900461ffff1661ffff1667ffffffffffffffff811115610dd357610dd261253d565b5b604051908082528060200260200182016040528015610e015781602001602082028036833780820191505090505b50905060005b600460009054906101000a900461ffff1661ffff168161ffff161015610eac57600f60008573ffffffffffffffffffffffffffffffffffffffff1673ffffffffffffffffffffffffffffffffffffffff16815260200190815260200160002060008261ffff16815260200190815260200160002054828261ffff1681518110610e9357610e9261256c565b5b6020026020010181815250508080600101915050610e07565b5080915050919050565b600c6020528060005260406000206000915090505481565b60076020528060005260406000206000915054906101000a900467ffffffffffffffff1681565b600460009054906101000a900461ffff1681565b60095481565b600080600084815260200190815260200160002060008373ffffffffffffffffffffffffffffffffffffffff1673ffffffffffffffffffffffffffffffffffffffff16815260200190815260200160002060009054906101000a900460ff16905092915050565b6000801b610f848133610f0f565b610fc3576040517f08c379a0000000000000000000000000000000000000000000000000000000008152600401610fba9061261e565b60405180910390fd5b816003819055505050565b6000801b610fdc8133610f0f565b61101b576040517f08c379a00000000000000000000000000000000000000000000000000000000081526004016110129061261e565b60405180910390fd5b828290508585905014611063576040517f08c379a000000000000000000000000000000000000000000000000000000000815260040161105a906127ae565b60405180910390fd5b6305f5e100838360018686905061107a91906127fd565b81811061108a5761108961256c565b5b905060200201602081019061109f919061285d565b67ffffffffffffffff16146110e9576040517f08c379a00000000000000000000000000000000000000000000000000000000081526004016110e0906128fc565b60405180910390fd5b60005b858590508161ffff1610156112555785858261ffff168181106111125761111161256c565b5b9050602002016020810190611127919061285d565b600660008361ffff1661ffff16815260200190815260200160002060006101000a81548167ffffffffffffffff021916908367ffffffffffffffff16021790555085858261ffff1681811061117f5761117e61256c565b5b9050602002016020810190611194919061285d565b600760008361ffff1661ffff16815260200190815260200160002060006101000a81548167ffffffffffffffff021916908367ffffffffffffffff16021790555083838261ffff168181106111ec576111eb61256c565b5b9050602002016020810190611201919061285d565b600860008361ffff1661ffff16815260200190815260200160002060006101000a81548167ffffffffffffffff021916908367ffffffffffffffff160217905550808061124d9061291c565b9150506110ec565b505050505050565b6000600f60008473ffffffffffffffffffffffffffffffffffffffff1673ffffffffffffffffffffffffffffffffffffffff16815260200190815260200160002060008361ffff16815260200190815260200160002054905092915050565b670de0b6b3a764000081565b6000801b6112d68133610f0f565b611315576040517f08c379a000000000000000000000000000000000000000000000000000000000815260040161130c9061261e565b60405180910390fd5b60008261ffff161161135c576040517f08c379a0000000000000000000000000000000000000000000000000000000008152600401611353906129b8565b60405180910390fd5b81600460006101000a81548161ffff021916908361ffff1602179055505050565b6060600460009054906101000a900461ffff1661ffff1667ffffffffffffffff8111156113ad576113ac61253d565b5b6040519080825280602002602001820160405280156113db5781602001602082028036833780820191505090505b50905060005b600460009054906101000a900461ffff1661ffff168161ffff16101561147757600660008261ffff1661ffff16815260200190815260200160002060009054906101000a900467ffffffffffffffff16828261ffff16815181106114485761144761256c565b5b602002602001019067ffffffffffffffff16908167ffffffffffffffff168152505080806001019150506113e1565b5090565b6305f5e10081565b6000801b6114918133610f0f565b6114d0576040517f08c379a00000000000000000000000000000000000000000000000000000000081526004016114c79061261e565b60405180910390fd5b6114da8383611d7e565b505050565b600d6020528060005260406000206000915090505481565b8073ffffffffffffffffffffffffffffffffffffffff163373ffffffffffffffffffffffffffffffffffffffff16148061153a57506115396000801b33610f0f565b5b611579576040517f08c379a000000000000000000000000000000000000000000000000000000000815260040161157090612a4a565b60405180910390fd5b60004390506000600c60008473ffffffffffffffffffffffffffffffffffffffff1673ffffffffffffffffffffffffffffffffffffffff16815260200190815260200160002054826115cb91906127fd565b9050600354811015611612576040517f08c379a000000000000000000000000000000000000000000000000000000000815260040161160990612adc565b60405180910390fd5b600254600d60008573ffffffffffffffffffffffffffffffffffffffff1673ffffffffffffffffffffffffffffffffffffffff16815260200190815260200160002060008282546116639190612afc565b9250508190555081600c60008573ffffffffffffffffffffffffffffffffffffffff1673ffffffffffffffffffffffffffffffffffffffff168152602001908152602001600020819055508273ffffffffffffffffffffffffffffffffffffffff167fb12ec13040779b0b4e7d608b32399fbcfb5c1ab5fb2cc08226d4ed2a32728b3e836040516116f4919061203c565b60405180910390a2505050565b60008061170c611e45565b611714610a31565b611753576040517f08c379a000000000000000000000000000000000000000000000000000000000815260040161174a90612b7c565b60405180910390fd5b6000600d60003373ffffffffffffffffffffffffffffffffffffffff1673ffffffffffffffffffffffffffffffffffffffff16815260200190815260200160002054116117d5576040517f08c379a00000000000000000000000000000000000000000000000000000000081526004016117cc90612be8565b60405180910390fd5b6000806000601e90505b821580156117ec57508082105b15611a2a5760016305f5e10042443360095487604051602001611813959493929190612c71565b6040516020818303038152906040528051906020012060001c6118369190612cff565b6118409190612afc565b935060005b600460009054906101000a900461ffff1661ffff168161ffff1610801561186a575083155b15611a1657600860008261ffff1661ffff16815260200190815260200160002060009054906101000a900467ffffffffffffffff1667ffffffffffffffff168511611a03576000600660008361ffff1661ffff16815260200190815260200160002060009054906101000a900467ffffffffffffffff1667ffffffffffffffff16148061193057506000600760008361ffff1661ffff16815260200190815260200160002060009054906101000a900467ffffffffffffffff1667ffffffffffffffff16115b15611a0257600193508095506009600081548092919061194f90612d30565b91905055506000600760008361ffff1661ffff16815260200190815260200160002060009054906101000a900467ffffffffffffffff1667ffffffffffffffff1611156119fd57600760008261ffff1661ffff168152602001908152602001600020600081819054906101000a900467ffffffffffffffff16809291906119d590612d78565b91906101000a81548167ffffffffffffffff021916908367ffffffffffffffff160217905550505b611a16565b5b8080611a0e9061291c565b915050611845565b508180611a2290612d30565b9250506117df565b82611a6a576040517f08c379a0000000000000000000000000000000000000000000000000000000008152600401611a6190612e13565b60405180910390fd5b600e60003373ffffffffffffffffffffffffffffffffffffffff1673ffffffffffffffffffffffffffffffffffffffff168152602001908152602001600020600081819054906101000a900467ffffffffffffffff1680929190611acd90612e33565b91906101000a81548167ffffffffffffffff021916908367ffffffffffffffff16021790555050600f60003373ffffffffffffffffffffffffffffffffffffffff1673ffffffffffffffffffffffffffffffffffffffff16815260200190815260200160002060008661ffff1681526020019081526020016000206000815480929190611b5990612d30565b9190505550600d60003373ffffffffffffffffffffffffffffffffffffffff1673ffffffffffffffffffffffffffffffffffffffff1681526020019081526020016000206000815480929190611bae90612e63565b91905055503373ffffffffffffffffffffffffffffffffffffffff167ff825702cbc83605d7fababea4c41c307150aab23ae229acda80af9d946aa4292868642604051611bfd93929190612ec7565b60405180910390a2505050611c10611e8b565b9091565b6000801b611c228133610f0f565b611c61576040517f08c379a0000000000000000000000000000000000000000000000000000000008152600401611c589061261e565b60405180910390fd5b816005819055505050565b600460029054906101000a900473ffffffffffffffffffffffffffffffffffffffff1681565b600f602052816000526040600020602052806000526040600020600091509150505481565b600160008084815260200190815260200160002060008373ffffffffffffffffffffffffffffffffffffffff1673ffffffffffffffffffffffffffffffffffffffff16815260200190815260200160002060006101000a81548160ff0219169083151502179055503373ffffffffffffffffffffffffffffffffffffffff168173ffffffffffffffffffffffffffffffffffffffff16837f2f8788117e7eff1d82e926ec794901d17c78024a50270940304540a733656f0d60405160405180910390a45050565b600080600084815260200190815260200160002060008373ffffffffffffffffffffffffffffffffffffffff1673ffffffffffffffffffffffffffffffffffffffff16815260200190815260200160002060006101000a81548160ff0219169083151502179055503373ffffffffffffffffffffffffffffffffffffffff168173ffffffffffffffffffffffffffffffffffffffff16837ff6391f5c32d9c69d2a47ea670b442974b53935d1edc7fd64eb21e047a839171b60405160405180910390a45050565b600260015403611e81576040517f3ee5aeb500000000000000000000000000000000000000000000000000000000815260040160405180910390fd5b6002600181905550565b60018081905550565b600081519050919050565b600082825260208201905092915050565b6000819050602082019050919050565b600067ffffffffffffffff82169050919050565b611edd81611ec0565b82525050565b6000611eef8383611ed4565b60208301905092915050565b6000602082019050919050565b6000611f1382611e94565b611f1d8185611e9f565b9350611f2883611eb0565b8060005b83811015611f59578151611f408882611ee3565b9750611f4b83611efb565b925050600181019050611f2c565b5085935050505092915050565b60006020820190508181036000830152611f808184611f08565b905092915050565b600080fd5b600080fd5b600061ffff82169050919050565b611fa981611f92565b8114611fb457600080fd5b50565b600081359050611fc681611fa0565b92915050565b600060208284031215611fe257611fe1611f88565b5b6000611ff084828501611fb7565b91505092915050565b61200281611ec0565b82525050565b600060208201905061201d6000830184611ff9565b92915050565b6000819050919050565b61203681612023565b82525050565b6000602082019050612051600083018461202d565b92915050565b600073ffffffffffffffffffffffffffffffffffffffff82169050919050565b600061208282612057565b9050919050565b61209281612077565b811461209d57600080fd5b50565b6000813590506120af81612089565b92915050565b6000602082840312156120cb576120ca611f88565b5b60006120d9848285016120a0565b91505092915050565b6120eb81612023565b81146120f657600080fd5b50565b600081359050612108816120e2565b92915050565b60006020828403121561212457612123611f88565b5b6000612132848285016120f9565b91505092915050565b60008115159050919050565b6121508161213b565b82525050565b600060208201905061216b6000830184612147565b92915050565b6000819050919050565b61218481612171565b811461218f57600080fd5b50565b6000813590506121a18161217b565b92915050565b600080604083850312156121be576121bd611f88565b5b60006121cc85828601612192565b92505060206121dd858286016120a0565b9150509250929050565b60006040820190506121fc600083018561202d565b612209602083018461202d565b9392505050565b6000806040838503121561222757612226611f88565b5b6000612235858286016120f9565b9250506020612246858286016120f9565b9150509250929050565b61225981612171565b82525050565b60006020820190506122746000830184612250565b92915050565b600081519050919050565b600082825260208201905092915050565b6000819050602082019050919050565b6122af81612023565b82525050565b60006122c183836122a6565b60208301905092915050565b6000602082019050919050565b60006122e58261227a565b6122ef8185612285565b93506122fa83612296565b8060005b8381101561232b57815161231288826122b5565b975061231d836122cd565b9250506001810190506122fe565b5085935050505092915050565b6000602082019050818103600083015261235281846122da565b905092915050565b61236381611f92565b82525050565b600060208201905061237e600083018461235a565b92915050565b600080fd5b600080fd5b600080fd5b60008083601f8401126123a9576123a8612384565b5b8235905067ffffffffffffffff8111156123c6576123c5612389565b5b6020830191508360208202830111156123e2576123e161238e565b5b9250929050565b6000806000806040858703121561240357612402611f88565b5b600085013567ffffffffffffffff81111561242157612420611f8d565b5b61242d87828801612393565b9450945050602085013567ffffffffffffffff8111156124505761244f611f8d565b5b61245c87828801612393565b925092505092959194509250565b6000806040838503121561248157612480611f88565b5b600061248f858286016120a0565b92505060206124a085828601611fb7565b9150509250929050565b60006040820190506124bf600083018561235a565b6124cc602083018461202d565b9392505050565b6124dc81612077565b82525050565b60006020820190506124f760008301846124d3565b92915050565b6000806040838503121561251457612513611f88565b5b6000612522858286016120a0565b9250506020612533858286016120f9565b9150509250929050565b7f4e487b7100000000000000000000000000000000000000000000000000000000600052604160045260246000fd5b7f4e487b7100000000000000000000000000000000000000000000000000000000600052603260045260246000fd5b600082825260208201905092915050565b7f416363657373436f6e74726f6c3a2073656e646572206d75737420686176652060008201527f7468652061646d696e20726f6c65000000000000000000000000000000000000602082015250565b6000612608602e8361259b565b9150612613826125ac565b604082019050919050565b60006020820190508181036000830152612637816125fb565b9050919050565b7f537461727420626c6f636b206d75737420626520696e2074686520667574757260008201527f6500000000000000000000000000000000000000000000000000000000000000602082015250565b600061269a60218361259b565b91506126a58261263e565b604082019050919050565b600060208201905081810360008301526126c98161268d565b9050919050565b7f456e6420626c6f636b206d75737420626520616674657220737461727420626c60008201527f6f636b0000000000000000000000000000000000000000000000000000000000602082015250565b600061272c60238361259b565b9150612737826126d0565b604082019050919050565b6000602082019050818103600083015261275b8161271f565b9050919050565b7f4c656e677468206d69736d617463680000000000000000000000000000000000600082015250565b6000612798600f8361259b565b91506127a382612762565b602082019050919050565b600060208201905081810360008301526127c78161278b565b9050919050565b7f4e487b7100000000000000000000000000000000000000000000000000000000600052601160045260246000fd5b600061280882612023565b915061281383612023565b925082820390508181111561282b5761282a6127ce565b5b92915050565b61283a81611ec0565b811461284557600080fd5b50565b60008135905061285781612831565b92915050565b60006020828403121561287357612872611f88565b5b600061288184828501612848565b91505092915050565b7f4c6173742070726f626162696c697479206d757374206265203130303030303060008201527f3030000000000000000000000000000000000000000000000000000000000000602082015250565b60006128e660228361259b565b91506128f18261288a565b604082019050919050565b60006020820190508181036000830152612915816128d9565b9050919050565b600061292782611f92565b915061ffff820361293b5761293a6127ce565b5b600182019050919050565b7f546f74616c207365676d656e7473206d7573742062652067726561746572207460008201527f68616e2030000000000000000000000000000000000000000000000000000000602082015250565b60006129a260258361259b565b91506129ad82612946565b604082019050919050565b600060208201905081810360008301526129d181612995565b9050919050565b7f4f6e6c792075736572206f722061646d696e2063616e2072656368617267652060008201527f7370696e73000000000000000000000000000000000000000000000000000000602082015250565b6000612a3460258361259b565b9150612a3f826129d8565b604082019050919050565b60006020820190508181036000830152612a6381612a27565b9050919050565b7f4e6f7420656e6f7567682074696d6520686173207061737365642073696e636560008201527f206c617374207265636861726765000000000000000000000000000000000000602082015250565b6000612ac6602e8361259b565b9150612ad182612a6a565b604082019050919050565b60006020820190508181036000830152612af581612ab9565b9050919050565b6000612b0782612023565b9150612b1283612023565b9250828201905080821115612b2a57612b296127ce565b5b92915050565b7f5370696e6e6572206e6f74206163746976650000000000000000000000000000600082015250565b6000612b6660128361259b565b9150612b7182612b30565b602082019050919050565b60006020820190508181036000830152612b9581612b59565b9050919050565b7f4e6f207370696e7320617661696c61626c650000000000000000000000000000600082015250565b6000612bd260128361259b565b9150612bdd82612b9c565b602082019050919050565b60006020820190508181036000830152612c0181612bc5565b9050919050565b6000819050919050565b612c23612c1e82612023565b612c08565b82525050565b60008160601b9050919050565b6000612c4182612c29565b9050919050565b6000612c5382612c36565b9050919050565b612c6b612c6682612077565b612c48565b82525050565b6000612c7d8288612c12565b602082019150612c8d8287612c12565b602082019150612c9d8286612c5a565b601482019150612cad8285612c12565b602082019150612cbd8284612c12565b6020820191508190509695505050505050565b7f4e487b7100000000000000000000000000000000000000000000000000000000600052601260045260246000fd5b6000612d0a82612023565b9150612d1583612023565b925082612d2557612d24612cd0565b5b828206905092915050565b6000612d3b82612023565b91507fffffffffffffffffffffffffffffffffffffffffffffffffffffffffffffffff8203612d6d57612d6c6127ce565b5b600182019050919050565b6000612d8382611ec0565b915060008203612d9657612d956127ce565b5b600182039050919050565b7f4e6f2076616c6964207365676d656e747320617661696c61626c65206166746560008201527f7220333020617474656d70747300000000000000000000000000000000000000602082015250565b6000612dfd602d8361259b565b9150612e0882612da1565b604082019050919050565b60006020820190508181036000830152612e2c81612df0565b9050919050565b6000612e3e82611ec0565b915067ffffffffffffffff8203612e5857612e576127ce565b5b600182019050919050565b6000612e6e82612023565b915060008203612e8157612e806127ce565b5b600182039050919050565b6000819050919050565b6000612eb1612eac612ea784611f92565b612e8c565b612023565b9050919050565b612ec181612e96565b82525050565b6000606082019050612edc6000830186612eb8565b612ee9602083018561202d565b612ef6604083018461202d565b94935050505056fea2646970667358221220880043fd0ed90b4e9c7684312aa308b30356ec0665ef70958d5d86990a0dbfa764736f6c63430008180033","opcodes":"PUSH1 0x80 PUSH1 0x40 MSTORE PUSH1 0x64 PUSH1 0x2 SSTORE PUSH3 0x15180 PUSH1 0x3 SSTORE CALLVALUE DUP1 ISZERO PUSH3 0x1D JUMPI PUSH1 0x0 DUP1 REVERT JUMPDEST POP PUSH1 0x40 MLOAD PUSH3 0x3228 CODESIZE SUB DUP1 PUSH3 0x3228 DUP4 CODECOPY DUP2 DUP2 ADD PUSH1 0x40 MSTORE DUP2 ADD SWAP1 PUSH3 0x43 SWAP2 SWAP1 PUSH3 0x288 JUMP JUMPDEST PUSH1 0x1 DUP1 DUP2 SWAP1 SSTORE POP PUSH3 0x5F PUSH1 0x0 DUP1 SHL CALLER PUSH3 0xDD PUSH1 0x20 SHL PUSH1 0x20 SHR JUMP JUMPDEST DUP3 PUSH1 0x4 PUSH1 0x0 PUSH2 0x100 EXP DUP2 SLOAD DUP2 PUSH2 0xFFFF MUL NOT AND SWAP1 DUP4 PUSH2 0xFFFF AND MUL OR SWAP1 SSTORE POP DUP2 PUSH1 0x4 PUSH1 0x2 PUSH2 0x100 EXP DUP2 SLOAD DUP2 PUSH20 0xFFFFFFFFFFFFFFFFFFFFFFFFFFFFFFFFFFFFFFFF MUL NOT AND SWAP1 DUP4 PUSH20 0xFFFFFFFFFFFFFFFFFFFFFFFFFFFFFFFFFFFFFFFF AND MUL OR SWAP1 SSTORE POP DUP1 PUSH1 0x5 DUP2 SWAP1 SSTORE POP PUSH1 0x0 PUSH1 0xA DUP2 SWAP1 SSTORE POP PUSH1 0x0 PUSH1 0xB DUP2 SWAP1 SSTORE POP POP POP POP PUSH3 0x2E4 JUMP JUMPDEST PUSH1 0x1 PUSH1 0x0 DUP1 DUP5 DUP2 MSTORE PUSH1 0x20 ADD SWAP1 DUP2 MSTORE PUSH1 0x20 ADD PUSH1 0x0 KECCAK256 PUSH1 0x0 DUP4 PUSH20 0xFFFFFFFFFFFFFFFFFFFFFFFFFFFFFFFFFFFFFFFF AND PUSH20 0xFFFFFFFFFFFFFFFFFFFFFFFFFFFFFFFFFFFFFFFF AND DUP2 MSTORE PUSH1 0x20 ADD SWAP1 DUP2 MSTORE PUSH1 0x20 ADD PUSH1 0x0 KECCAK256 PUSH1 0x0 PUSH2 0x100 EXP DUP2 SLOAD DUP2 PUSH1 0xFF MUL NOT AND SWAP1 DUP4 ISZERO ISZERO MUL OR SWAP1 SSTORE POP CALLER PUSH20 0xFFFFFFFFFFFFFFFFFFFFFFFFFFFFFFFFFFFFFFFF AND DUP2 PUSH20 0xFFFFFFFFFFFFFFFFFFFFFFFFFFFFFFFFFFFFFFFF AND DUP4 PUSH32 0x2F8788117E7EFF1D82E926EC794901D17C78024A50270940304540A733656F0D PUSH1 0x40 MLOAD PUSH1 0x40 MLOAD DUP1 SWAP2 SUB SWAP1 LOG4 POP POP JUMP JUMPDEST PUSH1 0x0 DUP1 REVERT JUMPDEST PUSH1 0x0 PUSH2 0xFFFF DUP3 AND SWAP1 POP SWAP2 SWAP1 POP JUMP JUMPDEST PUSH3 0x1C2 DUP2 PUSH3 0x1A9 JUMP JUMPDEST DUP2 EQ PUSH3 0x1CE JUMPI PUSH1 0x0 DUP1 REVERT JUMPDEST POP JUMP JUMPDEST PUSH1 0x0 DUP2 MLOAD SWAP1 POP PUSH3 0x1E2 DUP2 PUSH3 0x1B7 JUMP JUMPDEST SWAP3 SWAP2 POP POP JUMP JUMPDEST PUSH1 0x0 PUSH20 0xFFFFFFFFFFFFFFFFFFFFFFFFFFFFFFFFFFFFFFFF DUP3 AND SWAP1 POP SWAP2 SWAP1 POP JUMP JUMPDEST PUSH1 0x0 PUSH3 0x215 DUP3 PUSH3 0x1E8 JUMP JUMPDEST SWAP1 POP SWAP2 SWAP1 POP JUMP JUMPDEST PUSH3 0x227 DUP2 PUSH3 0x208 JUMP JUMPDEST DUP2 EQ PUSH3 0x233 JUMPI PUSH1 0x0 DUP1 REVERT JUMPDEST POP JUMP JUMPDEST PUSH1 0x0 DUP2 MLOAD SWAP1 POP PUSH3 0x247 DUP2 PUSH3 0x21C JUMP JUMPDEST SWAP3 SWAP2 POP POP JUMP JUMPDEST PUSH1 0x0 DUP2 SWAP1 POP SWAP2 SWAP1 POP JUMP JUMPDEST PUSH3 0x262 DUP2 PUSH3 0x24D JUMP JUMPDEST DUP2 EQ PUSH3 0x26E JUMPI PUSH1 0x0 DUP1 REVERT JUMPDEST POP JUMP JUMPDEST PUSH1 0x0 DUP2 MLOAD SWAP1 POP PUSH3 0x282 DUP2 PUSH3 0x257 JUMP JUMPDEST SWAP3 SWAP2 POP POP JUMP JUMPDEST PUSH1 0x0 DUP1 PUSH1 0x0 PUSH1 0x60 DUP5 DUP7 SUB SLT ISZERO PUSH3 0x2A4 JUMPI PUSH3 0x2A3 PUSH3 0x1A4 JUMP JUMPDEST JUMPDEST PUSH1 0x0 PUSH3 0x2B4 DUP7 DUP3 DUP8 ADD PUSH3 0x1D1 JUMP JUMPDEST SWAP4 POP POP PUSH1 0x20 PUSH3 0x2C7 DUP7 DUP3 DUP8 ADD PUSH3 0x236 JUMP JUMPDEST SWAP3 POP POP PUSH1 0x40 PUSH3 0x2DA DUP7 DUP3 DUP8 ADD PUSH3 0x271 JUMP JUMPDEST SWAP2 POP POP SWAP3 POP SWAP3 POP SWAP3 JUMP JUMPDEST PUSH2 0x2F34 DUP1 PUSH3 0x2F4 PUSH1 0x0 CODECOPY PUSH1 0x0 RETURN INVALID PUSH1 0x80 PUSH1 0x40 MSTORE CALLVALUE DUP1 ISZERO PUSH2 0x10 JUMPI PUSH1 0x0 DUP1 REVERT JUMPDEST POP PUSH1 0x4 CALLDATASIZE LT PUSH2 0x23D JUMPI PUSH1 0x0 CALLDATALOAD PUSH1 0xE0 SHR DUP1 PUSH4 0x79081D9D GT PUSH2 0x13B JUMPI DUP1 PUSH4 0xBC17530A GT PUSH2 0xB8 JUMPI DUP1 PUSH4 0xEB9C9D9B GT PUSH2 0x7C JUMPI DUP1 PUSH4 0xEB9C9D9B EQ PUSH2 0x707 JUMPI DUP1 PUSH4 0xF0ACD7D5 EQ PUSH2 0x723 JUMPI DUP1 PUSH4 0xFAE2AC1E EQ PUSH2 0x742 JUMPI DUP1 PUSH4 0xFC341736 EQ PUSH2 0x75E JUMPI DUP1 PUSH4 0xFE8E1DC2 EQ PUSH2 0x77C JUMPI PUSH2 0x23D JUMP JUMPDEST DUP1 PUSH4 0xBC17530A EQ PUSH2 0x663 JUMPI DUP1 PUSH4 0xBC4AF01B EQ PUSH2 0x67F JUMPI DUP1 PUSH4 0xCC40A8CA EQ PUSH2 0x69D JUMPI DUP1 PUSH4 0xD547741F EQ PUSH2 0x6BB JUMPI DUP1 PUSH4 0xD96CFF32 EQ PUSH2 0x6D7 JUMPI PUSH2 0x23D JUMP JUMPDEST DUP1 PUSH4 0x91D14854 GT PUSH2 0xFF JUMPI DUP1 PUSH4 0x91D14854 EQ PUSH2 0x5AD JUMPI DUP1 PUSH4 0x92EEFE2B EQ PUSH2 0x5DD JUMPI DUP1 PUSH4 0x95EE1217 EQ PUSH2 0x5F9 JUMPI DUP1 PUSH4 0xA6794C7C EQ PUSH2 0x615 JUMPI DUP1 PUSH4 0xAAF5EB68 EQ PUSH2 0x645 JUMPI PUSH2 0x23D JUMP JUMPDEST DUP1 PUSH4 0x79081D9D EQ PUSH2 0x4E1 JUMPI DUP1 PUSH4 0x7CD0FA5C EQ PUSH2 0x511 JUMPI DUP1 PUSH4 0x8ACF974D EQ PUSH2 0x541 JUMPI DUP1 PUSH4 0x8EA1F363 EQ PUSH2 0x571 JUMPI DUP1 PUSH4 0x901B2036 EQ PUSH2 0x58F JUMPI PUSH2 0x23D JUMP JUMPDEST DUP1 PUSH4 0x3CB85A8D GT PUSH2 0x1C9 JUMPI DUP1 PUSH4 0x656C0EAD GT PUSH2 0x18D JUMPI DUP1 PUSH4 0x656C0EAD EQ PUSH2 0x416 JUMPI DUP1 PUSH4 0x6A5ACD6B EQ PUSH2 0x446 JUMPI DUP1 PUSH4 0x6CD6E4CF EQ PUSH2 0x477 JUMPI DUP1 PUSH4 0x6EF45E7D EQ PUSH2 0x4A7 JUMPI DUP1 PUSH4 0x75B238FC EQ PUSH2 0x4C3 JUMPI PUSH2 0x23D JUMP JUMPDEST DUP1 PUSH4 0x3CB85A8D EQ PUSH2 0x380 JUMPI DUP1 PUSH4 0x48CD4CB1 EQ PUSH2 0x39E JUMPI DUP1 PUSH4 0x4DB33BA2 EQ PUSH2 0x3BC JUMPI DUP1 PUSH4 0x50211E75 EQ PUSH2 0x3DA JUMPI DUP1 PUSH4 0x5F16B518 EQ PUSH2 0x3F8 JUMPI PUSH2 0x23D JUMP JUMPDEST DUP1 PUSH4 0x150095EB GT PUSH2 0x210 JUMPI DUP1 PUSH4 0x150095EB EQ PUSH2 0x2DE JUMPI DUP1 PUSH4 0x1DC2A488 EQ PUSH2 0x2FA JUMPI DUP1 PUSH4 0x21DBC5BF EQ PUSH2 0x316 JUMPI DUP1 PUSH4 0x22F3E2D4 EQ PUSH2 0x346 JUMPI DUP1 PUSH4 0x2F2FF15D EQ PUSH2 0x364 JUMPI PUSH2 0x23D JUMP JUMPDEST DUP1 PUSH4 0x62F7B8C EQ PUSH2 0x242 JUMPI DUP1 PUSH4 0x661939D EQ PUSH2 0x260 JUMPI DUP1 PUSH4 0x83C6323 EQ PUSH2 0x290 JUMPI DUP1 PUSH4 0x1039B1D9 EQ PUSH2 0x2AE JUMPI JUMPDEST PUSH1 0x0 DUP1 REVERT JUMPDEST PUSH2 0x24A PUSH2 0x7AC JUMP JUMPDEST PUSH1 0x40 MLOAD PUSH2 0x257 SWAP2 SWAP1 PUSH2 0x1F66 JUMP JUMPDEST PUSH1 0x40 MLOAD DUP1 SWAP2 SUB SWAP1 RETURN JUMPDEST PUSH2 0x27A PUSH1 0x4 DUP1 CALLDATASIZE SUB DUP2 ADD SWAP1 PUSH2 0x275 SWAP2 SWAP1 PUSH2 0x1FCC JUMP JUMPDEST PUSH2 0x8AA JUMP JUMPDEST PUSH1 0x40 MLOAD PUSH2 0x287 SWAP2 SWAP1 PUSH2 0x2008 JUMP JUMPDEST PUSH1 0x40 MLOAD DUP1 SWAP2 SUB SWAP1 RETURN JUMPDEST PUSH2 0x298 PUSH2 0x8D1 JUMP JUMPDEST PUSH1 0x40 MLOAD PUSH2 0x2A5 SWAP2 SWAP1 PUSH2 0x203C JUMP JUMPDEST PUSH1 0x40 MLOAD DUP1 SWAP2 SUB SWAP1 RETURN JUMPDEST PUSH2 0x2C8 PUSH1 0x4 DUP1 CALLDATASIZE SUB DUP2 ADD SWAP1 PUSH2 0x2C3 SWAP2 SWAP1 PUSH2 0x20B5 JUMP JUMPDEST PUSH2 0x8D7 JUMP JUMPDEST PUSH1 0x40 MLOAD PUSH2 0x2D5 SWAP2 SWAP1 PUSH2 0x203C JUMP JUMPDEST PUSH1 0x40 MLOAD DUP1 SWAP2 SUB SWAP1 RETURN JUMPDEST PUSH2 0x2F8 PUSH1 0x4 DUP1 CALLDATASIZE SUB DUP2 ADD SWAP1 PUSH2 0x2F3 SWAP2 SWAP1 PUSH2 0x210E JUMP JUMPDEST PUSH2 0x920 JUMP JUMPDEST STOP JUMPDEST PUSH2 0x314 PUSH1 0x4 DUP1 CALLDATASIZE SUB DUP2 ADD SWAP1 PUSH2 0x30F SWAP2 SWAP1 PUSH2 0x20B5 JUMP JUMPDEST PUSH2 0x978 JUMP JUMPDEST STOP JUMPDEST PUSH2 0x330 PUSH1 0x4 DUP1 CALLDATASIZE SUB DUP2 ADD SWAP1 PUSH2 0x32B SWAP2 SWAP1 PUSH2 0x1FCC JUMP JUMPDEST PUSH2 0xA0A JUMP JUMPDEST PUSH1 0x40 MLOAD PUSH2 0x33D SWAP2 SWAP1 PUSH2 0x2008 JUMP JUMPDEST PUSH1 0x40 MLOAD DUP1 SWAP2 SUB SWAP1 RETURN JUMPDEST PUSH2 0x34E PUSH2 0xA31 JUMP JUMPDEST PUSH1 0x40 MLOAD PUSH2 0x35B SWAP2 SWAP1 PUSH2 0x2156 JUMP JUMPDEST PUSH1 0x40 MLOAD DUP1 SWAP2 SUB SWAP1 RETURN JUMPDEST PUSH2 0x37E PUSH1 0x4 DUP1 CALLDATASIZE SUB DUP2 ADD SWAP1 PUSH2 0x379 SWAP2 SWAP1 PUSH2 0x21A7 JUMP JUMPDEST PUSH2 0xA67 JUMP JUMPDEST STOP JUMPDEST PUSH2 0x388 PUSH2 0xAC3 JUMP JUMPDEST PUSH1 0x40 MLOAD PUSH2 0x395 SWAP2 SWAP1 PUSH2 0x203C JUMP JUMPDEST PUSH1 0x40 MLOAD DUP1 SWAP2 SUB SWAP1 RETURN JUMPDEST PUSH2 0x3A6 PUSH2 0xAC9 JUMP JUMPDEST PUSH1 0x40 MLOAD PUSH2 0x3B3 SWAP2 SWAP1 PUSH2 0x203C JUMP JUMPDEST PUSH1 0x40 MLOAD DUP1 SWAP2 SUB SWAP1 RETURN JUMPDEST PUSH2 0x3C4 PUSH2 0xACF JUMP JUMPDEST PUSH1 0x40 MLOAD PUSH2 0x3D1 SWAP2 SWAP1 PUSH2 0x203C JUMP JUMPDEST PUSH1 0x40 MLOAD DUP1 SWAP2 SUB SWAP1 RETURN JUMPDEST PUSH2 0x3E2 PUSH2 0xAD5 JUMP JUMPDEST PUSH1 0x40 MLOAD PUSH2 0x3EF SWAP2 SWAP1 PUSH2 0x203C JUMP JUMPDEST PUSH1 0x40 MLOAD DUP1 SWAP2 SUB SWAP1 RETURN JUMPDEST PUSH2 0x400 PUSH2 0xADB JUMP JUMPDEST PUSH1 0x40 MLOAD PUSH2 0x40D SWAP2 SWAP1 PUSH2 0x1F66 JUMP JUMPDEST PUSH1 0x40 MLOAD DUP1 SWAP2 SUB SWAP1 RETURN JUMPDEST PUSH2 0x430 PUSH1 0x4 DUP1 CALLDATASIZE SUB DUP2 ADD SWAP1 PUSH2 0x42B SWAP2 SWAP1 PUSH2 0x20B5 JUMP JUMPDEST PUSH2 0xBD9 JUMP JUMPDEST PUSH1 0x40 MLOAD PUSH2 0x43D SWAP2 SWAP1 PUSH2 0x2008 JUMP JUMPDEST PUSH1 0x40 MLOAD DUP1 SWAP2 SUB SWAP1 RETURN JUMPDEST PUSH2 0x460 PUSH1 0x4 DUP1 CALLDATASIZE SUB DUP2 ADD SWAP1 PUSH2 0x45B SWAP2 SWAP1 PUSH2 0x20B5 JUMP JUMPDEST PUSH2 0xC36 JUMP JUMPDEST PUSH1 0x40 MLOAD PUSH2 0x46E SWAP3 SWAP2 SWAP1 PUSH2 0x21E7 JUMP JUMPDEST PUSH1 0x40 MLOAD DUP1 SWAP2 SUB SWAP1 RETURN JUMPDEST PUSH2 0x491 PUSH1 0x4 DUP1 CALLDATASIZE SUB DUP2 ADD SWAP1 PUSH2 0x48C SWAP2 SWAP1 PUSH2 0x20B5 JUMP JUMPDEST PUSH2 0xC83 JUMP JUMPDEST PUSH1 0x40 MLOAD PUSH2 0x49E SWAP2 SWAP1 PUSH2 0x2008 JUMP JUMPDEST PUSH1 0x40 MLOAD DUP1 SWAP2 SUB SWAP1 RETURN JUMPDEST PUSH2 0x4C1 PUSH1 0x4 DUP1 CALLDATASIZE SUB DUP2 ADD SWAP1 PUSH2 0x4BC SWAP2 SWAP1 PUSH2 0x2210 JUMP JUMPDEST PUSH2 0xCAA JUMP JUMPDEST STOP JUMPDEST PUSH2 0x4CB PUSH2 0xD9A JUMP JUMPDEST PUSH1 0x40 MLOAD PUSH2 0x4D8 SWAP2 SWAP1 PUSH2 0x225F JUMP JUMPDEST PUSH1 0x40 MLOAD DUP1 SWAP2 SUB SWAP1 RETURN JUMPDEST PUSH2 0x4FB PUSH1 0x4 DUP1 CALLDATASIZE SUB DUP2 ADD SWAP1 PUSH2 0x4F6 SWAP2 SWAP1 PUSH2 0x20B5 JUMP JUMPDEST PUSH2 0xDA1 JUMP JUMPDEST PUSH1 0x40 MLOAD PUSH2 0x508 SWAP2 SWAP1 PUSH2 0x2338 JUMP JUMPDEST PUSH1 0x40 MLOAD DUP1 SWAP2 SUB SWAP1 RETURN JUMPDEST PUSH2 0x52B PUSH1 0x4 DUP1 CALLDATASIZE SUB DUP2 ADD SWAP1 PUSH2 0x526 SWAP2 SWAP1 PUSH2 0x20B5 JUMP JUMPDEST PUSH2 0xEB6 JUMP JUMPDEST PUSH1 0x40 MLOAD PUSH2 0x538 SWAP2 SWAP1 PUSH2 0x203C JUMP JUMPDEST PUSH1 0x40 MLOAD DUP1 SWAP2 SUB SWAP1 RETURN JUMPDEST PUSH2 0x55B PUSH1 0x4 DUP1 CALLDATASIZE SUB DUP2 ADD SWAP1 PUSH2 0x556 SWAP2 SWAP1 PUSH2 0x1FCC JUMP JUMPDEST PUSH2 0xECE JUMP JUMPDEST PUSH1 0x40 MLOAD PUSH2 0x568 SWAP2 SWAP1 PUSH2 0x2008 JUMP JUMPDEST PUSH1 0x40 MLOAD DUP1 SWAP2 SUB SWAP1 RETURN JUMPDEST PUSH2 0x579 PUSH2 0xEF5 JUMP JUMPDEST PUSH1 0x40 MLOAD PUSH2 0x586 SWAP2 SWAP1 PUSH2 0x2369 JUMP JUMPDEST PUSH1 0x40 MLOAD DUP1 SWAP2 SUB SWAP1 RETURN JUMPDEST PUSH2 0x597 PUSH2 0xF09 JUMP JUMPDEST PUSH1 0x40 MLOAD PUSH2 0x5A4 SWAP2 SWAP1 PUSH2 0x203C JUMP JUMPDEST PUSH1 0x40 MLOAD DUP1 SWAP2 SUB SWAP1 RETURN JUMPDEST PUSH2 0x5C7 PUSH1 0x4 DUP1 CALLDATASIZE SUB DUP2 ADD SWAP1 PUSH2 0x5C2 SWAP2 SWAP1 PUSH2 0x21A7 JUMP JUMPDEST PUSH2 0xF0F JUMP JUMPDEST PUSH1 0x40 MLOAD PUSH2 0x5D4 SWAP2 SWAP1 PUSH2 0x2156 JUMP JUMPDEST PUSH1 0x40 MLOAD DUP1 SWAP2 SUB SWAP1 RETURN JUMPDEST PUSH2 0x5F7 PUSH1 0x4 DUP1 CALLDATASIZE SUB DUP2 ADD SWAP1 PUSH2 0x5F2 SWAP2 SWAP1 PUSH2 0x210E JUMP JUMPDEST PUSH2 0xF76 JUMP JUMPDEST STOP JUMPDEST PUSH2 0x613 PUSH1 0x4 DUP1 CALLDATASIZE SUB DUP2 ADD SWAP1 PUSH2 0x60E SWAP2 SWAP1 PUSH2 0x23E9 JUMP JUMPDEST PUSH2 0xFCE JUMP JUMPDEST STOP JUMPDEST PUSH2 0x62F PUSH1 0x4 DUP1 CALLDATASIZE SUB DUP2 ADD SWAP1 PUSH2 0x62A SWAP2 SWAP1 PUSH2 0x246A JUMP JUMPDEST PUSH2 0x125D JUMP JUMPDEST PUSH1 0x40 MLOAD PUSH2 0x63C SWAP2 SWAP1 PUSH2 0x203C JUMP JUMPDEST PUSH1 0x40 MLOAD DUP1 SWAP2 SUB SWAP1 RETURN JUMPDEST PUSH2 0x64D PUSH2 0x12BC JUMP JUMPDEST PUSH1 0x40 MLOAD PUSH2 0x65A SWAP2 SWAP1 PUSH2 0x203C JUMP JUMPDEST PUSH1 0x40 MLOAD DUP1 SWAP2 SUB SWAP1 RETURN JUMPDEST PUSH2 0x67D PUSH1 0x4 DUP1 CALLDATASIZE SUB DUP2 ADD SWAP1 PUSH2 0x678 SWAP2 SWAP1 PUSH2 0x1FCC JUMP JUMPDEST PUSH2 0x12C8 JUMP JUMPDEST STOP JUMPDEST PUSH2 0x687 PUSH2 0x137D JUMP JUMPDEST PUSH1 0x40 MLOAD PUSH2 0x694 SWAP2 SWAP1 PUSH2 0x1F66 JUMP JUMPDEST PUSH1 0x40 MLOAD DUP1 SWAP2 SUB SWAP1 RETURN JUMPDEST PUSH2 0x6A5 PUSH2 0x147B JUMP JUMPDEST PUSH1 0x40 MLOAD PUSH2 0x6B2 SWAP2 SWAP1 PUSH2 0x203C JUMP JUMPDEST PUSH1 0x40 MLOAD DUP1 SWAP2 SUB SWAP1 RETURN JUMPDEST PUSH2 0x6D5 PUSH1 0x4 DUP1 CALLDATASIZE SUB DUP2 ADD SWAP1 PUSH2 0x6D0 SWAP2 SWAP1 PUSH2 0x21A7 JUMP JUMPDEST PUSH2 0x1483 JUMP JUMPDEST STOP JUMPDEST PUSH2 0x6F1 PUSH1 0x4 DUP1 CALLDATASIZE SUB DUP2 ADD SWAP1 PUSH2 0x6EC SWAP2 SWAP1 PUSH2 0x20B5 JUMP JUMPDEST PUSH2 0x14DF JUMP JUMPDEST PUSH1 0x40 MLOAD PUSH2 0x6FE SWAP2 SWAP1 PUSH2 0x203C JUMP JUMPDEST PUSH1 0x40 MLOAD DUP1 SWAP2 SUB SWAP1 RETURN JUMPDEST PUSH2 0x721 PUSH1 0x4 DUP1 CALLDATASIZE SUB DUP2 ADD SWAP1 PUSH2 0x71C SWAP2 SWAP1 PUSH2 0x20B5 JUMP JUMPDEST PUSH2 0x14F7 JUMP JUMPDEST STOP JUMPDEST PUSH2 0x72B PUSH2 0x1701 JUMP JUMPDEST PUSH1 0x40 MLOAD PUSH2 0x739 SWAP3 SWAP2 SWAP1 PUSH2 0x24AA JUMP JUMPDEST PUSH1 0x40 MLOAD DUP1 SWAP2 SUB SWAP1 RETURN JUMPDEST PUSH2 0x75C PUSH1 0x4 DUP1 CALLDATASIZE SUB DUP2 ADD SWAP1 PUSH2 0x757 SWAP2 SWAP1 PUSH2 0x210E JUMP JUMPDEST PUSH2 0x1C14 JUMP JUMPDEST STOP JUMPDEST PUSH2 0x766 PUSH2 0x1C6C JUMP JUMPDEST PUSH1 0x40 MLOAD PUSH2 0x773 SWAP2 SWAP1 PUSH2 0x24E2 JUMP JUMPDEST PUSH1 0x40 MLOAD DUP1 SWAP2 SUB SWAP1 RETURN JUMPDEST PUSH2 0x796 PUSH1 0x4 DUP1 CALLDATASIZE SUB DUP2 ADD SWAP1 PUSH2 0x791 SWAP2 SWAP1 PUSH2 0x24FD JUMP JUMPDEST PUSH2 0x1C92 JUMP JUMPDEST PUSH1 0x40 MLOAD PUSH2 0x7A3 SWAP2 SWAP1 PUSH2 0x203C JUMP JUMPDEST PUSH1 0x40 MLOAD DUP1 SWAP2 SUB SWAP1 RETURN JUMPDEST PUSH1 0x60 PUSH1 0x4 PUSH1 0x0 SWAP1 SLOAD SWAP1 PUSH2 0x100 EXP SWAP1 DIV PUSH2 0xFFFF AND PUSH2 0xFFFF AND PUSH8 0xFFFFFFFFFFFFFFFF DUP2 GT ISZERO PUSH2 0x7DC JUMPI PUSH2 0x7DB PUSH2 0x253D JUMP JUMPDEST JUMPDEST PUSH1 0x40 MLOAD SWAP1 DUP1 DUP3 MSTORE DUP1 PUSH1 0x20 MUL PUSH1 0x20 ADD DUP3 ADD PUSH1 0x40 MSTORE DUP1 ISZERO PUSH2 0x80A JUMPI DUP2 PUSH1 0x20 ADD PUSH1 0x20 DUP3 MUL DUP1 CALLDATASIZE DUP4 CALLDATACOPY DUP1 DUP3 ADD SWAP2 POP POP SWAP1 POP JUMPDEST POP SWAP1 POP PUSH1 0x0 JUMPDEST PUSH1 0x4 PUSH1 0x0 SWAP1 SLOAD SWAP1 PUSH2 0x100 EXP SWAP1 DIV PUSH2 0xFFFF AND PUSH2 0xFFFF AND DUP2 PUSH2 0xFFFF AND LT ISZERO PUSH2 0x8A6 JUMPI PUSH1 0x8 PUSH1 0x0 DUP3 PUSH2 0xFFFF AND PUSH2 0xFFFF AND DUP2 MSTORE PUSH1 0x20 ADD SWAP1 DUP2 MSTORE PUSH1 0x20 ADD PUSH1 0x0 KECCAK256 PUSH1 0x0 SWAP1 SLOAD SWAP1 PUSH2 0x100 EXP SWAP1 DIV PUSH8 0xFFFFFFFFFFFFFFFF AND DUP3 DUP3 PUSH2 0xFFFF AND DUP2 MLOAD DUP2 LT PUSH2 0x877 JUMPI PUSH2 0x876 PUSH2 0x256C JUMP JUMPDEST JUMPDEST PUSH1 0x20 MUL PUSH1 0x20 ADD ADD SWAP1 PUSH8 0xFFFFFFFFFFFFFFFF AND SWAP1 DUP2 PUSH8 0xFFFFFFFFFFFFFFFF AND DUP2 MSTORE POP POP DUP1 DUP1 PUSH1 0x1 ADD SWAP2 POP POP PUSH2 0x810 JUMP JUMPDEST POP SWAP1 JUMP JUMPDEST PUSH1 0x6 PUSH1 0x20 MSTORE DUP1 PUSH1 0x0 MSTORE PUSH1 0x40 PUSH1 0x0 KECCAK256 PUSH1 0x0 SWAP2 POP SLOAD SWAP1 PUSH2 0x100 EXP SWAP1 DIV PUSH8 0xFFFFFFFFFFFFFFFF AND DUP2 JUMP JUMPDEST PUSH1 0xB SLOAD DUP2 JUMP JUMPDEST PUSH1 0x0 PUSH1 0xD PUSH1 0x0 DUP4 PUSH20 0xFFFFFFFFFFFFFFFFFFFFFFFFFFFFFFFFFFFFFFFF AND PUSH20 0xFFFFFFFFFFFFFFFFFFFFFFFFFFFFFFFFFFFFFFFF AND DUP2 MSTORE PUSH1 0x20 ADD SWAP1 DUP2 MSTORE PUSH1 0x20 ADD PUSH1 0x0 KECCAK256 SLOAD SWAP1 POP SWAP2 SWAP1 POP JUMP JUMPDEST PUSH1 0x0 DUP1 SHL PUSH2 0x92E DUP2 CALLER PUSH2 0xF0F JUMP JUMPDEST PUSH2 0x96D JUMPI PUSH1 0x40 MLOAD PUSH32 0x8C379A000000000000000000000000000000000000000000000000000000000 DUP2 MSTORE PUSH1 0x4 ADD PUSH2 0x964 SWAP1 PUSH2 0x261E JUMP JUMPDEST PUSH1 0x40 MLOAD DUP1 SWAP2 SUB SWAP1 REVERT JUMPDEST DUP2 PUSH1 0x2 DUP2 SWAP1 SSTORE POP POP POP JUMP JUMPDEST PUSH1 0x0 DUP1 SHL PUSH2 0x986 DUP2 CALLER PUSH2 0xF0F JUMP JUMPDEST PUSH2 0x9C5 JUMPI PUSH1 0x40 MLOAD PUSH32 0x8C379A000000000000000000000000000000000000000000000000000000000 DUP2 MSTORE PUSH1 0x4 ADD PUSH2 0x9BC SWAP1 PUSH2 0x261E JUMP JUMPDEST PUSH1 0x40 MLOAD DUP1 SWAP2 SUB SWAP1 REVERT JUMPDEST DUP2 PUSH1 0x4 PUSH1 0x2 PUSH2 0x100 EXP DUP2 SLOAD DUP2 PUSH20 0xFFFFFFFFFFFFFFFFFFFFFFFFFFFFFFFFFFFFFFFF MUL NOT AND SWAP1 DUP4 PUSH20 0xFFFFFFFFFFFFFFFFFFFFFFFFFFFFFFFFFFFFFFFF AND MUL OR SWAP1 SSTORE POP POP POP JUMP JUMPDEST PUSH1 0x8 PUSH1 0x20 MSTORE DUP1 PUSH1 0x0 MSTORE PUSH1 0x40 PUSH1 0x0 KECCAK256 PUSH1 0x0 SWAP2 POP SLOAD SWAP1 PUSH2 0x100 EXP SWAP1 DIV PUSH8 0xFFFFFFFFFFFFFFFF AND DUP2 JUMP JUMPDEST PUSH1 0x0 DUP1 PUSH1 0xA SLOAD EQ ISZERO DUP1 ISZERO PUSH2 0xA47 JUMPI POP PUSH1 0xA SLOAD NUMBER LT ISZERO JUMPDEST DUP1 ISZERO PUSH2 0xA62 JUMPI POP PUSH1 0x0 PUSH1 0xB SLOAD EQ DUP1 PUSH2 0xA61 JUMPI POP PUSH1 0xB SLOAD NUMBER GT ISZERO JUMPDEST JUMPDEST SWAP1 POP SWAP1 JUMP JUMPDEST PUSH1 0x0 DUP1 SHL PUSH2 0xA75 DUP2 CALLER PUSH2 0xF0F JUMP JUMPDEST PUSH2 0xAB4 JUMPI PUSH1 0x40 MLOAD PUSH32 0x8C379A000000000000000000000000000000000000000000000000000000000 DUP2 MSTORE PUSH1 0x4 ADD PUSH2 0xAAB SWAP1 PUSH2 0x261E JUMP JUMPDEST PUSH1 0x40 MLOAD DUP1 SWAP2 SUB SWAP1 REVERT JUMPDEST PUSH2 0xABE DUP4 DUP4 PUSH2 0x1CB7 JUMP JUMPDEST POP POP POP JUMP JUMPDEST PUSH1 0x3 SLOAD DUP2 JUMP JUMPDEST PUSH1 0xA SLOAD DUP2 JUMP JUMPDEST PUSH1 0x5 SLOAD DUP2 JUMP JUMPDEST PUSH1 0x2 SLOAD DUP2 JUMP JUMPDEST PUSH1 0x60 PUSH1 0x4 PUSH1 0x0 SWAP1 SLOAD SWAP1 PUSH2 0x100 EXP SWAP1 DIV PUSH2 0xFFFF AND PUSH2 0xFFFF AND PUSH8 0xFFFFFFFFFFFFFFFF DUP2 GT ISZERO PUSH2 0xB0B JUMPI PUSH2 0xB0A PUSH2 0x253D JUMP JUMPDEST JUMPDEST PUSH1 0x40 MLOAD SWAP1 DUP1 DUP3 MSTORE DUP1 PUSH1 0x20 MUL PUSH1 0x20 ADD DUP3 ADD PUSH1 0x40 MSTORE DUP1 ISZERO PUSH2 0xB39 JUMPI DUP2 PUSH1 0x20 ADD PUSH1 0x20 DUP3 MUL DUP1 CALLDATASIZE DUP4 CALLDATACOPY DUP1 DUP3 ADD SWAP2 POP POP SWAP1 POP JUMPDEST POP SWAP1 POP PUSH1 0x0 JUMPDEST PUSH1 0x4 PUSH1 0x0 SWAP1 SLOAD SWAP1 PUSH2 0x100 EXP SWAP1 DIV PUSH2 0xFFFF AND PUSH2 0xFFFF AND DUP2 PUSH2 0xFFFF AND LT ISZERO PUSH2 0xBD5 JUMPI PUSH1 0x7 PUSH1 0x0 DUP3 PUSH2 0xFFFF AND PUSH2 0xFFFF AND DUP2 MSTORE PUSH1 0x20 ADD SWAP1 DUP2 MSTORE PUSH1 0x20 ADD PUSH1 0x0 KECCAK256 PUSH1 0x0 SWAP1 SLOAD SWAP1 PUSH2 0x100 EXP SWAP1 DIV PUSH8 0xFFFFFFFFFFFFFFFF AND DUP3 DUP3 PUSH2 0xFFFF AND DUP2 MLOAD DUP2 LT PUSH2 0xBA6 JUMPI PUSH2 0xBA5 PUSH2 0x256C JUMP JUMPDEST JUMPDEST PUSH1 0x20 MUL PUSH1 0x20 ADD ADD SWAP1 PUSH8 0xFFFFFFFFFFFFFFFF AND SWAP1 DUP2 PUSH8 0xFFFFFFFFFFFFFFFF AND DUP2 MSTORE POP POP DUP1 DUP1 PUSH1 0x1 ADD SWAP2 POP POP PUSH2 0xB3F JUMP JUMPDEST POP SWAP1 JUMP JUMPDEST PUSH1 0x0 PUSH1 0xE PUSH1 0x0 DUP4 PUSH20 0xFFFFFFFFFFFFFFFFFFFFFFFFFFFFFFFFFFFFFFFF AND PUSH20 0xFFFFFFFFFFFFFFFFFFFFFFFFFFFFFFFFFFFFFFFF AND DUP2 MSTORE PUSH1 0x20 ADD SWAP1 DUP2 MSTORE PUSH1 0x20 ADD PUSH1 0x0 KECCAK256 PUSH1 0x0 SWAP1 SLOAD SWAP1 PUSH2 0x100 EXP SWAP1 DIV PUSH8 0xFFFFFFFFFFFFFFFF AND SWAP1 POP SWAP2 SWAP1 POP JUMP JUMPDEST PUSH1 0x0 DUP1 PUSH1 0xC PUSH1 0x0 DUP5 PUSH20 0xFFFFFFFFFFFFFFFFFFFFFFFFFFFFFFFFFFFFFFFF AND PUSH20 0xFFFFFFFFFFFFFFFFFFFFFFFFFFFFFFFFFFFFFFFF AND DUP2 MSTORE PUSH1 0x20 ADD SWAP1 DUP2 MSTORE PUSH1 0x20 ADD PUSH1 0x0 KECCAK256 SLOAD NUMBER SWAP2 POP SWAP2 POP SWAP2 POP SWAP2 JUMP JUMPDEST PUSH1 0xE PUSH1 0x20 MSTORE DUP1 PUSH1 0x0 MSTORE PUSH1 0x40 PUSH1 0x0 KECCAK256 PUSH1 0x0 SWAP2 POP SLOAD SWAP1 PUSH2 0x100 EXP SWAP1 DIV PUSH8 0xFFFFFFFFFFFFFFFF AND DUP2 JUMP JUMPDEST PUSH1 0x0 DUP1 SHL PUSH2 0xCB8 DUP2 CALLER PUSH2 0xF0F JUMP JUMPDEST PUSH2 0xCF7 JUMPI PUSH1 0x40 MLOAD PUSH32 0x8C379A000000000000000000000000000000000000000000000000000000000 DUP2 MSTORE PUSH1 0x4 ADD PUSH2 0xCEE SWAP1 PUSH2 0x261E JUMP JUMPDEST PUSH1 0x40 MLOAD DUP1 SWAP2 SUB SWAP1 REVERT JUMPDEST NUMBER DUP4 LT ISZERO PUSH2 0xD3A JUMPI PUSH1 0x40 MLOAD PUSH32 0x8C379A000000000000000000000000000000000000000000000000000000000 DUP2 MSTORE PUSH1 0x4 ADD PUSH2 0xD31 SWAP1 PUSH2 0x26B0 JUMP JUMPDEST PUSH1 0x40 MLOAD DUP1 SWAP2 SUB SWAP1 REVERT JUMPDEST PUSH1 0x0 DUP3 EQ DUP1 PUSH2 0xD48 JUMPI POP DUP3 DUP3 GT JUMPDEST PUSH2 0xD87 JUMPI PUSH1 0x40 MLOAD PUSH32 0x8C379A000000000000000000000000000000000000000000000000000000000 DUP2 MSTORE PUSH1 0x4 ADD PUSH2 0xD7E SWAP1 PUSH2 0x2742 JUMP JUMPDEST PUSH1 0x40 MLOAD DUP1 SWAP2 SUB SWAP1 REVERT JUMPDEST DUP3 PUSH1 0xA DUP2 SWAP1 SSTORE POP DUP2 PUSH1 0xB DUP2 SWAP1 SSTORE POP POP POP POP JUMP JUMPDEST PUSH1 0x0 DUP1 SHL DUP2 JUMP JUMPDEST PUSH1 0x60 PUSH1 0x0 PUSH1 0x4 PUSH1 0x0 SWAP1 SLOAD SWAP1 PUSH2 0x100 EXP SWAP1 DIV PUSH2 0xFFFF AND PUSH2 0xFFFF AND PUSH8 0xFFFFFFFFFFFFFFFF DUP2 GT ISZERO PUSH2 0xDD3 JUMPI PUSH2 0xDD2 PUSH2 0x253D JUMP JUMPDEST JUMPDEST PUSH1 0x40 MLOAD SWAP1 DUP1 DUP3 MSTORE DUP1 PUSH1 0x20 MUL PUSH1 0x20 ADD DUP3 ADD PUSH1 0x40 MSTORE DUP1 ISZERO PUSH2 0xE01 JUMPI DUP2 PUSH1 0x20 ADD PUSH1 0x20 DUP3 MUL DUP1 CALLDATASIZE DUP4 CALLDATACOPY DUP1 DUP3 ADD SWAP2 POP POP SWAP1 POP JUMPDEST POP SWAP1 POP PUSH1 0x0 JUMPDEST PUSH1 0x4 PUSH1 0x0 SWAP1 SLOAD SWAP1 PUSH2 0x100 EXP SWAP1 DIV PUSH2 0xFFFF AND PUSH2 0xFFFF AND DUP2 PUSH2 0xFFFF AND LT ISZERO PUSH2 0xEAC JUMPI PUSH1 0xF PUSH1 0x0 DUP6 PUSH20 0xFFFFFFFFFFFFFFFFFFFFFFFFFFFFFFFFFFFFFFFF AND PUSH20 0xFFFFFFFFFFFFFFFFFFFFFFFFFFFFFFFFFFFFFFFF AND DUP2 MSTORE PUSH1 0x20 ADD SWAP1 DUP2 MSTORE PUSH1 0x20 ADD PUSH1 0x0 KECCAK256 PUSH1 0x0 DUP3 PUSH2 0xFFFF AND DUP2 MSTORE PUSH1 0x20 ADD SWAP1 DUP2 MSTORE PUSH1 0x20 ADD PUSH1 0x0 KECCAK256 SLOAD DUP3 DUP3 PUSH2 0xFFFF AND DUP2 MLOAD DUP2 LT PUSH2 0xE93 JUMPI PUSH2 0xE92 PUSH2 0x256C JUMP JUMPDEST JUMPDEST PUSH1 0x20 MUL PUSH1 0x20 ADD ADD DUP2 DUP2 MSTORE POP POP DUP1 DUP1 PUSH1 0x1 ADD SWAP2 POP POP PUSH2 0xE07 JUMP JUMPDEST POP DUP1 SWAP2 POP POP SWAP2 SWAP1 POP JUMP JUMPDEST PUSH1 0xC PUSH1 0x20 MSTORE DUP1 PUSH1 0x0 MSTORE PUSH1 0x40 PUSH1 0x0 KECCAK256 PUSH1 0x0 SWAP2 POP SWAP1 POP SLOAD DUP2 JUMP JUMPDEST PUSH1 0x7 PUSH1 0x20 MSTORE DUP1 PUSH1 0x0 MSTORE PUSH1 0x40 PUSH1 0x0 KECCAK256 PUSH1 0x0 SWAP2 POP SLOAD SWAP1 PUSH2 0x100 EXP SWAP1 DIV PUSH8 0xFFFFFFFFFFFFFFFF AND DUP2 JUMP JUMPDEST PUSH1 0x4 PUSH1 0x0 SWAP1 SLOAD SWAP1 PUSH2 0x100 EXP SWAP1 DIV PUSH2 0xFFFF AND DUP2 JUMP JUMPDEST PUSH1 0x9 SLOAD DUP2 JUMP JUMPDEST PUSH1 0x0 DUP1 PUSH1 0x0 DUP5 DUP2 MSTORE PUSH1 0x20 ADD SWAP1 DUP2 MSTORE PUSH1 0x20 ADD PUSH1 0x0 KECCAK256 PUSH1 0x0 DUP4 PUSH20 0xFFFFFFFFFFFFFFFFFFFFFFFFFFFFFFFFFFFFFFFF AND PUSH20 0xFFFFFFFFFFFFFFFFFFFFFFFFFFFFFFFFFFFFFFFF AND DUP2 MSTORE PUSH1 0x20 ADD SWAP1 DUP2 MSTORE PUSH1 0x20 ADD PUSH1 0x0 KECCAK256 PUSH1 0x0 SWAP1 SLOAD SWAP1 PUSH2 0x100 EXP SWAP1 DIV PUSH1 0xFF AND SWAP1 POP SWAP3 SWAP2 POP POP JUMP JUMPDEST PUSH1 0x0 DUP1 SHL PUSH2 0xF84 DUP2 CALLER PUSH2 0xF0F JUMP JUMPDEST PUSH2 0xFC3 JUMPI PUSH1 0x40 MLOAD PUSH32 0x8C379A000000000000000000000000000000000000000000000000000000000 DUP2 MSTORE PUSH1 0x4 ADD PUSH2 0xFBA SWAP1 PUSH2 0x261E JUMP JUMPDEST PUSH1 0x40 MLOAD DUP1 SWAP2 SUB SWAP1 REVERT JUMPDEST DUP2 PUSH1 0x3 DUP2 SWAP1 SSTORE POP POP POP JUMP JUMPDEST PUSH1 0x0 DUP1 SHL PUSH2 0xFDC DUP2 CALLER PUSH2 0xF0F JUMP JUMPDEST PUSH2 0x101B JUMPI PUSH1 0x40 MLOAD PUSH32 0x8C379A000000000000000000000000000000000000000000000000000000000 DUP2 MSTORE PUSH1 0x4 ADD PUSH2 0x1012 SWAP1 PUSH2 0x261E JUMP JUMPDEST PUSH1 0x40 MLOAD DUP1 SWAP2 SUB SWAP1 REVERT JUMPDEST DUP3 DUP3 SWAP1 POP DUP6 DUP6 SWAP1 POP EQ PUSH2 0x1063 JUMPI PUSH1 0x40 MLOAD PUSH32 0x8C379A000000000000000000000000000000000000000000000000000000000 DUP2 MSTORE PUSH1 0x4 ADD PUSH2 0x105A SWAP1 PUSH2 0x27AE JUMP JUMPDEST PUSH1 0x40 MLOAD DUP1 SWAP2 SUB SWAP1 REVERT JUMPDEST PUSH4 0x5F5E100 DUP4 DUP4 PUSH1 0x1 DUP7 DUP7 SWAP1 POP PUSH2 0x107A SWAP2 SWAP1 PUSH2 0x27FD JUMP JUMPDEST DUP2 DUP2 LT PUSH2 0x108A JUMPI PUSH2 0x1089 PUSH2 0x256C JUMP JUMPDEST JUMPDEST SWAP1 POP PUSH1 0x20 MUL ADD PUSH1 0x20 DUP2 ADD SWAP1 PUSH2 0x109F SWAP2 SWAP1 PUSH2 0x285D JUMP JUMPDEST PUSH8 0xFFFFFFFFFFFFFFFF AND EQ PUSH2 0x10E9 JUMPI PUSH1 0x40 MLOAD PUSH32 0x8C379A000000000000000000000000000000000000000000000000000000000 DUP2 MSTORE PUSH1 0x4 ADD PUSH2 0x10E0 SWAP1 PUSH2 0x28FC JUMP JUMPDEST PUSH1 0x40 MLOAD DUP1 SWAP2 SUB SWAP1 REVERT JUMPDEST PUSH1 0x0 JUMPDEST DUP6 DUP6 SWAP1 POP DUP2 PUSH2 0xFFFF AND LT ISZERO PUSH2 0x1255 JUMPI DUP6 DUP6 DUP3 PUSH2 0xFFFF AND DUP2 DUP2 LT PUSH2 0x1112 JUMPI PUSH2 0x1111 PUSH2 0x256C JUMP JUMPDEST JUMPDEST SWAP1 POP PUSH1 0x20 MUL ADD PUSH1 0x20 DUP2 ADD SWAP1 PUSH2 0x1127 SWAP2 SWAP1 PUSH2 0x285D JUMP JUMPDEST PUSH1 0x6 PUSH1 0x0 DUP4 PUSH2 0xFFFF AND PUSH2 0xFFFF AND DUP2 MSTORE PUSH1 0x20 ADD SWAP1 DUP2 MSTORE PUSH1 0x20 ADD PUSH1 0x0 KECCAK256 PUSH1 0x0 PUSH2 0x100 EXP DUP2 SLOAD DUP2 PUSH8 0xFFFFFFFFFFFFFFFF MUL NOT AND SWAP1 DUP4 PUSH8 0xFFFFFFFFFFFFFFFF AND MUL OR SWAP1 SSTORE POP DUP6 DUP6 DUP3 PUSH2 0xFFFF AND DUP2 DUP2 LT PUSH2 0x117F JUMPI PUSH2 0x117E PUSH2 0x256C JUMP JUMPDEST JUMPDEST SWAP1 POP PUSH1 0x20 MUL ADD PUSH1 0x20 DUP2 ADD SWAP1 PUSH2 0x1194 SWAP2 SWAP1 PUSH2 0x285D JUMP JUMPDEST PUSH1 0x7 PUSH1 0x0 DUP4 PUSH2 0xFFFF AND PUSH2 0xFFFF AND DUP2 MSTORE PUSH1 0x20 ADD SWAP1 DUP2 MSTORE PUSH1 0x20 ADD PUSH1 0x0 KECCAK256 PUSH1 0x0 PUSH2 0x100 EXP DUP2 SLOAD DUP2 PUSH8 0xFFFFFFFFFFFFFFFF MUL NOT AND SWAP1 DUP4 PUSH8 0xFFFFFFFFFFFFFFFF AND MUL OR SWAP1 SSTORE POP DUP4 DUP4 DUP3 PUSH2 0xFFFF AND DUP2 DUP2 LT PUSH2 0x11EC JUMPI PUSH2 0x11EB PUSH2 0x256C JUMP JUMPDEST JUMPDEST SWAP1 POP PUSH1 0x20 MUL ADD PUSH1 0x20 DUP2 ADD SWAP1 PUSH2 0x1201 SWAP2 SWAP1 PUSH2 0x285D JUMP JUMPDEST PUSH1 0x8 PUSH1 0x0 DUP4 PUSH2 0xFFFF AND PUSH2 0xFFFF AND DUP2 MSTORE PUSH1 0x20 ADD SWAP1 DUP2 MSTORE PUSH1 0x20 ADD PUSH1 0x0 KECCAK256 PUSH1 0x0 PUSH2 0x100 EXP DUP2 SLOAD DUP2 PUSH8 0xFFFFFFFFFFFFFFFF MUL NOT AND SWAP1 DUP4 PUSH8 0xFFFFFFFFFFFFFFFF AND MUL OR SWAP1 SSTORE POP DUP1 DUP1 PUSH2 0x124D SWAP1 PUSH2 0x291C JUMP JUMPDEST SWAP2 POP POP PUSH2 0x10EC JUMP JUMPDEST POP POP POP POP POP POP JUMP JUMPDEST PUSH1 0x0 PUSH1 0xF PUSH1 0x0 DUP5 PUSH20 0xFFFFFFFFFFFFFFFFFFFFFFFFFFFFFFFFFFFFFFFF AND PUSH20 0xFFFFFFFFFFFFFFFFFFFFFFFFFFFFFFFFFFFFFFFF AND DUP2 MSTORE PUSH1 0x20 ADD SWAP1 DUP2 MSTORE PUSH1 0x20 ADD PUSH1 0x0 KECCAK256 PUSH1 0x0 DUP4 PUSH2 0xFFFF AND DUP2 MSTORE PUSH1 0x20 ADD SWAP1 DUP2 MSTORE PUSH1 0x20 ADD PUSH1 0x0 KECCAK256 SLOAD SWAP1 POP SWAP3 SWAP2 POP POP JUMP JUMPDEST PUSH8 0xDE0B6B3A7640000 DUP2 JUMP JUMPDEST PUSH1 0x0 DUP1 SHL PUSH2 0x12D6 DUP2 CALLER PUSH2 0xF0F JUMP JUMPDEST PUSH2 0x1315 JUMPI PUSH1 0x40 MLOAD PUSH32 0x8C379A000000000000000000000000000000000000000000000000000000000 DUP2 MSTORE PUSH1 0x4 ADD PUSH2 0x130C SWAP1 PUSH2 0x261E JUMP JUMPDEST PUSH1 0x40 MLOAD DUP1 SWAP2 SUB SWAP1 REVERT JUMPDEST PUSH1 0x0 DUP3 PUSH2 0xFFFF AND GT PUSH2 0x135C JUMPI PUSH1 0x40 MLOAD PUSH32 0x8C379A000000000000000000000000000000000000000000000000000000000 DUP2 MSTORE PUSH1 0x4 ADD PUSH2 0x1353 SWAP1 PUSH2 0x29B8 JUMP JUMPDEST PUSH1 0x40 MLOAD DUP1 SWAP2 SUB SWAP1 REVERT JUMPDEST DUP2 PUSH1 0x4 PUSH1 0x0 PUSH2 0x100 EXP DUP2 SLOAD DUP2 PUSH2 0xFFFF MUL NOT AND SWAP1 DUP4 PUSH2 0xFFFF AND MUL OR SWAP1 SSTORE POP POP POP JUMP JUMPDEST PUSH1 0x60 PUSH1 0x4 PUSH1 0x0 SWAP1 SLOAD SWAP1 PUSH2 0x100 EXP SWAP1 DIV PUSH2 0xFFFF AND PUSH2 0xFFFF AND PUSH8 0xFFFFFFFFFFFFFFFF DUP2 GT ISZERO PUSH2 0x13AD JUMPI PUSH2 0x13AC PUSH2 0x253D JUMP JUMPDEST JUMPDEST PUSH1 0x40 MLOAD SWAP1 DUP1 DUP3 MSTORE DUP1 PUSH1 0x20 MUL PUSH1 0x20 ADD DUP3 ADD PUSH1 0x40 MSTORE DUP1 ISZERO PUSH2 0x13DB JUMPI DUP2 PUSH1 0x20 ADD PUSH1 0x20 DUP3 MUL DUP1 CALLDATASIZE DUP4 CALLDATACOPY DUP1 DUP3 ADD SWAP2 POP POP SWAP1 POP JUMPDEST POP SWAP1 POP PUSH1 0x0 JUMPDEST PUSH1 0x4 PUSH1 0x0 SWAP1 SLOAD SWAP1 PUSH2 0x100 EXP SWAP1 DIV PUSH2 0xFFFF AND PUSH2 0xFFFF AND DUP2 PUSH2 0xFFFF AND LT ISZERO PUSH2 0x1477 JUMPI PUSH1 0x6 PUSH1 0x0 DUP3 PUSH2 0xFFFF AND PUSH2 0xFFFF AND DUP2 MSTORE PUSH1 0x20 ADD SWAP1 DUP2 MSTORE PUSH1 0x20 ADD PUSH1 0x0 KECCAK256 PUSH1 0x0 SWAP1 SLOAD SWAP1 PUSH2 0x100 EXP SWAP1 DIV PUSH8 0xFFFFFFFFFFFFFFFF AND DUP3 DUP3 PUSH2 0xFFFF AND DUP2 MLOAD DUP2 LT PUSH2 0x1448 JUMPI PUSH2 0x1447 PUSH2 0x256C JUMP JUMPDEST JUMPDEST PUSH1 0x20 MUL PUSH1 0x20 ADD ADD SWAP1 PUSH8 0xFFFFFFFFFFFFFFFF AND SWAP1 DUP2 PUSH8 0xFFFFFFFFFFFFFFFF AND DUP2 MSTORE POP POP DUP1 DUP1 PUSH1 0x1 ADD SWAP2 POP POP PUSH2 0x13E1 JUMP JUMPDEST POP SWAP1 JUMP JUMPDEST PUSH4 0x5F5E100 DUP2 JUMP JUMPDEST PUSH1 0x0 DUP1 SHL PUSH2 0x1491 DUP2 CALLER PUSH2 0xF0F JUMP JUMPDEST PUSH2 0x14D0 JUMPI PUSH1 0x40 MLOAD PUSH32 0x8C379A000000000000000000000000000000000000000000000000000000000 DUP2 MSTORE PUSH1 0x4 ADD PUSH2 0x14C7 SWAP1 PUSH2 0x261E JUMP JUMPDEST PUSH1 0x40 MLOAD DUP1 SWAP2 SUB SWAP1 REVERT JUMPDEST PUSH2 0x14DA DUP4 DUP4 PUSH2 0x1D7E JUMP JUMPDEST POP POP POP JUMP JUMPDEST PUSH1 0xD PUSH1 0x20 MSTORE DUP1 PUSH1 0x0 MSTORE PUSH1 0x40 PUSH1 0x0 KECCAK256 PUSH1 0x0 SWAP2 POP SWAP1 POP SLOAD DUP2 JUMP JUMPDEST DUP1 PUSH20 0xFFFFFFFFFFFFFFFFFFFFFFFFFFFFFFFFFFFFFFFF AND CALLER PUSH20 0xFFFFFFFFFFFFFFFFFFFFFFFFFFFFFFFFFFFFFFFF AND EQ DUP1 PUSH2 0x153A JUMPI POP PUSH2 0x1539 PUSH1 0x0 DUP1 SHL CALLER PUSH2 0xF0F JUMP JUMPDEST JUMPDEST PUSH2 0x1579 JUMPI PUSH1 0x40 MLOAD PUSH32 0x8C379A000000000000000000000000000000000000000000000000000000000 DUP2 MSTORE PUSH1 0x4 ADD PUSH2 0x1570 SWAP1 PUSH2 0x2A4A JUMP JUMPDEST PUSH1 0x40 MLOAD DUP1 SWAP2 SUB SWAP1 REVERT JUMPDEST PUSH1 0x0 NUMBER SWAP1 POP PUSH1 0x0 PUSH1 0xC PUSH1 0x0 DUP5 PUSH20 0xFFFFFFFFFFFFFFFFFFFFFFFFFFFFFFFFFFFFFFFF AND PUSH20 0xFFFFFFFFFFFFFFFFFFFFFFFFFFFFFFFFFFFFFFFF AND DUP2 MSTORE PUSH1 0x20 ADD SWAP1 DUP2 MSTORE PUSH1 0x20 ADD PUSH1 0x0 KECCAK256 SLOAD DUP3 PUSH2 0x15CB SWAP2 SWAP1 PUSH2 0x27FD JUMP JUMPDEST SWAP1 POP PUSH1 0x3 SLOAD DUP2 LT ISZERO PUSH2 0x1612 JUMPI PUSH1 0x40 MLOAD PUSH32 0x8C379A000000000000000000000000000000000000000000000000000000000 DUP2 MSTORE PUSH1 0x4 ADD PUSH2 0x1609 SWAP1 PUSH2 0x2ADC JUMP JUMPDEST PUSH1 0x40 MLOAD DUP1 SWAP2 SUB SWAP1 REVERT JUMPDEST PUSH1 0x2 SLOAD PUSH1 0xD PUSH1 0x0 DUP6 PUSH20 0xFFFFFFFFFFFFFFFFFFFFFFFFFFFFFFFFFFFFFFFF AND PUSH20 0xFFFFFFFFFFFFFFFFFFFFFFFFFFFFFFFFFFFFFFFF AND DUP2 MSTORE PUSH1 0x20 ADD SWAP1 DUP2 MSTORE PUSH1 0x20 ADD PUSH1 0x0 KECCAK256 PUSH1 0x0 DUP3 DUP3 SLOAD PUSH2 0x1663 SWAP2 SWAP1 PUSH2 0x2AFC JUMP JUMPDEST SWAP3 POP POP DUP2 SWAP1 SSTORE POP DUP2 PUSH1 0xC PUSH1 0x0 DUP6 PUSH20 0xFFFFFFFFFFFFFFFFFFFFFFFFFFFFFFFFFFFFFFFF AND PUSH20 0xFFFFFFFFFFFFFFFFFFFFFFFFFFFFFFFFFFFFFFFF AND DUP2 MSTORE PUSH1 0x20 ADD SWAP1 DUP2 MSTORE PUSH1 0x20 ADD PUSH1 0x0 KECCAK256 DUP2 SWAP1 SSTORE POP DUP3 PUSH20 0xFFFFFFFFFFFFFFFFFFFFFFFFFFFFFFFFFFFFFFFF AND PUSH32 0xB12EC13040779B0B4E7D608B32399FBCFB5C1AB5FB2CC08226D4ED2A32728B3E DUP4 PUSH1 0x40 MLOAD PUSH2 0x16F4 SWAP2 SWAP1 PUSH2 0x203C JUMP JUMPDEST PUSH1 0x40 MLOAD DUP1 SWAP2 SUB SWAP1 LOG2 POP POP POP JUMP JUMPDEST PUSH1 0x0 DUP1 PUSH2 0x170C PUSH2 0x1E45 JUMP JUMPDEST PUSH2 0x1714 PUSH2 0xA31 JUMP JUMPDEST PUSH2 0x1753 JUMPI PUSH1 0x40 MLOAD PUSH32 0x8C379A000000000000000000000000000000000000000000000000000000000 DUP2 MSTORE PUSH1 0x4 ADD PUSH2 0x174A SWAP1 PUSH2 0x2B7C JUMP JUMPDEST PUSH1 0x40 MLOAD DUP1 SWAP2 SUB SWAP1 REVERT JUMPDEST PUSH1 0x0 PUSH1 0xD PUSH1 0x0 CALLER PUSH20 0xFFFFFFFFFFFFFFFFFFFFFFFFFFFFFFFFFFFFFFFF AND PUSH20 0xFFFFFFFFFFFFFFFFFFFFFFFFFFFFFFFFFFFFFFFF AND DUP2 MSTORE PUSH1 0x20 ADD SWAP1 DUP2 MSTORE PUSH1 0x20 ADD PUSH1 0x0 KECCAK256 SLOAD GT PUSH2 0x17D5 JUMPI PUSH1 0x40 MLOAD PUSH32 0x8C379A000000000000000000000000000000000000000000000000000000000 DUP2 MSTORE PUSH1 0x4 ADD PUSH2 0x17CC SWAP1 PUSH2 0x2BE8 JUMP JUMPDEST PUSH1 0x40 MLOAD DUP1 SWAP2 SUB SWAP1 REVERT JUMPDEST PUSH1 0x0 DUP1 PUSH1 0x0 PUSH1 0x1E SWAP1 POP JUMPDEST DUP3 ISZERO DUP1 ISZERO PUSH2 0x17EC JUMPI POP DUP1 DUP3 LT JUMPDEST ISZERO PUSH2 0x1A2A JUMPI PUSH1 0x1 PUSH4 0x5F5E100 TIMESTAMP PREVRANDAO CALLER PUSH1 0x9 SLOAD DUP8 PUSH1 0x40 MLOAD PUSH1 0x20 ADD PUSH2 0x1813 SWAP6 SWAP5 SWAP4 SWAP3 SWAP2 SWAP1 PUSH2 0x2C71 JUMP JUMPDEST PUSH1 0x40 MLOAD PUSH1 0x20 DUP2 DUP4 SUB SUB DUP2 MSTORE SWAP1 PUSH1 0x40 MSTORE DUP1 MLOAD SWAP1 PUSH1 0x20 ADD KECCAK256 PUSH1 0x0 SHR PUSH2 0x1836 SWAP2 SWAP1 PUSH2 0x2CFF JUMP JUMPDEST PUSH2 0x1840 SWAP2 SWAP1 PUSH2 0x2AFC JUMP JUMPDEST SWAP4 POP PUSH1 0x0 JUMPDEST PUSH1 0x4 PUSH1 0x0 SWAP1 SLOAD SWAP1 PUSH2 0x100 EXP SWAP1 DIV PUSH2 0xFFFF AND PUSH2 0xFFFF AND DUP2 PUSH2 0xFFFF AND LT DUP1 ISZERO PUSH2 0x186A JUMPI POP DUP4 ISZERO JUMPDEST ISZERO PUSH2 0x1A16 JUMPI PUSH1 0x8 PUSH1 0x0 DUP3 PUSH2 0xFFFF AND PUSH2 0xFFFF AND DUP2 MSTORE PUSH1 0x20 ADD SWAP1 DUP2 MSTORE PUSH1 0x20 ADD PUSH1 0x0 KECCAK256 PUSH1 0x0 SWAP1 SLOAD SWAP1 PUSH2 0x100 EXP SWAP1 DIV PUSH8 0xFFFFFFFFFFFFFFFF AND PUSH8 0xFFFFFFFFFFFFFFFF AND DUP6 GT PUSH2 0x1A03 JUMPI PUSH1 0x0 PUSH1 0x6 PUSH1 0x0 DUP4 PUSH2 0xFFFF AND PUSH2 0xFFFF AND DUP2 MSTORE PUSH1 0x20 ADD SWAP1 DUP2 MSTORE PUSH1 0x20 ADD PUSH1 0x0 KECCAK256 PUSH1 0x0 SWAP1 SLOAD SWAP1 PUSH2 0x100 EXP SWAP1 DIV PUSH8 0xFFFFFFFFFFFFFFFF AND PUSH8 0xFFFFFFFFFFFFFFFF AND EQ DUP1 PUSH2 0x1930 JUMPI POP PUSH1 0x0 PUSH1 0x7 PUSH1 0x0 DUP4 PUSH2 0xFFFF AND PUSH2 0xFFFF AND DUP2 MSTORE PUSH1 0x20 ADD SWAP1 DUP2 MSTORE PUSH1 0x20 ADD PUSH1 0x0 KECCAK256 PUSH1 0x0 SWAP1 SLOAD SWAP1 PUSH2 0x100 EXP SWAP1 DIV PUSH8 0xFFFFFFFFFFFFFFFF AND PUSH8 0xFFFFFFFFFFFFFFFF AND GT JUMPDEST ISZERO PUSH2 0x1A02 JUMPI PUSH1 0x1 SWAP4 POP DUP1 SWAP6 POP PUSH1 0x9 PUSH1 0x0 DUP2 SLOAD DUP1 SWAP3 SWAP2 SWAP1 PUSH2 0x194F SWAP1 PUSH2 0x2D30 JUMP JUMPDEST SWAP2 SWAP1 POP SSTORE POP PUSH1 0x0 PUSH1 0x7 PUSH1 0x0 DUP4 PUSH2 0xFFFF AND PUSH2 0xFFFF AND DUP2 MSTORE PUSH1 0x20 ADD SWAP1 DUP2 MSTORE PUSH1 0x20 ADD PUSH1 0x0 KECCAK256 PUSH1 0x0 SWAP1 SLOAD SWAP1 PUSH2 0x100 EXP SWAP1 DIV PUSH8 0xFFFFFFFFFFFFFFFF AND PUSH8 0xFFFFFFFFFFFFFFFF AND GT ISZERO PUSH2 0x19FD JUMPI PUSH1 0x7 PUSH1 0x0 DUP3 PUSH2 0xFFFF AND PUSH2 0xFFFF AND DUP2 MSTORE PUSH1 0x20 ADD SWAP1 DUP2 MSTORE PUSH1 0x20 ADD PUSH1 0x0 KECCAK256 PUSH1 0x0 DUP2 DUP2 SWAP1 SLOAD SWAP1 PUSH2 0x100 EXP SWAP1 DIV PUSH8 0xFFFFFFFFFFFFFFFF AND DUP1 SWAP3 SWAP2 SWAP1 PUSH2 0x19D5 SWAP1 PUSH2 0x2D78 JUMP JUMPDEST SWAP2 SWAP1 PUSH2 0x100 EXP DUP2 SLOAD DUP2 PUSH8 0xFFFFFFFFFFFFFFFF MUL NOT AND SWAP1 DUP4 PUSH8 0xFFFFFFFFFFFFFFFF AND MUL OR SWAP1 SSTORE POP POP JUMPDEST PUSH2 0x1A16 JUMP JUMPDEST JUMPDEST DUP1 DUP1 PUSH2 0x1A0E SWAP1 PUSH2 0x291C JUMP JUMPDEST SWAP2 POP POP PUSH2 0x1845 JUMP JUMPDEST POP DUP2 DUP1 PUSH2 0x1A22 SWAP1 PUSH2 0x2D30 JUMP JUMPDEST SWAP3 POP POP PUSH2 0x17DF JUMP JUMPDEST DUP3 PUSH2 0x1A6A JUMPI PUSH1 0x40 MLOAD PUSH32 0x8C379A000000000000000000000000000000000000000000000000000000000 DUP2 MSTORE PUSH1 0x4 ADD PUSH2 0x1A61 SWAP1 PUSH2 0x2E13 JUMP JUMPDEST PUSH1 0x40 MLOAD DUP1 SWAP2 SUB SWAP1 REVERT JUMPDEST PUSH1 0xE PUSH1 0x0 CALLER PUSH20 0xFFFFFFFFFFFFFFFFFFFFFFFFFFFFFFFFFFFFFFFF AND PUSH20 0xFFFFFFFFFFFFFFFFFFFFFFFFFFFFFFFFFFFFFFFF AND DUP2 MSTORE PUSH1 0x20 ADD SWAP1 DUP2 MSTORE PUSH1 0x20 ADD PUSH1 0x0 KECCAK256 PUSH1 0x0 DUP2 DUP2 SWAP1 SLOAD SWAP1 PUSH2 0x100 EXP SWAP1 DIV PUSH8 0xFFFFFFFFFFFFFFFF AND DUP1 SWAP3 SWAP2 SWAP1 PUSH2 0x1ACD SWAP1 PUSH2 0x2E33 JUMP JUMPDEST SWAP2 SWAP1 PUSH2 0x100 EXP DUP2 SLOAD DUP2 PUSH8 0xFFFFFFFFFFFFFFFF MUL NOT AND SWAP1 DUP4 PUSH8 0xFFFFFFFFFFFFFFFF AND MUL OR SWAP1 SSTORE POP POP PUSH1 0xF PUSH1 0x0 CALLER PUSH20 0xFFFFFFFFFFFFFFFFFFFFFFFFFFFFFFFFFFFFFFFF AND PUSH20 0xFFFFFFFFFFFFFFFFFFFFFFFFFFFFFFFFFFFFFFFF AND DUP2 MSTORE PUSH1 0x20 ADD SWAP1 DUP2 MSTORE PUSH1 0x20 ADD PUSH1 0x0 KECCAK256 PUSH1 0x0 DUP7 PUSH2 0xFFFF AND DUP2 MSTORE PUSH1 0x20 ADD SWAP1 DUP2 MSTORE PUSH1 0x20 ADD PUSH1 0x0 KECCAK256 PUSH1 0x0 DUP2 SLOAD DUP1 SWAP3 SWAP2 SWAP1 PUSH2 0x1B59 SWAP1 PUSH2 0x2D30 JUMP JUMPDEST SWAP2 SWAP1 POP SSTORE POP PUSH1 0xD PUSH1 0x0 CALLER PUSH20 0xFFFFFFFFFFFFFFFFFFFFFFFFFFFFFFFFFFFFFFFF AND PUSH20 0xFFFFFFFFFFFFFFFFFFFFFFFFFFFFFFFFFFFFFFFF AND DUP2 MSTORE PUSH1 0x20 ADD SWAP1 DUP2 MSTORE PUSH1 0x20 ADD PUSH1 0x0 KECCAK256 PUSH1 0x0 DUP2 SLOAD DUP1 SWAP3 SWAP2 SWAP1 PUSH2 0x1BAE SWAP1 PUSH2 0x2E63 JUMP JUMPDEST SWAP2 SWAP1 POP SSTORE POP CALLER PUSH20 0xFFFFFFFFFFFFFFFFFFFFFFFFFFFFFFFFFFFFFFFF AND PUSH32 0xF825702CBC83605D7FABABEA4C41C307150AAB23AE229ACDA80AF9D946AA4292 DUP7 DUP7 TIMESTAMP PUSH1 0x40 MLOAD PUSH2 0x1BFD SWAP4 SWAP3 SWAP2 SWAP1 PUSH2 0x2EC7 JUMP JUMPDEST PUSH1 0x40 MLOAD DUP1 SWAP2 SUB SWAP1 LOG2 POP POP POP PUSH2 0x1C10 PUSH2 0x1E8B JUMP JUMPDEST SWAP1 SWAP2 JUMP JUMPDEST PUSH1 0x0 DUP1 SHL PUSH2 0x1C22 DUP2 CALLER PUSH2 0xF0F JUMP JUMPDEST PUSH2 0x1C61 JUMPI PUSH1 0x40 MLOAD PUSH32 0x8C379A000000000000000000000000000000000000000000000000000000000 DUP2 MSTORE PUSH1 0x4 ADD PUSH2 0x1C58 SWAP1 PUSH2 0x261E JUMP JUMPDEST PUSH1 0x40 MLOAD DUP1 SWAP2 SUB SWAP1 REVERT JUMPDEST DUP2 PUSH1 0x5 DUP2 SWAP1 SSTORE POP POP POP JUMP JUMPDEST PUSH1 0x4 PUSH1 0x2 SWAP1 SLOAD SWAP1 PUSH2 0x100 EXP SWAP1 DIV PUSH20 0xFFFFFFFFFFFFFFFFFFFFFFFFFFFFFFFFFFFFFFFF AND DUP2 JUMP JUMPDEST PUSH1 0xF PUSH1 0x20 MSTORE DUP2 PUSH1 0x0 MSTORE PUSH1 0x40 PUSH1 0x0 KECCAK256 PUSH1 0x20 MSTORE DUP1 PUSH1 0x0 MSTORE PUSH1 0x40 PUSH1 0x0 KECCAK256 PUSH1 0x0 SWAP2 POP SWAP2 POP POP SLOAD DUP2 JUMP JUMPDEST PUSH1 0x1 PUSH1 0x0 DUP1 DUP5 DUP2 MSTORE PUSH1 0x20 ADD SWAP1 DUP2 MSTORE PUSH1 0x20 ADD PUSH1 0x0 KECCAK256 PUSH1 0x0 DUP4 PUSH20 0xFFFFFFFFFFFFFFFFFFFFFFFFFFFFFFFFFFFFFFFF AND PUSH20 0xFFFFFFFFFFFFFFFFFFFFFFFFFFFFFFFFFFFFFFFF AND DUP2 MSTORE PUSH1 0x20 ADD SWAP1 DUP2 MSTORE PUSH1 0x20 ADD PUSH1 0x0 KECCAK256 PUSH1 0x0 PUSH2 0x100 EXP DUP2 SLOAD DUP2 PUSH1 0xFF MUL NOT AND SWAP1 DUP4 ISZERO ISZERO MUL OR SWAP1 SSTORE POP CALLER PUSH20 0xFFFFFFFFFFFFFFFFFFFFFFFFFFFFFFFFFFFFFFFF AND DUP2 PUSH20 0xFFFFFFFFFFFFFFFFFFFFFFFFFFFFFFFFFFFFFFFF AND DUP4 PUSH32 0x2F8788117E7EFF1D82E926EC794901D17C78024A50270940304540A733656F0D PUSH1 0x40 MLOAD PUSH1 0x40 MLOAD DUP1 SWAP2 SUB SWAP1 LOG4 POP POP JUMP JUMPDEST PUSH1 0x0 DUP1 PUSH1 0x0 DUP5 DUP2 MSTORE PUSH1 0x20 ADD SWAP1 DUP2 MSTORE PUSH1 0x20 ADD PUSH1 0x0 KECCAK256 PUSH1 0x0 DUP4 PUSH20 0xFFFFFFFFFFFFFFFFFFFFFFFFFFFFFFFFFFFFFFFF AND PUSH20 0xFFFFFFFFFFFFFFFFFFFFFFFFFFFFFFFFFFFFFFFF AND DUP2 MSTORE PUSH1 0x20 ADD SWAP1 DUP2 MSTORE PUSH1 0x20 ADD PUSH1 0x0 KECCAK256 PUSH1 0x0 PUSH2 0x100 EXP DUP2 SLOAD DUP2 PUSH1 0xFF MUL NOT AND SWAP1 DUP4 ISZERO ISZERO MUL OR SWAP1 SSTORE POP CALLER PUSH20 0xFFFFFFFFFFFFFFFFFFFFFFFFFFFFFFFFFFFFFFFF AND DUP2 PUSH20 0xFFFFFFFFFFFFFFFFFFFFFFFFFFFFFFFFFFFFFFFF AND DUP4 PUSH32 0xF6391F5C32D9C69D2A47EA670B442974B53935D1EDC7FD64EB21E047A839171B PUSH1 0x40 MLOAD PUSH1 0x40 MLOAD DUP1 SWAP2 SUB SWAP1 LOG4 POP POP JUMP JUMPDEST PUSH1 0x2 PUSH1 0x1 SLOAD SUB PUSH2 0x1E81 JUMPI PUSH1 0x40 MLOAD PUSH32 0x3EE5AEB500000000000000000000000000000000000000000000000000000000 DUP2 MSTORE PUSH1 0x4 ADD PUSH1 0x40 MLOAD DUP1 SWAP2 SUB SWAP1 REVERT JUMPDEST PUSH1 0x2 PUSH1 0x1 DUP2 SWAP1 SSTORE POP JUMP JUMPDEST PUSH1 0x1 DUP1 DUP2 SWAP1 SSTORE POP JUMP JUMPDEST PUSH1 0x0 DUP2 MLOAD SWAP1 POP SWAP2 SWAP1 POP JUMP JUMPDEST PUSH1 0x0 DUP3 DUP3 MSTORE PUSH1 0x20 DUP3 ADD SWAP1 POP SWAP3 SWAP2 POP POP JUMP JUMPDEST PUSH1 0x0 DUP2 SWAP1 POP PUSH1 0x20 DUP3 ADD SWAP1 POP SWAP2 SWAP1 POP JUMP JUMPDEST PUSH1 0x0 PUSH8 0xFFFFFFFFFFFFFFFF DUP3 AND SWAP1 POP SWAP2 SWAP1 POP JUMP JUMPDEST PUSH2 0x1EDD DUP2 PUSH2 0x1EC0 JUMP JUMPDEST DUP3 MSTORE POP POP JUMP JUMPDEST PUSH1 0x0 PUSH2 0x1EEF DUP4 DUP4 PUSH2 0x1ED4 JUMP JUMPDEST PUSH1 0x20 DUP4 ADD SWAP1 POP SWAP3 SWAP2 POP POP JUMP JUMPDEST PUSH1 0x0 PUSH1 0x20 DUP3 ADD SWAP1 POP SWAP2 SWAP1 POP JUMP JUMPDEST PUSH1 0x0 PUSH2 0x1F13 DUP3 PUSH2 0x1E94 JUMP JUMPDEST PUSH2 0x1F1D DUP2 DUP6 PUSH2 0x1E9F JUMP JUMPDEST SWAP4 POP PUSH2 0x1F28 DUP4 PUSH2 0x1EB0 JUMP JUMPDEST DUP1 PUSH1 0x0 JUMPDEST DUP4 DUP2 LT ISZERO PUSH2 0x1F59 JUMPI DUP2 MLOAD PUSH2 0x1F40 DUP9 DUP3 PUSH2 0x1EE3 JUMP JUMPDEST SWAP8 POP PUSH2 0x1F4B DUP4 PUSH2 0x1EFB JUMP JUMPDEST SWAP3 POP POP PUSH1 0x1 DUP2 ADD SWAP1 POP PUSH2 0x1F2C JUMP JUMPDEST POP DUP6 SWAP4 POP POP POP POP SWAP3 SWAP2 POP POP JUMP JUMPDEST PUSH1 0x0 PUSH1 0x20 DUP3 ADD SWAP1 POP DUP2 DUP2 SUB PUSH1 0x0 DUP4 ADD MSTORE PUSH2 0x1F80 DUP2 DUP5 PUSH2 0x1F08 JUMP JUMPDEST SWAP1 POP SWAP3 SWAP2 POP POP JUMP JUMPDEST PUSH1 0x0 DUP1 REVERT JUMPDEST PUSH1 0x0 DUP1 REVERT JUMPDEST PUSH1 0x0 PUSH2 0xFFFF DUP3 AND SWAP1 POP SWAP2 SWAP1 POP JUMP JUMPDEST PUSH2 0x1FA9 DUP2 PUSH2 0x1F92 JUMP JUMPDEST DUP2 EQ PUSH2 0x1FB4 JUMPI PUSH1 0x0 DUP1 REVERT JUMPDEST POP JUMP JUMPDEST PUSH1 0x0 DUP2 CALLDATALOAD SWAP1 POP PUSH2 0x1FC6 DUP2 PUSH2 0x1FA0 JUMP JUMPDEST SWAP3 SWAP2 POP POP JUMP JUMPDEST PUSH1 0x0 PUSH1 0x20 DUP3 DUP5 SUB SLT ISZERO PUSH2 0x1FE2 JUMPI PUSH2 0x1FE1 PUSH2 0x1F88 JUMP JUMPDEST JUMPDEST PUSH1 0x0 PUSH2 0x1FF0 DUP5 DUP3 DUP6 ADD PUSH2 0x1FB7 JUMP JUMPDEST SWAP2 POP POP SWAP3 SWAP2 POP POP JUMP JUMPDEST PUSH2 0x2002 DUP2 PUSH2 0x1EC0 JUMP JUMPDEST DUP3 MSTORE POP POP JUMP JUMPDEST PUSH1 0x0 PUSH1 0x20 DUP3 ADD SWAP1 POP PUSH2 0x201D PUSH1 0x0 DUP4 ADD DUP5 PUSH2 0x1FF9 JUMP JUMPDEST SWAP3 SWAP2 POP POP JUMP JUMPDEST PUSH1 0x0 DUP2 SWAP1 POP SWAP2 SWAP1 POP JUMP JUMPDEST PUSH2 0x2036 DUP2 PUSH2 0x2023 JUMP JUMPDEST DUP3 MSTORE POP POP JUMP JUMPDEST PUSH1 0x0 PUSH1 0x20 DUP3 ADD SWAP1 POP PUSH2 0x2051 PUSH1 0x0 DUP4 ADD DUP5 PUSH2 0x202D JUMP JUMPDEST SWAP3 SWAP2 POP POP JUMP JUMPDEST PUSH1 0x0 PUSH20 0xFFFFFFFFFFFFFFFFFFFFFFFFFFFFFFFFFFFFFFFF DUP3 AND SWAP1 POP SWAP2 SWAP1 POP JUMP JUMPDEST PUSH1 0x0 PUSH2 0x2082 DUP3 PUSH2 0x2057 JUMP JUMPDEST SWAP1 POP SWAP2 SWAP1 POP JUMP JUMPDEST PUSH2 0x2092 DUP2 PUSH2 0x2077 JUMP JUMPDEST DUP2 EQ PUSH2 0x209D JUMPI PUSH1 0x0 DUP1 REVERT JUMPDEST POP JUMP JUMPDEST PUSH1 0x0 DUP2 CALLDATALOAD SWAP1 POP PUSH2 0x20AF DUP2 PUSH2 0x2089 JUMP JUMPDEST SWAP3 SWAP2 POP POP JUMP JUMPDEST PUSH1 0x0 PUSH1 0x20 DUP3 DUP5 SUB SLT ISZERO PUSH2 0x20CB JUMPI PUSH2 0x20CA PUSH2 0x1F88 JUMP JUMPDEST JUMPDEST PUSH1 0x0 PUSH2 0x20D9 DUP5 DUP3 DUP6 ADD PUSH2 0x20A0 JUMP JUMPDEST SWAP2 POP POP SWAP3 SWAP2 POP POP JUMP JUMPDEST PUSH2 0x20EB DUP2 PUSH2 0x2023 JUMP JUMPDEST DUP2 EQ PUSH2 0x20F6 JUMPI PUSH1 0x0 DUP1 REVERT JUMPDEST POP JUMP JUMPDEST PUSH1 0x0 DUP2 CALLDATALOAD SWAP1 POP PUSH2 0x2108 DUP2 PUSH2 0x20E2 JUMP JUMPDEST SWAP3 SWAP2 POP POP JUMP JUMPDEST PUSH1 0x0 PUSH1 0x20 DUP3 DUP5 SUB SLT ISZERO PUSH2 0x2124 JUMPI PUSH2 0x2123 PUSH2 0x1F88 JUMP JUMPDEST JUMPDEST PUSH1 0x0 PUSH2 0x2132 DUP5 DUP3 DUP6 ADD PUSH2 0x20F9 JUMP JUMPDEST SWAP2 POP POP SWAP3 SWAP2 POP POP JUMP JUMPDEST PUSH1 0x0 DUP2 ISZERO ISZERO SWAP1 POP SWAP2 SWAP1 POP JUMP JUMPDEST PUSH2 0x2150 DUP2 PUSH2 0x213B JUMP JUMPDEST DUP3 MSTORE POP POP JUMP JUMPDEST PUSH1 0x0 PUSH1 0x20 DUP3 ADD SWAP1 POP PUSH2 0x216B PUSH1 0x0 DUP4 ADD DUP5 PUSH2 0x2147 JUMP JUMPDEST SWAP3 SWAP2 POP POP JUMP JUMPDEST PUSH1 0x0 DUP2 SWAP1 POP SWAP2 SWAP1 POP JUMP JUMPDEST PUSH2 0x2184 DUP2 PUSH2 0x2171 JUMP JUMPDEST DUP2 EQ PUSH2 0x218F JUMPI PUSH1 0x0 DUP1 REVERT JUMPDEST POP JUMP JUMPDEST PUSH1 0x0 DUP2 CALLDATALOAD SWAP1 POP PUSH2 0x21A1 DUP2 PUSH2 0x217B JUMP JUMPDEST SWAP3 SWAP2 POP POP JUMP JUMPDEST PUSH1 0x0 DUP1 PUSH1 0x40 DUP4 DUP6 SUB SLT ISZERO PUSH2 0x21BE JUMPI PUSH2 0x21BD PUSH2 0x1F88 JUMP JUMPDEST JUMPDEST PUSH1 0x0 PUSH2 0x21CC DUP6 DUP3 DUP7 ADD PUSH2 0x2192 JUMP JUMPDEST SWAP3 POP POP PUSH1 0x20 PUSH2 0x21DD DUP6 DUP3 DUP7 ADD PUSH2 0x20A0 JUMP JUMPDEST SWAP2 POP POP SWAP3 POP SWAP3 SWAP1 POP JUMP JUMPDEST PUSH1 0x0 PUSH1 0x40 DUP3 ADD SWAP1 POP PUSH2 0x21FC PUSH1 0x0 DUP4 ADD DUP6 PUSH2 0x202D JUMP JUMPDEST PUSH2 0x2209 PUSH1 0x20 DUP4 ADD DUP5 PUSH2 0x202D JUMP JUMPDEST SWAP4 SWAP3 POP POP POP JUMP JUMPDEST PUSH1 0x0 DUP1 PUSH1 0x40 DUP4 DUP6 SUB SLT ISZERO PUSH2 0x2227 JUMPI PUSH2 0x2226 PUSH2 0x1F88 JUMP JUMPDEST JUMPDEST PUSH1 0x0 PUSH2 0x2235 DUP6 DUP3 DUP7 ADD PUSH2 0x20F9 JUMP JUMPDEST SWAP3 POP POP PUSH1 0x20 PUSH2 0x2246 DUP6 DUP3 DUP7 ADD PUSH2 0x20F9 JUMP JUMPDEST SWAP2 POP POP SWAP3 POP SWAP3 SWAP1 POP JUMP JUMPDEST PUSH2 0x2259 DUP2 PUSH2 0x2171 JUMP JUMPDEST DUP3 MSTORE POP POP JUMP JUMPDEST PUSH1 0x0 PUSH1 0x20 DUP3 ADD SWAP1 POP PUSH2 0x2274 PUSH1 0x0 DUP4 ADD DUP5 PUSH2 0x2250 JUMP JUMPDEST SWAP3 SWAP2 POP POP JUMP JUMPDEST PUSH1 0x0 DUP2 MLOAD SWAP1 POP SWAP2 SWAP1 POP JUMP JUMPDEST PUSH1 0x0 DUP3 DUP3 MSTORE PUSH1 0x20 DUP3 ADD SWAP1 POP SWAP3 SWAP2 POP POP JUMP JUMPDEST PUSH1 0x0 DUP2 SWAP1 POP PUSH1 0x20 DUP3 ADD SWAP1 POP SWAP2 SWAP1 POP JUMP JUMPDEST PUSH2 0x22AF DUP2 PUSH2 0x2023 JUMP JUMPDEST DUP3 MSTORE POP POP JUMP JUMPDEST PUSH1 0x0 PUSH2 0x22C1 DUP4 DUP4 PUSH2 0x22A6 JUMP JUMPDEST PUSH1 0x20 DUP4 ADD SWAP1 POP SWAP3 SWAP2 POP POP JUMP JUMPDEST PUSH1 0x0 PUSH1 0x20 DUP3 ADD SWAP1 POP SWAP2 SWAP1 POP JUMP JUMPDEST PUSH1 0x0 PUSH2 0x22E5 DUP3 PUSH2 0x227A JUMP JUMPDEST PUSH2 0x22EF DUP2 DUP6 PUSH2 0x2285 JUMP JUMPDEST SWAP4 POP PUSH2 0x22FA DUP4 PUSH2 0x2296 JUMP JUMPDEST DUP1 PUSH1 0x0 JUMPDEST DUP4 DUP2 LT ISZERO PUSH2 0x232B JUMPI DUP2 MLOAD PUSH2 0x2312 DUP9 DUP3 PUSH2 0x22B5 JUMP JUMPDEST SWAP8 POP PUSH2 0x231D DUP4 PUSH2 0x22CD JUMP JUMPDEST SWAP3 POP POP PUSH1 0x1 DUP2 ADD SWAP1 POP PUSH2 0x22FE JUMP JUMPDEST POP DUP6 SWAP4 POP POP POP POP SWAP3 SWAP2 POP POP JUMP JUMPDEST PUSH1 0x0 PUSH1 0x20 DUP3 ADD SWAP1 POP DUP2 DUP2 SUB PUSH1 0x0 DUP4 ADD MSTORE PUSH2 0x2352 DUP2 DUP5 PUSH2 0x22DA JUMP JUMPDEST SWAP1 POP SWAP3 SWAP2 POP POP JUMP JUMPDEST PUSH2 0x2363 DUP2 PUSH2 0x1F92 JUMP JUMPDEST DUP3 MSTORE POP POP JUMP JUMPDEST PUSH1 0x0 PUSH1 0x20 DUP3 ADD SWAP1 POP PUSH2 0x237E PUSH1 0x0 DUP4 ADD DUP5 PUSH2 0x235A JUMP JUMPDEST SWAP3 SWAP2 POP POP JUMP JUMPDEST PUSH1 0x0 DUP1 REVERT JUMPDEST PUSH1 0x0 DUP1 REVERT JUMPDEST PUSH1 0x0 DUP1 REVERT JUMPDEST PUSH1 0x0 DUP1 DUP4 PUSH1 0x1F DUP5 ADD SLT PUSH2 0x23A9 JUMPI PUSH2 0x23A8 PUSH2 0x2384 JUMP JUMPDEST JUMPDEST DUP3 CALLDATALOAD SWAP1 POP PUSH8 0xFFFFFFFFFFFFFFFF DUP2 GT ISZERO PUSH2 0x23C6 JUMPI PUSH2 0x23C5 PUSH2 0x2389 JUMP JUMPDEST JUMPDEST PUSH1 0x20 DUP4 ADD SWAP2 POP DUP4 PUSH1 0x20 DUP3 MUL DUP4 ADD GT ISZERO PUSH2 0x23E2 JUMPI PUSH2 0x23E1 PUSH2 0x238E JUMP JUMPDEST JUMPDEST SWAP3 POP SWAP3 SWAP1 POP JUMP JUMPDEST PUSH1 0x0 DUP1 PUSH1 0x0 DUP1 PUSH1 0x40 DUP6 DUP8 SUB SLT ISZERO PUSH2 0x2403 JUMPI PUSH2 0x2402 PUSH2 0x1F88 JUMP JUMPDEST JUMPDEST PUSH1 0x0 DUP6 ADD CALLDATALOAD PUSH8 0xFFFFFFFFFFFFFFFF DUP2 GT ISZERO PUSH2 0x2421 JUMPI PUSH2 0x2420 PUSH2 0x1F8D JUMP JUMPDEST JUMPDEST PUSH2 0x242D DUP8 DUP3 DUP9 ADD PUSH2 0x2393 JUMP JUMPDEST SWAP5 POP SWAP5 POP POP PUSH1 0x20 DUP6 ADD CALLDATALOAD PUSH8 0xFFFFFFFFFFFFFFFF DUP2 GT ISZERO PUSH2 0x2450 JUMPI PUSH2 0x244F PUSH2 0x1F8D JUMP JUMPDEST JUMPDEST PUSH2 0x245C DUP8 DUP3 DUP9 ADD PUSH2 0x2393 JUMP JUMPDEST SWAP3 POP SWAP3 POP POP SWAP3 SWAP6 SWAP2 SWAP5 POP SWAP3 POP JUMP JUMPDEST PUSH1 0x0 DUP1 PUSH1 0x40 DUP4 DUP6 SUB SLT ISZERO PUSH2 0x2481 JUMPI PUSH2 0x2480 PUSH2 0x1F88 JUMP JUMPDEST JUMPDEST PUSH1 0x0 PUSH2 0x248F DUP6 DUP3 DUP7 ADD PUSH2 0x20A0 JUMP JUMPDEST SWAP3 POP POP PUSH1 0x20 PUSH2 0x24A0 DUP6 DUP3 DUP7 ADD PUSH2 0x1FB7 JUMP JUMPDEST SWAP2 POP POP SWAP3 POP SWAP3 SWAP1 POP JUMP JUMPDEST PUSH1 0x0 PUSH1 0x40 DUP3 ADD SWAP1 POP PUSH2 0x24BF PUSH1 0x0 DUP4 ADD DUP6 PUSH2 0x235A JUMP JUMPDEST PUSH2 0x24CC PUSH1 0x20 DUP4 ADD DUP5 PUSH2 0x202D JUMP JUMPDEST SWAP4 SWAP3 POP POP POP JUMP JUMPDEST PUSH2 0x24DC DUP2 PUSH2 0x2077 JUMP JUMPDEST DUP3 MSTORE POP POP JUMP JUMPDEST PUSH1 0x0 PUSH1 0x20 DUP3 ADD SWAP1 POP PUSH2 0x24F7 PUSH1 0x0 DUP4 ADD DUP5 PUSH2 0x24D3 JUMP JUMPDEST SWAP3 SWAP2 POP POP JUMP JUMPDEST PUSH1 0x0 DUP1 PUSH1 0x40 DUP4 DUP6 SUB SLT ISZERO PUSH2 0x2514 JUMPI PUSH2 0x2513 PUSH2 0x1F88 JUMP JUMPDEST JUMPDEST PUSH1 0x0 PUSH2 0x2522 DUP6 DUP3 DUP7 ADD PUSH2 0x20A0 JUMP JUMPDEST SWAP3 POP POP PUSH1 0x20 PUSH2 0x2533 DUP6 DUP3 DUP7 ADD PUSH2 0x20F9 JUMP JUMPDEST SWAP2 POP POP SWAP3 POP SWAP3 SWAP1 POP JUMP JUMPDEST PUSH32 0x4E487B7100000000000000000000000000000000000000000000000000000000 PUSH1 0x0 MSTORE PUSH1 0x41 PUSH1 0x4 MSTORE PUSH1 0x24 PUSH1 0x0 REVERT JUMPDEST PUSH32 0x4E487B7100000000000000000000000000000000000000000000000000000000 PUSH1 0x0 MSTORE PUSH1 0x32 PUSH1 0x4 MSTORE PUSH1 0x24 PUSH1 0x0 REVERT JUMPDEST PUSH1 0x0 DUP3 DUP3 MSTORE PUSH1 0x20 DUP3 ADD SWAP1 POP SWAP3 SWAP2 POP POP JUMP JUMPDEST PUSH32 0x416363657373436F6E74726F6C3A2073656E646572206D757374206861766520 PUSH1 0x0 DUP3 ADD MSTORE PUSH32 0x7468652061646D696E20726F6C65000000000000000000000000000000000000 PUSH1 0x20 DUP3 ADD MSTORE POP JUMP JUMPDEST PUSH1 0x0 PUSH2 0x2608 PUSH1 0x2E DUP4 PUSH2 0x259B JUMP JUMPDEST SWAP2 POP PUSH2 0x2613 DUP3 PUSH2 0x25AC JUMP JUMPDEST PUSH1 0x40 DUP3 ADD SWAP1 POP SWAP2 SWAP1 POP JUMP JUMPDEST PUSH1 0x0 PUSH1 0x20 DUP3 ADD SWAP1 POP DUP2 DUP2 SUB PUSH1 0x0 DUP4 ADD MSTORE PUSH2 0x2637 DUP2 PUSH2 0x25FB JUMP JUMPDEST SWAP1 POP SWAP2 SWAP1 POP JUMP JUMPDEST PUSH32 0x537461727420626C6F636B206D75737420626520696E20746865206675747572 PUSH1 0x0 DUP3 ADD MSTORE PUSH32 0x6500000000000000000000000000000000000000000000000000000000000000 PUSH1 0x20 DUP3 ADD MSTORE POP JUMP JUMPDEST PUSH1 0x0 PUSH2 0x269A PUSH1 0x21 DUP4 PUSH2 0x259B JUMP JUMPDEST SWAP2 POP PUSH2 0x26A5 DUP3 PUSH2 0x263E JUMP JUMPDEST PUSH1 0x40 DUP3 ADD SWAP1 POP SWAP2 SWAP1 POP JUMP JUMPDEST PUSH1 0x0 PUSH1 0x20 DUP3 ADD SWAP1 POP DUP2 DUP2 SUB PUSH1 0x0 DUP4 ADD MSTORE PUSH2 0x26C9 DUP2 PUSH2 0x268D JUMP JUMPDEST SWAP1 POP SWAP2 SWAP1 POP JUMP JUMPDEST PUSH32 0x456E6420626C6F636B206D75737420626520616674657220737461727420626C PUSH1 0x0 DUP3 ADD MSTORE PUSH32 0x6F636B0000000000000000000000000000000000000000000000000000000000 PUSH1 0x20 DUP3 ADD MSTORE POP JUMP JUMPDEST PUSH1 0x0 PUSH2 0x272C PUSH1 0x23 DUP4 PUSH2 0x259B JUMP JUMPDEST SWAP2 POP PUSH2 0x2737 DUP3 PUSH2 0x26D0 JUMP JUMPDEST PUSH1 0x40 DUP3 ADD SWAP1 POP SWAP2 SWAP1 POP JUMP JUMPDEST PUSH1 0x0 PUSH1 0x20 DUP3 ADD SWAP1 POP DUP2 DUP2 SUB PUSH1 0x0 DUP4 ADD MSTORE PUSH2 0x275B DUP2 PUSH2 0x271F JUMP JUMPDEST SWAP1 POP SWAP2 SWAP1 POP JUMP JUMPDEST PUSH32 0x4C656E677468206D69736D617463680000000000000000000000000000000000 PUSH1 0x0 DUP3 ADD MSTORE POP JUMP JUMPDEST PUSH1 0x0 PUSH2 0x2798 PUSH1 0xF DUP4 PUSH2 0x259B JUMP JUMPDEST SWAP2 POP PUSH2 0x27A3 DUP3 PUSH2 0x2762 JUMP JUMPDEST PUSH1 0x20 DUP3 ADD SWAP1 POP SWAP2 SWAP1 POP JUMP JUMPDEST PUSH1 0x0 PUSH1 0x20 DUP3 ADD SWAP1 POP DUP2 DUP2 SUB PUSH1 0x0 DUP4 ADD MSTORE PUSH2 0x27C7 DUP2 PUSH2 0x278B JUMP JUMPDEST SWAP1 POP SWAP2 SWAP1 POP JUMP JUMPDEST PUSH32 0x4E487B7100000000000000000000000000000000000000000000000000000000 PUSH1 0x0 MSTORE PUSH1 0x11 PUSH1 0x4 MSTORE PUSH1 0x24 PUSH1 0x0 REVERT JUMPDEST PUSH1 0x0 PUSH2 0x2808 DUP3 PUSH2 0x2023 JUMP JUMPDEST SWAP2 POP PUSH2 0x2813 DUP4 PUSH2 0x2023 JUMP JUMPDEST SWAP3 POP DUP3 DUP3 SUB SWAP1 POP DUP2 DUP2 GT ISZERO PUSH2 0x282B JUMPI PUSH2 0x282A PUSH2 0x27CE JUMP JUMPDEST JUMPDEST SWAP3 SWAP2 POP POP JUMP JUMPDEST PUSH2 0x283A DUP2 PUSH2 0x1EC0 JUMP JUMPDEST DUP2 EQ PUSH2 0x2845 JUMPI PUSH1 0x0 DUP1 REVERT JUMPDEST POP JUMP JUMPDEST PUSH1 0x0 DUP2 CALLDATALOAD SWAP1 POP PUSH2 0x2857 DUP2 PUSH2 0x2831 JUMP JUMPDEST SWAP3 SWAP2 POP POP JUMP JUMPDEST PUSH1 0x0 PUSH1 0x20 DUP3 DUP5 SUB SLT ISZERO PUSH2 0x2873 JUMPI PUSH2 0x2872 PUSH2 0x1F88 JUMP JUMPDEST JUMPDEST PUSH1 0x0 PUSH2 0x2881 DUP5 DUP3 DUP6 ADD PUSH2 0x2848 JUMP JUMPDEST SWAP2 POP POP SWAP3 SWAP2 POP POP JUMP JUMPDEST PUSH32 0x4C6173742070726F626162696C697479206D7573742062652031303030303030 PUSH1 0x0 DUP3 ADD MSTORE PUSH32 0x3030000000000000000000000000000000000000000000000000000000000000 PUSH1 0x20 DUP3 ADD MSTORE POP JUMP JUMPDEST PUSH1 0x0 PUSH2 0x28E6 PUSH1 0x22 DUP4 PUSH2 0x259B JUMP JUMPDEST SWAP2 POP PUSH2 0x28F1 DUP3 PUSH2 0x288A JUMP JUMPDEST PUSH1 0x40 DUP3 ADD SWAP1 POP SWAP2 SWAP1 POP JUMP JUMPDEST PUSH1 0x0 PUSH1 0x20 DUP3 ADD SWAP1 POP DUP2 DUP2 SUB PUSH1 0x0 DUP4 ADD MSTORE PUSH2 0x2915 DUP2 PUSH2 0x28D9 JUMP JUMPDEST SWAP1 POP SWAP2 SWAP1 POP JUMP JUMPDEST PUSH1 0x0 PUSH2 0x2927 DUP3 PUSH2 0x1F92 JUMP JUMPDEST SWAP2 POP PUSH2 0xFFFF DUP3 SUB PUSH2 0x293B JUMPI PUSH2 0x293A PUSH2 0x27CE JUMP JUMPDEST JUMPDEST PUSH1 0x1 DUP3 ADD SWAP1 POP SWAP2 SWAP1 POP JUMP JUMPDEST PUSH32 0x546F74616C207365676D656E7473206D75737420626520677265617465722074 PUSH1 0x0 DUP3 ADD MSTORE PUSH32 0x68616E2030000000000000000000000000000000000000000000000000000000 PUSH1 0x20 DUP3 ADD MSTORE POP JUMP JUMPDEST PUSH1 0x0 PUSH2 0x29A2 PUSH1 0x25 DUP4 PUSH2 0x259B JUMP JUMPDEST SWAP2 POP PUSH2 0x29AD DUP3 PUSH2 0x2946 JUMP JUMPDEST PUSH1 0x40 DUP3 ADD SWAP1 POP SWAP2 SWAP1 POP JUMP JUMPDEST PUSH1 0x0 PUSH1 0x20 DUP3 ADD SWAP1 POP DUP2 DUP2 SUB PUSH1 0x0 DUP4 ADD MSTORE PUSH2 0x29D1 DUP2 PUSH2 0x2995 JUMP JUMPDEST SWAP1 POP SWAP2 SWAP1 POP JUMP JUMPDEST PUSH32 0x4F6E6C792075736572206F722061646D696E2063616E20726563686172676520 PUSH1 0x0 DUP3 ADD MSTORE PUSH32 0x7370696E73000000000000000000000000000000000000000000000000000000 PUSH1 0x20 DUP3 ADD MSTORE POP JUMP JUMPDEST PUSH1 0x0 PUSH2 0x2A34 PUSH1 0x25 DUP4 PUSH2 0x259B JUMP JUMPDEST SWAP2 POP PUSH2 0x2A3F DUP3 PUSH2 0x29D8 JUMP JUMPDEST PUSH1 0x40 DUP3 ADD SWAP1 POP SWAP2 SWAP1 POP JUMP JUMPDEST PUSH1 0x0 PUSH1 0x20 DUP3 ADD SWAP1 POP DUP2 DUP2 SUB PUSH1 0x0 DUP4 ADD MSTORE PUSH2 0x2A63 DUP2 PUSH2 0x2A27 JUMP JUMPDEST SWAP1 POP SWAP2 SWAP1 POP JUMP JUMPDEST PUSH32 0x4E6F7420656E6F7567682074696D6520686173207061737365642073696E6365 PUSH1 0x0 DUP3 ADD MSTORE PUSH32 0x206C617374207265636861726765000000000000000000000000000000000000 PUSH1 0x20 DUP3 ADD MSTORE POP JUMP JUMPDEST PUSH1 0x0 PUSH2 0x2AC6 PUSH1 0x2E DUP4 PUSH2 0x259B JUMP JUMPDEST SWAP2 POP PUSH2 0x2AD1 DUP3 PUSH2 0x2A6A JUMP JUMPDEST PUSH1 0x40 DUP3 ADD SWAP1 POP SWAP2 SWAP1 POP JUMP JUMPDEST PUSH1 0x0 PUSH1 0x20 DUP3 ADD SWAP1 POP DUP2 DUP2 SUB PUSH1 0x0 DUP4 ADD MSTORE PUSH2 0x2AF5 DUP2 PUSH2 0x2AB9 JUMP JUMPDEST SWAP1 POP SWAP2 SWAP1 POP JUMP JUMPDEST PUSH1 0x0 PUSH2 0x2B07 DUP3 PUSH2 0x2023 JUMP JUMPDEST SWAP2 POP PUSH2 0x2B12 DUP4 PUSH2 0x2023 JUMP JUMPDEST SWAP3 POP DUP3 DUP3 ADD SWAP1 POP DUP1 DUP3 GT ISZERO PUSH2 0x2B2A JUMPI PUSH2 0x2B29 PUSH2 0x27CE JUMP JUMPDEST JUMPDEST SWAP3 SWAP2 POP POP JUMP JUMPDEST PUSH32 0x5370696E6E6572206E6F74206163746976650000000000000000000000000000 PUSH1 0x0 DUP3 ADD MSTORE POP JUMP JUMPDEST PUSH1 0x0 PUSH2 0x2B66 PUSH1 0x12 DUP4 PUSH2 0x259B JUMP JUMPDEST SWAP2 POP PUSH2 0x2B71 DUP3 PUSH2 0x2B30 JUMP JUMPDEST PUSH1 0x20 DUP3 ADD SWAP1 POP SWAP2 SWAP1 POP JUMP JUMPDEST PUSH1 0x0 PUSH1 0x20 DUP3 ADD SWAP1 POP DUP2 DUP2 SUB PUSH1 0x0 DUP4 ADD MSTORE PUSH2 0x2B95 DUP2 PUSH2 0x2B59 JUMP JUMPDEST SWAP1 POP SWAP2 SWAP1 POP JUMP JUMPDEST PUSH32 0x4E6F207370696E7320617661696C61626C650000000000000000000000000000 PUSH1 0x0 DUP3 ADD MSTORE POP JUMP JUMPDEST PUSH1 0x0 PUSH2 0x2BD2 PUSH1 0x12 DUP4 PUSH2 0x259B JUMP JUMPDEST SWAP2 POP PUSH2 0x2BDD DUP3 PUSH2 0x2B9C JUMP JUMPDEST PUSH1 0x20 DUP3 ADD SWAP1 POP SWAP2 SWAP1 POP JUMP JUMPDEST PUSH1 0x0 PUSH1 0x20 DUP3 ADD SWAP1 POP DUP2 DUP2 SUB PUSH1 0x0 DUP4 ADD MSTORE PUSH2 0x2C01 DUP2 PUSH2 0x2BC5 JUMP JUMPDEST SWAP1 POP SWAP2 SWAP1 POP JUMP JUMPDEST PUSH1 0x0 DUP2 SWAP1 POP SWAP2 SWAP1 POP JUMP JUMPDEST PUSH2 0x2C23 PUSH2 0x2C1E DUP3 PUSH2 0x2023 JUMP JUMPDEST PUSH2 0x2C08 JUMP JUMPDEST DUP3 MSTORE POP POP JUMP JUMPDEST PUSH1 0x0 DUP2 PUSH1 0x60 SHL SWAP1 POP SWAP2 SWAP1 POP JUMP JUMPDEST PUSH1 0x0 PUSH2 0x2C41 DUP3 PUSH2 0x2C29 JUMP JUMPDEST SWAP1 POP SWAP2 SWAP1 POP JUMP JUMPDEST PUSH1 0x0 PUSH2 0x2C53 DUP3 PUSH2 0x2C36 JUMP JUMPDEST SWAP1 POP SWAP2 SWAP1 POP JUMP JUMPDEST PUSH2 0x2C6B PUSH2 0x2C66 DUP3 PUSH2 0x2077 JUMP JUMPDEST PUSH2 0x2C48 JUMP JUMPDEST DUP3 MSTORE POP POP JUMP JUMPDEST PUSH1 0x0 PUSH2 0x2C7D DUP3 DUP9 PUSH2 0x2C12 JUMP JUMPDEST PUSH1 0x20 DUP3 ADD SWAP2 POP PUSH2 0x2C8D DUP3 DUP8 PUSH2 0x2C12 JUMP JUMPDEST PUSH1 0x20 DUP3 ADD SWAP2 POP PUSH2 0x2C9D DUP3 DUP7 PUSH2 0x2C5A JUMP JUMPDEST PUSH1 0x14 DUP3 ADD SWAP2 POP PUSH2 0x2CAD DUP3 DUP6 PUSH2 0x2C12 JUMP JUMPDEST PUSH1 0x20 DUP3 ADD SWAP2 POP PUSH2 0x2CBD DUP3 DUP5 PUSH2 0x2C12 JUMP JUMPDEST PUSH1 0x20 DUP3 ADD SWAP2 POP DUP2 SWAP1 POP SWAP7 SWAP6 POP POP POP POP POP POP JUMP JUMPDEST PUSH32 0x4E487B7100000000000000000000000000000000000000000000000000000000 PUSH1 0x0 MSTORE PUSH1 0x12 PUSH1 0x4 MSTORE PUSH1 0x24 PUSH1 0x0 REVERT JUMPDEST PUSH1 0x0 PUSH2 0x2D0A DUP3 PUSH2 0x2023 JUMP JUMPDEST SWAP2 POP PUSH2 0x2D15 DUP4 PUSH2 0x2023 JUMP JUMPDEST SWAP3 POP DUP3 PUSH2 0x2D25 JUMPI PUSH2 0x2D24 PUSH2 0x2CD0 JUMP JUMPDEST JUMPDEST DUP3 DUP3 MOD SWAP1 POP SWAP3 SWAP2 POP POP JUMP JUMPDEST PUSH1 0x0 PUSH2 0x2D3B DUP3 PUSH2 0x2023 JUMP JUMPDEST SWAP2 POP PUSH32 0xFFFFFFFFFFFFFFFFFFFFFFFFFFFFFFFFFFFFFFFFFFFFFFFFFFFFFFFFFFFFFFFF DUP3 SUB PUSH2 0x2D6D JUMPI PUSH2 0x2D6C PUSH2 0x27CE JUMP JUMPDEST JUMPDEST PUSH1 0x1 DUP3 ADD SWAP1 POP SWAP2 SWAP1 POP JUMP JUMPDEST PUSH1 0x0 PUSH2 0x2D83 DUP3 PUSH2 0x1EC0 JUMP JUMPDEST SWAP2 POP PUSH1 0x0 DUP3 SUB PUSH2 0x2D96 JUMPI PUSH2 0x2D95 PUSH2 0x27CE JUMP JUMPDEST JUMPDEST PUSH1 0x1 DUP3 SUB SWAP1 POP SWAP2 SWAP1 POP JUMP JUMPDEST PUSH32 0x4E6F2076616C6964207365676D656E747320617661696C61626C652061667465 PUSH1 0x0 DUP3 ADD MSTORE PUSH32 0x7220333020617474656D70747300000000000000000000000000000000000000 PUSH1 0x20 DUP3 ADD MSTORE POP JUMP JUMPDEST PUSH1 0x0 PUSH2 0x2DFD PUSH1 0x2D DUP4 PUSH2 0x259B JUMP JUMPDEST SWAP2 POP PUSH2 0x2E08 DUP3 PUSH2 0x2DA1 JUMP JUMPDEST PUSH1 0x40 DUP3 ADD SWAP1 POP SWAP2 SWAP1 POP JUMP JUMPDEST PUSH1 0x0 PUSH1 0x20 DUP3 ADD SWAP1 POP DUP2 DUP2 SUB PUSH1 0x0 DUP4 ADD MSTORE PUSH2 0x2E2C DUP2 PUSH2 0x2DF0 JUMP JUMPDEST SWAP1 POP SWAP2 SWAP1 POP JUMP JUMPDEST PUSH1 0x0 PUSH2 0x2E3E DUP3 PUSH2 0x1EC0 JUMP JUMPDEST SWAP2 POP PUSH8 0xFFFFFFFFFFFFFFFF DUP3 SUB PUSH2 0x2E58 JUMPI PUSH2 0x2E57 PUSH2 0x27CE JUMP JUMPDEST JUMPDEST PUSH1 0x1 DUP3 ADD SWAP1 POP SWAP2 SWAP1 POP JUMP JUMPDEST PUSH1 0x0 PUSH2 0x2E6E DUP3 PUSH2 0x2023 JUMP JUMPDEST SWAP2 POP PUSH1 0x0 DUP3 SUB PUSH2 0x2E81 JUMPI PUSH2 0x2E80 PUSH2 0x27CE JUMP JUMPDEST JUMPDEST PUSH1 0x1 DUP3 SUB SWAP1 POP SWAP2 SWAP1 POP JUMP JUMPDEST PUSH1 0x0 DUP2 SWAP1 POP SWAP2 SWAP1 POP JUMP JUMPDEST PUSH1 0x0 PUSH2 0x2EB1 PUSH2 0x2EAC PUSH2 0x2EA7 DUP5 PUSH2 0x1F92 JUMP JUMPDEST PUSH2 0x2E8C JUMP JUMPDEST PUSH2 0x2023 JUMP JUMPDEST SWAP1 POP SWAP2 SWAP1 POP JUMP JUMPDEST PUSH2 0x2EC1 DUP2 PUSH2 0x2E96 JUMP JUMPDEST DUP3 MSTORE POP POP JUMP JUMPDEST PUSH1 0x0 PUSH1 0x60 DUP3 ADD SWAP1 POP PUSH2 0x2EDC PUSH1 0x0 DUP4 ADD DUP7 PUSH2 0x2EB8 JUMP JUMPDEST PUSH2 0x2EE9 PUSH1 0x20 DUP4 ADD DUP6 PUSH2 0x202D JUMP JUMPDEST PUSH2 0x2EF6 PUSH1 0x40 DUP4 ADD DUP5 PUSH2 0x202D JUMP JUMPDEST SWAP5 SWAP4 POP POP POP POP JUMP INVALID LOG2 PUSH5 0x6970667358 0x22 SLT KECCAK256 DUP9 STOP NUMBER REVERT 0xE 0xD9 SIGNEXTEND 0x4E SWAP13 PUSH23 0x84312AA308B30356EC0665EF70958D5D86990A0DBFA764 PUSH20 0x6F6C634300081800330000000000000000000000 "},"methodIdentifiers":{"ADMIN_ROLE()":"75b238fc","MAX_PROBABILITY()":"cc40a8ca","PRECISION()":"aaf5eb68","countPerKaia()":"4db33ba2","endBlock()":"083c6323","feeRelayer()":"fc341736","freeSpinPerDay()":"50211e75","getLastRechargeBlock(address)":"6a5acd6b","getProbabilities()":"062f7b8c","getRemainingAmounts()":"5f16b518","getSegmentAmounts()":"bc4af01b","getUserSegmentHits(address,uint16)":"a6794c7c","getUserSegmentHitsAll(address)":"79081d9d","getUserSpinCount(address)":"656c0ead","getUserSpinsAvailable(address)":"1039b1d9","grantRole(bytes32,address)":"2f2ff15d","hasRole(bytes32,address)":"91d14854","isActive()":"22f3e2d4","lastRechargeBlock(address)":"7cd0fa5c","rechargeBlockInterval()":"3cb85a8d","rechargeSpins(address)":"eb9c9d9b","revokeRole(bytes32,address)":"d547741f","segmentAmounts(uint16)":"0661939d","segmentProbabilities(uint16)":"21dbc5bf","segmentRemaining(uint16)":"8acf974d","setBlockRange(uint256,uint256)":"6ef45e7d","setCountPerKaia(uint256)":"fae2ac1e","setFeeRelayer(address)":"1dc2a488","setFreeSpinsPerDay(uint256)":"150095eb","setRechargeBlockInterval(uint256)":"92eefe2b","setSegmentAmounts(uint64[],uint64[])":"95ee1217","setTotalSegments(uint16)":"bc17530a","spin()":"f0acd7d5","startBlock()":"48cd4cb1","totalSegments()":"8ea1f363","totalSpins()":"901b2036","userSegmentHits(address,uint256)":"fe8e1dc2","userSpinCount(address)":"6cd6e4cf","userSpinsAvailable(address)":"d96cff32"}}}}}