{"contracts/Spinner.sol":{"Spinner":{"abi":[{"inputs":[{"internalType":"uint256","name":"_totalSegments","type":"uint256"}],"stateMutability":"nonpayable","type":"constructor"},{"inputs":[],"name":"ReentrancyGuardReentrantCall","type":"error"},{"anonymous":false,"inputs":[{"indexed":true,"internalType":"bytes32","name":"role","type":"bytes32"},{"indexed":true,"internalType":"address","name":"account","type":"address"},{"indexed":true,"internalType":"address","name":"admin","type":"address"}],"name":"RoleGranted","type":"event"},{"anonymous":false,"inputs":[{"indexed":true,"internalType":"bytes32","name":"role","type":"bytes32"},{"indexed":true,"internalType":"address","name":"account","type":"address"},{"indexed":true,"internalType":"address","name":"admin","type":"address"}],"name":"RoleRevoked","type":"event"},{"anonymous":false,"inputs":[{"indexed":true,"internalType":"address","name":"user","type":"address"},{"indexed":false,"internalType":"uint256","name":"segment","type":"uint256"},{"indexed":false,"internalType":"uint256","name":"randomNumber","type":"uint256"},{"indexed":false,"internalType":"uint256","name":"timestamp","type":"uint256"}],"name":"SpinResult","type":"event"},{"inputs":[],"name":"ADMIN_ROLE","outputs":[{"internalType":"bytes32","name":"","type":"bytes32"}],"stateMutability":"view","type":"function"},{"inputs":[],"name":"MAX_PROBABILITY","outputs":[{"internalType":"uint256","name":"","type":"uint256"}],"stateMutability":"view","type":"function"},{"inputs":[],"name":"PRECISION","outputs":[{"internalType":"uint256","name":"","type":"uint256"}],"stateMutability":"view","type":"function"},{"inputs":[],"name":"getActiveStatus","outputs":[{"internalType":"bool","name":"","type":"bool"}],"stateMutability":"view","type":"function"},{"inputs":[],"name":"getProbabilities","outputs":[{"internalType":"uint64[]","name":"probabilities","type":"uint64[]"}],"stateMutability":"view","type":"function"},{"inputs":[],"name":"getRemainingAmounts","outputs":[{"internalType":"uint64[]","name":"amounts","type":"uint64[]"}],"stateMutability":"view","type":"function"},{"inputs":[],"name":"getSegmentAmounts","outputs":[{"internalType":"uint64[]","name":"amounts","type":"uint64[]"}],"stateMutability":"view","type":"function"},{"inputs":[{"internalType":"address","name":"user","type":"address"},{"internalType":"uint16","name":"segment","type":"uint16"}],"name":"getUserSegmentHits","outputs":[{"internalType":"uint256","name":"","type":"uint256"}],"stateMutability":"view","type":"function"},{"inputs":[{"internalType":"address","name":"user","type":"address"}],"name":"getUserSegmentHitsAll","outputs":[{"internalType":"uint256[]","name":"","type":"uint256[]"}],"stateMutability":"view","type":"function"},{"inputs":[{"internalType":"address","name":"user","type":"address"}],"name":"getUserSpinCount","outputs":[{"internalType":"uint64","name":"","type":"uint64"}],"stateMutability":"view","type":"function"},{"inputs":[{"internalType":"bytes32","name":"role","type":"bytes32"},{"internalType":"address","name":"account","type":"address"}],"name":"grantRole","outputs":[],"stateMutability":"nonpayable","type":"function"},{"inputs":[{"internalType":"bytes32","name":"role","type":"bytes32"},{"internalType":"address","name":"account","type":"address"}],"name":"hasRole","outputs":[{"internalType":"bool","name":"","type":"bool"}],"stateMutability":"view","type":"function"},{"inputs":[],"name":"isActive","outputs":[{"internalType":"bool","name":"","type":"bool"}],"stateMutability":"view","type":"function"},{"inputs":[{"internalType":"bytes32","name":"role","type":"bytes32"},{"internalType":"address","name":"account","type":"address"}],"name":"revokeRole","outputs":[],"stateMutability":"nonpayable","type":"function"},{"inputs":[{"internalType":"uint16","name":"","type":"uint16"}],"name":"segmentAmounts","outputs":[{"internalType":"uint64","name":"","type":"uint64"}],"stateMutability":"view","type":"function"},{"inputs":[{"internalType":"uint16","name":"","type":"uint16"}],"name":"segmentProbabilities","outputs":[{"internalType":"uint64","name":"","type":"uint64"}],"stateMutability":"view","type":"function"},{"inputs":[{"internalType":"uint16","name":"","type":"uint16"}],"name":"segmentRemaining","outputs":[{"internalType":"uint64","name":"","type":"uint64"}],"stateMutability":"view","type":"function"},{"inputs":[{"internalType":"bool","name":"_isActive","type":"bool"}],"name":"setActive","outputs":[],"stateMutability":"nonpayable","type":"function"},{"inputs":[{"internalType":"uint64[]","name":"amounts","type":"uint64[]"},{"internalType":"uint64[]","name":"probabilities","type":"uint64[]"}],"name":"setSegmentAmounts","outputs":[],"stateMutability":"nonpayable","type":"function"},{"inputs":[{"internalType":"uint16","name":"_totalSegments","type":"uint16"}],"name":"setTotalSegments","outputs":[],"stateMutability":"nonpayable","type":"function"},{"inputs":[],"name":"spin","outputs":[{"internalType":"uint16","name":"segment","type":"uint16"},{"internalType":"uint256","name":"randomNumber","type":"uint256"}],"stateMutability":"nonpayable","type":"function"},{"inputs":[],"name":"totalSegments","outputs":[{"internalType":"uint16","name":"","type":"uint16"}],"stateMutability":"view","type":"function"},{"inputs":[],"name":"totalSpins","outputs":[{"internalType":"uint256","name":"","type":"uint256"}],"stateMutability":"view","type":"function"},{"inputs":[{"internalType":"address","name":"","type":"address"},{"internalType":"uint256","name":"","type":"uint256"}],"name":"userSegmentHits","outputs":[{"internalType":"uint256","name":"","type":"uint256"}],"stateMutability":"view","type":"function"},{"inputs":[{"internalType":"address","name":"","type":"address"}],"name":"userSpinCount","outputs":[{"internalType":"uint64","name":"","type":"uint64"}],"stateMutability":"view","type":"function"}],"evm":{"bytecode":{"linkReferences":{},"object":"60806040523480156200001157600080fd5b506040516200250d3803806200250d833981810160405281019062000037919062000199565b60018081905550620000536000801b336200009260201b60201c565b6000600760006101000a81548160ff02191690831515021790555080600260006101000a81548161ffff021916908361ffff16021790555050620001cb565b600160008084815260200190815260200160002060008373ffffffffffffffffffffffffffffffffffffffff1673ffffffffffffffffffffffffffffffffffffffff16815260200190815260200160002060006101000a81548160ff0219169083151502179055503373ffffffffffffffffffffffffffffffffffffffff168173ffffffffffffffffffffffffffffffffffffffff16837f2f8788117e7eff1d82e926ec794901d17c78024a50270940304540a733656f0d60405160405180910390a45050565b600080fd5b6000819050919050565b62000173816200015e565b81146200017f57600080fd5b50565b600081519050620001938162000168565b92915050565b600060208284031215620001b257620001b162000159565b5b6000620001c28482850162000182565b91505092915050565b61233280620001db6000396000f3fe608060405234801561001057600080fd5b50600436106101735760003560e01c8063901b2036116100de578063bc17530a11610097578063d547741f11610071578063d547741f14610476578063f0acd7d514610492578063f3e67610146104b1578063fe8e1dc2146104cf57610173565b8063bc17530a1461041e578063bc4af01b1461043a578063cc40a8ca1461045857610173565b8063901b20361461034a57806391d148541461036857806395ee121714610398578063a6794c7c146103b4578063aaf5eb68146103e4578063acec338a1461040257610173565b8063656c0ead11610130578063656c0ead1461024e5780636cd6e4cf1461027e57806375b238fc146102ae57806379081d9d146102cc5780638acf974d146102fc5780638ea1f3631461032c57610173565b8063062f7b8c146101785780630661939d1461019657806321dbc5bf146101c657806322f3e2d4146101f65780632f2ff15d146102145780635f16b51814610230575b600080fd5b6101806104ff565b60405161018d91906116a8565b60405180910390f35b6101b060048036038101906101ab919061170e565b6105fd565b6040516101bd919061174a565b60405180910390f35b6101e060048036038101906101db919061170e565b610624565b6040516101ed919061174a565b60405180910390f35b6101fe61064b565b60405161020b9190611780565b60405180910390f35b61022e6004803603810190610229919061182f565b61065e565b005b6102386106ba565b60405161024591906116a8565b60405180910390f35b6102686004803603810190610263919061186f565b6107b8565b604051610275919061174a565b60405180910390f35b6102986004803603810190610293919061186f565b610815565b6040516102a5919061174a565b60405180910390f35b6102b661083c565b6040516102c391906118ab565b60405180910390f35b6102e660048036038101906102e1919061186f565b610843565b6040516102f3919061198e565b60405180910390f35b6103166004803603810190610311919061170e565b610958565b604051610323919061174a565b60405180910390f35b61033461097f565b60405161034191906119bf565b60405180910390f35b610352610993565b60405161035f91906119e9565b60405180910390f35b610382600480360381019061037d919061182f565b610999565b60405161038f9190611780565b60405180910390f35b6103b260048036038101906103ad9190611a69565b610a00565b005b6103ce60048036038101906103c99190611aea565b610c8e565b6040516103db91906119e9565b60405180910390f35b6103ec610ced565b6040516103f991906119e9565b60405180910390f35b61041c60048036038101906104179190611b56565b610cf9565b005b6104386004803603810190610433919061170e565b610d64565b005b610442610e19565b60405161044f91906116a8565b60405180910390f35b610460610f17565b60405161046d91906119e9565b60405180910390f35b610490600480360381019061048b919061182f565b610f1e565b005b61049a610f7a565b6040516104a8929190611b83565b60405180910390f35b6104b96113bd565b6040516104c69190611780565b60405180910390f35b6104e960048036038101906104e49190611bd8565b6113d4565b6040516104f691906119e9565b60405180910390f35b6060600260009054906101000a900461ffff1661ffff1667ffffffffffffffff81111561052f5761052e611c18565b5b60405190808252806020026020018201604052801561055d5781602001602082028036833780820191505090505b50905060005b600260009054906101000a900461ffff1661ffff168161ffff1610156105f957600560008261ffff1661ffff16815260200190815260200160002060009054906101000a900467ffffffffffffffff16828261ffff16815181106105ca576105c9611c47565b5b602002602001019067ffffffffffffffff16908167ffffffffffffffff16815250508080600101915050610563565b5090565b60036020528060005260406000206000915054906101000a900467ffffffffffffffff1681565b60056020528060005260406000206000915054906101000a900467ffffffffffffffff1681565b600760009054906101000a900460ff1681565b6000801b61066c8133610999565b6106ab576040517f08c379a00000000000000000000000000000000000000000000000000000000081526004016106a290611cf9565b60405180910390fd5b6106b583836113f9565b505050565b6060600260009054906101000a900461ffff1661ffff1667ffffffffffffffff8111156106ea576106e9611c18565b5b6040519080825280602002602001820160405280156107185781602001602082028036833780820191505090505b50905060005b600260009054906101000a900461ffff1661ffff168161ffff1610156107b457600460008261ffff1661ffff16815260200190815260200160002060009054906101000a900467ffffffffffffffff16828261ffff168151811061078557610784611c47565b5b602002602001019067ffffffffffffffff16908167ffffffffffffffff1681525050808060010191505061071e565b5090565b6000600860008373ffffffffffffffffffffffffffffffffffffffff1673ffffffffffffffffffffffffffffffffffffffff16815260200190815260200160002060009054906101000a900467ffffffffffffffff169050919050565b60086020528060005260406000206000915054906101000a900467ffffffffffffffff1681565b6000801b81565b60606000600260009054906101000a900461ffff1661ffff1667ffffffffffffffff81111561087557610874611c18565b5b6040519080825280602002602001820160405280156108a35781602001602082028036833780820191505090505b50905060005b600260009054906101000a900461ffff1661ffff168161ffff16101561094e57600960008573ffffffffffffffffffffffffffffffffffffffff1673ffffffffffffffffffffffffffffffffffffffff16815260200190815260200160002060008261ffff16815260200190815260200160002054828261ffff168151811061093557610934611c47565b5b60200260200101818152505080806001019150506108a9565b5080915050919050565b60046020528060005260406000206000915054906101000a900467ffffffffffffffff1681565b600260009054906101000a900461ffff1681565b60065481565b600080600084815260200190815260200160002060008373ffffffffffffffffffffffffffffffffffffffff1673ffffffffffffffffffffffffffffffffffffffff16815260200190815260200160002060009054906101000a900460ff16905092915050565b6000801b610a0e8133610999565b610a4d576040517f08c379a0000000000000000000000000000000000000000000000000000000008152600401610a4490611cf9565b60405180910390fd5b828290508585905014610a95576040517f08c379a0000000000000000000000000000000000000000000000000000000008152600401610a8c90611d65565b60405180910390fd5b629896808383600186869050610aab9190611db4565b818110610abb57610aba611c47565b5b9050602002016020810190610ad09190611e14565b67ffffffffffffffff1614610b1a576040517f08c379a0000000000000000000000000000000000000000000000000000000008152600401610b1190611eb3565b60405180910390fd5b60005b858590508161ffff161015610c865785858261ffff16818110610b4357610b42611c47565b5b9050602002016020810190610b589190611e14565b600360008361ffff1661ffff16815260200190815260200160002060006101000a81548167ffffffffffffffff021916908367ffffffffffffffff16021790555085858261ffff16818110610bb057610baf611c47565b5b9050602002016020810190610bc59190611e14565b600460008361ffff1661ffff16815260200190815260200160002060006101000a81548167ffffffffffffffff021916908367ffffffffffffffff16021790555083838261ffff16818110610c1d57610c1c611c47565b5b9050602002016020810190610c329190611e14565b600560008361ffff1661ffff16815260200190815260200160002060006101000a81548167ffffffffffffffff021916908367ffffffffffffffff1602179055508080610c7e90611ed3565b915050610b1d565b505050505050565b6000600960008473ffffffffffffffffffffffffffffffffffffffff1673ffffffffffffffffffffffffffffffffffffffff16815260200190815260200160002060008361ffff16815260200190815260200160002054905092915050565b670de0b6b3a764000081565b6000801b610d078133610999565b610d46576040517f08c379a0000000000000000000000000000000000000000000000000000000008152600401610d3d90611cf9565b60405180910390fd5b81600760006101000a81548160ff0219169083151502179055505050565b6000801b610d728133610999565b610db1576040517f08c379a0000000000000000000000000000000000000000000000000000000008152600401610da890611cf9565b60405180910390fd5b60008261ffff1611610df8576040517f08c379a0000000000000000000000000000000000000000000000000000000008152600401610def90611f6f565b60405180910390fd5b81600260006101000a81548161ffff021916908361ffff1602179055505050565b6060600260009054906101000a900461ffff1661ffff1667ffffffffffffffff811115610e4957610e48611c18565b5b604051908082528060200260200182016040528015610e775781602001602082028036833780820191505090505b50905060005b600260009054906101000a900461ffff1661ffff168161ffff161015610f1357600360008261ffff1661ffff16815260200190815260200160002060009054906101000a900467ffffffffffffffff16828261ffff1681518110610ee457610ee3611c47565b5b602002602001019067ffffffffffffffff16908167ffffffffffffffff16815250508080600101915050610e7d565b5090565b6298968081565b6000801b610f2c8133610999565b610f6b576040517f08c379a0000000000000000000000000000000000000000000000000000000008152600401610f6290611cf9565b60405180910390fd5b610f7583836114c0565b505050565b600080610f85611587565b600760009054906101000a900460ff16610fd4576040517f08c379a0000000000000000000000000000000000000000000000000000000008152600401610fcb90611fdb565b60405180910390fd5b6000806000601e90505b82158015610feb57508082105b156112285760016298968042443360065487604051602001611011959493929190612064565b6040516020818303038152906040528051906020012060001c61103491906120f2565b61103e9190612123565b935060005b600260009054906101000a900461ffff1661ffff168161ffff16108015611068575083155b1561121457600560008261ffff1661ffff16815260200190815260200160002060009054906101000a900467ffffffffffffffff1667ffffffffffffffff168511611201576000600360008361ffff1661ffff16815260200190815260200160002060009054906101000a900467ffffffffffffffff1667ffffffffffffffff16148061112e57506000600460008361ffff1661ffff16815260200190815260200160002060009054906101000a900467ffffffffffffffff1667ffffffffffffffff16115b1561120057600193508095506006600081548092919061114d90612157565b91905055506000600460008361ffff1661ffff16815260200190815260200160002060009054906101000a900467ffffffffffffffff1667ffffffffffffffff1611156111fb57600460008261ffff1661ffff168152602001908152602001600020600081819054906101000a900467ffffffffffffffff16809291906111d39061219f565b91906101000a81548167ffffffffffffffff021916908367ffffffffffffffff160217905550505b611214565b5b808061120c90611ed3565b915050611043565b50818061122090612157565b925050610fde565b82611268576040517f08c379a000000000000000000000000000000000000000000000000000000000815260040161125f9061223a565b60405180910390fd5b600860003373ffffffffffffffffffffffffffffffffffffffff1673ffffffffffffffffffffffffffffffffffffffff168152602001908152602001600020600081819054906101000a900467ffffffffffffffff16809291906112cb9061225a565b91906101000a81548167ffffffffffffffff021916908367ffffffffffffffff16021790555050600960003373ffffffffffffffffffffffffffffffffffffffff1673ffffffffffffffffffffffffffffffffffffffff16815260200190815260200160002060008661ffff168152602001908152602001600020600081548092919061135790612157565b91905055503373ffffffffffffffffffffffffffffffffffffffff167ff825702cbc83605d7fababea4c41c307150aab23ae229acda80af9d946aa42928686426040516113a6939291906122c5565b60405180910390a25050506113b96115cd565b9091565b6000600760009054906101000a900460ff16905090565b6009602052816000526040600020602052806000526040600020600091509150505481565b600160008084815260200190815260200160002060008373ffffffffffffffffffffffffffffffffffffffff1673ffffffffffffffffffffffffffffffffffffffff16815260200190815260200160002060006101000a81548160ff0219169083151502179055503373ffffffffffffffffffffffffffffffffffffffff168173ffffffffffffffffffffffffffffffffffffffff16837f2f8788117e7eff1d82e926ec794901d17c78024a50270940304540a733656f0d60405160405180910390a45050565b600080600084815260200190815260200160002060008373ffffffffffffffffffffffffffffffffffffffff1673ffffffffffffffffffffffffffffffffffffffff16815260200190815260200160002060006101000a81548160ff0219169083151502179055503373ffffffffffffffffffffffffffffffffffffffff168173ffffffffffffffffffffffffffffffffffffffff16837ff6391f5c32d9c69d2a47ea670b442974b53935d1edc7fd64eb21e047a839171b60405160405180910390a45050565b6002600154036115c3576040517f3ee5aeb500000000000000000000000000000000000000000000000000000000815260040160405180910390fd5b6002600181905550565b60018081905550565b600081519050919050565b600082825260208201905092915050565b6000819050602082019050919050565b600067ffffffffffffffff82169050919050565b61161f81611602565b82525050565b60006116318383611616565b60208301905092915050565b6000602082019050919050565b6000611655826115d6565b61165f81856115e1565b935061166a836115f2565b8060005b8381101561169b5781516116828882611625565b975061168d8361163d565b92505060018101905061166e565b5085935050505092915050565b600060208201905081810360008301526116c2818461164a565b905092915050565b600080fd5b600080fd5b600061ffff82169050919050565b6116eb816116d4565b81146116f657600080fd5b50565b600081359050611708816116e2565b92915050565b600060208284031215611724576117236116ca565b5b6000611732848285016116f9565b91505092915050565b61174481611602565b82525050565b600060208201905061175f600083018461173b565b92915050565b60008115159050919050565b61177a81611765565b82525050565b60006020820190506117956000830184611771565b92915050565b6000819050919050565b6117ae8161179b565b81146117b957600080fd5b50565b6000813590506117cb816117a5565b92915050565b600073ffffffffffffffffffffffffffffffffffffffff82169050919050565b60006117fc826117d1565b9050919050565b61180c816117f1565b811461181757600080fd5b50565b60008135905061182981611803565b92915050565b60008060408385031215611846576118456116ca565b5b6000611854858286016117bc565b92505060206118658582860161181a565b9150509250929050565b600060208284031215611885576118846116ca565b5b60006118938482850161181a565b91505092915050565b6118a58161179b565b82525050565b60006020820190506118c0600083018461189c565b92915050565b600081519050919050565b600082825260208201905092915050565b6000819050602082019050919050565b6000819050919050565b611905816118f2565b82525050565b600061191783836118fc565b60208301905092915050565b6000602082019050919050565b600061193b826118c6565b61194581856118d1565b9350611950836118e2565b8060005b83811015611981578151611968888261190b565b975061197383611923565b925050600181019050611954565b5085935050505092915050565b600060208201905081810360008301526119a88184611930565b905092915050565b6119b9816116d4565b82525050565b60006020820190506119d460008301846119b0565b92915050565b6119e3816118f2565b82525050565b60006020820190506119fe60008301846119da565b92915050565b600080fd5b600080fd5b600080fd5b60008083601f840112611a2957611a28611a04565b5b8235905067ffffffffffffffff811115611a4657611a45611a09565b5b602083019150836020820283011115611a6257611a61611a0e565b5b9250929050565b60008060008060408587031215611a8357611a826116ca565b5b600085013567ffffffffffffffff811115611aa157611aa06116cf565b5b611aad87828801611a13565b9450945050602085013567ffffffffffffffff811115611ad057611acf6116cf565b5b611adc87828801611a13565b925092505092959194509250565b60008060408385031215611b0157611b006116ca565b5b6000611b0f8582860161181a565b9250506020611b20858286016116f9565b9150509250929050565b611b3381611765565b8114611b3e57600080fd5b50565b600081359050611b5081611b2a565b92915050565b600060208284031215611b6c57611b6b6116ca565b5b6000611b7a84828501611b41565b91505092915050565b6000604082019050611b9860008301856119b0565b611ba560208301846119da565b9392505050565b611bb5816118f2565b8114611bc057600080fd5b50565b600081359050611bd281611bac565b92915050565b60008060408385031215611bef57611bee6116ca565b5b6000611bfd8582860161181a565b9250506020611c0e85828601611bc3565b9150509250929050565b7f4e487b7100000000000000000000000000000000000000000000000000000000600052604160045260246000fd5b7f4e487b7100000000000000000000000000000000000000000000000000000000600052603260045260246000fd5b600082825260208201905092915050565b7f416363657373436f6e74726f6c3a2073656e646572206d75737420686176652060008201527f7468652061646d696e20726f6c65000000000000000000000000000000000000602082015250565b6000611ce3602e83611c76565b9150611cee82611c87565b604082019050919050565b60006020820190508181036000830152611d1281611cd6565b9050919050565b7f4c656e677468206d69736d617463680000000000000000000000000000000000600082015250565b6000611d4f600f83611c76565b9150611d5a82611d19565b602082019050919050565b60006020820190508181036000830152611d7e81611d42565b9050919050565b7f4e487b7100000000000000000000000000000000000000000000000000000000600052601160045260246000fd5b6000611dbf826118f2565b9150611dca836118f2565b9250828203905081811115611de257611de1611d85565b5b92915050565b611df181611602565b8114611dfc57600080fd5b50565b600081359050611e0e81611de8565b92915050565b600060208284031215611e2a57611e296116ca565b5b6000611e3884828501611dff565b91505092915050565b7f4c6173742070726f626162696c697479206d757374206265203130303030303060008201527f3000000000000000000000000000000000000000000000000000000000000000602082015250565b6000611e9d602183611c76565b9150611ea882611e41565b604082019050919050565b60006020820190508181036000830152611ecc81611e90565b9050919050565b6000611ede826116d4565b915061ffff8203611ef257611ef1611d85565b5b600182019050919050565b7f546f74616c207365676d656e7473206d7573742062652067726561746572207460008201527f68616e2030000000000000000000000000000000000000000000000000000000602082015250565b6000611f59602583611c76565b9150611f6482611efd565b604082019050919050565b60006020820190508181036000830152611f8881611f4c565b9050919050565b7f5370696e6e6572206e6f74206163746976650000000000000000000000000000600082015250565b6000611fc5601283611c76565b9150611fd082611f8f565b602082019050919050565b60006020820190508181036000830152611ff481611fb8565b9050919050565b6000819050919050565b612016612011826118f2565b611ffb565b82525050565b60008160601b9050919050565b60006120348261201c565b9050919050565b600061204682612029565b9050919050565b61205e612059826117f1565b61203b565b82525050565b60006120708288612005565b6020820191506120808287612005565b602082019150612090828661204d565b6014820191506120a08285612005565b6020820191506120b08284612005565b6020820191508190509695505050505050565b7f4e487b7100000000000000000000000000000000000000000000000000000000600052601260045260246000fd5b60006120fd826118f2565b9150612108836118f2565b925082612118576121176120c3565b5b828206905092915050565b600061212e826118f2565b9150612139836118f2565b925082820190508082111561215157612150611d85565b5b92915050565b6000612162826118f2565b91507fffffffffffffffffffffffffffffffffffffffffffffffffffffffffffffffff820361219457612193611d85565b5b600182019050919050565b60006121aa82611602565b9150600082036121bd576121bc611d85565b5b600182039050919050565b7f4e6f2076616c6964207365676d656e747320617661696c61626c65206166746560008201527f7220333020617474656d70747300000000000000000000000000000000000000602082015250565b6000612224602d83611c76565b915061222f826121c8565b604082019050919050565b6000602082019050818103600083015261225381612217565b9050919050565b600061226582611602565b915067ffffffffffffffff820361227f5761227e611d85565b5b600182019050919050565b6000819050919050565b60006122af6122aa6122a5846116d4565b61228a565b6118f2565b9050919050565b6122bf81612294565b82525050565b60006060820190506122da60008301866122b6565b6122e760208301856119da565b6122f460408301846119da565b94935050505056fea2646970667358221220b2d30c393b4e82ed53ad7ab183977d0eae0e5340ff49724d64750b44b21f9a6864736f6c63430008180033","opcodes":"PUSH1 0x80 PUSH1 0x40 MSTORE CALLVALUE DUP1 ISZERO PUSH3 0x11 JUMPI PUSH1 0x0 DUP1 REVERT JUMPDEST POP PUSH1 0x40 MLOAD PUSH3 0x250D CODESIZE SUB DUP1 PUSH3 0x250D DUP4 CODECOPY DUP2 DUP2 ADD PUSH1 0x40 MSTORE DUP2 ADD SWAP1 PUSH3 0x37 SWAP2 SWAP1 PUSH3 0x199 JUMP JUMPDEST PUSH1 0x1 DUP1 DUP2 SWAP1 SSTORE POP PUSH3 0x53 PUSH1 0x0 DUP1 SHL CALLER PUSH3 0x92 PUSH1 0x20 SHL PUSH1 0x20 SHR JUMP JUMPDEST PUSH1 0x0 PUSH1 0x7 PUSH1 0x0 PUSH2 0x100 EXP DUP2 SLOAD DUP2 PUSH1 0xFF MUL NOT AND SWAP1 DUP4 ISZERO ISZERO MUL OR SWAP1 SSTORE POP DUP1 PUSH1 0x2 PUSH1 0x0 PUSH2 0x100 EXP DUP2 SLOAD DUP2 PUSH2 0xFFFF MUL NOT AND SWAP1 DUP4 PUSH2 0xFFFF AND MUL OR SWAP1 SSTORE POP POP PUSH3 0x1CB JUMP JUMPDEST PUSH1 0x1 PUSH1 0x0 DUP1 DUP5 DUP2 MSTORE PUSH1 0x20 ADD SWAP1 DUP2 MSTORE PUSH1 0x20 ADD PUSH1 0x0 KECCAK256 PUSH1 0x0 DUP4 PUSH20 0xFFFFFFFFFFFFFFFFFFFFFFFFFFFFFFFFFFFFFFFF AND PUSH20 0xFFFFFFFFFFFFFFFFFFFFFFFFFFFFFFFFFFFFFFFF AND DUP2 MSTORE PUSH1 0x20 ADD SWAP1 DUP2 MSTORE PUSH1 0x20 ADD PUSH1 0x0 KECCAK256 PUSH1 0x0 PUSH2 0x100 EXP DUP2 SLOAD DUP2 PUSH1 0xFF MUL NOT AND SWAP1 DUP4 ISZERO ISZERO MUL OR SWAP1 SSTORE POP CALLER PUSH20 0xFFFFFFFFFFFFFFFFFFFFFFFFFFFFFFFFFFFFFFFF AND DUP2 PUSH20 0xFFFFFFFFFFFFFFFFFFFFFFFFFFFFFFFFFFFFFFFF AND DUP4 PUSH32 0x2F8788117E7EFF1D82E926EC794901D17C78024A50270940304540A733656F0D PUSH1 0x40 MLOAD PUSH1 0x40 MLOAD DUP1 SWAP2 SUB SWAP1 LOG4 POP POP JUMP JUMPDEST PUSH1 0x0 DUP1 REVERT JUMPDEST PUSH1 0x0 DUP2 SWAP1 POP SWAP2 SWAP1 POP JUMP JUMPDEST PUSH3 0x173 DUP2 PUSH3 0x15E JUMP JUMPDEST DUP2 EQ PUSH3 0x17F JUMPI PUSH1 0x0 DUP1 REVERT JUMPDEST POP JUMP JUMPDEST PUSH1 0x0 DUP2 MLOAD SWAP1 POP PUSH3 0x193 DUP2 PUSH3 0x168 JUMP JUMPDEST SWAP3 SWAP2 POP POP JUMP JUMPDEST PUSH1 0x0 PUSH1 0x20 DUP3 DUP5 SUB SLT ISZERO PUSH3 0x1B2 JUMPI PUSH3 0x1B1 PUSH3 0x159 JUMP JUMPDEST JUMPDEST PUSH1 0x0 PUSH3 0x1C2 DUP5 DUP3 DUP6 ADD PUSH3 0x182 JUMP JUMPDEST SWAP2 POP POP SWAP3 SWAP2 POP POP JUMP JUMPDEST PUSH2 0x2332 DUP1 PUSH3 0x1DB PUSH1 0x0 CODECOPY PUSH1 0x0 RETURN INVALID PUSH1 0x80 PUSH1 0x40 MSTORE CALLVALUE DUP1 ISZERO PUSH2 0x10 JUMPI PUSH1 0x0 DUP1 REVERT JUMPDEST POP PUSH1 0x4 CALLDATASIZE LT PUSH2 0x173 JUMPI PUSH1 0x0 CALLDATALOAD PUSH1 0xE0 SHR DUP1 PUSH4 0x901B2036 GT PUSH2 0xDE JUMPI DUP1 PUSH4 0xBC17530A GT PUSH2 0x97 JUMPI DUP1 PUSH4 0xD547741F GT PUSH2 0x71 JUMPI DUP1 PUSH4 0xD547741F EQ PUSH2 0x476 JUMPI DUP1 PUSH4 0xF0ACD7D5 EQ PUSH2 0x492 JUMPI DUP1 PUSH4 0xF3E67610 EQ PUSH2 0x4B1 JUMPI DUP1 PUSH4 0xFE8E1DC2 EQ PUSH2 0x4CF JUMPI PUSH2 0x173 JUMP JUMPDEST DUP1 PUSH4 0xBC17530A EQ PUSH2 0x41E JUMPI DUP1 PUSH4 0xBC4AF01B EQ PUSH2 0x43A JUMPI DUP1 PUSH4 0xCC40A8CA EQ PUSH2 0x458 JUMPI PUSH2 0x173 JUMP JUMPDEST DUP1 PUSH4 0x901B2036 EQ PUSH2 0x34A JUMPI DUP1 PUSH4 0x91D14854 EQ PUSH2 0x368 JUMPI DUP1 PUSH4 0x95EE1217 EQ PUSH2 0x398 JUMPI DUP1 PUSH4 0xA6794C7C EQ PUSH2 0x3B4 JUMPI DUP1 PUSH4 0xAAF5EB68 EQ PUSH2 0x3E4 JUMPI DUP1 PUSH4 0xACEC338A EQ PUSH2 0x402 JUMPI PUSH2 0x173 JUMP JUMPDEST DUP1 PUSH4 0x656C0EAD GT PUSH2 0x130 JUMPI DUP1 PUSH4 0x656C0EAD EQ PUSH2 0x24E JUMPI DUP1 PUSH4 0x6CD6E4CF EQ PUSH2 0x27E JUMPI DUP1 PUSH4 0x75B238FC EQ PUSH2 0x2AE JUMPI DUP1 PUSH4 0x79081D9D EQ PUSH2 0x2CC JUMPI DUP1 PUSH4 0x8ACF974D EQ PUSH2 0x2FC JUMPI DUP1 PUSH4 0x8EA1F363 EQ PUSH2 0x32C JUMPI PUSH2 0x173 JUMP JUMPDEST DUP1 PUSH4 0x62F7B8C EQ PUSH2 0x178 JUMPI DUP1 PUSH4 0x661939D EQ PUSH2 0x196 JUMPI DUP1 PUSH4 0x21DBC5BF EQ PUSH2 0x1C6 JUMPI DUP1 PUSH4 0x22F3E2D4 EQ PUSH2 0x1F6 JUMPI DUP1 PUSH4 0x2F2FF15D EQ PUSH2 0x214 JUMPI DUP1 PUSH4 0x5F16B518 EQ PUSH2 0x230 JUMPI JUMPDEST PUSH1 0x0 DUP1 REVERT JUMPDEST PUSH2 0x180 PUSH2 0x4FF JUMP JUMPDEST PUSH1 0x40 MLOAD PUSH2 0x18D SWAP2 SWAP1 PUSH2 0x16A8 JUMP JUMPDEST PUSH1 0x40 MLOAD DUP1 SWAP2 SUB SWAP1 RETURN JUMPDEST PUSH2 0x1B0 PUSH1 0x4 DUP1 CALLDATASIZE SUB DUP2 ADD SWAP1 PUSH2 0x1AB SWAP2 SWAP1 PUSH2 0x170E JUMP JUMPDEST PUSH2 0x5FD JUMP JUMPDEST PUSH1 0x40 MLOAD PUSH2 0x1BD SWAP2 SWAP1 PUSH2 0x174A JUMP JUMPDEST PUSH1 0x40 MLOAD DUP1 SWAP2 SUB SWAP1 RETURN JUMPDEST PUSH2 0x1E0 PUSH1 0x4 DUP1 CALLDATASIZE SUB DUP2 ADD SWAP1 PUSH2 0x1DB SWAP2 SWAP1 PUSH2 0x170E JUMP JUMPDEST PUSH2 0x624 JUMP JUMPDEST PUSH1 0x40 MLOAD PUSH2 0x1ED SWAP2 SWAP1 PUSH2 0x174A JUMP JUMPDEST PUSH1 0x40 MLOAD DUP1 SWAP2 SUB SWAP1 RETURN JUMPDEST PUSH2 0x1FE PUSH2 0x64B JUMP JUMPDEST PUSH1 0x40 MLOAD PUSH2 0x20B SWAP2 SWAP1 PUSH2 0x1780 JUMP JUMPDEST PUSH1 0x40 MLOAD DUP1 SWAP2 SUB SWAP1 RETURN JUMPDEST PUSH2 0x22E PUSH1 0x4 DUP1 CALLDATASIZE SUB DUP2 ADD SWAP1 PUSH2 0x229 SWAP2 SWAP1 PUSH2 0x182F JUMP JUMPDEST PUSH2 0x65E JUMP JUMPDEST STOP JUMPDEST PUSH2 0x238 PUSH2 0x6BA JUMP JUMPDEST PUSH1 0x40 MLOAD PUSH2 0x245 SWAP2 SWAP1 PUSH2 0x16A8 JUMP JUMPDEST PUSH1 0x40 MLOAD DUP1 SWAP2 SUB SWAP1 RETURN JUMPDEST PUSH2 0x268 PUSH1 0x4 DUP1 CALLDATASIZE SUB DUP2 ADD SWAP1 PUSH2 0x263 SWAP2 SWAP1 PUSH2 0x186F JUMP JUMPDEST PUSH2 0x7B8 JUMP JUMPDEST PUSH1 0x40 MLOAD PUSH2 0x275 SWAP2 SWAP1 PUSH2 0x174A JUMP JUMPDEST PUSH1 0x40 MLOAD DUP1 SWAP2 SUB SWAP1 RETURN JUMPDEST PUSH2 0x298 PUSH1 0x4 DUP1 CALLDATASIZE SUB DUP2 ADD SWAP1 PUSH2 0x293 SWAP2 SWAP1 PUSH2 0x186F JUMP JUMPDEST PUSH2 0x815 JUMP JUMPDEST PUSH1 0x40 MLOAD PUSH2 0x2A5 SWAP2 SWAP1 PUSH2 0x174A JUMP JUMPDEST PUSH1 0x40 MLOAD DUP1 SWAP2 SUB SWAP1 RETURN JUMPDEST PUSH2 0x2B6 PUSH2 0x83C JUMP JUMPDEST PUSH1 0x40 MLOAD PUSH2 0x2C3 SWAP2 SWAP1 PUSH2 0x18AB JUMP JUMPDEST PUSH1 0x40 MLOAD DUP1 SWAP2 SUB SWAP1 RETURN JUMPDEST PUSH2 0x2E6 PUSH1 0x4 DUP1 CALLDATASIZE SUB DUP2 ADD SWAP1 PUSH2 0x2E1 SWAP2 SWAP1 PUSH2 0x186F JUMP JUMPDEST PUSH2 0x843 JUMP JUMPDEST PUSH1 0x40 MLOAD PUSH2 0x2F3 SWAP2 SWAP1 PUSH2 0x198E JUMP JUMPDEST PUSH1 0x40 MLOAD DUP1 SWAP2 SUB SWAP1 RETURN JUMPDEST PUSH2 0x316 PUSH1 0x4 DUP1 CALLDATASIZE SUB DUP2 ADD SWAP1 PUSH2 0x311 SWAP2 SWAP1 PUSH2 0x170E JUMP JUMPDEST PUSH2 0x958 JUMP JUMPDEST PUSH1 0x40 MLOAD PUSH2 0x323 SWAP2 SWAP1 PUSH2 0x174A JUMP JUMPDEST PUSH1 0x40 MLOAD DUP1 SWAP2 SUB SWAP1 RETURN JUMPDEST PUSH2 0x334 PUSH2 0x97F JUMP JUMPDEST PUSH1 0x40 MLOAD PUSH2 0x341 SWAP2 SWAP1 PUSH2 0x19BF JUMP JUMPDEST PUSH1 0x40 MLOAD DUP1 SWAP2 SUB SWAP1 RETURN JUMPDEST PUSH2 0x352 PUSH2 0x993 JUMP JUMPDEST PUSH1 0x40 MLOAD PUSH2 0x35F SWAP2 SWAP1 PUSH2 0x19E9 JUMP JUMPDEST PUSH1 0x40 MLOAD DUP1 SWAP2 SUB SWAP1 RETURN JUMPDEST PUSH2 0x382 PUSH1 0x4 DUP1 CALLDATASIZE SUB DUP2 ADD SWAP1 PUSH2 0x37D SWAP2 SWAP1 PUSH2 0x182F JUMP JUMPDEST PUSH2 0x999 JUMP JUMPDEST PUSH1 0x40 MLOAD PUSH2 0x38F SWAP2 SWAP1 PUSH2 0x1780 JUMP JUMPDEST PUSH1 0x40 MLOAD DUP1 SWAP2 SUB SWAP1 RETURN JUMPDEST PUSH2 0x3B2 PUSH1 0x4 DUP1 CALLDATASIZE SUB DUP2 ADD SWAP1 PUSH2 0x3AD SWAP2 SWAP1 PUSH2 0x1A69 JUMP JUMPDEST PUSH2 0xA00 JUMP JUMPDEST STOP JUMPDEST PUSH2 0x3CE PUSH1 0x4 DUP1 CALLDATASIZE SUB DUP2 ADD SWAP1 PUSH2 0x3C9 SWAP2 SWAP1 PUSH2 0x1AEA JUMP JUMPDEST PUSH2 0xC8E JUMP JUMPDEST PUSH1 0x40 MLOAD PUSH2 0x3DB SWAP2 SWAP1 PUSH2 0x19E9 JUMP JUMPDEST PUSH1 0x40 MLOAD DUP1 SWAP2 SUB SWAP1 RETURN JUMPDEST PUSH2 0x3EC PUSH2 0xCED JUMP JUMPDEST PUSH1 0x40 MLOAD PUSH2 0x3F9 SWAP2 SWAP1 PUSH2 0x19E9 JUMP JUMPDEST PUSH1 0x40 MLOAD DUP1 SWAP2 SUB SWAP1 RETURN JUMPDEST PUSH2 0x41C PUSH1 0x4 DUP1 CALLDATASIZE SUB DUP2 ADD SWAP1 PUSH2 0x417 SWAP2 SWAP1 PUSH2 0x1B56 JUMP JUMPDEST PUSH2 0xCF9 JUMP JUMPDEST STOP JUMPDEST PUSH2 0x438 PUSH1 0x4 DUP1 CALLDATASIZE SUB DUP2 ADD SWAP1 PUSH2 0x433 SWAP2 SWAP1 PUSH2 0x170E JUMP JUMPDEST PUSH2 0xD64 JUMP JUMPDEST STOP JUMPDEST PUSH2 0x442 PUSH2 0xE19 JUMP JUMPDEST PUSH1 0x40 MLOAD PUSH2 0x44F SWAP2 SWAP1 PUSH2 0x16A8 JUMP JUMPDEST PUSH1 0x40 MLOAD DUP1 SWAP2 SUB SWAP1 RETURN JUMPDEST PUSH2 0x460 PUSH2 0xF17 JUMP JUMPDEST PUSH1 0x40 MLOAD PUSH2 0x46D SWAP2 SWAP1 PUSH2 0x19E9 JUMP JUMPDEST PUSH1 0x40 MLOAD DUP1 SWAP2 SUB SWAP1 RETURN JUMPDEST PUSH2 0x490 PUSH1 0x4 DUP1 CALLDATASIZE SUB DUP2 ADD SWAP1 PUSH2 0x48B SWAP2 SWAP1 PUSH2 0x182F JUMP JUMPDEST PUSH2 0xF1E JUMP JUMPDEST STOP JUMPDEST PUSH2 0x49A PUSH2 0xF7A JUMP JUMPDEST PUSH1 0x40 MLOAD PUSH2 0x4A8 SWAP3 SWAP2 SWAP1 PUSH2 0x1B83 JUMP JUMPDEST PUSH1 0x40 MLOAD DUP1 SWAP2 SUB SWAP1 RETURN JUMPDEST PUSH2 0x4B9 PUSH2 0x13BD JUMP JUMPDEST PUSH1 0x40 MLOAD PUSH2 0x4C6 SWAP2 SWAP1 PUSH2 0x1780 JUMP JUMPDEST PUSH1 0x40 MLOAD DUP1 SWAP2 SUB SWAP1 RETURN JUMPDEST PUSH2 0x4E9 PUSH1 0x4 DUP1 CALLDATASIZE SUB DUP2 ADD SWAP1 PUSH2 0x4E4 SWAP2 SWAP1 PUSH2 0x1BD8 JUMP JUMPDEST PUSH2 0x13D4 JUMP JUMPDEST PUSH1 0x40 MLOAD PUSH2 0x4F6 SWAP2 SWAP1 PUSH2 0x19E9 JUMP JUMPDEST PUSH1 0x40 MLOAD DUP1 SWAP2 SUB SWAP1 RETURN JUMPDEST PUSH1 0x60 PUSH1 0x2 PUSH1 0x0 SWAP1 SLOAD SWAP1 PUSH2 0x100 EXP SWAP1 DIV PUSH2 0xFFFF AND PUSH2 0xFFFF AND PUSH8 0xFFFFFFFFFFFFFFFF DUP2 GT ISZERO PUSH2 0x52F JUMPI PUSH2 0x52E PUSH2 0x1C18 JUMP JUMPDEST JUMPDEST PUSH1 0x40 MLOAD SWAP1 DUP1 DUP3 MSTORE DUP1 PUSH1 0x20 MUL PUSH1 0x20 ADD DUP3 ADD PUSH1 0x40 MSTORE DUP1 ISZERO PUSH2 0x55D JUMPI DUP2 PUSH1 0x20 ADD PUSH1 0x20 DUP3 MUL DUP1 CALLDATASIZE DUP4 CALLDATACOPY DUP1 DUP3 ADD SWAP2 POP POP SWAP1 POP JUMPDEST POP SWAP1 POP PUSH1 0x0 JUMPDEST PUSH1 0x2 PUSH1 0x0 SWAP1 SLOAD SWAP1 PUSH2 0x100 EXP SWAP1 DIV PUSH2 0xFFFF AND PUSH2 0xFFFF AND DUP2 PUSH2 0xFFFF AND LT ISZERO PUSH2 0x5F9 JUMPI PUSH1 0x5 PUSH1 0x0 DUP3 PUSH2 0xFFFF AND PUSH2 0xFFFF AND DUP2 MSTORE PUSH1 0x20 ADD SWAP1 DUP2 MSTORE PUSH1 0x20 ADD PUSH1 0x0 KECCAK256 PUSH1 0x0 SWAP1 SLOAD SWAP1 PUSH2 0x100 EXP SWAP1 DIV PUSH8 0xFFFFFFFFFFFFFFFF AND DUP3 DUP3 PUSH2 0xFFFF AND DUP2 MLOAD DUP2 LT PUSH2 0x5CA JUMPI PUSH2 0x5C9 PUSH2 0x1C47 JUMP JUMPDEST JUMPDEST PUSH1 0x20 MUL PUSH1 0x20 ADD ADD SWAP1 PUSH8 0xFFFFFFFFFFFFFFFF AND SWAP1 DUP2 PUSH8 0xFFFFFFFFFFFFFFFF AND DUP2 MSTORE POP POP DUP1 DUP1 PUSH1 0x1 ADD SWAP2 POP POP PUSH2 0x563 JUMP JUMPDEST POP SWAP1 JUMP JUMPDEST PUSH1 0x3 PUSH1 0x20 MSTORE DUP1 PUSH1 0x0 MSTORE PUSH1 0x40 PUSH1 0x0 KECCAK256 PUSH1 0x0 SWAP2 POP SLOAD SWAP1 PUSH2 0x100 EXP SWAP1 DIV PUSH8 0xFFFFFFFFFFFFFFFF AND DUP2 JUMP JUMPDEST PUSH1 0x5 PUSH1 0x20 MSTORE DUP1 PUSH1 0x0 MSTORE PUSH1 0x40 PUSH1 0x0 KECCAK256 PUSH1 0x0 SWAP2 POP SLOAD SWAP1 PUSH2 0x100 EXP SWAP1 DIV PUSH8 0xFFFFFFFFFFFFFFFF AND DUP2 JUMP JUMPDEST PUSH1 0x7 PUSH1 0x0 SWAP1 SLOAD SWAP1 PUSH2 0x100 EXP SWAP1 DIV PUSH1 0xFF AND DUP2 JUMP JUMPDEST PUSH1 0x0 DUP1 SHL PUSH2 0x66C DUP2 CALLER PUSH2 0x999 JUMP JUMPDEST PUSH2 0x6AB JUMPI PUSH1 0x40 MLOAD PUSH32 0x8C379A000000000000000000000000000000000000000000000000000000000 DUP2 MSTORE PUSH1 0x4 ADD PUSH2 0x6A2 SWAP1 PUSH2 0x1CF9 JUMP JUMPDEST PUSH1 0x40 MLOAD DUP1 SWAP2 SUB SWAP1 REVERT JUMPDEST PUSH2 0x6B5 DUP4 DUP4 PUSH2 0x13F9 JUMP JUMPDEST POP POP POP JUMP JUMPDEST PUSH1 0x60 PUSH1 0x2 PUSH1 0x0 SWAP1 SLOAD SWAP1 PUSH2 0x100 EXP SWAP1 DIV PUSH2 0xFFFF AND PUSH2 0xFFFF AND PUSH8 0xFFFFFFFFFFFFFFFF DUP2 GT ISZERO PUSH2 0x6EA JUMPI PUSH2 0x6E9 PUSH2 0x1C18 JUMP JUMPDEST JUMPDEST PUSH1 0x40 MLOAD SWAP1 DUP1 DUP3 MSTORE DUP1 PUSH1 0x20 MUL PUSH1 0x20 ADD DUP3 ADD PUSH1 0x40 MSTORE DUP1 ISZERO PUSH2 0x718 JUMPI DUP2 PUSH1 0x20 ADD PUSH1 0x20 DUP3 MUL DUP1 CALLDATASIZE DUP4 CALLDATACOPY DUP1 DUP3 ADD SWAP2 POP POP SWAP1 POP JUMPDEST POP SWAP1 POP PUSH1 0x0 JUMPDEST PUSH1 0x2 PUSH1 0x0 SWAP1 SLOAD SWAP1 PUSH2 0x100 EXP SWAP1 DIV PUSH2 0xFFFF AND PUSH2 0xFFFF AND DUP2 PUSH2 0xFFFF AND LT ISZERO PUSH2 0x7B4 JUMPI PUSH1 0x4 PUSH1 0x0 DUP3 PUSH2 0xFFFF AND PUSH2 0xFFFF AND DUP2 MSTORE PUSH1 0x20 ADD SWAP1 DUP2 MSTORE PUSH1 0x20 ADD PUSH1 0x0 KECCAK256 PUSH1 0x0 SWAP1 SLOAD SWAP1 PUSH2 0x100 EXP SWAP1 DIV PUSH8 0xFFFFFFFFFFFFFFFF AND DUP3 DUP3 PUSH2 0xFFFF AND DUP2 MLOAD DUP2 LT PUSH2 0x785 JUMPI PUSH2 0x784 PUSH2 0x1C47 JUMP JUMPDEST JUMPDEST PUSH1 0x20 MUL PUSH1 0x20 ADD ADD SWAP1 PUSH8 0xFFFFFFFFFFFFFFFF AND SWAP1 DUP2 PUSH8 0xFFFFFFFFFFFFFFFF AND DUP2 MSTORE POP POP DUP1 DUP1 PUSH1 0x1 ADD SWAP2 POP POP PUSH2 0x71E JUMP JUMPDEST POP SWAP1 JUMP JUMPDEST PUSH1 0x0 PUSH1 0x8 PUSH1 0x0 DUP4 PUSH20 0xFFFFFFFFFFFFFFFFFFFFFFFFFFFFFFFFFFFFFFFF AND PUSH20 0xFFFFFFFFFFFFFFFFFFFFFFFFFFFFFFFFFFFFFFFF AND DUP2 MSTORE PUSH1 0x20 ADD SWAP1 DUP2 MSTORE PUSH1 0x20 ADD PUSH1 0x0 KECCAK256 PUSH1 0x0 SWAP1 SLOAD SWAP1 PUSH2 0x100 EXP SWAP1 DIV PUSH8 0xFFFFFFFFFFFFFFFF AND SWAP1 POP SWAP2 SWAP1 POP JUMP JUMPDEST PUSH1 0x8 PUSH1 0x20 MSTORE DUP1 PUSH1 0x0 MSTORE PUSH1 0x40 PUSH1 0x0 KECCAK256 PUSH1 0x0 SWAP2 POP SLOAD SWAP1 PUSH2 0x100 EXP SWAP1 DIV PUSH8 0xFFFFFFFFFFFFFFFF AND DUP2 JUMP JUMPDEST PUSH1 0x0 DUP1 SHL DUP2 JUMP JUMPDEST PUSH1 0x60 PUSH1 0x0 PUSH1 0x2 PUSH1 0x0 SWAP1 SLOAD SWAP1 PUSH2 0x100 EXP SWAP1 DIV PUSH2 0xFFFF AND PUSH2 0xFFFF AND PUSH8 0xFFFFFFFFFFFFFFFF DUP2 GT ISZERO PUSH2 0x875 JUMPI PUSH2 0x874 PUSH2 0x1C18 JUMP JUMPDEST JUMPDEST PUSH1 0x40 MLOAD SWAP1 DUP1 DUP3 MSTORE DUP1 PUSH1 0x20 MUL PUSH1 0x20 ADD DUP3 ADD PUSH1 0x40 MSTORE DUP1 ISZERO PUSH2 0x8A3 JUMPI DUP2 PUSH1 0x20 ADD PUSH1 0x20 DUP3 MUL DUP1 CALLDATASIZE DUP4 CALLDATACOPY DUP1 DUP3 ADD SWAP2 POP POP SWAP1 POP JUMPDEST POP SWAP1 POP PUSH1 0x0 JUMPDEST PUSH1 0x2 PUSH1 0x0 SWAP1 SLOAD SWAP1 PUSH2 0x100 EXP SWAP1 DIV PUSH2 0xFFFF AND PUSH2 0xFFFF AND DUP2 PUSH2 0xFFFF AND LT ISZERO PUSH2 0x94E JUMPI PUSH1 0x9 PUSH1 0x0 DUP6 PUSH20 0xFFFFFFFFFFFFFFFFFFFFFFFFFFFFFFFFFFFFFFFF AND PUSH20 0xFFFFFFFFFFFFFFFFFFFFFFFFFFFFFFFFFFFFFFFF AND DUP2 MSTORE PUSH1 0x20 ADD SWAP1 DUP2 MSTORE PUSH1 0x20 ADD PUSH1 0x0 KECCAK256 PUSH1 0x0 DUP3 PUSH2 0xFFFF AND DUP2 MSTORE PUSH1 0x20 ADD SWAP1 DUP2 MSTORE PUSH1 0x20 ADD PUSH1 0x0 KECCAK256 SLOAD DUP3 DUP3 PUSH2 0xFFFF AND DUP2 MLOAD DUP2 LT PUSH2 0x935 JUMPI PUSH2 0x934 PUSH2 0x1C47 JUMP JUMPDEST JUMPDEST PUSH1 0x20 MUL PUSH1 0x20 ADD ADD DUP2 DUP2 MSTORE POP POP DUP1 DUP1 PUSH1 0x1 ADD SWAP2 POP POP PUSH2 0x8A9 JUMP JUMPDEST POP DUP1 SWAP2 POP POP SWAP2 SWAP1 POP JUMP JUMPDEST PUSH1 0x4 PUSH1 0x20 MSTORE DUP1 PUSH1 0x0 MSTORE PUSH1 0x40 PUSH1 0x0 KECCAK256 PUSH1 0x0 SWAP2 POP SLOAD SWAP1 PUSH2 0x100 EXP SWAP1 DIV PUSH8 0xFFFFFFFFFFFFFFFF AND DUP2 JUMP JUMPDEST PUSH1 0x2 PUSH1 0x0 SWAP1 SLOAD SWAP1 PUSH2 0x100 EXP SWAP1 DIV PUSH2 0xFFFF AND DUP2 JUMP JUMPDEST PUSH1 0x6 SLOAD DUP2 JUMP JUMPDEST PUSH1 0x0 DUP1 PUSH1 0x0 DUP5 DUP2 MSTORE PUSH1 0x20 ADD SWAP1 DUP2 MSTORE PUSH1 0x20 ADD PUSH1 0x0 KECCAK256 PUSH1 0x0 DUP4 PUSH20 0xFFFFFFFFFFFFFFFFFFFFFFFFFFFFFFFFFFFFFFFF AND PUSH20 0xFFFFFFFFFFFFFFFFFFFFFFFFFFFFFFFFFFFFFFFF AND DUP2 MSTORE PUSH1 0x20 ADD SWAP1 DUP2 MSTORE PUSH1 0x20 ADD PUSH1 0x0 KECCAK256 PUSH1 0x0 SWAP1 SLOAD SWAP1 PUSH2 0x100 EXP SWAP1 DIV PUSH1 0xFF AND SWAP1 POP SWAP3 SWAP2 POP POP JUMP JUMPDEST PUSH1 0x0 DUP1 SHL PUSH2 0xA0E DUP2 CALLER PUSH2 0x999 JUMP JUMPDEST PUSH2 0xA4D JUMPI PUSH1 0x40 MLOAD PUSH32 0x8C379A000000000000000000000000000000000000000000000000000000000 DUP2 MSTORE PUSH1 0x4 ADD PUSH2 0xA44 SWAP1 PUSH2 0x1CF9 JUMP JUMPDEST PUSH1 0x40 MLOAD DUP1 SWAP2 SUB SWAP1 REVERT JUMPDEST DUP3 DUP3 SWAP1 POP DUP6 DUP6 SWAP1 POP EQ PUSH2 0xA95 JUMPI PUSH1 0x40 MLOAD PUSH32 0x8C379A000000000000000000000000000000000000000000000000000000000 DUP2 MSTORE PUSH1 0x4 ADD PUSH2 0xA8C SWAP1 PUSH2 0x1D65 JUMP JUMPDEST PUSH1 0x40 MLOAD DUP1 SWAP2 SUB SWAP1 REVERT JUMPDEST PUSH3 0x989680 DUP4 DUP4 PUSH1 0x1 DUP7 DUP7 SWAP1 POP PUSH2 0xAAB SWAP2 SWAP1 PUSH2 0x1DB4 JUMP JUMPDEST DUP2 DUP2 LT PUSH2 0xABB JUMPI PUSH2 0xABA PUSH2 0x1C47 JUMP JUMPDEST JUMPDEST SWAP1 POP PUSH1 0x20 MUL ADD PUSH1 0x20 DUP2 ADD SWAP1 PUSH2 0xAD0 SWAP2 SWAP1 PUSH2 0x1E14 JUMP JUMPDEST PUSH8 0xFFFFFFFFFFFFFFFF AND EQ PUSH2 0xB1A JUMPI PUSH1 0x40 MLOAD PUSH32 0x8C379A000000000000000000000000000000000000000000000000000000000 DUP2 MSTORE PUSH1 0x4 ADD PUSH2 0xB11 SWAP1 PUSH2 0x1EB3 JUMP JUMPDEST PUSH1 0x40 MLOAD DUP1 SWAP2 SUB SWAP1 REVERT JUMPDEST PUSH1 0x0 JUMPDEST DUP6 DUP6 SWAP1 POP DUP2 PUSH2 0xFFFF AND LT ISZERO PUSH2 0xC86 JUMPI DUP6 DUP6 DUP3 PUSH2 0xFFFF AND DUP2 DUP2 LT PUSH2 0xB43 JUMPI PUSH2 0xB42 PUSH2 0x1C47 JUMP JUMPDEST JUMPDEST SWAP1 POP PUSH1 0x20 MUL ADD PUSH1 0x20 DUP2 ADD SWAP1 PUSH2 0xB58 SWAP2 SWAP1 PUSH2 0x1E14 JUMP JUMPDEST PUSH1 0x3 PUSH1 0x0 DUP4 PUSH2 0xFFFF AND PUSH2 0xFFFF AND DUP2 MSTORE PUSH1 0x20 ADD SWAP1 DUP2 MSTORE PUSH1 0x20 ADD PUSH1 0x0 KECCAK256 PUSH1 0x0 PUSH2 0x100 EXP DUP2 SLOAD DUP2 PUSH8 0xFFFFFFFFFFFFFFFF MUL NOT AND SWAP1 DUP4 PUSH8 0xFFFFFFFFFFFFFFFF AND MUL OR SWAP1 SSTORE POP DUP6 DUP6 DUP3 PUSH2 0xFFFF AND DUP2 DUP2 LT PUSH2 0xBB0 JUMPI PUSH2 0xBAF PUSH2 0x1C47 JUMP JUMPDEST JUMPDEST SWAP1 POP PUSH1 0x20 MUL ADD PUSH1 0x20 DUP2 ADD SWAP1 PUSH2 0xBC5 SWAP2 SWAP1 PUSH2 0x1E14 JUMP JUMPDEST PUSH1 0x4 PUSH1 0x0 DUP4 PUSH2 0xFFFF AND PUSH2 0xFFFF AND DUP2 MSTORE PUSH1 0x20 ADD SWAP1 DUP2 MSTORE PUSH1 0x20 ADD PUSH1 0x0 KECCAK256 PUSH1 0x0 PUSH2 0x100 EXP DUP2 SLOAD DUP2 PUSH8 0xFFFFFFFFFFFFFFFF MUL NOT AND SWAP1 DUP4 PUSH8 0xFFFFFFFFFFFFFFFF AND MUL OR SWAP1 SSTORE POP DUP4 DUP4 DUP3 PUSH2 0xFFFF AND DUP2 DUP2 LT PUSH2 0xC1D JUMPI PUSH2 0xC1C PUSH2 0x1C47 JUMP JUMPDEST JUMPDEST SWAP1 POP PUSH1 0x20 MUL ADD PUSH1 0x20 DUP2 ADD SWAP1 PUSH2 0xC32 SWAP2 SWAP1 PUSH2 0x1E14 JUMP JUMPDEST PUSH1 0x5 PUSH1 0x0 DUP4 PUSH2 0xFFFF AND PUSH2 0xFFFF AND DUP2 MSTORE PUSH1 0x20 ADD SWAP1 DUP2 MSTORE PUSH1 0x20 ADD PUSH1 0x0 KECCAK256 PUSH1 0x0 PUSH2 0x100 EXP DUP2 SLOAD DUP2 PUSH8 0xFFFFFFFFFFFFFFFF MUL NOT AND SWAP1 DUP4 PUSH8 0xFFFFFFFFFFFFFFFF AND MUL OR SWAP1 SSTORE POP DUP1 DUP1 PUSH2 0xC7E SWAP1 PUSH2 0x1ED3 JUMP JUMPDEST SWAP2 POP POP PUSH2 0xB1D JUMP JUMPDEST POP POP POP POP POP POP JUMP JUMPDEST PUSH1 0x0 PUSH1 0x9 PUSH1 0x0 DUP5 PUSH20 0xFFFFFFFFFFFFFFFFFFFFFFFFFFFFFFFFFFFFFFFF AND PUSH20 0xFFFFFFFFFFFFFFFFFFFFFFFFFFFFFFFFFFFFFFFF AND DUP2 MSTORE PUSH1 0x20 ADD SWAP1 DUP2 MSTORE PUSH1 0x20 ADD PUSH1 0x0 KECCAK256 PUSH1 0x0 DUP4 PUSH2 0xFFFF AND DUP2 MSTORE PUSH1 0x20 ADD SWAP1 DUP2 MSTORE PUSH1 0x20 ADD PUSH1 0x0 KECCAK256 SLOAD SWAP1 POP SWAP3 SWAP2 POP POP JUMP JUMPDEST PUSH8 0xDE0B6B3A7640000 DUP2 JUMP JUMPDEST PUSH1 0x0 DUP1 SHL PUSH2 0xD07 DUP2 CALLER PUSH2 0x999 JUMP JUMPDEST PUSH2 0xD46 JUMPI PUSH1 0x40 MLOAD PUSH32 0x8C379A000000000000000000000000000000000000000000000000000000000 DUP2 MSTORE PUSH1 0x4 ADD PUSH2 0xD3D SWAP1 PUSH2 0x1CF9 JUMP JUMPDEST PUSH1 0x40 MLOAD DUP1 SWAP2 SUB SWAP1 REVERT JUMPDEST DUP2 PUSH1 0x7 PUSH1 0x0 PUSH2 0x100 EXP DUP2 SLOAD DUP2 PUSH1 0xFF MUL NOT AND SWAP1 DUP4 ISZERO ISZERO MUL OR SWAP1 SSTORE POP POP POP JUMP JUMPDEST PUSH1 0x0 DUP1 SHL PUSH2 0xD72 DUP2 CALLER PUSH2 0x999 JUMP JUMPDEST PUSH2 0xDB1 JUMPI PUSH1 0x40 MLOAD PUSH32 0x8C379A000000000000000000000000000000000000000000000000000000000 DUP2 MSTORE PUSH1 0x4 ADD PUSH2 0xDA8 SWAP1 PUSH2 0x1CF9 JUMP JUMPDEST PUSH1 0x40 MLOAD DUP1 SWAP2 SUB SWAP1 REVERT JUMPDEST PUSH1 0x0 DUP3 PUSH2 0xFFFF AND GT PUSH2 0xDF8 JUMPI PUSH1 0x40 MLOAD PUSH32 0x8C379A000000000000000000000000000000000000000000000000000000000 DUP2 MSTORE PUSH1 0x4 ADD PUSH2 0xDEF SWAP1 PUSH2 0x1F6F JUMP JUMPDEST PUSH1 0x40 MLOAD DUP1 SWAP2 SUB SWAP1 REVERT JUMPDEST DUP2 PUSH1 0x2 PUSH1 0x0 PUSH2 0x100 EXP DUP2 SLOAD DUP2 PUSH2 0xFFFF MUL NOT AND SWAP1 DUP4 PUSH2 0xFFFF AND MUL OR SWAP1 SSTORE POP POP POP JUMP JUMPDEST PUSH1 0x60 PUSH1 0x2 PUSH1 0x0 SWAP1 SLOAD SWAP1 PUSH2 0x100 EXP SWAP1 DIV PUSH2 0xFFFF AND PUSH2 0xFFFF AND PUSH8 0xFFFFFFFFFFFFFFFF DUP2 GT ISZERO PUSH2 0xE49 JUMPI PUSH2 0xE48 PUSH2 0x1C18 JUMP JUMPDEST JUMPDEST PUSH1 0x40 MLOAD SWAP1 DUP1 DUP3 MSTORE DUP1 PUSH1 0x20 MUL PUSH1 0x20 ADD DUP3 ADD PUSH1 0x40 MSTORE DUP1 ISZERO PUSH2 0xE77 JUMPI DUP2 PUSH1 0x20 ADD PUSH1 0x20 DUP3 MUL DUP1 CALLDATASIZE DUP4 CALLDATACOPY DUP1 DUP3 ADD SWAP2 POP POP SWAP1 POP JUMPDEST POP SWAP1 POP PUSH1 0x0 JUMPDEST PUSH1 0x2 PUSH1 0x0 SWAP1 SLOAD SWAP1 PUSH2 0x100 EXP SWAP1 DIV PUSH2 0xFFFF AND PUSH2 0xFFFF AND DUP2 PUSH2 0xFFFF AND LT ISZERO PUSH2 0xF13 JUMPI PUSH1 0x3 PUSH1 0x0 DUP3 PUSH2 0xFFFF AND PUSH2 0xFFFF AND DUP2 MSTORE PUSH1 0x20 ADD SWAP1 DUP2 MSTORE PUSH1 0x20 ADD PUSH1 0x0 KECCAK256 PUSH1 0x0 SWAP1 SLOAD SWAP1 PUSH2 0x100 EXP SWAP1 DIV PUSH8 0xFFFFFFFFFFFFFFFF AND DUP3 DUP3 PUSH2 0xFFFF AND DUP2 MLOAD DUP2 LT PUSH2 0xEE4 JUMPI PUSH2 0xEE3 PUSH2 0x1C47 JUMP JUMPDEST JUMPDEST PUSH1 0x20 MUL PUSH1 0x20 ADD ADD SWAP1 PUSH8 0xFFFFFFFFFFFFFFFF AND SWAP1 DUP2 PUSH8 0xFFFFFFFFFFFFFFFF AND DUP2 MSTORE POP POP DUP1 DUP1 PUSH1 0x1 ADD SWAP2 POP POP PUSH2 0xE7D JUMP JUMPDEST POP SWAP1 JUMP JUMPDEST PUSH3 0x989680 DUP2 JUMP JUMPDEST PUSH1 0x0 DUP1 SHL PUSH2 0xF2C DUP2 CALLER PUSH2 0x999 JUMP JUMPDEST PUSH2 0xF6B JUMPI PUSH1 0x40 MLOAD PUSH32 0x8C379A000000000000000000000000000000000000000000000000000000000 DUP2 MSTORE PUSH1 0x4 ADD PUSH2 0xF62 SWAP1 PUSH2 0x1CF9 JUMP JUMPDEST PUSH1 0x40 MLOAD DUP1 SWAP2 SUB SWAP1 REVERT JUMPDEST PUSH2 0xF75 DUP4 DUP4 PUSH2 0x14C0 JUMP JUMPDEST POP POP POP JUMP JUMPDEST PUSH1 0x0 DUP1 PUSH2 0xF85 PUSH2 0x1587 JUMP JUMPDEST PUSH1 0x7 PUSH1 0x0 SWAP1 SLOAD SWAP1 PUSH2 0x100 EXP SWAP1 DIV PUSH1 0xFF AND PUSH2 0xFD4 JUMPI PUSH1 0x40 MLOAD PUSH32 0x8C379A000000000000000000000000000000000000000000000000000000000 DUP2 MSTORE PUSH1 0x4 ADD PUSH2 0xFCB SWAP1 PUSH2 0x1FDB JUMP JUMPDEST PUSH1 0x40 MLOAD DUP1 SWAP2 SUB SWAP1 REVERT JUMPDEST PUSH1 0x0 DUP1 PUSH1 0x0 PUSH1 0x1E SWAP1 POP JUMPDEST DUP3 ISZERO DUP1 ISZERO PUSH2 0xFEB JUMPI POP DUP1 DUP3 LT JUMPDEST ISZERO PUSH2 0x1228 JUMPI PUSH1 0x1 PUSH3 0x989680 TIMESTAMP PREVRANDAO CALLER PUSH1 0x6 SLOAD DUP8 PUSH1 0x40 MLOAD PUSH1 0x20 ADD PUSH2 0x1011 SWAP6 SWAP5 SWAP4 SWAP3 SWAP2 SWAP1 PUSH2 0x2064 JUMP JUMPDEST PUSH1 0x40 MLOAD PUSH1 0x20 DUP2 DUP4 SUB SUB DUP2 MSTORE SWAP1 PUSH1 0x40 MSTORE DUP1 MLOAD SWAP1 PUSH1 0x20 ADD KECCAK256 PUSH1 0x0 SHR PUSH2 0x1034 SWAP2 SWAP1 PUSH2 0x20F2 JUMP JUMPDEST PUSH2 0x103E SWAP2 SWAP1 PUSH2 0x2123 JUMP JUMPDEST SWAP4 POP PUSH1 0x0 JUMPDEST PUSH1 0x2 PUSH1 0x0 SWAP1 SLOAD SWAP1 PUSH2 0x100 EXP SWAP1 DIV PUSH2 0xFFFF AND PUSH2 0xFFFF AND DUP2 PUSH2 0xFFFF AND LT DUP1 ISZERO PUSH2 0x1068 JUMPI POP DUP4 ISZERO JUMPDEST ISZERO PUSH2 0x1214 JUMPI PUSH1 0x5 PUSH1 0x0 DUP3 PUSH2 0xFFFF AND PUSH2 0xFFFF AND DUP2 MSTORE PUSH1 0x20 ADD SWAP1 DUP2 MSTORE PUSH1 0x20 ADD PUSH1 0x0 KECCAK256 PUSH1 0x0 SWAP1 SLOAD SWAP1 PUSH2 0x100 EXP SWAP1 DIV PUSH8 0xFFFFFFFFFFFFFFFF AND PUSH8 0xFFFFFFFFFFFFFFFF AND DUP6 GT PUSH2 0x1201 JUMPI PUSH1 0x0 PUSH1 0x3 PUSH1 0x0 DUP4 PUSH2 0xFFFF AND PUSH2 0xFFFF AND DUP2 MSTORE PUSH1 0x20 ADD SWAP1 DUP2 MSTORE PUSH1 0x20 ADD PUSH1 0x0 KECCAK256 PUSH1 0x0 SWAP1 SLOAD SWAP1 PUSH2 0x100 EXP SWAP1 DIV PUSH8 0xFFFFFFFFFFFFFFFF AND PUSH8 0xFFFFFFFFFFFFFFFF AND EQ DUP1 PUSH2 0x112E JUMPI POP PUSH1 0x0 PUSH1 0x4 PUSH1 0x0 DUP4 PUSH2 0xFFFF AND PUSH2 0xFFFF AND DUP2 MSTORE PUSH1 0x20 ADD SWAP1 DUP2 MSTORE PUSH1 0x20 ADD PUSH1 0x0 KECCAK256 PUSH1 0x0 SWAP1 SLOAD SWAP1 PUSH2 0x100 EXP SWAP1 DIV PUSH8 0xFFFFFFFFFFFFFFFF AND PUSH8 0xFFFFFFFFFFFFFFFF AND GT JUMPDEST ISZERO PUSH2 0x1200 JUMPI PUSH1 0x1 SWAP4 POP DUP1 SWAP6 POP PUSH1 0x6 PUSH1 0x0 DUP2 SLOAD DUP1 SWAP3 SWAP2 SWAP1 PUSH2 0x114D SWAP1 PUSH2 0x2157 JUMP JUMPDEST SWAP2 SWAP1 POP SSTORE POP PUSH1 0x0 PUSH1 0x4 PUSH1 0x0 DUP4 PUSH2 0xFFFF AND PUSH2 0xFFFF AND DUP2 MSTORE PUSH1 0x20 ADD SWAP1 DUP2 MSTORE PUSH1 0x20 ADD PUSH1 0x0 KECCAK256 PUSH1 0x0 SWAP1 SLOAD SWAP1 PUSH2 0x100 EXP SWAP1 DIV PUSH8 0xFFFFFFFFFFFFFFFF AND PUSH8 0xFFFFFFFFFFFFFFFF AND GT ISZERO PUSH2 0x11FB JUMPI PUSH1 0x4 PUSH1 0x0 DUP3 PUSH2 0xFFFF AND PUSH2 0xFFFF AND DUP2 MSTORE PUSH1 0x20 ADD SWAP1 DUP2 MSTORE PUSH1 0x20 ADD PUSH1 0x0 KECCAK256 PUSH1 0x0 DUP2 DUP2 SWAP1 SLOAD SWAP1 PUSH2 0x100 EXP SWAP1 DIV PUSH8 0xFFFFFFFFFFFFFFFF AND DUP1 SWAP3 SWAP2 SWAP1 PUSH2 0x11D3 SWAP1 PUSH2 0x219F JUMP JUMPDEST SWAP2 SWAP1 PUSH2 0x100 EXP DUP2 SLOAD DUP2 PUSH8 0xFFFFFFFFFFFFFFFF MUL NOT AND SWAP1 DUP4 PUSH8 0xFFFFFFFFFFFFFFFF AND MUL OR SWAP1 SSTORE POP POP JUMPDEST PUSH2 0x1214 JUMP JUMPDEST JUMPDEST DUP1 DUP1 PUSH2 0x120C SWAP1 PUSH2 0x1ED3 JUMP JUMPDEST SWAP2 POP POP PUSH2 0x1043 JUMP JUMPDEST POP DUP2 DUP1 PUSH2 0x1220 SWAP1 PUSH2 0x2157 JUMP JUMPDEST SWAP3 POP POP PUSH2 0xFDE JUMP JUMPDEST DUP3 PUSH2 0x1268 JUMPI PUSH1 0x40 MLOAD PUSH32 0x8C379A000000000000000000000000000000000000000000000000000000000 DUP2 MSTORE PUSH1 0x4 ADD PUSH2 0x125F SWAP1 PUSH2 0x223A JUMP JUMPDEST PUSH1 0x40 MLOAD DUP1 SWAP2 SUB SWAP1 REVERT JUMPDEST PUSH1 0x8 PUSH1 0x0 CALLER PUSH20 0xFFFFFFFFFFFFFFFFFFFFFFFFFFFFFFFFFFFFFFFF AND PUSH20 0xFFFFFFFFFFFFFFFFFFFFFFFFFFFFFFFFFFFFFFFF AND DUP2 MSTORE PUSH1 0x20 ADD SWAP1 DUP2 MSTORE PUSH1 0x20 ADD PUSH1 0x0 KECCAK256 PUSH1 0x0 DUP2 DUP2 SWAP1 SLOAD SWAP1 PUSH2 0x100 EXP SWAP1 DIV PUSH8 0xFFFFFFFFFFFFFFFF AND DUP1 SWAP3 SWAP2 SWAP1 PUSH2 0x12CB SWAP1 PUSH2 0x225A JUMP JUMPDEST SWAP2 SWAP1 PUSH2 0x100 EXP DUP2 SLOAD DUP2 PUSH8 0xFFFFFFFFFFFFFFFF MUL NOT AND SWAP1 DUP4 PUSH8 0xFFFFFFFFFFFFFFFF AND MUL OR SWAP1 SSTORE POP POP PUSH1 0x9 PUSH1 0x0 CALLER PUSH20 0xFFFFFFFFFFFFFFFFFFFFFFFFFFFFFFFFFFFFFFFF AND PUSH20 0xFFFFFFFFFFFFFFFFFFFFFFFFFFFFFFFFFFFFFFFF AND DUP2 MSTORE PUSH1 0x20 ADD SWAP1 DUP2 MSTORE PUSH1 0x20 ADD PUSH1 0x0 KECCAK256 PUSH1 0x0 DUP7 PUSH2 0xFFFF AND DUP2 MSTORE PUSH1 0x20 ADD SWAP1 DUP2 MSTORE PUSH1 0x20 ADD PUSH1 0x0 KECCAK256 PUSH1 0x0 DUP2 SLOAD DUP1 SWAP3 SWAP2 SWAP1 PUSH2 0x1357 SWAP1 PUSH2 0x2157 JUMP JUMPDEST SWAP2 SWAP1 POP SSTORE POP CALLER PUSH20 0xFFFFFFFFFFFFFFFFFFFFFFFFFFFFFFFFFFFFFFFF AND PUSH32 0xF825702CBC83605D7FABABEA4C41C307150AAB23AE229ACDA80AF9D946AA4292 DUP7 DUP7 TIMESTAMP PUSH1 0x40 MLOAD PUSH2 0x13A6 SWAP4 SWAP3 SWAP2 SWAP1 PUSH2 0x22C5 JUMP JUMPDEST PUSH1 0x40 MLOAD DUP1 SWAP2 SUB SWAP1 LOG2 POP POP POP PUSH2 0x13B9 PUSH2 0x15CD JUMP JUMPDEST SWAP1 SWAP2 JUMP JUMPDEST PUSH1 0x0 PUSH1 0x7 PUSH1 0x0 SWAP1 SLOAD SWAP1 PUSH2 0x100 EXP SWAP1 DIV PUSH1 0xFF AND SWAP1 POP SWAP1 JUMP JUMPDEST PUSH1 0x9 PUSH1 0x20 MSTORE DUP2 PUSH1 0x0 MSTORE PUSH1 0x40 PUSH1 0x0 KECCAK256 PUSH1 0x20 MSTORE DUP1 PUSH1 0x0 MSTORE PUSH1 0x40 PUSH1 0x0 KECCAK256 PUSH1 0x0 SWAP2 POP SWAP2 POP POP SLOAD DUP2 JUMP JUMPDEST PUSH1 0x1 PUSH1 0x0 DUP1 DUP5 DUP2 MSTORE PUSH1 0x20 ADD SWAP1 DUP2 MSTORE PUSH1 0x20 ADD PUSH1 0x0 KECCAK256 PUSH1 0x0 DUP4 PUSH20 0xFFFFFFFFFFFFFFFFFFFFFFFFFFFFFFFFFFFFFFFF AND PUSH20 0xFFFFFFFFFFFFFFFFFFFFFFFFFFFFFFFFFFFFFFFF AND DUP2 MSTORE PUSH1 0x20 ADD SWAP1 DUP2 MSTORE PUSH1 0x20 ADD PUSH1 0x0 KECCAK256 PUSH1 0x0 PUSH2 0x100 EXP DUP2 SLOAD DUP2 PUSH1 0xFF MUL NOT AND SWAP1 DUP4 ISZERO ISZERO MUL OR SWAP1 SSTORE POP CALLER PUSH20 0xFFFFFFFFFFFFFFFFFFFFFFFFFFFFFFFFFFFFFFFF AND DUP2 PUSH20 0xFFFFFFFFFFFFFFFFFFFFFFFFFFFFFFFFFFFFFFFF AND DUP4 PUSH32 0x2F8788117E7EFF1D82E926EC794901D17C78024A50270940304540A733656F0D PUSH1 0x40 MLOAD PUSH1 0x40 MLOAD DUP1 SWAP2 SUB SWAP1 LOG4 POP POP JUMP JUMPDEST PUSH1 0x0 DUP1 PUSH1 0x0 DUP5 DUP2 MSTORE PUSH1 0x20 ADD SWAP1 DUP2 MSTORE PUSH1 0x20 ADD PUSH1 0x0 KECCAK256 PUSH1 0x0 DUP4 PUSH20 0xFFFFFFFFFFFFFFFFFFFFFFFFFFFFFFFFFFFFFFFF AND PUSH20 0xFFFFFFFFFFFFFFFFFFFFFFFFFFFFFFFFFFFFFFFF AND DUP2 MSTORE PUSH1 0x20 ADD SWAP1 DUP2 MSTORE PUSH1 0x20 ADD PUSH1 0x0 KECCAK256 PUSH1 0x0 PUSH2 0x100 EXP DUP2 SLOAD DUP2 PUSH1 0xFF MUL NOT AND SWAP1 DUP4 ISZERO ISZERO MUL OR SWAP1 SSTORE POP CALLER PUSH20 0xFFFFFFFFFFFFFFFFFFFFFFFFFFFFFFFFFFFFFFFF AND DUP2 PUSH20 0xFFFFFFFFFFFFFFFFFFFFFFFFFFFFFFFFFFFFFFFF AND DUP4 PUSH32 0xF6391F5C32D9C69D2A47EA670B442974B53935D1EDC7FD64EB21E047A839171B PUSH1 0x40 MLOAD PUSH1 0x40 MLOAD DUP1 SWAP2 SUB SWAP1 LOG4 POP POP JUMP JUMPDEST PUSH1 0x2 PUSH1 0x1 SLOAD SUB PUSH2 0x15C3 JUMPI PUSH1 0x40 MLOAD PUSH32 0x3EE5AEB500000000000000000000000000000000000000000000000000000000 DUP2 MSTORE PUSH1 0x4 ADD PUSH1 0x40 MLOAD DUP1 SWAP2 SUB SWAP1 REVERT JUMPDEST PUSH1 0x2 PUSH1 0x1 DUP2 SWAP1 SSTORE POP JUMP JUMPDEST PUSH1 0x1 DUP1 DUP2 SWAP1 SSTORE POP JUMP JUMPDEST PUSH1 0x0 DUP2 MLOAD SWAP1 POP SWAP2 SWAP1 POP JUMP JUMPDEST PUSH1 0x0 DUP3 DUP3 MSTORE PUSH1 0x20 DUP3 ADD SWAP1 POP SWAP3 SWAP2 POP POP JUMP JUMPDEST PUSH1 0x0 DUP2 SWAP1 POP PUSH1 0x20 DUP3 ADD SWAP1 POP SWAP2 SWAP1 POP JUMP JUMPDEST PUSH1 0x0 PUSH8 0xFFFFFFFFFFFFFFFF DUP3 AND SWAP1 POP SWAP2 SWAP1 POP JUMP JUMPDEST PUSH2 0x161F DUP2 PUSH2 0x1602 JUMP JUMPDEST DUP3 MSTORE POP POP JUMP JUMPDEST PUSH1 0x0 PUSH2 0x1631 DUP4 DUP4 PUSH2 0x1616 JUMP JUMPDEST PUSH1 0x20 DUP4 ADD SWAP1 POP SWAP3 SWAP2 POP POP JUMP JUMPDEST PUSH1 0x0 PUSH1 0x20 DUP3 ADD SWAP1 POP SWAP2 SWAP1 POP JUMP JUMPDEST PUSH1 0x0 PUSH2 0x1655 DUP3 PUSH2 0x15D6 JUMP JUMPDEST PUSH2 0x165F DUP2 DUP6 PUSH2 0x15E1 JUMP JUMPDEST SWAP4 POP PUSH2 0x166A DUP4 PUSH2 0x15F2 JUMP JUMPDEST DUP1 PUSH1 0x0 JUMPDEST DUP4 DUP2 LT ISZERO PUSH2 0x169B JUMPI DUP2 MLOAD PUSH2 0x1682 DUP9 DUP3 PUSH2 0x1625 JUMP JUMPDEST SWAP8 POP PUSH2 0x168D DUP4 PUSH2 0x163D JUMP JUMPDEST SWAP3 POP POP PUSH1 0x1 DUP2 ADD SWAP1 POP PUSH2 0x166E JUMP JUMPDEST POP DUP6 SWAP4 POP POP POP POP SWAP3 SWAP2 POP POP JUMP JUMPDEST PUSH1 0x0 PUSH1 0x20 DUP3 ADD SWAP1 POP DUP2 DUP2 SUB PUSH1 0x0 DUP4 ADD MSTORE PUSH2 0x16C2 DUP2 DUP5 PUSH2 0x164A JUMP JUMPDEST SWAP1 POP SWAP3 SWAP2 POP POP JUMP JUMPDEST PUSH1 0x0 DUP1 REVERT JUMPDEST PUSH1 0x0 DUP1 REVERT JUMPDEST PUSH1 0x0 PUSH2 0xFFFF DUP3 AND SWAP1 POP SWAP2 SWAP1 POP JUMP JUMPDEST PUSH2 0x16EB DUP2 PUSH2 0x16D4 JUMP JUMPDEST DUP2 EQ PUSH2 0x16F6 JUMPI PUSH1 0x0 DUP1 REVERT JUMPDEST POP JUMP JUMPDEST PUSH1 0x0 DUP2 CALLDATALOAD SWAP1 POP PUSH2 0x1708 DUP2 PUSH2 0x16E2 JUMP JUMPDEST SWAP3 SWAP2 POP POP JUMP JUMPDEST PUSH1 0x0 PUSH1 0x20 DUP3 DUP5 SUB SLT ISZERO PUSH2 0x1724 JUMPI PUSH2 0x1723 PUSH2 0x16CA JUMP JUMPDEST JUMPDEST PUSH1 0x0 PUSH2 0x1732 DUP5 DUP3 DUP6 ADD PUSH2 0x16F9 JUMP JUMPDEST SWAP2 POP POP SWAP3 SWAP2 POP POP JUMP JUMPDEST PUSH2 0x1744 DUP2 PUSH2 0x1602 JUMP JUMPDEST DUP3 MSTORE POP POP JUMP JUMPDEST PUSH1 0x0 PUSH1 0x20 DUP3 ADD SWAP1 POP PUSH2 0x175F PUSH1 0x0 DUP4 ADD DUP5 PUSH2 0x173B JUMP JUMPDEST SWAP3 SWAP2 POP POP JUMP JUMPDEST PUSH1 0x0 DUP2 ISZERO ISZERO SWAP1 POP SWAP2 SWAP1 POP JUMP JUMPDEST PUSH2 0x177A DUP2 PUSH2 0x1765 JUMP JUMPDEST DUP3 MSTORE POP POP JUMP JUMPDEST PUSH1 0x0 PUSH1 0x20 DUP3 ADD SWAP1 POP PUSH2 0x1795 PUSH1 0x0 DUP4 ADD DUP5 PUSH2 0x1771 JUMP JUMPDEST SWAP3 SWAP2 POP POP JUMP JUMPDEST PUSH1 0x0 DUP2 SWAP1 POP SWAP2 SWAP1 POP JUMP JUMPDEST PUSH2 0x17AE DUP2 PUSH2 0x179B JUMP JUMPDEST DUP2 EQ PUSH2 0x17B9 JUMPI PUSH1 0x0 DUP1 REVERT JUMPDEST POP JUMP JUMPDEST PUSH1 0x0 DUP2 CALLDATALOAD SWAP1 POP PUSH2 0x17CB DUP2 PUSH2 0x17A5 JUMP JUMPDEST SWAP3 SWAP2 POP POP JUMP JUMPDEST PUSH1 0x0 PUSH20 0xFFFFFFFFFFFFFFFFFFFFFFFFFFFFFFFFFFFFFFFF DUP3 AND SWAP1 POP SWAP2 SWAP1 POP JUMP JUMPDEST PUSH1 0x0 PUSH2 0x17FC DUP3 PUSH2 0x17D1 JUMP JUMPDEST SWAP1 POP SWAP2 SWAP1 POP JUMP JUMPDEST PUSH2 0x180C DUP2 PUSH2 0x17F1 JUMP JUMPDEST DUP2 EQ PUSH2 0x1817 JUMPI PUSH1 0x0 DUP1 REVERT JUMPDEST POP JUMP JUMPDEST PUSH1 0x0 DUP2 CALLDATALOAD SWAP1 POP PUSH2 0x1829 DUP2 PUSH2 0x1803 JUMP JUMPDEST SWAP3 SWAP2 POP POP JUMP JUMPDEST PUSH1 0x0 DUP1 PUSH1 0x40 DUP4 DUP6 SUB SLT ISZERO PUSH2 0x1846 JUMPI PUSH2 0x1845 PUSH2 0x16CA JUMP JUMPDEST JUMPDEST PUSH1 0x0 PUSH2 0x1854 DUP6 DUP3 DUP7 ADD PUSH2 0x17BC JUMP JUMPDEST SWAP3 POP POP PUSH1 0x20 PUSH2 0x1865 DUP6 DUP3 DUP7 ADD PUSH2 0x181A JUMP JUMPDEST SWAP2 POP POP SWAP3 POP SWAP3 SWAP1 POP JUMP JUMPDEST PUSH1 0x0 PUSH1 0x20 DUP3 DUP5 SUB SLT ISZERO PUSH2 0x1885 JUMPI PUSH2 0x1884 PUSH2 0x16CA JUMP JUMPDEST JUMPDEST PUSH1 0x0 PUSH2 0x1893 DUP5 DUP3 DUP6 ADD PUSH2 0x181A JUMP JUMPDEST SWAP2 POP POP SWAP3 SWAP2 POP POP JUMP JUMPDEST PUSH2 0x18A5 DUP2 PUSH2 0x179B JUMP JUMPDEST DUP3 MSTORE POP POP JUMP JUMPDEST PUSH1 0x0 PUSH1 0x20 DUP3 ADD SWAP1 POP PUSH2 0x18C0 PUSH1 0x0 DUP4 ADD DUP5 PUSH2 0x189C JUMP JUMPDEST SWAP3 SWAP2 POP POP JUMP JUMPDEST PUSH1 0x0 DUP2 MLOAD SWAP1 POP SWAP2 SWAP1 POP JUMP JUMPDEST PUSH1 0x0 DUP3 DUP3 MSTORE PUSH1 0x20 DUP3 ADD SWAP1 POP SWAP3 SWAP2 POP POP JUMP JUMPDEST PUSH1 0x0 DUP2 SWAP1 POP PUSH1 0x20 DUP3 ADD SWAP1 POP SWAP2 SWAP1 POP JUMP JUMPDEST PUSH1 0x0 DUP2 SWAP1 POP SWAP2 SWAP1 POP JUMP JUMPDEST PUSH2 0x1905 DUP2 PUSH2 0x18F2 JUMP JUMPDEST DUP3 MSTORE POP POP JUMP JUMPDEST PUSH1 0x0 PUSH2 0x1917 DUP4 DUP4 PUSH2 0x18FC JUMP JUMPDEST PUSH1 0x20 DUP4 ADD SWAP1 POP SWAP3 SWAP2 POP POP JUMP JUMPDEST PUSH1 0x0 PUSH1 0x20 DUP3 ADD SWAP1 POP SWAP2 SWAP1 POP JUMP JUMPDEST PUSH1 0x0 PUSH2 0x193B DUP3 PUSH2 0x18C6 JUMP JUMPDEST PUSH2 0x1945 DUP2 DUP6 PUSH2 0x18D1 JUMP JUMPDEST SWAP4 POP PUSH2 0x1950 DUP4 PUSH2 0x18E2 JUMP JUMPDEST DUP1 PUSH1 0x0 JUMPDEST DUP4 DUP2 LT ISZERO PUSH2 0x1981 JUMPI DUP2 MLOAD PUSH2 0x1968 DUP9 DUP3 PUSH2 0x190B JUMP JUMPDEST SWAP8 POP PUSH2 0x1973 DUP4 PUSH2 0x1923 JUMP JUMPDEST SWAP3 POP POP PUSH1 0x1 DUP2 ADD SWAP1 POP PUSH2 0x1954 JUMP JUMPDEST POP DUP6 SWAP4 POP POP POP POP SWAP3 SWAP2 POP POP JUMP JUMPDEST PUSH1 0x0 PUSH1 0x20 DUP3 ADD SWAP1 POP DUP2 DUP2 SUB PUSH1 0x0 DUP4 ADD MSTORE PUSH2 0x19A8 DUP2 DUP5 PUSH2 0x1930 JUMP JUMPDEST SWAP1 POP SWAP3 SWAP2 POP POP JUMP JUMPDEST PUSH2 0x19B9 DUP2 PUSH2 0x16D4 JUMP JUMPDEST DUP3 MSTORE POP POP JUMP JUMPDEST PUSH1 0x0 PUSH1 0x20 DUP3 ADD SWAP1 POP PUSH2 0x19D4 PUSH1 0x0 DUP4 ADD DUP5 PUSH2 0x19B0 JUMP JUMPDEST SWAP3 SWAP2 POP POP JUMP JUMPDEST PUSH2 0x19E3 DUP2 PUSH2 0x18F2 JUMP JUMPDEST DUP3 MSTORE POP POP JUMP JUMPDEST PUSH1 0x0 PUSH1 0x20 DUP3 ADD SWAP1 POP PUSH2 0x19FE PUSH1 0x0 DUP4 ADD DUP5 PUSH2 0x19DA JUMP JUMPDEST SWAP3 SWAP2 POP POP JUMP JUMPDEST PUSH1 0x0 DUP1 REVERT JUMPDEST PUSH1 0x0 DUP1 REVERT JUMPDEST PUSH1 0x0 DUP1 REVERT JUMPDEST PUSH1 0x0 DUP1 DUP4 PUSH1 0x1F DUP5 ADD SLT PUSH2 0x1A29 JUMPI PUSH2 0x1A28 PUSH2 0x1A04 JUMP JUMPDEST JUMPDEST DUP3 CALLDATALOAD SWAP1 POP PUSH8 0xFFFFFFFFFFFFFFFF DUP2 GT ISZERO PUSH2 0x1A46 JUMPI PUSH2 0x1A45 PUSH2 0x1A09 JUMP JUMPDEST JUMPDEST PUSH1 0x20 DUP4 ADD SWAP2 POP DUP4 PUSH1 0x20 DUP3 MUL DUP4 ADD GT ISZERO PUSH2 0x1A62 JUMPI PUSH2 0x1A61 PUSH2 0x1A0E JUMP JUMPDEST JUMPDEST SWAP3 POP SWAP3 SWAP1 POP JUMP JUMPDEST PUSH1 0x0 DUP1 PUSH1 0x0 DUP1 PUSH1 0x40 DUP6 DUP8 SUB SLT ISZERO PUSH2 0x1A83 JUMPI PUSH2 0x1A82 PUSH2 0x16CA JUMP JUMPDEST JUMPDEST PUSH1 0x0 DUP6 ADD CALLDATALOAD PUSH8 0xFFFFFFFFFFFFFFFF DUP2 GT ISZERO PUSH2 0x1AA1 JUMPI PUSH2 0x1AA0 PUSH2 0x16CF JUMP JUMPDEST JUMPDEST PUSH2 0x1AAD DUP8 DUP3 DUP9 ADD PUSH2 0x1A13 JUMP JUMPDEST SWAP5 POP SWAP5 POP POP PUSH1 0x20 DUP6 ADD CALLDATALOAD PUSH8 0xFFFFFFFFFFFFFFFF DUP2 GT ISZERO PUSH2 0x1AD0 JUMPI PUSH2 0x1ACF PUSH2 0x16CF JUMP JUMPDEST JUMPDEST PUSH2 0x1ADC DUP8 DUP3 DUP9 ADD PUSH2 0x1A13 JUMP JUMPDEST SWAP3 POP SWAP3 POP POP SWAP3 SWAP6 SWAP2 SWAP5 POP SWAP3 POP JUMP JUMPDEST PUSH1 0x0 DUP1 PUSH1 0x40 DUP4 DUP6 SUB SLT ISZERO PUSH2 0x1B01 JUMPI PUSH2 0x1B00 PUSH2 0x16CA JUMP JUMPDEST JUMPDEST PUSH1 0x0 PUSH2 0x1B0F DUP6 DUP3 DUP7 ADD PUSH2 0x181A JUMP JUMPDEST SWAP3 POP POP PUSH1 0x20 PUSH2 0x1B20 DUP6 DUP3 DUP7 ADD PUSH2 0x16F9 JUMP JUMPDEST SWAP2 POP POP SWAP3 POP SWAP3 SWAP1 POP JUMP JUMPDEST PUSH2 0x1B33 DUP2 PUSH2 0x1765 JUMP JUMPDEST DUP2 EQ PUSH2 0x1B3E JUMPI PUSH1 0x0 DUP1 REVERT JUMPDEST POP JUMP JUMPDEST PUSH1 0x0 DUP2 CALLDATALOAD SWAP1 POP PUSH2 0x1B50 DUP2 PUSH2 0x1B2A JUMP JUMPDEST SWAP3 SWAP2 POP POP JUMP JUMPDEST PUSH1 0x0 PUSH1 0x20 DUP3 DUP5 SUB SLT ISZERO PUSH2 0x1B6C JUMPI PUSH2 0x1B6B PUSH2 0x16CA JUMP JUMPDEST JUMPDEST PUSH1 0x0 PUSH2 0x1B7A DUP5 DUP3 DUP6 ADD PUSH2 0x1B41 JUMP JUMPDEST SWAP2 POP POP SWAP3 SWAP2 POP POP JUMP JUMPDEST PUSH1 0x0 PUSH1 0x40 DUP3 ADD SWAP1 POP PUSH2 0x1B98 PUSH1 0x0 DUP4 ADD DUP6 PUSH2 0x19B0 JUMP JUMPDEST PUSH2 0x1BA5 PUSH1 0x20 DUP4 ADD DUP5 PUSH2 0x19DA JUMP JUMPDEST SWAP4 SWAP3 POP POP POP JUMP JUMPDEST PUSH2 0x1BB5 DUP2 PUSH2 0x18F2 JUMP JUMPDEST DUP2 EQ PUSH2 0x1BC0 JUMPI PUSH1 0x0 DUP1 REVERT JUMPDEST POP JUMP JUMPDEST PUSH1 0x0 DUP2 CALLDATALOAD SWAP1 POP PUSH2 0x1BD2 DUP2 PUSH2 0x1BAC JUMP JUMPDEST SWAP3 SWAP2 POP POP JUMP JUMPDEST PUSH1 0x0 DUP1 PUSH1 0x40 DUP4 DUP6 SUB SLT ISZERO PUSH2 0x1BEF JUMPI PUSH2 0x1BEE PUSH2 0x16CA JUMP JUMPDEST JUMPDEST PUSH1 0x0 PUSH2 0x1BFD DUP6 DUP3 DUP7 ADD PUSH2 0x181A JUMP JUMPDEST SWAP3 POP POP PUSH1 0x20 PUSH2 0x1C0E DUP6 DUP3 DUP7 ADD PUSH2 0x1BC3 JUMP JUMPDEST SWAP2 POP POP SWAP3 POP SWAP3 SWAP1 POP JUMP JUMPDEST PUSH32 0x4E487B7100000000000000000000000000000000000000000000000000000000 PUSH1 0x0 MSTORE PUSH1 0x41 PUSH1 0x4 MSTORE PUSH1 0x24 PUSH1 0x0 REVERT JUMPDEST PUSH32 0x4E487B7100000000000000000000000000000000000000000000000000000000 PUSH1 0x0 MSTORE PUSH1 0x32 PUSH1 0x4 MSTORE PUSH1 0x24 PUSH1 0x0 REVERT JUMPDEST PUSH1 0x0 DUP3 DUP3 MSTORE PUSH1 0x20 DUP3 ADD SWAP1 POP SWAP3 SWAP2 POP POP JUMP JUMPDEST PUSH32 0x416363657373436F6E74726F6C3A2073656E646572206D757374206861766520 PUSH1 0x0 DUP3 ADD MSTORE PUSH32 0x7468652061646D696E20726F6C65000000000000000000000000000000000000 PUSH1 0x20 DUP3 ADD MSTORE POP JUMP JUMPDEST PUSH1 0x0 PUSH2 0x1CE3 PUSH1 0x2E DUP4 PUSH2 0x1C76 JUMP JUMPDEST SWAP2 POP PUSH2 0x1CEE DUP3 PUSH2 0x1C87 JUMP JUMPDEST PUSH1 0x40 DUP3 ADD SWAP1 POP SWAP2 SWAP1 POP JUMP JUMPDEST PUSH1 0x0 PUSH1 0x20 DUP3 ADD SWAP1 POP DUP2 DUP2 SUB PUSH1 0x0 DUP4 ADD MSTORE PUSH2 0x1D12 DUP2 PUSH2 0x1CD6 JUMP JUMPDEST SWAP1 POP SWAP2 SWAP1 POP JUMP JUMPDEST PUSH32 0x4C656E677468206D69736D617463680000000000000000000000000000000000 PUSH1 0x0 DUP3 ADD MSTORE POP JUMP JUMPDEST PUSH1 0x0 PUSH2 0x1D4F PUSH1 0xF DUP4 PUSH2 0x1C76 JUMP JUMPDEST SWAP2 POP PUSH2 0x1D5A DUP3 PUSH2 0x1D19 JUMP JUMPDEST PUSH1 0x20 DUP3 ADD SWAP1 POP SWAP2 SWAP1 POP JUMP JUMPDEST PUSH1 0x0 PUSH1 0x20 DUP3 ADD SWAP1 POP DUP2 DUP2 SUB PUSH1 0x0 DUP4 ADD MSTORE PUSH2 0x1D7E DUP2 PUSH2 0x1D42 JUMP JUMPDEST SWAP1 POP SWAP2 SWAP1 POP JUMP JUMPDEST PUSH32 0x4E487B7100000000000000000000000000000000000000000000000000000000 PUSH1 0x0 MSTORE PUSH1 0x11 PUSH1 0x4 MSTORE PUSH1 0x24 PUSH1 0x0 REVERT JUMPDEST PUSH1 0x0 PUSH2 0x1DBF DUP3 PUSH2 0x18F2 JUMP JUMPDEST SWAP2 POP PUSH2 0x1DCA DUP4 PUSH2 0x18F2 JUMP JUMPDEST SWAP3 POP DUP3 DUP3 SUB SWAP1 POP DUP2 DUP2 GT ISZERO PUSH2 0x1DE2 JUMPI PUSH2 0x1DE1 PUSH2 0x1D85 JUMP JUMPDEST JUMPDEST SWAP3 SWAP2 POP POP JUMP JUMPDEST PUSH2 0x1DF1 DUP2 PUSH2 0x1602 JUMP JUMPDEST DUP2 EQ PUSH2 0x1DFC JUMPI PUSH1 0x0 DUP1 REVERT JUMPDEST POP JUMP JUMPDEST PUSH1 0x0 DUP2 CALLDATALOAD SWAP1 POP PUSH2 0x1E0E DUP2 PUSH2 0x1DE8 JUMP JUMPDEST SWAP3 SWAP2 POP POP JUMP JUMPDEST PUSH1 0x0 PUSH1 0x20 DUP3 DUP5 SUB SLT ISZERO PUSH2 0x1E2A JUMPI PUSH2 0x1E29 PUSH2 0x16CA JUMP JUMPDEST JUMPDEST PUSH1 0x0 PUSH2 0x1E38 DUP5 DUP3 DUP6 ADD PUSH2 0x1DFF JUMP JUMPDEST SWAP2 POP POP SWAP3 SWAP2 POP POP JUMP JUMPDEST PUSH32 0x4C6173742070726F626162696C697479206D7573742062652031303030303030 PUSH1 0x0 DUP3 ADD MSTORE PUSH32 0x3000000000000000000000000000000000000000000000000000000000000000 PUSH1 0x20 DUP3 ADD MSTORE POP JUMP JUMPDEST PUSH1 0x0 PUSH2 0x1E9D PUSH1 0x21 DUP4 PUSH2 0x1C76 JUMP JUMPDEST SWAP2 POP PUSH2 0x1EA8 DUP3 PUSH2 0x1E41 JUMP JUMPDEST PUSH1 0x40 DUP3 ADD SWAP1 POP SWAP2 SWAP1 POP JUMP JUMPDEST PUSH1 0x0 PUSH1 0x20 DUP3 ADD SWAP1 POP DUP2 DUP2 SUB PUSH1 0x0 DUP4 ADD MSTORE PUSH2 0x1ECC DUP2 PUSH2 0x1E90 JUMP JUMPDEST SWAP1 POP SWAP2 SWAP1 POP JUMP JUMPDEST PUSH1 0x0 PUSH2 0x1EDE DUP3 PUSH2 0x16D4 JUMP JUMPDEST SWAP2 POP PUSH2 0xFFFF DUP3 SUB PUSH2 0x1EF2 JUMPI PUSH2 0x1EF1 PUSH2 0x1D85 JUMP JUMPDEST JUMPDEST PUSH1 0x1 DUP3 ADD SWAP1 POP SWAP2 SWAP1 POP JUMP JUMPDEST PUSH32 0x546F74616C207365676D656E7473206D75737420626520677265617465722074 PUSH1 0x0 DUP3 ADD MSTORE PUSH32 0x68616E2030000000000000000000000000000000000000000000000000000000 PUSH1 0x20 DUP3 ADD MSTORE POP JUMP JUMPDEST PUSH1 0x0 PUSH2 0x1F59 PUSH1 0x25 DUP4 PUSH2 0x1C76 JUMP JUMPDEST SWAP2 POP PUSH2 0x1F64 DUP3 PUSH2 0x1EFD JUMP JUMPDEST PUSH1 0x40 DUP3 ADD SWAP1 POP SWAP2 SWAP1 POP JUMP JUMPDEST PUSH1 0x0 PUSH1 0x20 DUP3 ADD SWAP1 POP DUP2 DUP2 SUB PUSH1 0x0 DUP4 ADD MSTORE PUSH2 0x1F88 DUP2 PUSH2 0x1F4C JUMP JUMPDEST SWAP1 POP SWAP2 SWAP1 POP JUMP JUMPDEST PUSH32 0x5370696E6E6572206E6F74206163746976650000000000000000000000000000 PUSH1 0x0 DUP3 ADD MSTORE POP JUMP JUMPDEST PUSH1 0x0 PUSH2 0x1FC5 PUSH1 0x12 DUP4 PUSH2 0x1C76 JUMP JUMPDEST SWAP2 POP PUSH2 0x1FD0 DUP3 PUSH2 0x1F8F JUMP JUMPDEST PUSH1 0x20 DUP3 ADD SWAP1 POP SWAP2 SWAP1 POP JUMP JUMPDEST PUSH1 0x0 PUSH1 0x20 DUP3 ADD SWAP1 POP DUP2 DUP2 SUB PUSH1 0x0 DUP4 ADD MSTORE PUSH2 0x1FF4 DUP2 PUSH2 0x1FB8 JUMP JUMPDEST SWAP1 POP SWAP2 SWAP1 POP JUMP JUMPDEST PUSH1 0x0 DUP2 SWAP1 POP SWAP2 SWAP1 POP JUMP JUMPDEST PUSH2 0x2016 PUSH2 0x2011 DUP3 PUSH2 0x18F2 JUMP JUMPDEST PUSH2 0x1FFB JUMP JUMPDEST DUP3 MSTORE POP POP JUMP JUMPDEST PUSH1 0x0 DUP2 PUSH1 0x60 SHL SWAP1 POP SWAP2 SWAP1 POP JUMP JUMPDEST PUSH1 0x0 PUSH2 0x2034 DUP3 PUSH2 0x201C JUMP JUMPDEST SWAP1 POP SWAP2 SWAP1 POP JUMP JUMPDEST PUSH1 0x0 PUSH2 0x2046 DUP3 PUSH2 0x2029 JUMP JUMPDEST SWAP1 POP SWAP2 SWAP1 POP JUMP JUMPDEST PUSH2 0x205E PUSH2 0x2059 DUP3 PUSH2 0x17F1 JUMP JUMPDEST PUSH2 0x203B JUMP JUMPDEST DUP3 MSTORE POP POP JUMP JUMPDEST PUSH1 0x0 PUSH2 0x2070 DUP3 DUP9 PUSH2 0x2005 JUMP JUMPDEST PUSH1 0x20 DUP3 ADD SWAP2 POP PUSH2 0x2080 DUP3 DUP8 PUSH2 0x2005 JUMP JUMPDEST PUSH1 0x20 DUP3 ADD SWAP2 POP PUSH2 0x2090 DUP3 DUP7 PUSH2 0x204D JUMP JUMPDEST PUSH1 0x14 DUP3 ADD SWAP2 POP PUSH2 0x20A0 DUP3 DUP6 PUSH2 0x2005 JUMP JUMPDEST PUSH1 0x20 DUP3 ADD SWAP2 POP PUSH2 0x20B0 DUP3 DUP5 PUSH2 0x2005 JUMP JUMPDEST PUSH1 0x20 DUP3 ADD SWAP2 POP DUP2 SWAP1 POP SWAP7 SWAP6 POP POP POP POP POP POP JUMP JUMPDEST PUSH32 0x4E487B7100000000000000000000000000000000000000000000000000000000 PUSH1 0x0 MSTORE PUSH1 0x12 PUSH1 0x4 MSTORE PUSH1 0x24 PUSH1 0x0 REVERT JUMPDEST PUSH1 0x0 PUSH2 0x20FD DUP3 PUSH2 0x18F2 JUMP JUMPDEST SWAP2 POP PUSH2 0x2108 DUP4 PUSH2 0x18F2 JUMP JUMPDEST SWAP3 POP DUP3 PUSH2 0x2118 JUMPI PUSH2 0x2117 PUSH2 0x20C3 JUMP JUMPDEST JUMPDEST DUP3 DUP3 MOD SWAP1 POP SWAP3 SWAP2 POP POP JUMP JUMPDEST PUSH1 0x0 PUSH2 0x212E DUP3 PUSH2 0x18F2 JUMP JUMPDEST SWAP2 POP PUSH2 0x2139 DUP4 PUSH2 0x18F2 JUMP JUMPDEST SWAP3 POP DUP3 DUP3 ADD SWAP1 POP DUP1 DUP3 GT ISZERO PUSH2 0x2151 JUMPI PUSH2 0x2150 PUSH2 0x1D85 JUMP JUMPDEST JUMPDEST SWAP3 SWAP2 POP POP JUMP JUMPDEST PUSH1 0x0 PUSH2 0x2162 DUP3 PUSH2 0x18F2 JUMP JUMPDEST SWAP2 POP PUSH32 0xFFFFFFFFFFFFFFFFFFFFFFFFFFFFFFFFFFFFFFFFFFFFFFFFFFFFFFFFFFFFFFFF DUP3 SUB PUSH2 0x2194 JUMPI PUSH2 0x2193 PUSH2 0x1D85 JUMP JUMPDEST JUMPDEST PUSH1 0x1 DUP3 ADD SWAP1 POP SWAP2 SWAP1 POP JUMP JUMPDEST PUSH1 0x0 PUSH2 0x21AA DUP3 PUSH2 0x1602 JUMP JUMPDEST SWAP2 POP PUSH1 0x0 DUP3 SUB PUSH2 0x21BD JUMPI PUSH2 0x21BC PUSH2 0x1D85 JUMP JUMPDEST JUMPDEST PUSH1 0x1 DUP3 SUB SWAP1 POP SWAP2 SWAP1 POP JUMP JUMPDEST PUSH32 0x4E6F2076616C6964207365676D656E747320617661696C61626C652061667465 PUSH1 0x0 DUP3 ADD MSTORE PUSH32 0x7220333020617474656D70747300000000000000000000000000000000000000 PUSH1 0x20 DUP3 ADD MSTORE POP JUMP JUMPDEST PUSH1 0x0 PUSH2 0x2224 PUSH1 0x2D DUP4 PUSH2 0x1C76 JUMP JUMPDEST SWAP2 POP PUSH2 0x222F DUP3 PUSH2 0x21C8 JUMP JUMPDEST PUSH1 0x40 DUP3 ADD SWAP1 POP SWAP2 SWAP1 POP JUMP JUMPDEST PUSH1 0x0 PUSH1 0x20 DUP3 ADD SWAP1 POP DUP2 DUP2 SUB PUSH1 0x0 DUP4 ADD MSTORE PUSH2 0x2253 DUP2 PUSH2 0x2217 JUMP JUMPDEST SWAP1 POP SWAP2 SWAP1 POP JUMP JUMPDEST PUSH1 0x0 PUSH2 0x2265 DUP3 PUSH2 0x1602 JUMP JUMPDEST SWAP2 POP PUSH8 0xFFFFFFFFFFFFFFFF DUP3 SUB PUSH2 0x227F JUMPI PUSH2 0x227E PUSH2 0x1D85 JUMP JUMPDEST JUMPDEST PUSH1 0x1 DUP3 ADD SWAP1 POP SWAP2 SWAP1 POP JUMP JUMPDEST PUSH1 0x0 DUP2 SWAP1 POP SWAP2 SWAP1 POP JUMP JUMPDEST PUSH1 0x0 PUSH2 0x22AF PUSH2 0x22AA PUSH2 0x22A5 DUP5 PUSH2 0x16D4 JUMP JUMPDEST PUSH2 0x228A JUMP JUMPDEST PUSH2 0x18F2 JUMP JUMPDEST SWAP1 POP SWAP2 SWAP1 POP JUMP JUMPDEST PUSH2 0x22BF DUP2 PUSH2 0x2294 JUMP JUMPDEST DUP3 MSTORE POP POP JUMP JUMPDEST PUSH1 0x0 PUSH1 0x60 DUP3 ADD SWAP1 POP PUSH2 0x22DA PUSH1 0x0 DUP4 ADD DUP7 PUSH2 0x22B6 JUMP JUMPDEST PUSH2 0x22E7 PUSH1 0x20 DUP4 ADD DUP6 PUSH2 0x19DA JUMP JUMPDEST PUSH2 0x22F4 PUSH1 0x40 DUP4 ADD DUP5 PUSH2 0x19DA JUMP JUMPDEST SWAP5 SWAP4 POP POP POP POP JUMP INVALID LOG2 PUSH5 0x6970667358 0x22 SLT KECCAK256 0xB2 0xD3 0xC CODECOPY EXTCODESIZE 0x4E DUP3 0xED MSTORE8 0xAD PUSH27 0xB183977D0EAE0E5340FF49724D64750B44B21F9A6864736F6C6343 STOP ADDMOD XOR STOP CALLER "},"methodIdentifiers":{"ADMIN_ROLE()":"75b238fc","MAX_PROBABILITY()":"cc40a8ca","PRECISION()":"aaf5eb68","getActiveStatus()":"f3e67610","getProbabilities()":"062f7b8c","getRemainingAmounts()":"5f16b518","getSegmentAmounts()":"bc4af01b","getUserSegmentHits(address,uint16)":"a6794c7c","getUserSegmentHitsAll(address)":"79081d9d","getUserSpinCount(address)":"656c0ead","grantRole(bytes32,address)":"2f2ff15d","hasRole(bytes32,address)":"91d14854","isActive()":"22f3e2d4","revokeRole(bytes32,address)":"d547741f","segmentAmounts(uint16)":"0661939d","segmentProbabilities(uint16)":"21dbc5bf","segmentRemaining(uint16)":"8acf974d","setActive(bool)":"acec338a","setSegmentAmounts(uint64[],uint64[])":"95ee1217","setTotalSegments(uint16)":"bc17530a","spin()":"f0acd7d5","totalSegments()":"8ea1f363","totalSpins()":"901b2036","userSegmentHits(address,uint256)":"fe8e1dc2","userSpinCount(address)":"6cd6e4cf"}}}}}