{
  "_format": "hh-sol-artifact-1",
  "contractName": "ERC20BurnableToken",
  "sourceName": "contracts/ERC20BurnableToken.sol",
  "abi": [
    {
      "inputs": [
        {
          "internalType": "string",
          "name": "name_",
          "type": "string"
        },
        {
          "internalType": "string",
          "name": "symbol_",
          "type": "string"
        },
        {
          "internalType": "uint8",
          "name": "decimals_",
          "type": "uint8"
        }
      ],
      "stateMutability": "nonpayable",
      "type": "constructor"
    },
    {
      "inputs": [
        {
          "internalType": "address",
          "name": "spender",
          "type": "address"
        },
        {
          "internalType": "uint256",
          "name": "allowance",
          "type": "uint256"
        },
        {
          "internalType": "uint256",
          "name": "needed",
          "type": "uint256"
        }
      ],
      "name": "ERC20InsufficientAllowance",
      "type": "error"
    },
    {
      "inputs": [
        {
          "internalType": "address",
          "name": "sender",
          "type": "address"
        },
        {
          "internalType": "uint256",
          "name": "balance",
          "type": "uint256"
        },
        {
          "internalType": "uint256",
          "name": "needed",
          "type": "uint256"
        }
      ],
      "name": "ERC20InsufficientBalance",
      "type": "error"
    },
    {
      "inputs": [
        {
          "internalType": "address",
          "name": "approver",
          "type": "address"
        }
      ],
      "name": "ERC20InvalidApprover",
      "type": "error"
    },
    {
      "inputs": [
        {
          "internalType": "address",
          "name": "receiver",
          "type": "address"
        }
      ],
      "name": "ERC20InvalidReceiver",
      "type": "error"
    },
    {
      "inputs": [
        {
          "internalType": "address",
          "name": "sender",
          "type": "address"
        }
      ],
      "name": "ERC20InvalidSender",
      "type": "error"
    },
    {
      "inputs": [
        {
          "internalType": "address",
          "name": "spender",
          "type": "address"
        }
      ],
      "name": "ERC20InvalidSpender",
      "type": "error"
    },
    {
      "anonymous": false,
      "inputs": [
        {
          "indexed": true,
          "internalType": "address",
          "name": "owner",
          "type": "address"
        },
        {
          "indexed": true,
          "internalType": "address",
          "name": "spender",
          "type": "address"
        },
        {
          "indexed": false,
          "internalType": "uint256",
          "name": "value",
          "type": "uint256"
        }
      ],
      "name": "Approval",
      "type": "event"
    },
    {
      "anonymous": false,
      "inputs": [
        {
          "indexed": true,
          "internalType": "address",
          "name": "from",
          "type": "address"
        },
        {
          "indexed": true,
          "internalType": "address",
          "name": "to",
          "type": "address"
        },
        {
          "indexed": false,
          "internalType": "uint256",
          "name": "value",
          "type": "uint256"
        }
      ],
      "name": "Transfer",
      "type": "event"
    },
    {
      "inputs": [
        {
          "internalType": "address",
          "name": "owner",
          "type": "address"
        },
        {
          "internalType": "address",
          "name": "spender",
          "type": "address"
        }
      ],
      "name": "allowance",
      "outputs": [
        {
          "internalType": "uint256",
          "name": "",
          "type": "uint256"
        }
      ],
      "stateMutability": "view",
      "type": "function"
    },
    {
      "inputs": [
        {
          "internalType": "address",
          "name": "spender",
          "type": "address"
        },
        {
          "internalType": "uint256",
          "name": "value",
          "type": "uint256"
        }
      ],
      "name": "approve",
      "outputs": [
        {
          "internalType": "bool",
          "name": "",
          "type": "bool"
        }
      ],
      "stateMutability": "nonpayable",
      "type": "function"
    },
    {
      "inputs": [
        {
          "internalType": "address",
          "name": "account",
          "type": "address"
        }
      ],
      "name": "balanceOf",
      "outputs": [
        {
          "internalType": "uint256",
          "name": "",
          "type": "uint256"
        }
      ],
      "stateMutability": "view",
      "type": "function"
    },
    {
      "inputs": [
        {
          "internalType": "uint256",
          "name": "value",
          "type": "uint256"
        }
      ],
      "name": "burn",
      "outputs": [],
      "stateMutability": "nonpayable",
      "type": "function"
    },
    {
      "inputs": [
        {
          "internalType": "address",
          "name": "account",
          "type": "address"
        },
        {
          "internalType": "uint256",
          "name": "value",
          "type": "uint256"
        }
      ],
      "name": "burnFrom",
      "outputs": [],
      "stateMutability": "nonpayable",
      "type": "function"
    },
    {
      "inputs": [],
      "name": "decimals",
      "outputs": [
        {
          "internalType": "uint8",
          "name": "",
          "type": "uint8"
        }
      ],
      "stateMutability": "view",
      "type": "function"
    },
    {
      "inputs": [
        {
          "internalType": "address",
          "name": "to",
          "type": "address"
        },
        {
          "internalType": "uint256",
          "name": "amount",
          "type": "uint256"
        }
      ],
      "name": "mint",
      "outputs": [],
      "stateMutability": "nonpayable",
      "type": "function"
    },
    {
      "inputs": [],
      "name": "name",
      "outputs": [
        {
          "internalType": "string",
          "name": "",
          "type": "string"
        }
      ],
      "stateMutability": "view",
      "type": "function"
    },
    {
      "inputs": [],
      "name": "symbol",
      "outputs": [
        {
          "internalType": "string",
          "name": "",
          "type": "string"
        }
      ],
      "stateMutability": "view",
      "type": "function"
    },
    {
      "inputs": [],
      "name": "totalSupply",
      "outputs": [
        {
          "internalType": "uint256",
          "name": "",
          "type": "uint256"
        }
      ],
      "stateMutability": "view",
      "type": "function"
    },
    {
      "inputs": [
        {
          "internalType": "address",
          "name": "to",
          "type": "address"
        },
        {
          "internalType": "uint256",
          "name": "value",
          "type": "uint256"
        }
      ],
      "name": "transfer",
      "outputs": [
        {
          "internalType": "bool",
          "name": "",
          "type": "bool"
        }
      ],
      "stateMutability": "nonpayable",
      "type": "function"
    },
    {
      "inputs": [
        {
          "internalType": "address",
          "name": "from",
          "type": "address"
        },
        {
          "internalType": "address",
          "name": "to",
          "type": "address"
        },
        {
          "internalType": "uint256",
          "name": "value",
          "type": "uint256"
        }
      ],
      "name": "transferFrom",
      "outputs": [
        {
          "internalType": "bool",
          "name": "",
          "type": "bool"
        }
      ],
      "stateMutability": "nonpayable",
      "type": "function"
    }
  ],
  "bytecode": "0x60806040523480156200001157600080fd5b5060405162001dc138038062001dc1833981810160405281019062000037919062000541565b828281600390816200004a919062000826565b5080600490816200005c919062000826565b50505080600560006101000a81548160ff021916908360ff160217905550620000aa3382600a6200008e919062000a90565b620f42406200009e919062000ae1565b620000b360201b60201c565b50505062000c34565b600073ffffffffffffffffffffffffffffffffffffffff168273ffffffffffffffffffffffffffffffffffffffff1603620001285760006040517fec442f050000000000000000000000000000000000000000000000000000000081526004016200011f919062000b71565b60405180910390fd5b6200013c600083836200014060201b60201c565b5050565b600073ffffffffffffffffffffffffffffffffffffffff168373ffffffffffffffffffffffffffffffffffffffff16036200019657806002600082825462000189919062000b8e565b925050819055506200026c565b60008060008573ffffffffffffffffffffffffffffffffffffffff1673ffffffffffffffffffffffffffffffffffffffff1681526020019081526020016000205490508181101562000225578381836040517fe450d38c0000000000000000000000000000000000000000000000000000000081526004016200021c9392919062000bda565b60405180910390fd5b8181036000808673ffffffffffffffffffffffffffffffffffffffff1673ffffffffffffffffffffffffffffffffffffffff16815260200190815260200160002081905550505b600073ffffffffffffffffffffffffffffffffffffffff168273ffffffffffffffffffffffffffffffffffffffff1603620002b7578060026000828254039250508190555062000304565b806000808473ffffffffffffffffffffffffffffffffffffffff1673ffffffffffffffffffffffffffffffffffffffff168152602001908152602001600020600082825401925050819055505b8173ffffffffffffffffffffffffffffffffffffffff168373ffffffffffffffffffffffffffffffffffffffff167fddf252ad1be2c89b69c2b068fc378daa952ba7f163c4a11628f55a4df523b3ef8360405162000363919062000c17565b60405180910390a3505050565b6000604051905090565b600080fd5b600080fd5b600080fd5b600080fd5b6000601f19601f8301169050919050565b7f4e487b7100000000000000000000000000000000000000000000000000000000600052604160045260246000fd5b620003d9826200038e565b810181811067ffffffffffffffff82111715620003fb57620003fa6200039f565b5b80604052505050565b60006200041062000370565b90506200041e8282620003ce565b919050565b600067ffffffffffffffff8211156200044157620004406200039f565b5b6200044c826200038e565b9050602081019050919050565b60005b83811015620004795780820151818401526020810190506200045c565b60008484015250505050565b60006200049c620004968462000423565b62000404565b905082815260208101848484011115620004bb57620004ba62000389565b5b620004c884828562000459565b509392505050565b600082601f830112620004e857620004e762000384565b5b8151620004fa84826020860162000485565b91505092915050565b600060ff82169050919050565b6200051b8162000503565b81146200052757600080fd5b50565b6000815190506200053b8162000510565b92915050565b6000806000606084860312156200055d576200055c6200037a565b5b600084015167ffffffffffffffff8111156200057e576200057d6200037f565b5b6200058c86828701620004d0565b935050602084015167ffffffffffffffff811115620005b057620005af6200037f565b5b620005be86828701620004d0565b9250506040620005d1868287016200052a565b9150509250925092565b600081519050919050565b7f4e487b7100000000000000000000000000000000000000000000000000000000600052602260045260246000fd5b600060028204905060018216806200062e57607f821691505b602082108103620006445762000643620005e6565b5b50919050565b60008190508160005260206000209050919050565b60006020601f8301049050919050565b600082821b905092915050565b600060088302620006ae7fffffffffffffffffffffffffffffffffffffffffffffffffffffffffffffffff826200066f565b620006ba86836200066f565b95508019841693508086168417925050509392505050565b6000819050919050565b6000819050919050565b60006200070762000701620006fb84620006d2565b620006dc565b620006d2565b9050919050565b6000819050919050565b6200072383620006e6565b6200073b62000732826200070e565b8484546200067c565b825550505050565b600090565b6200075262000743565b6200075f81848462000718565b505050565b5b8181101562000787576200077b60008262000748565b60018101905062000765565b5050565b601f821115620007d657620007a0816200064a565b620007ab846200065f565b81016020851015620007bb578190505b620007d3620007ca856200065f565b83018262000764565b50505b505050565b600082821c905092915050565b6000620007fb60001984600802620007db565b1980831691505092915050565b6000620008168383620007e8565b9150826002028217905092915050565b6200083182620005db565b67ffffffffffffffff8111156200084d576200084c6200039f565b5b62000859825462000615565b620008668282856200078b565b600060209050601f8311600181146200089e576000841562000889578287015190505b62000895858262000808565b86555062000905565b601f198416620008ae866200064a565b60005b82811015620008d857848901518255600182019150602085019450602081019050620008b1565b86831015620008f85784890151620008f4601f891682620007e8565b8355505b6001600288020188555050505b505050505050565b7f4e487b7100000000000000000000000000000000000000000000000000000000600052601160045260246000fd5b60008160011c9050919050565b6000808291508390505b60018511156200099b578086048111156200097357620009726200090d565b5b6001851615620009835780820291505b808102905062000993856200093c565b945062000953565b94509492505050565b600082620009b6576001905062000a89565b81620009c6576000905062000a89565b8160018114620009df5760028114620009ea5762000a20565b600191505062000a89565b60ff841115620009ff57620009fe6200090d565b5b8360020a91508482111562000a195762000a186200090d565b5b5062000a89565b5060208310610133831016604e8410600b841016171562000a5a5782820a90508381111562000a545762000a536200090d565b5b62000a89565b62000a69848484600162000949565b9250905081840481111562000a835762000a826200090d565b5b81810290505b9392505050565b600062000a9d82620006d2565b915062000aaa8362000503565b925062000ad97fffffffffffffffffffffffffffffffffffffffffffffffffffffffffffffffff8484620009a4565b905092915050565b600062000aee82620006d2565b915062000afb83620006d2565b925082820262000b0b81620006d2565b9150828204841483151762000b255762000b246200090d565b5b5092915050565b600073ffffffffffffffffffffffffffffffffffffffff82169050919050565b600062000b598262000b2c565b9050919050565b62000b6b8162000b4c565b82525050565b600060208201905062000b88600083018462000b60565b92915050565b600062000b9b82620006d2565b915062000ba883620006d2565b925082820190508082111562000bc35762000bc26200090d565b5b92915050565b62000bd481620006d2565b82525050565b600060608201905062000bf1600083018662000b60565b62000c00602083018562000bc9565b62000c0f604083018462000bc9565b949350505050565b600060208201905062000c2e600083018462000bc9565b92915050565b61117d8062000c446000396000f3fe608060405234801561001057600080fd5b50600436106100b45760003560e01c806342966c681161007157806342966c681461018f57806370a08231146101ab57806379cc6790146101db57806395d89b41146101f7578063a9059cbb14610215578063dd62ed3e14610245576100b4565b806306fdde03146100b9578063095ea7b3146100d757806318160ddd1461010757806323b872dd14610125578063313ce5671461015557806340c10f1914610173575b600080fd5b6100c1610275565b6040516100ce9190610c80565b60405180910390f35b6100f160048036038101906100ec9190610d3b565b610307565b6040516100fe9190610d96565b60405180910390f35b61010f61032a565b60405161011c9190610dc0565b60405180910390f35b61013f600480360381019061013a9190610ddb565b610334565b60405161014c9190610d96565b60405180910390f35b61015d6103e4565b60405161016a9190610e4a565b60405180910390f35b61018d60048036038101906101889190610d3b565b6103fb565b005b6101a960048036038101906101a49190610e65565b610409565b005b6101c560048036038101906101c09190610e92565b61041d565b6040516101d29190610dc0565b60405180910390f35b6101f560048036038101906101f09190610d3b565b610465565b005b6101ff610485565b60405161020c9190610c80565b60405180910390f35b61022f600480360381019061022a9190610d3b565b610517565b60405161023c9190610d96565b60405180910390f35b61025f600480360381019061025a9190610ebf565b6105bb565b60405161026c9190610dc0565b60405180910390f35b60606003805461028490610f2e565b80601f01602080910402602001604051908101604052809291908181526020018280546102b090610f2e565b80156102fd5780601f106102d2576101008083540402835291602001916102fd565b820191906000526020600020905b8154815290600101906020018083116102e057829003601f168201915b5050505050905090565b600080610312610642565b905061031f81858561064a565b600191505092915050565b6000600254905090565b6000808211610378576040517f08c379a000000000000000000000000000000000000000000000000000000000815260040161036f90610fd1565b60405180910390fd5b816103828561041d565b10156103c3576040517f08c379a00000000000000000000000000000000000000000000000000000000081526004016103ba90611063565b60405180910390fd5b6103ce84338461065c565b6103d98484846106f0565b600190509392505050565b6000600560009054906101000a900460ff16905090565b6104058282610915565b5050565b61041a610414610642565b82610997565b50565b60008060008373ffffffffffffffffffffffffffffffffffffffff1673ffffffffffffffffffffffffffffffffffffffff168152602001908152602001600020549050919050565b61047782610471610642565b8361065c565b6104818282610997565b5050565b60606004805461049490610f2e565b80601f01602080910402602001604051908101604052809291908181526020018280546104c090610f2e565b801561050d5780601f106104e25761010080835404028352916020019161050d565b820191906000526020600020905b8154815290600101906020018083116104f057829003601f168201915b5050505050905090565b600080821161055b576040517f08c379a000000000000000000000000000000000000000000000000000000000815260040161055290610fd1565b60405180910390fd5b816105653361041d565b10156105a6576040517f08c379a000000000000000000000000000000000000000000000000000000000815260040161059d90611063565b60405180910390fd5b6105b13384846106f0565b6001905092915050565b6000600160008473ffffffffffffffffffffffffffffffffffffffff1673ffffffffffffffffffffffffffffffffffffffff16815260200190815260200160002060008373ffffffffffffffffffffffffffffffffffffffff1673ffffffffffffffffffffffffffffffffffffffff16815260200190815260200160002054905092915050565b600033905090565b6106578383836001610a19565b505050565b600061066884846105bb565b90507fffffffffffffffffffffffffffffffffffffffffffffffffffffffffffffffff81146106ea57818110156106da578281836040517ffb8f41b20000000000000000000000000000000000000000000000000000000081526004016106d193929190611092565b60405180910390fd5b6106e984848484036000610a19565b5b50505050565b600073ffffffffffffffffffffffffffffffffffffffff168373ffffffffffffffffffffffffffffffffffffffff160361074257806002600082825461073691906110f8565b92505081905550610815565b60008060008573ffffffffffffffffffffffffffffffffffffffff1673ffffffffffffffffffffffffffffffffffffffff168152602001908152602001600020549050818110156107ce578381836040517fe450d38c0000000000000000000000000000000000000000000000000000000081526004016107c593929190611092565b60405180910390fd5b8181036000808673ffffffffffffffffffffffffffffffffffffffff1673ffffffffffffffffffffffffffffffffffffffff16815260200190815260200160002081905550505b600073ffffffffffffffffffffffffffffffffffffffff168273ffffffffffffffffffffffffffffffffffffffff160361085e57806002600082825403925050819055506108ab565b806000808473ffffffffffffffffffffffffffffffffffffffff1673ffffffffffffffffffffffffffffffffffffffff168152602001908152602001600020600082825401925050819055505b8173ffffffffffffffffffffffffffffffffffffffff168373ffffffffffffffffffffffffffffffffffffffff167fddf252ad1be2c89b69c2b068fc378daa952ba7f163c4a11628f55a4df523b3ef836040516109089190610dc0565b60405180910390a3505050565b600073ffffffffffffffffffffffffffffffffffffffff168273ffffffffffffffffffffffffffffffffffffffff16036109875760006040517fec442f0500000000000000000000000000000000000000000000000000000000815260040161097e919061112c565b60405180910390fd5b610993600083836106f0565b5050565b600073ffffffffffffffffffffffffffffffffffffffff168273ffffffffffffffffffffffffffffffffffffffff1603610a095760006040517f96c6fd1e000000000000000000000000000000000000000000000000000000008152600401610a00919061112c565b60405180910390fd5b610a15826000836106f0565b5050565b600073ffffffffffffffffffffffffffffffffffffffff168473ffffffffffffffffffffffffffffffffffffffff1603610a8b5760006040517fe602df05000000000000000000000000000000000000000000000000000000008152600401610a82919061112c565b60405180910390fd5b600073ffffffffffffffffffffffffffffffffffffffff168373ffffffffffffffffffffffffffffffffffffffff1603610afd5760006040517f94280d62000000000000000000000000000000000000000000000000000000008152600401610af4919061112c565b60405180910390fd5b81600160008673ffffffffffffffffffffffffffffffffffffffff1673ffffffffffffffffffffffffffffffffffffffff16815260200190815260200160002060008573ffffffffffffffffffffffffffffffffffffffff1673ffffffffffffffffffffffffffffffffffffffff168152602001908152602001600020819055508015610bea578273ffffffffffffffffffffffffffffffffffffffff168473ffffffffffffffffffffffffffffffffffffffff167f8c5be1e5ebec7d5bd14f71427d1e84f3dd0314c0f7b2291e5b200ac8c7c3b92584604051610be19190610dc0565b60405180910390a35b50505050565b600081519050919050565b600082825260208201905092915050565b60005b83811015610c2a578082015181840152602081019050610c0f565b60008484015250505050565b6000601f19601f8301169050919050565b6000610c5282610bf0565b610c5c8185610bfb565b9350610c6c818560208601610c0c565b610c7581610c36565b840191505092915050565b60006020820190508181036000830152610c9a8184610c47565b905092915050565b600080fd5b600073ffffffffffffffffffffffffffffffffffffffff82169050919050565b6000610cd282610ca7565b9050919050565b610ce281610cc7565b8114610ced57600080fd5b50565b600081359050610cff81610cd9565b92915050565b6000819050919050565b610d1881610d05565b8114610d2357600080fd5b50565b600081359050610d3581610d0f565b92915050565b60008060408385031215610d5257610d51610ca2565b5b6000610d6085828601610cf0565b9250506020610d7185828601610d26565b9150509250929050565b60008115159050919050565b610d9081610d7b565b82525050565b6000602082019050610dab6000830184610d87565b92915050565b610dba81610d05565b82525050565b6000602082019050610dd56000830184610db1565b92915050565b600080600060608486031215610df457610df3610ca2565b5b6000610e0286828701610cf0565b9350506020610e1386828701610cf0565b9250506040610e2486828701610d26565b9150509250925092565b600060ff82169050919050565b610e4481610e2e565b82525050565b6000602082019050610e5f6000830184610e3b565b92915050565b600060208284031215610e7b57610e7a610ca2565b5b6000610e8984828501610d26565b91505092915050565b600060208284031215610ea857610ea7610ca2565b5b6000610eb684828501610cf0565b91505092915050565b60008060408385031215610ed657610ed5610ca2565b5b6000610ee485828601610cf0565b9250506020610ef585828601610cf0565b9150509250929050565b7f4e487b7100000000000000000000000000000000000000000000000000000000600052602260045260246000fd5b60006002820490506001821680610f4657607f821691505b602082108103610f5957610f58610eff565b5b50919050565b7f45524332303a207472616e7366657220616d6f756e74206d757374206265206760008201527f726561746572207468616e207a65726f00000000000000000000000000000000602082015250565b6000610fbb603083610bfb565b9150610fc682610f5f565b604082019050919050565b60006020820190508181036000830152610fea81610fae565b9050919050565b7f45524332303a207472616e7366657220616d6f756e742065786365656473206260008201527f616c616e63650000000000000000000000000000000000000000000000000000602082015250565b600061104d602683610bfb565b915061105882610ff1565b604082019050919050565b6000602082019050818103600083015261107c81611040565b9050919050565b61108c81610cc7565b82525050565b60006060820190506110a76000830186611083565b6110b46020830185610db1565b6110c16040830184610db1565b949350505050565b7f4e487b7100000000000000000000000000000000000000000000000000000000600052601160045260246000fd5b600061110382610d05565b915061110e83610d05565b9250828201905080821115611126576111256110c9565b5b92915050565b60006020820190506111416000830184611083565b9291505056fea264697066735822122062ca9fa1af59bdddfef3c3eaa9dd3156175ac389c0becf69f811545bd7e3723e64736f6c63430008180033",
  "linkReferences": {},
  "deployedLinkReferences": {}
}