{
  "_format": "hh-sol-artifact-1",
  "contractName": "Spinner",
  "sourceName": "contracts/Spinner.sol",
  "abi": [
    {
      "inputs": [
        {
          "internalType": "uint256",
          "name": "_totalSegments",
          "type": "uint256"
        }
      ],
      "stateMutability": "nonpayable",
      "type": "constructor"
    },
    {
      "inputs": [],
      "name": "ReentrancyGuardReentrantCall",
      "type": "error"
    },
    {
      "anonymous": false,
      "inputs": [
        {
          "indexed": true,
          "internalType": "bytes32",
          "name": "role",
          "type": "bytes32"
        },
        {
          "indexed": true,
          "internalType": "address",
          "name": "account",
          "type": "address"
        },
        {
          "indexed": true,
          "internalType": "address",
          "name": "admin",
          "type": "address"
        }
      ],
      "name": "RoleGranted",
      "type": "event"
    },
    {
      "anonymous": false,
      "inputs": [
        {
          "indexed": true,
          "internalType": "bytes32",
          "name": "role",
          "type": "bytes32"
        },
        {
          "indexed": true,
          "internalType": "address",
          "name": "account",
          "type": "address"
        },
        {
          "indexed": true,
          "internalType": "address",
          "name": "admin",
          "type": "address"
        }
      ],
      "name": "RoleRevoked",
      "type": "event"
    },
    {
      "anonymous": false,
      "inputs": [
        {
          "indexed": true,
          "internalType": "address",
          "name": "user",
          "type": "address"
        },
        {
          "indexed": false,
          "internalType": "uint256",
          "name": "segment",
          "type": "uint256"
        },
        {
          "indexed": false,
          "internalType": "uint256",
          "name": "randomNumber",
          "type": "uint256"
        },
        {
          "indexed": false,
          "internalType": "uint256",
          "name": "timestamp",
          "type": "uint256"
        }
      ],
      "name": "SpinResult",
      "type": "event"
    },
    {
      "inputs": [],
      "name": "ADMIN_ROLE",
      "outputs": [
        {
          "internalType": "bytes32",
          "name": "",
          "type": "bytes32"
        }
      ],
      "stateMutability": "view",
      "type": "function"
    },
    {
      "inputs": [],
      "name": "MAX_PROBABILITY",
      "outputs": [
        {
          "internalType": "uint256",
          "name": "",
          "type": "uint256"
        }
      ],
      "stateMutability": "view",
      "type": "function"
    },
    {
      "inputs": [],
      "name": "PRECISION",
      "outputs": [
        {
          "internalType": "uint256",
          "name": "",
          "type": "uint256"
        }
      ],
      "stateMutability": "view",
      "type": "function"
    },
    {
      "inputs": [],
      "name": "getActiveStatus",
      "outputs": [
        {
          "internalType": "bool",
          "name": "",
          "type": "bool"
        }
      ],
      "stateMutability": "view",
      "type": "function"
    },
    {
      "inputs": [],
      "name": "getProbabilities",
      "outputs": [
        {
          "internalType": "uint64[]",
          "name": "probabilities",
          "type": "uint64[]"
        }
      ],
      "stateMutability": "view",
      "type": "function"
    },
    {
      "inputs": [],
      "name": "getRemainingAmounts",
      "outputs": [
        {
          "internalType": "uint64[]",
          "name": "amounts",
          "type": "uint64[]"
        }
      ],
      "stateMutability": "view",
      "type": "function"
    },
    {
      "inputs": [],
      "name": "getSegmentAmounts",
      "outputs": [
        {
          "internalType": "uint64[]",
          "name": "amounts",
          "type": "uint64[]"
        }
      ],
      "stateMutability": "view",
      "type": "function"
    },
    {
      "inputs": [
        {
          "internalType": "address",
          "name": "user",
          "type": "address"
        },
        {
          "internalType": "uint16",
          "name": "segment",
          "type": "uint16"
        }
      ],
      "name": "getUserSegmentHits",
      "outputs": [
        {
          "internalType": "uint256",
          "name": "",
          "type": "uint256"
        }
      ],
      "stateMutability": "view",
      "type": "function"
    },
    {
      "inputs": [
        {
          "internalType": "address",
          "name": "user",
          "type": "address"
        }
      ],
      "name": "getUserSegmentHitsAll",
      "outputs": [
        {
          "internalType": "uint256[]",
          "name": "",
          "type": "uint256[]"
        }
      ],
      "stateMutability": "view",
      "type": "function"
    },
    {
      "inputs": [
        {
          "internalType": "address",
          "name": "user",
          "type": "address"
        }
      ],
      "name": "getUserSpinCount",
      "outputs": [
        {
          "internalType": "uint64",
          "name": "",
          "type": "uint64"
        }
      ],
      "stateMutability": "view",
      "type": "function"
    },
    {
      "inputs": [
        {
          "internalType": "bytes32",
          "name": "role",
          "type": "bytes32"
        },
        {
          "internalType": "address",
          "name": "account",
          "type": "address"
        }
      ],
      "name": "grantRole",
      "outputs": [],
      "stateMutability": "nonpayable",
      "type": "function"
    },
    {
      "inputs": [
        {
          "internalType": "bytes32",
          "name": "role",
          "type": "bytes32"
        },
        {
          "internalType": "address",
          "name": "account",
          "type": "address"
        }
      ],
      "name": "hasRole",
      "outputs": [
        {
          "internalType": "bool",
          "name": "",
          "type": "bool"
        }
      ],
      "stateMutability": "view",
      "type": "function"
    },
    {
      "inputs": [],
      "name": "isActive",
      "outputs": [
        {
          "internalType": "bool",
          "name": "",
          "type": "bool"
        }
      ],
      "stateMutability": "view",
      "type": "function"
    },
    {
      "inputs": [
        {
          "internalType": "bytes32",
          "name": "role",
          "type": "bytes32"
        },
        {
          "internalType": "address",
          "name": "account",
          "type": "address"
        }
      ],
      "name": "revokeRole",
      "outputs": [],
      "stateMutability": "nonpayable",
      "type": "function"
    },
    {
      "inputs": [
        {
          "internalType": "uint16",
          "name": "",
          "type": "uint16"
        }
      ],
      "name": "segmentAmounts",
      "outputs": [
        {
          "internalType": "uint64",
          "name": "",
          "type": "uint64"
        }
      ],
      "stateMutability": "view",
      "type": "function"
    },
    {
      "inputs": [
        {
          "internalType": "uint16",
          "name": "",
          "type": "uint16"
        }
      ],
      "name": "segmentProbabilities",
      "outputs": [
        {
          "internalType": "uint64",
          "name": "",
          "type": "uint64"
        }
      ],
      "stateMutability": "view",
      "type": "function"
    },
    {
      "inputs": [
        {
          "internalType": "uint16",
          "name": "",
          "type": "uint16"
        }
      ],
      "name": "segmentRemaining",
      "outputs": [
        {
          "internalType": "uint64",
          "name": "",
          "type": "uint64"
        }
      ],
      "stateMutability": "view",
      "type": "function"
    },
    {
      "inputs": [
        {
          "internalType": "bool",
          "name": "_isActive",
          "type": "bool"
        }
      ],
      "name": "setActive",
      "outputs": [],
      "stateMutability": "nonpayable",
      "type": "function"
    },
    {
      "inputs": [
        {
          "internalType": "uint64[]",
          "name": "amounts",
          "type": "uint64[]"
        },
        {
          "internalType": "uint64[]",
          "name": "probabilities",
          "type": "uint64[]"
        }
      ],
      "name": "setSegmentAmounts",
      "outputs": [],
      "stateMutability": "nonpayable",
      "type": "function"
    },
    {
      "inputs": [
        {
          "internalType": "uint16",
          "name": "_totalSegments",
          "type": "uint16"
        }
      ],
      "name": "setTotalSegments",
      "outputs": [],
      "stateMutability": "nonpayable",
      "type": "function"
    },
    {
      "inputs": [],
      "name": "spin",
      "outputs": [
        {
          "internalType": "uint16",
          "name": "segment",
          "type": "uint16"
        },
        {
          "internalType": "uint256",
          "name": "randomNumber",
          "type": "uint256"
        }
      ],
      "stateMutability": "nonpayable",
      "type": "function"
    },
    {
      "inputs": [],
      "name": "totalSegments",
      "outputs": [
        {
          "internalType": "uint16",
          "name": "",
          "type": "uint16"
        }
      ],
      "stateMutability": "view",
      "type": "function"
    },
    {
      "inputs": [],
      "name": "totalSpins",
      "outputs": [
        {
          "internalType": "uint256",
          "name": "",
          "type": "uint256"
        }
      ],
      "stateMutability": "view",
      "type": "function"
    },
    {
      "inputs": [
        {
          "internalType": "address",
          "name": "",
          "type": "address"
        },
        {
          "internalType": "uint256",
          "name": "",
          "type": "uint256"
        }
      ],
      "name": "userSegmentHits",
      "outputs": [
        {
          "internalType": "uint256",
          "name": "",
          "type": "uint256"
        }
      ],
      "stateMutability": "view",
      "type": "function"
    },
    {
      "inputs": [
        {
          "internalType": "address",
          "name": "",
          "type": "address"
        }
      ],
      "name": "userSpinCount",
      "outputs": [
        {
          "internalType": "uint64",
          "name": "",
          "type": "uint64"
        }
      ],
      "stateMutability": "view",
      "type": "function"
    }
  ],
  "bytecode": "0x60806040523480156200001157600080fd5b506040516200250d3803806200250d833981810160405281019062000037919062000199565b60018081905550620000536000801b336200009260201b60201c565b6000600760006101000a81548160ff02191690831515021790555080600260006101000a81548161ffff021916908361ffff16021790555050620001cb565b600160008084815260200190815260200160002060008373ffffffffffffffffffffffffffffffffffffffff1673ffffffffffffffffffffffffffffffffffffffff16815260200190815260200160002060006101000a81548160ff0219169083151502179055503373ffffffffffffffffffffffffffffffffffffffff168173ffffffffffffffffffffffffffffffffffffffff16837f2f8788117e7eff1d82e926ec794901d17c78024a50270940304540a733656f0d60405160405180910390a45050565b600080fd5b6000819050919050565b62000173816200015e565b81146200017f57600080fd5b50565b600081519050620001938162000168565b92915050565b600060208284031215620001b257620001b162000159565b5b6000620001c28482850162000182565b91505092915050565b61233280620001db6000396000f3fe608060405234801561001057600080fd5b50600436106101735760003560e01c8063901b2036116100de578063bc17530a11610097578063d547741f11610071578063d547741f14610476578063f0acd7d514610492578063f3e67610146104b1578063fe8e1dc2146104cf57610173565b8063bc17530a1461041e578063bc4af01b1461043a578063cc40a8ca1461045857610173565b8063901b20361461034a57806391d148541461036857806395ee121714610398578063a6794c7c146103b4578063aaf5eb68146103e4578063acec338a1461040257610173565b8063656c0ead11610130578063656c0ead1461024e5780636cd6e4cf1461027e57806375b238fc146102ae57806379081d9d146102cc5780638acf974d146102fc5780638ea1f3631461032c57610173565b8063062f7b8c146101785780630661939d1461019657806321dbc5bf146101c657806322f3e2d4146101f65780632f2ff15d146102145780635f16b51814610230575b600080fd5b6101806104ff565b60405161018d91906116a8565b60405180910390f35b6101b060048036038101906101ab919061170e565b6105fd565b6040516101bd919061174a565b60405180910390f35b6101e060048036038101906101db919061170e565b610624565b6040516101ed919061174a565b60405180910390f35b6101fe61064b565b60405161020b9190611780565b60405180910390f35b61022e6004803603810190610229919061182f565b61065e565b005b6102386106ba565b60405161024591906116a8565b60405180910390f35b6102686004803603810190610263919061186f565b6107b8565b604051610275919061174a565b60405180910390f35b6102986004803603810190610293919061186f565b610815565b6040516102a5919061174a565b60405180910390f35b6102b661083c565b6040516102c391906118ab565b60405180910390f35b6102e660048036038101906102e1919061186f565b610843565b6040516102f3919061198e565b60405180910390f35b6103166004803603810190610311919061170e565b610958565b604051610323919061174a565b60405180910390f35b61033461097f565b60405161034191906119bf565b60405180910390f35b610352610993565b60405161035f91906119e9565b60405180910390f35b610382600480360381019061037d919061182f565b610999565b60405161038f9190611780565b60405180910390f35b6103b260048036038101906103ad9190611a69565b610a00565b005b6103ce60048036038101906103c99190611aea565b610c8e565b6040516103db91906119e9565b60405180910390f35b6103ec610ced565b6040516103f991906119e9565b60405180910390f35b61041c60048036038101906104179190611b56565b610cf9565b005b6104386004803603810190610433919061170e565b610d64565b005b610442610e19565b60405161044f91906116a8565b60405180910390f35b610460610f17565b60405161046d91906119e9565b60405180910390f35b610490600480360381019061048b919061182f565b610f1e565b005b61049a610f7a565b6040516104a8929190611b83565b60405180910390f35b6104b96113bd565b6040516104c69190611780565b60405180910390f35b6104e960048036038101906104e49190611bd8565b6113d4565b6040516104f691906119e9565b60405180910390f35b6060600260009054906101000a900461ffff1661ffff1667ffffffffffffffff81111561052f5761052e611c18565b5b60405190808252806020026020018201604052801561055d5781602001602082028036833780820191505090505b50905060005b600260009054906101000a900461ffff1661ffff168161ffff1610156105f957600560008261ffff1661ffff16815260200190815260200160002060009054906101000a900467ffffffffffffffff16828261ffff16815181106105ca576105c9611c47565b5b602002602001019067ffffffffffffffff16908167ffffffffffffffff16815250508080600101915050610563565b5090565b60036020528060005260406000206000915054906101000a900467ffffffffffffffff1681565b60056020528060005260406000206000915054906101000a900467ffffffffffffffff1681565b600760009054906101000a900460ff1681565b6000801b61066c8133610999565b6106ab576040517f08c379a00000000000000000000000000000000000000000000000000000000081526004016106a290611cf9565b60405180910390fd5b6106b583836113f9565b505050565b6060600260009054906101000a900461ffff1661ffff1667ffffffffffffffff8111156106ea576106e9611c18565b5b6040519080825280602002602001820160405280156107185781602001602082028036833780820191505090505b50905060005b600260009054906101000a900461ffff1661ffff168161ffff1610156107b457600460008261ffff1661ffff16815260200190815260200160002060009054906101000a900467ffffffffffffffff16828261ffff168151811061078557610784611c47565b5b602002602001019067ffffffffffffffff16908167ffffffffffffffff1681525050808060010191505061071e565b5090565b6000600860008373ffffffffffffffffffffffffffffffffffffffff1673ffffffffffffffffffffffffffffffffffffffff16815260200190815260200160002060009054906101000a900467ffffffffffffffff169050919050565b60086020528060005260406000206000915054906101000a900467ffffffffffffffff1681565b6000801b81565b60606000600260009054906101000a900461ffff1661ffff1667ffffffffffffffff81111561087557610874611c18565b5b6040519080825280602002602001820160405280156108a35781602001602082028036833780820191505090505b50905060005b600260009054906101000a900461ffff1661ffff168161ffff16101561094e57600960008573ffffffffffffffffffffffffffffffffffffffff1673ffffffffffffffffffffffffffffffffffffffff16815260200190815260200160002060008261ffff16815260200190815260200160002054828261ffff168151811061093557610934611c47565b5b60200260200101818152505080806001019150506108a9565b5080915050919050565b60046020528060005260406000206000915054906101000a900467ffffffffffffffff1681565b600260009054906101000a900461ffff1681565b60065481565b600080600084815260200190815260200160002060008373ffffffffffffffffffffffffffffffffffffffff1673ffffffffffffffffffffffffffffffffffffffff16815260200190815260200160002060009054906101000a900460ff16905092915050565b6000801b610a0e8133610999565b610a4d576040517f08c379a0000000000000000000000000000000000000000000000000000000008152600401610a4490611cf9565b60405180910390fd5b828290508585905014610a95576040517f08c379a0000000000000000000000000000000000000000000000000000000008152600401610a8c90611d65565b60405180910390fd5b629896808383600186869050610aab9190611db4565b818110610abb57610aba611c47565b5b9050602002016020810190610ad09190611e14565b67ffffffffffffffff1614610b1a576040517f08c379a0000000000000000000000000000000000000000000000000000000008152600401610b1190611eb3565b60405180910390fd5b60005b858590508161ffff161015610c865785858261ffff16818110610b4357610b42611c47565b5b9050602002016020810190610b589190611e14565b600360008361ffff1661ffff16815260200190815260200160002060006101000a81548167ffffffffffffffff021916908367ffffffffffffffff16021790555085858261ffff16818110610bb057610baf611c47565b5b9050602002016020810190610bc59190611e14565b600460008361ffff1661ffff16815260200190815260200160002060006101000a81548167ffffffffffffffff021916908367ffffffffffffffff16021790555083838261ffff16818110610c1d57610c1c611c47565b5b9050602002016020810190610c329190611e14565b600560008361ffff1661ffff16815260200190815260200160002060006101000a81548167ffffffffffffffff021916908367ffffffffffffffff1602179055508080610c7e90611ed3565b915050610b1d565b505050505050565b6000600960008473ffffffffffffffffffffffffffffffffffffffff1673ffffffffffffffffffffffffffffffffffffffff16815260200190815260200160002060008361ffff16815260200190815260200160002054905092915050565b670de0b6b3a764000081565b6000801b610d078133610999565b610d46576040517f08c379a0000000000000000000000000000000000000000000000000000000008152600401610d3d90611cf9565b60405180910390fd5b81600760006101000a81548160ff0219169083151502179055505050565b6000801b610d728133610999565b610db1576040517f08c379a0000000000000000000000000000000000000000000000000000000008152600401610da890611cf9565b60405180910390fd5b60008261ffff1611610df8576040517f08c379a0000000000000000000000000000000000000000000000000000000008152600401610def90611f6f565b60405180910390fd5b81600260006101000a81548161ffff021916908361ffff1602179055505050565b6060600260009054906101000a900461ffff1661ffff1667ffffffffffffffff811115610e4957610e48611c18565b5b604051908082528060200260200182016040528015610e775781602001602082028036833780820191505090505b50905060005b600260009054906101000a900461ffff1661ffff168161ffff161015610f1357600360008261ffff1661ffff16815260200190815260200160002060009054906101000a900467ffffffffffffffff16828261ffff1681518110610ee457610ee3611c47565b5b602002602001019067ffffffffffffffff16908167ffffffffffffffff16815250508080600101915050610e7d565b5090565b6298968081565b6000801b610f2c8133610999565b610f6b576040517f08c379a0000000000000000000000000000000000000000000000000000000008152600401610f6290611cf9565b60405180910390fd5b610f7583836114c0565b505050565b600080610f85611587565b600760009054906101000a900460ff16610fd4576040517f08c379a0000000000000000000000000000000000000000000000000000000008152600401610fcb90611fdb565b60405180910390fd5b6000806000601e90505b82158015610feb57508082105b156112285760016298968042443360065487604051602001611011959493929190612064565b6040516020818303038152906040528051906020012060001c61103491906120f2565b61103e9190612123565b935060005b600260009054906101000a900461ffff1661ffff168161ffff16108015611068575083155b1561121457600560008261ffff1661ffff16815260200190815260200160002060009054906101000a900467ffffffffffffffff1667ffffffffffffffff168511611201576000600360008361ffff1661ffff16815260200190815260200160002060009054906101000a900467ffffffffffffffff1667ffffffffffffffff16148061112e57506000600460008361ffff1661ffff16815260200190815260200160002060009054906101000a900467ffffffffffffffff1667ffffffffffffffff16115b1561120057600193508095506006600081548092919061114d90612157565b91905055506000600460008361ffff1661ffff16815260200190815260200160002060009054906101000a900467ffffffffffffffff1667ffffffffffffffff1611156111fb57600460008261ffff1661ffff168152602001908152602001600020600081819054906101000a900467ffffffffffffffff16809291906111d39061219f565b91906101000a81548167ffffffffffffffff021916908367ffffffffffffffff160217905550505b611214565b5b808061120c90611ed3565b915050611043565b50818061122090612157565b925050610fde565b82611268576040517f08c379a000000000000000000000000000000000000000000000000000000000815260040161125f9061223a565b60405180910390fd5b600860003373ffffffffffffffffffffffffffffffffffffffff1673ffffffffffffffffffffffffffffffffffffffff168152602001908152602001600020600081819054906101000a900467ffffffffffffffff16809291906112cb9061225a565b91906101000a81548167ffffffffffffffff021916908367ffffffffffffffff16021790555050600960003373ffffffffffffffffffffffffffffffffffffffff1673ffffffffffffffffffffffffffffffffffffffff16815260200190815260200160002060008661ffff168152602001908152602001600020600081548092919061135790612157565b91905055503373ffffffffffffffffffffffffffffffffffffffff167ff825702cbc83605d7fababea4c41c307150aab23ae229acda80af9d946aa42928686426040516113a6939291906122c5565b60405180910390a25050506113b96115cd565b9091565b6000600760009054906101000a900460ff16905090565b6009602052816000526040600020602052806000526040600020600091509150505481565b600160008084815260200190815260200160002060008373ffffffffffffffffffffffffffffffffffffffff1673ffffffffffffffffffffffffffffffffffffffff16815260200190815260200160002060006101000a81548160ff0219169083151502179055503373ffffffffffffffffffffffffffffffffffffffff168173ffffffffffffffffffffffffffffffffffffffff16837f2f8788117e7eff1d82e926ec794901d17c78024a50270940304540a733656f0d60405160405180910390a45050565b600080600084815260200190815260200160002060008373ffffffffffffffffffffffffffffffffffffffff1673ffffffffffffffffffffffffffffffffffffffff16815260200190815260200160002060006101000a81548160ff0219169083151502179055503373ffffffffffffffffffffffffffffffffffffffff168173ffffffffffffffffffffffffffffffffffffffff16837ff6391f5c32d9c69d2a47ea670b442974b53935d1edc7fd64eb21e047a839171b60405160405180910390a45050565b6002600154036115c3576040517f3ee5aeb500000000000000000000000000000000000000000000000000000000815260040160405180910390fd5b6002600181905550565b60018081905550565b600081519050919050565b600082825260208201905092915050565b6000819050602082019050919050565b600067ffffffffffffffff82169050919050565b61161f81611602565b82525050565b60006116318383611616565b60208301905092915050565b6000602082019050919050565b6000611655826115d6565b61165f81856115e1565b935061166a836115f2565b8060005b8381101561169b5781516116828882611625565b975061168d8361163d565b92505060018101905061166e565b5085935050505092915050565b600060208201905081810360008301526116c2818461164a565b905092915050565b600080fd5b600080fd5b600061ffff82169050919050565b6116eb816116d4565b81146116f657600080fd5b50565b600081359050611708816116e2565b92915050565b600060208284031215611724576117236116ca565b5b6000611732848285016116f9565b91505092915050565b61174481611602565b82525050565b600060208201905061175f600083018461173b565b92915050565b60008115159050919050565b61177a81611765565b82525050565b60006020820190506117956000830184611771565b92915050565b6000819050919050565b6117ae8161179b565b81146117b957600080fd5b50565b6000813590506117cb816117a5565b92915050565b600073ffffffffffffffffffffffffffffffffffffffff82169050919050565b60006117fc826117d1565b9050919050565b61180c816117f1565b811461181757600080fd5b50565b60008135905061182981611803565b92915050565b60008060408385031215611846576118456116ca565b5b6000611854858286016117bc565b92505060206118658582860161181a565b9150509250929050565b600060208284031215611885576118846116ca565b5b60006118938482850161181a565b91505092915050565b6118a58161179b565b82525050565b60006020820190506118c0600083018461189c565b92915050565b600081519050919050565b600082825260208201905092915050565b6000819050602082019050919050565b6000819050919050565b611905816118f2565b82525050565b600061191783836118fc565b60208301905092915050565b6000602082019050919050565b600061193b826118c6565b61194581856118d1565b9350611950836118e2565b8060005b83811015611981578151611968888261190b565b975061197383611923565b925050600181019050611954565b5085935050505092915050565b600060208201905081810360008301526119a88184611930565b905092915050565b6119b9816116d4565b82525050565b60006020820190506119d460008301846119b0565b92915050565b6119e3816118f2565b82525050565b60006020820190506119fe60008301846119da565b92915050565b600080fd5b600080fd5b600080fd5b60008083601f840112611a2957611a28611a04565b5b8235905067ffffffffffffffff811115611a4657611a45611a09565b5b602083019150836020820283011115611a6257611a61611a0e565b5b9250929050565b60008060008060408587031215611a8357611a826116ca565b5b600085013567ffffffffffffffff811115611aa157611aa06116cf565b5b611aad87828801611a13565b9450945050602085013567ffffffffffffffff811115611ad057611acf6116cf565b5b611adc87828801611a13565b925092505092959194509250565b60008060408385031215611b0157611b006116ca565b5b6000611b0f8582860161181a565b9250506020611b20858286016116f9565b9150509250929050565b611b3381611765565b8114611b3e57600080fd5b50565b600081359050611b5081611b2a565b92915050565b600060208284031215611b6c57611b6b6116ca565b5b6000611b7a84828501611b41565b91505092915050565b6000604082019050611b9860008301856119b0565b611ba560208301846119da565b9392505050565b611bb5816118f2565b8114611bc057600080fd5b50565b600081359050611bd281611bac565b92915050565b60008060408385031215611bef57611bee6116ca565b5b6000611bfd8582860161181a565b9250506020611c0e85828601611bc3565b9150509250929050565b7f4e487b7100000000000000000000000000000000000000000000000000000000600052604160045260246000fd5b7f4e487b7100000000000000000000000000000000000000000000000000000000600052603260045260246000fd5b600082825260208201905092915050565b7f416363657373436f6e74726f6c3a2073656e646572206d75737420686176652060008201527f7468652061646d696e20726f6c65000000000000000000000000000000000000602082015250565b6000611ce3602e83611c76565b9150611cee82611c87565b604082019050919050565b60006020820190508181036000830152611d1281611cd6565b9050919050565b7f4c656e677468206d69736d617463680000000000000000000000000000000000600082015250565b6000611d4f600f83611c76565b9150611d5a82611d19565b602082019050919050565b60006020820190508181036000830152611d7e81611d42565b9050919050565b7f4e487b7100000000000000000000000000000000000000000000000000000000600052601160045260246000fd5b6000611dbf826118f2565b9150611dca836118f2565b9250828203905081811115611de257611de1611d85565b5b92915050565b611df181611602565b8114611dfc57600080fd5b50565b600081359050611e0e81611de8565b92915050565b600060208284031215611e2a57611e296116ca565b5b6000611e3884828501611dff565b91505092915050565b7f4c6173742070726f626162696c697479206d757374206265203130303030303060008201527f3000000000000000000000000000000000000000000000000000000000000000602082015250565b6000611e9d602183611c76565b9150611ea882611e41565b604082019050919050565b60006020820190508181036000830152611ecc81611e90565b9050919050565b6000611ede826116d4565b915061ffff8203611ef257611ef1611d85565b5b600182019050919050565b7f546f74616c207365676d656e7473206d7573742062652067726561746572207460008201527f68616e2030000000000000000000000000000000000000000000000000000000602082015250565b6000611f59602583611c76565b9150611f6482611efd565b604082019050919050565b60006020820190508181036000830152611f8881611f4c565b9050919050565b7f5370696e6e6572206e6f74206163746976650000000000000000000000000000600082015250565b6000611fc5601283611c76565b9150611fd082611f8f565b602082019050919050565b60006020820190508181036000830152611ff481611fb8565b9050919050565b6000819050919050565b612016612011826118f2565b611ffb565b82525050565b60008160601b9050919050565b60006120348261201c565b9050919050565b600061204682612029565b9050919050565b61205e612059826117f1565b61203b565b82525050565b60006120708288612005565b6020820191506120808287612005565b602082019150612090828661204d565b6014820191506120a08285612005565b6020820191506120b08284612005565b6020820191508190509695505050505050565b7f4e487b7100000000000000000000000000000000000000000000000000000000600052601260045260246000fd5b60006120fd826118f2565b9150612108836118f2565b925082612118576121176120c3565b5b828206905092915050565b600061212e826118f2565b9150612139836118f2565b925082820190508082111561215157612150611d85565b5b92915050565b6000612162826118f2565b91507fffffffffffffffffffffffffffffffffffffffffffffffffffffffffffffffff820361219457612193611d85565b5b600182019050919050565b60006121aa82611602565b9150600082036121bd576121bc611d85565b5b600182039050919050565b7f4e6f2076616c6964207365676d656e747320617661696c61626c65206166746560008201527f7220333020617474656d70747300000000000000000000000000000000000000602082015250565b6000612224602d83611c76565b915061222f826121c8565b604082019050919050565b6000602082019050818103600083015261225381612217565b9050919050565b600061226582611602565b915067ffffffffffffffff820361227f5761227e611d85565b5b600182019050919050565b6000819050919050565b60006122af6122aa6122a5846116d4565b61228a565b6118f2565b9050919050565b6122bf81612294565b82525050565b60006060820190506122da60008301866122b6565b6122e760208301856119da565b6122f460408301846119da565b94935050505056fea2646970667358221220b2d30c393b4e82ed53ad7ab183977d0eae0e5340ff49724d64750b44b21f9a6864736f6c63430008180033",
  "linkReferences": {},
  "deployedLinkReferences": {}
}