{
  "_format": "hh-sol-artifact-1",
  "contractName": "Spinner",
  "sourceName": "contracts/Spinner.sol",
  "abi": [
    {
      "inputs": [
        {
          "internalType": "uint16",
          "name": "_totalSegments",
          "type": "uint16"
        },
        {
          "internalType": "address",
          "name": "_feeRelayer",
          "type": "address"
        },
        {
          "internalType": "uint256",
          "name": "_countPerKaia",
          "type": "uint256"
        }
      ],
      "stateMutability": "nonpayable",
      "type": "constructor"
    },
    {
      "inputs": [],
      "name": "ReentrancyGuardReentrantCall",
      "type": "error"
    },
    {
      "anonymous": false,
      "inputs": [
        {
          "indexed": true,
          "internalType": "address",
          "name": "user",
          "type": "address"
        },
        {
          "indexed": false,
          "internalType": "uint256",
          "name": "blockNumber",
          "type": "uint256"
        }
      ],
      "name": "RechargeSpins",
      "type": "event"
    },
    {
      "anonymous": false,
      "inputs": [
        {
          "indexed": true,
          "internalType": "bytes32",
          "name": "role",
          "type": "bytes32"
        },
        {
          "indexed": true,
          "internalType": "address",
          "name": "account",
          "type": "address"
        },
        {
          "indexed": true,
          "internalType": "address",
          "name": "admin",
          "type": "address"
        }
      ],
      "name": "RoleGranted",
      "type": "event"
    },
    {
      "anonymous": false,
      "inputs": [
        {
          "indexed": true,
          "internalType": "bytes32",
          "name": "role",
          "type": "bytes32"
        },
        {
          "indexed": true,
          "internalType": "address",
          "name": "account",
          "type": "address"
        },
        {
          "indexed": true,
          "internalType": "address",
          "name": "admin",
          "type": "address"
        }
      ],
      "name": "RoleRevoked",
      "type": "event"
    },
    {
      "anonymous": false,
      "inputs": [
        {
          "indexed": true,
          "internalType": "address",
          "name": "user",
          "type": "address"
        },
        {
          "indexed": false,
          "internalType": "uint256",
          "name": "segment",
          "type": "uint256"
        },
        {
          "indexed": false,
          "internalType": "uint256",
          "name": "randomNumber",
          "type": "uint256"
        },
        {
          "indexed": false,
          "internalType": "uint256",
          "name": "timestamp",
          "type": "uint256"
        }
      ],
      "name": "SpinResult",
      "type": "event"
    },
    {
      "inputs": [],
      "name": "ADMIN_ROLE",
      "outputs": [
        {
          "internalType": "bytes32",
          "name": "",
          "type": "bytes32"
        }
      ],
      "stateMutability": "view",
      "type": "function"
    },
    {
      "inputs": [],
      "name": "MAX_PROBABILITY",
      "outputs": [
        {
          "internalType": "uint256",
          "name": "",
          "type": "uint256"
        }
      ],
      "stateMutability": "view",
      "type": "function"
    },
    {
      "inputs": [],
      "name": "PRECISION",
      "outputs": [
        {
          "internalType": "uint256",
          "name": "",
          "type": "uint256"
        }
      ],
      "stateMutability": "view",
      "type": "function"
    },
    {
      "inputs": [],
      "name": "countPerKaia",
      "outputs": [
        {
          "internalType": "uint256",
          "name": "",
          "type": "uint256"
        }
      ],
      "stateMutability": "view",
      "type": "function"
    },
    {
      "inputs": [],
      "name": "endBlock",
      "outputs": [
        {
          "internalType": "uint256",
          "name": "",
          "type": "uint256"
        }
      ],
      "stateMutability": "view",
      "type": "function"
    },
    {
      "inputs": [],
      "name": "feeRelayer",
      "outputs": [
        {
          "internalType": "address",
          "name": "",
          "type": "address"
        }
      ],
      "stateMutability": "view",
      "type": "function"
    },
    {
      "inputs": [],
      "name": "freeSpinPerDay",
      "outputs": [
        {
          "internalType": "uint256",
          "name": "",
          "type": "uint256"
        }
      ],
      "stateMutability": "view",
      "type": "function"
    },
    {
      "inputs": [
        {
          "internalType": "address",
          "name": "user",
          "type": "address"
        }
      ],
      "name": "getLastRechargeBlock",
      "outputs": [
        {
          "internalType": "uint256",
          "name": "",
          "type": "uint256"
        },
        {
          "internalType": "uint256",
          "name": "",
          "type": "uint256"
        }
      ],
      "stateMutability": "view",
      "type": "function"
    },
    {
      "inputs": [],
      "name": "getProbabilities",
      "outputs": [
        {
          "internalType": "uint64[]",
          "name": "probabilities",
          "type": "uint64[]"
        }
      ],
      "stateMutability": "view",
      "type": "function"
    },
    {
      "inputs": [],
      "name": "getRemainingAmounts",
      "outputs": [
        {
          "internalType": "uint64[]",
          "name": "amounts",
          "type": "uint64[]"
        }
      ],
      "stateMutability": "view",
      "type": "function"
    },
    {
      "inputs": [],
      "name": "getSegmentAmounts",
      "outputs": [
        {
          "internalType": "uint64[]",
          "name": "amounts",
          "type": "uint64[]"
        }
      ],
      "stateMutability": "view",
      "type": "function"
    },
    {
      "inputs": [
        {
          "internalType": "address",
          "name": "user",
          "type": "address"
        },
        {
          "internalType": "uint16",
          "name": "segment",
          "type": "uint16"
        }
      ],
      "name": "getUserSegmentHits",
      "outputs": [
        {
          "internalType": "uint256",
          "name": "",
          "type": "uint256"
        }
      ],
      "stateMutability": "view",
      "type": "function"
    },
    {
      "inputs": [
        {
          "internalType": "address",
          "name": "user",
          "type": "address"
        }
      ],
      "name": "getUserSegmentHitsAll",
      "outputs": [
        {
          "internalType": "uint256[]",
          "name": "",
          "type": "uint256[]"
        }
      ],
      "stateMutability": "view",
      "type": "function"
    },
    {
      "inputs": [
        {
          "internalType": "address",
          "name": "user",
          "type": "address"
        }
      ],
      "name": "getUserSpinCount",
      "outputs": [
        {
          "internalType": "uint64",
          "name": "",
          "type": "uint64"
        }
      ],
      "stateMutability": "view",
      "type": "function"
    },
    {
      "inputs": [
        {
          "internalType": "address",
          "name": "user",
          "type": "address"
        }
      ],
      "name": "getUserSpinsAvailable",
      "outputs": [
        {
          "internalType": "uint256",
          "name": "",
          "type": "uint256"
        }
      ],
      "stateMutability": "view",
      "type": "function"
    },
    {
      "inputs": [
        {
          "internalType": "bytes32",
          "name": "role",
          "type": "bytes32"
        },
        {
          "internalType": "address",
          "name": "account",
          "type": "address"
        }
      ],
      "name": "grantRole",
      "outputs": [],
      "stateMutability": "nonpayable",
      "type": "function"
    },
    {
      "inputs": [
        {
          "internalType": "bytes32",
          "name": "role",
          "type": "bytes32"
        },
        {
          "internalType": "address",
          "name": "account",
          "type": "address"
        }
      ],
      "name": "hasRole",
      "outputs": [
        {
          "internalType": "bool",
          "name": "",
          "type": "bool"
        }
      ],
      "stateMutability": "view",
      "type": "function"
    },
    {
      "inputs": [],
      "name": "isActive",
      "outputs": [
        {
          "internalType": "bool",
          "name": "",
          "type": "bool"
        }
      ],
      "stateMutability": "view",
      "type": "function"
    },
    {
      "inputs": [
        {
          "internalType": "address",
          "name": "",
          "type": "address"
        }
      ],
      "name": "lastRechargeBlock",
      "outputs": [
        {
          "internalType": "uint256",
          "name": "",
          "type": "uint256"
        }
      ],
      "stateMutability": "view",
      "type": "function"
    },
    {
      "inputs": [],
      "name": "rechargeBlockInterval",
      "outputs": [
        {
          "internalType": "uint256",
          "name": "",
          "type": "uint256"
        }
      ],
      "stateMutability": "view",
      "type": "function"
    },
    {
      "inputs": [
        {
          "internalType": "address",
          "name": "user",
          "type": "address"
        }
      ],
      "name": "rechargeSpins",
      "outputs": [],
      "stateMutability": "nonpayable",
      "type": "function"
    },
    {
      "inputs": [
        {
          "internalType": "bytes32",
          "name": "role",
          "type": "bytes32"
        },
        {
          "internalType": "address",
          "name": "account",
          "type": "address"
        }
      ],
      "name": "revokeRole",
      "outputs": [],
      "stateMutability": "nonpayable",
      "type": "function"
    },
    {
      "inputs": [
        {
          "internalType": "uint16",
          "name": "",
          "type": "uint16"
        }
      ],
      "name": "segmentAmounts",
      "outputs": [
        {
          "internalType": "uint64",
          "name": "",
          "type": "uint64"
        }
      ],
      "stateMutability": "view",
      "type": "function"
    },
    {
      "inputs": [
        {
          "internalType": "uint16",
          "name": "",
          "type": "uint16"
        }
      ],
      "name": "segmentProbabilities",
      "outputs": [
        {
          "internalType": "uint64",
          "name": "",
          "type": "uint64"
        }
      ],
      "stateMutability": "view",
      "type": "function"
    },
    {
      "inputs": [
        {
          "internalType": "uint16",
          "name": "",
          "type": "uint16"
        }
      ],
      "name": "segmentRemaining",
      "outputs": [
        {
          "internalType": "uint64",
          "name": "",
          "type": "uint64"
        }
      ],
      "stateMutability": "view",
      "type": "function"
    },
    {
      "inputs": [
        {
          "internalType": "uint256",
          "name": "_startBlock",
          "type": "uint256"
        },
        {
          "internalType": "uint256",
          "name": "_endBlock",
          "type": "uint256"
        }
      ],
      "name": "setBlockRange",
      "outputs": [],
      "stateMutability": "nonpayable",
      "type": "function"
    },
    {
      "inputs": [
        {
          "internalType": "uint256",
          "name": "_countPerKaia",
          "type": "uint256"
        }
      ],
      "name": "setCountPerKaia",
      "outputs": [],
      "stateMutability": "nonpayable",
      "type": "function"
    },
    {
      "inputs": [
        {
          "internalType": "address",
          "name": "_feeRelayer",
          "type": "address"
        }
      ],
      "name": "setFeeRelayer",
      "outputs": [],
      "stateMutability": "nonpayable",
      "type": "function"
    },
    {
      "inputs": [
        {
          "internalType": "uint256",
          "name": "_freeSpinsPerDay",
          "type": "uint256"
        }
      ],
      "name": "setFreeSpinsPerDay",
      "outputs": [],
      "stateMutability": "nonpayable",
      "type": "function"
    },
    {
      "inputs": [
        {
          "internalType": "uint256",
          "name": "_rechargeBlockInterval",
          "type": "uint256"
        }
      ],
      "name": "setRechargeBlockInterval",
      "outputs": [],
      "stateMutability": "nonpayable",
      "type": "function"
    },
    {
      "inputs": [
        {
          "internalType": "uint64[]",
          "name": "amounts",
          "type": "uint64[]"
        },
        {
          "internalType": "uint64[]",
          "name": "probabilities",
          "type": "uint64[]"
        }
      ],
      "name": "setSegmentAmounts",
      "outputs": [],
      "stateMutability": "nonpayable",
      "type": "function"
    },
    {
      "inputs": [
        {
          "internalType": "uint16",
          "name": "_totalSegments",
          "type": "uint16"
        }
      ],
      "name": "setTotalSegments",
      "outputs": [],
      "stateMutability": "nonpayable",
      "type": "function"
    },
    {
      "inputs": [],
      "name": "spin",
      "outputs": [
        {
          "internalType": "uint16",
          "name": "segment",
          "type": "uint16"
        },
        {
          "internalType": "uint256",
          "name": "randomNumber",
          "type": "uint256"
        }
      ],
      "stateMutability": "nonpayable",
      "type": "function"
    },
    {
      "inputs": [],
      "name": "startBlock",
      "outputs": [
        {
          "internalType": "uint256",
          "name": "",
          "type": "uint256"
        }
      ],
      "stateMutability": "view",
      "type": "function"
    },
    {
      "inputs": [],
      "name": "totalSegments",
      "outputs": [
        {
          "internalType": "uint16",
          "name": "",
          "type": "uint16"
        }
      ],
      "stateMutability": "view",
      "type": "function"
    },
    {
      "inputs": [],
      "name": "totalSpins",
      "outputs": [
        {
          "internalType": "uint256",
          "name": "",
          "type": "uint256"
        }
      ],
      "stateMutability": "view",
      "type": "function"
    },
    {
      "inputs": [
        {
          "internalType": "address",
          "name": "",
          "type": "address"
        },
        {
          "internalType": "uint256",
          "name": "",
          "type": "uint256"
        }
      ],
      "name": "userSegmentHits",
      "outputs": [
        {
          "internalType": "uint256",
          "name": "",
          "type": "uint256"
        }
      ],
      "stateMutability": "view",
      "type": "function"
    },
    {
      "inputs": [
        {
          "internalType": "address",
          "name": "",
          "type": "address"
        }
      ],
      "name": "userSpinCount",
      "outputs": [
        {
          "internalType": "uint64",
          "name": "",
          "type": "uint64"
        }
      ],
      "stateMutability": "view",
      "type": "function"
    },
    {
      "inputs": [
        {
          "internalType": "address",
          "name": "",
          "type": "address"
        }
      ],
      "name": "userSpinsAvailable",
      "outputs": [
        {
          "internalType": "uint256",
          "name": "",
          "type": "uint256"
        }
      ],
      "stateMutability": "view",
      "type": "function"
    }
  ],
  "bytecode": "0x60806040526064600255620151806003553480156200001d57600080fd5b506040516200321638038062003216833981810160405281019062000043919062000288565b600180819055506200005f6000801b33620000dd60201b60201c565b82600460006101000a81548161ffff021916908361ffff16021790555081600460026101000a81548173ffffffffffffffffffffffffffffffffffffffff021916908373ffffffffffffffffffffffffffffffffffffffff160217905550806005819055506000600a819055506000600b81905550505050620002e4565b600160008084815260200190815260200160002060008373ffffffffffffffffffffffffffffffffffffffff1673ffffffffffffffffffffffffffffffffffffffff16815260200190815260200160002060006101000a81548160ff0219169083151502179055503373ffffffffffffffffffffffffffffffffffffffff168173ffffffffffffffffffffffffffffffffffffffff16837f2f8788117e7eff1d82e926ec794901d17c78024a50270940304540a733656f0d60405160405180910390a45050565b600080fd5b600061ffff82169050919050565b620001c281620001a9565b8114620001ce57600080fd5b50565b600081519050620001e281620001b7565b92915050565b600073ffffffffffffffffffffffffffffffffffffffff82169050919050565b60006200021582620001e8565b9050919050565b620002278162000208565b81146200023357600080fd5b50565b60008151905062000247816200021c565b92915050565b6000819050919050565b62000262816200024d565b81146200026e57600080fd5b50565b600081519050620002828162000257565b92915050565b600080600060608486031215620002a457620002a3620001a4565b5b6000620002b486828701620001d1565b9350506020620002c78682870162000236565b9250506040620002da8682870162000271565b9150509250925092565b612f2280620002f46000396000f3fe608060405234801561001057600080fd5b506004361061023d5760003560e01c806379081d9d1161013b578063bc17530a116100b8578063eb9c9d9b1161007c578063eb9c9d9b14610707578063f0acd7d514610723578063fae2ac1e14610742578063fc3417361461075e578063fe8e1dc21461077c5761023d565b8063bc17530a14610663578063bc4af01b1461067f578063cc40a8ca1461069d578063d547741f146106bb578063d96cff32146106d75761023d565b806391d14854116100ff57806391d14854146105ad57806392eefe2b146105dd57806395ee1217146105f9578063a6794c7c14610615578063aaf5eb68146106455761023d565b806379081d9d146104e15780637cd0fa5c146105115780638acf974d146105415780638ea1f36314610571578063901b20361461058f5761023d565b80633cb85a8d116101c9578063656c0ead1161018d578063656c0ead146104165780636a5acd6b146104465780636cd6e4cf146104775780636ef45e7d146104a757806375b238fc146104c35761023d565b80633cb85a8d1461038057806348cd4cb11461039e5780634db33ba2146103bc57806350211e75146103da5780635f16b518146103f85761023d565b8063150095eb11610210578063150095eb146102de5780631dc2a488146102fa57806321dbc5bf1461031657806322f3e2d4146103465780632f2ff15d146103645761023d565b8063062f7b8c146102425780630661939d14610260578063083c6323146102905780631039b1d9146102ae575b600080fd5b61024a6107ac565b6040516102579190611f54565b60405180910390f35b61027a60048036038101906102759190611fba565b6108aa565b6040516102879190611ff6565b60405180910390f35b6102986108d1565b6040516102a5919061202a565b60405180910390f35b6102c860048036038101906102c391906120a3565b6108d7565b6040516102d5919061202a565b60405180910390f35b6102f860048036038101906102f391906120fc565b610920565b005b610314600480360381019061030f91906120a3565b610978565b005b610330600480360381019061032b9190611fba565b610a0a565b60405161033d9190611ff6565b60405180910390f35b61034e610a31565b60405161035b9190612144565b60405180910390f35b61037e60048036038101906103799190612195565b610a67565b005b610388610ac3565b604051610395919061202a565b60405180910390f35b6103a6610ac9565b6040516103b3919061202a565b60405180910390f35b6103c4610acf565b6040516103d1919061202a565b60405180910390f35b6103e2610ad5565b6040516103ef919061202a565b60405180910390f35b610400610adb565b60405161040d9190611f54565b60405180910390f35b610430600480360381019061042b91906120a3565b610bd9565b60405161043d9190611ff6565b60405180910390f35b610460600480360381019061045b91906120a3565b610c36565b60405161046e9291906121d5565b60405180910390f35b610491600480360381019061048c91906120a3565b610c83565b60405161049e9190611ff6565b60405180910390f35b6104c160048036038101906104bc91906121fe565b610caa565b005b6104cb610d9a565b6040516104d8919061224d565b60405180910390f35b6104fb60048036038101906104f691906120a3565b610da1565b6040516105089190612326565b60405180910390f35b61052b600480360381019061052691906120a3565b610eb6565b604051610538919061202a565b60405180910390f35b61055b60048036038101906105569190611fba565b610ece565b6040516105689190611ff6565b60405180910390f35b610579610ef5565b6040516105869190612357565b60405180910390f35b610597610f09565b6040516105a4919061202a565b60405180910390f35b6105c760048036038101906105c29190612195565b610f0f565b6040516105d49190612144565b60405180910390f35b6105f760048036038101906105f291906120fc565b610f76565b005b610613600480360381019061060e91906123d7565b610fce565b005b61062f600480360381019061062a9190612458565b61125d565b60405161063c919061202a565b60405180910390f35b61064d6112bc565b60405161065a919061202a565b60405180910390f35b61067d60048036038101906106789190611fba565b6112c8565b005b61068761137d565b6040516106949190611f54565b60405180910390f35b6106a561147b565b6040516106b2919061202a565b60405180910390f35b6106d560048036038101906106d09190612195565b611483565b005b6106f160048036038101906106ec91906120a3565b6114df565b6040516106fe919061202a565b60405180910390f35b610721600480360381019061071c91906120a3565b6114f7565b005b61072b6116ef565b604051610739929190612498565b60405180910390f35b61075c600480360381019061075791906120fc565b611c02565b005b610766611c5a565b60405161077391906124d0565b60405180910390f35b610796600480360381019061079191906124eb565b611c80565b6040516107a3919061202a565b60405180910390f35b6060600460009054906101000a900461ffff1661ffff1667ffffffffffffffff8111156107dc576107db61252b565b5b60405190808252806020026020018201604052801561080a5781602001602082028036833780820191505090505b50905060005b600460009054906101000a900461ffff1661ffff168161ffff1610156108a657600860008261ffff1661ffff16815260200190815260200160002060009054906101000a900467ffffffffffffffff16828261ffff16815181106108775761087661255a565b5b602002602001019067ffffffffffffffff16908167ffffffffffffffff16815250508080600101915050610810565b5090565b60066020528060005260406000206000915054906101000a900467ffffffffffffffff1681565b600b5481565b6000600d60008373ffffffffffffffffffffffffffffffffffffffff1673ffffffffffffffffffffffffffffffffffffffff168152602001908152602001600020549050919050565b6000801b61092e8133610f0f565b61096d576040517f08c379a00000000000000000000000000000000000000000000000000000000081526004016109649061260c565b60405180910390fd5b816002819055505050565b6000801b6109868133610f0f565b6109c5576040517f08c379a00000000000000000000000000000000000000000000000000000000081526004016109bc9061260c565b60405180910390fd5b81600460026101000a81548173ffffffffffffffffffffffffffffffffffffffff021916908373ffffffffffffffffffffffffffffffffffffffff1602179055505050565b60086020528060005260406000206000915054906101000a900467ffffffffffffffff1681565b600080600a5414158015610a475750600a544310155b8015610a6257506000600b541480610a615750600b544311155b5b905090565b6000801b610a758133610f0f565b610ab4576040517f08c379a0000000000000000000000000000000000000000000000000000000008152600401610aab9061260c565b60405180910390fd5b610abe8383611ca5565b505050565b60035481565b600a5481565b60055481565b60025481565b6060600460009054906101000a900461ffff1661ffff1667ffffffffffffffff811115610b0b57610b0a61252b565b5b604051908082528060200260200182016040528015610b395781602001602082028036833780820191505090505b50905060005b600460009054906101000a900461ffff1661ffff168161ffff161015610bd557600760008261ffff1661ffff16815260200190815260200160002060009054906101000a900467ffffffffffffffff16828261ffff1681518110610ba657610ba561255a565b5b602002602001019067ffffffffffffffff16908167ffffffffffffffff16815250508080600101915050610b3f565b5090565b6000600e60008373ffffffffffffffffffffffffffffffffffffffff1673ffffffffffffffffffffffffffffffffffffffff16815260200190815260200160002060009054906101000a900467ffffffffffffffff169050919050565b600080600c60008473ffffffffffffffffffffffffffffffffffffffff1673ffffffffffffffffffffffffffffffffffffffff168152602001908152602001600020544391509150915091565b600e6020528060005260406000206000915054906101000a900467ffffffffffffffff1681565b6000801b610cb88133610f0f565b610cf7576040517f08c379a0000000000000000000000000000000000000000000000000000000008152600401610cee9061260c565b60405180910390fd5b43831015610d3a576040517f08c379a0000000000000000000000000000000000000000000000000000000008152600401610d319061269e565b60405180910390fd5b6000821480610d4857508282115b610d87576040517f08c379a0000000000000000000000000000000000000000000000000000000008152600401610d7e90612730565b60405180910390fd5b82600a8190555081600b81905550505050565b6000801b81565b60606000600460009054906101000a900461ffff1661ffff1667ffffffffffffffff811115610dd357610dd261252b565b5b604051908082528060200260200182016040528015610e015781602001602082028036833780820191505090505b50905060005b600460009054906101000a900461ffff1661ffff168161ffff161015610eac57600f60008573ffffffffffffffffffffffffffffffffffffffff1673ffffffffffffffffffffffffffffffffffffffff16815260200190815260200160002060008261ffff16815260200190815260200160002054828261ffff1681518110610e9357610e9261255a565b5b6020026020010181815250508080600101915050610e07565b5080915050919050565b600c6020528060005260406000206000915090505481565b60076020528060005260406000206000915054906101000a900467ffffffffffffffff1681565b600460009054906101000a900461ffff1681565b60095481565b600080600084815260200190815260200160002060008373ffffffffffffffffffffffffffffffffffffffff1673ffffffffffffffffffffffffffffffffffffffff16815260200190815260200160002060009054906101000a900460ff16905092915050565b6000801b610f848133610f0f565b610fc3576040517f08c379a0000000000000000000000000000000000000000000000000000000008152600401610fba9061260c565b60405180910390fd5b816003819055505050565b6000801b610fdc8133610f0f565b61101b576040517f08c379a00000000000000000000000000000000000000000000000000000000081526004016110129061260c565b60405180910390fd5b828290508585905014611063576040517f08c379a000000000000000000000000000000000000000000000000000000000815260040161105a9061279c565b60405180910390fd5b6305f5e100838360018686905061107a91906127eb565b81811061108a5761108961255a565b5b905060200201602081019061109f919061284b565b67ffffffffffffffff16146110e9576040517f08c379a00000000000000000000000000000000000000000000000000000000081526004016110e0906128ea565b60405180910390fd5b60005b858590508161ffff1610156112555785858261ffff168181106111125761111161255a565b5b9050602002016020810190611127919061284b565b600660008361ffff1661ffff16815260200190815260200160002060006101000a81548167ffffffffffffffff021916908367ffffffffffffffff16021790555085858261ffff1681811061117f5761117e61255a565b5b9050602002016020810190611194919061284b565b600760008361ffff1661ffff16815260200190815260200160002060006101000a81548167ffffffffffffffff021916908367ffffffffffffffff16021790555083838261ffff168181106111ec576111eb61255a565b5b9050602002016020810190611201919061284b565b600860008361ffff1661ffff16815260200190815260200160002060006101000a81548167ffffffffffffffff021916908367ffffffffffffffff160217905550808061124d9061290a565b9150506110ec565b505050505050565b6000600f60008473ffffffffffffffffffffffffffffffffffffffff1673ffffffffffffffffffffffffffffffffffffffff16815260200190815260200160002060008361ffff16815260200190815260200160002054905092915050565b670de0b6b3a764000081565b6000801b6112d68133610f0f565b611315576040517f08c379a000000000000000000000000000000000000000000000000000000000815260040161130c9061260c565b60405180910390fd5b60008261ffff161161135c576040517f08c379a0000000000000000000000000000000000000000000000000000000008152600401611353906129a6565b60405180910390fd5b81600460006101000a81548161ffff021916908361ffff1602179055505050565b6060600460009054906101000a900461ffff1661ffff1667ffffffffffffffff8111156113ad576113ac61252b565b5b6040519080825280602002602001820160405280156113db5781602001602082028036833780820191505090505b50905060005b600460009054906101000a900461ffff1661ffff168161ffff16101561147757600660008261ffff1661ffff16815260200190815260200160002060009054906101000a900467ffffffffffffffff16828261ffff16815181106114485761144761255a565b5b602002602001019067ffffffffffffffff16908167ffffffffffffffff168152505080806001019150506113e1565b5090565b6305f5e10081565b6000801b6114918133610f0f565b6114d0576040517f08c379a00000000000000000000000000000000000000000000000000000000081526004016114c79061260c565b60405180910390fd5b6114da8383611d6c565b505050565b600d6020528060005260406000206000915090505481565b8073ffffffffffffffffffffffffffffffffffffffff163373ffffffffffffffffffffffffffffffffffffffff16148061153a57506115396000801b33610f0f565b5b611579576040517f08c379a000000000000000000000000000000000000000000000000000000000815260040161157090612a38565b60405180910390fd5b60004390506000600c60008473ffffffffffffffffffffffffffffffffffffffff1673ffffffffffffffffffffffffffffffffffffffff16815260200190815260200160002054826115cb91906127eb565b9050600354811015611612576040517f08c379a000000000000000000000000000000000000000000000000000000000815260040161160990612aca565b60405180910390fd5b600254600d60008573ffffffffffffffffffffffffffffffffffffffff1673ffffffffffffffffffffffffffffffffffffffff1681526020019081526020016000208190555081600c60008573ffffffffffffffffffffffffffffffffffffffff1673ffffffffffffffffffffffffffffffffffffffff168152602001908152602001600020819055508273ffffffffffffffffffffffffffffffffffffffff167fb12ec13040779b0b4e7d608b32399fbcfb5c1ab5fb2cc08226d4ed2a32728b3e836040516116e2919061202a565b60405180910390a2505050565b6000806116fa611e33565b611702610a31565b611741576040517f08c379a000000000000000000000000000000000000000000000000000000000815260040161173890612b36565b60405180910390fd5b6000600d60003373ffffffffffffffffffffffffffffffffffffffff1673ffffffffffffffffffffffffffffffffffffffff16815260200190815260200160002054116117c3576040517f08c379a00000000000000000000000000000000000000000000000000000000081526004016117ba90612ba2565b60405180910390fd5b6000806000601e90505b821580156117da57508082105b15611a185760016305f5e10042443360095487604051602001611801959493929190612c2b565b6040516020818303038152906040528051906020012060001c6118249190612cb9565b61182e9190612cea565b935060005b600460009054906101000a900461ffff1661ffff168161ffff16108015611858575083155b15611a0457600860008261ffff1661ffff16815260200190815260200160002060009054906101000a900467ffffffffffffffff1667ffffffffffffffff1685116119f1576000600660008361ffff1661ffff16815260200190815260200160002060009054906101000a900467ffffffffffffffff1667ffffffffffffffff16148061191e57506000600760008361ffff1661ffff16815260200190815260200160002060009054906101000a900467ffffffffffffffff1667ffffffffffffffff16115b156119f057600193508095506009600081548092919061193d90612d1e565b91905055506000600760008361ffff1661ffff16815260200190815260200160002060009054906101000a900467ffffffffffffffff1667ffffffffffffffff1611156119eb57600760008261ffff1661ffff168152602001908152602001600020600081819054906101000a900467ffffffffffffffff16809291906119c390612d66565b91906101000a81548167ffffffffffffffff021916908367ffffffffffffffff160217905550505b611a04565b5b80806119fc9061290a565b915050611833565b508180611a1090612d1e565b9250506117cd565b82611a58576040517f08c379a0000000000000000000000000000000000000000000000000000000008152600401611a4f90612e01565b60405180910390fd5b600e60003373ffffffffffffffffffffffffffffffffffffffff1673ffffffffffffffffffffffffffffffffffffffff168152602001908152602001600020600081819054906101000a900467ffffffffffffffff1680929190611abb90612e21565b91906101000a81548167ffffffffffffffff021916908367ffffffffffffffff16021790555050600f60003373ffffffffffffffffffffffffffffffffffffffff1673ffffffffffffffffffffffffffffffffffffffff16815260200190815260200160002060008661ffff1681526020019081526020016000206000815480929190611b4790612d1e565b9190505550600d60003373ffffffffffffffffffffffffffffffffffffffff1673ffffffffffffffffffffffffffffffffffffffff1681526020019081526020016000206000815480929190611b9c90612e51565b91905055503373ffffffffffffffffffffffffffffffffffffffff167ff825702cbc83605d7fababea4c41c307150aab23ae229acda80af9d946aa4292868642604051611beb93929190612eb5565b60405180910390a2505050611bfe611e79565b9091565b6000801b611c108133610f0f565b611c4f576040517f08c379a0000000000000000000000000000000000000000000000000000000008152600401611c469061260c565b60405180910390fd5b816005819055505050565b600460029054906101000a900473ffffffffffffffffffffffffffffffffffffffff1681565b600f602052816000526040600020602052806000526040600020600091509150505481565b600160008084815260200190815260200160002060008373ffffffffffffffffffffffffffffffffffffffff1673ffffffffffffffffffffffffffffffffffffffff16815260200190815260200160002060006101000a81548160ff0219169083151502179055503373ffffffffffffffffffffffffffffffffffffffff168173ffffffffffffffffffffffffffffffffffffffff16837f2f8788117e7eff1d82e926ec794901d17c78024a50270940304540a733656f0d60405160405180910390a45050565b600080600084815260200190815260200160002060008373ffffffffffffffffffffffffffffffffffffffff1673ffffffffffffffffffffffffffffffffffffffff16815260200190815260200160002060006101000a81548160ff0219169083151502179055503373ffffffffffffffffffffffffffffffffffffffff168173ffffffffffffffffffffffffffffffffffffffff16837ff6391f5c32d9c69d2a47ea670b442974b53935d1edc7fd64eb21e047a839171b60405160405180910390a45050565b600260015403611e6f576040517f3ee5aeb500000000000000000000000000000000000000000000000000000000815260040160405180910390fd5b6002600181905550565b60018081905550565b600081519050919050565b600082825260208201905092915050565b6000819050602082019050919050565b600067ffffffffffffffff82169050919050565b611ecb81611eae565b82525050565b6000611edd8383611ec2565b60208301905092915050565b6000602082019050919050565b6000611f0182611e82565b611f0b8185611e8d565b9350611f1683611e9e565b8060005b83811015611f47578151611f2e8882611ed1565b9750611f3983611ee9565b925050600181019050611f1a565b5085935050505092915050565b60006020820190508181036000830152611f6e8184611ef6565b905092915050565b600080fd5b600080fd5b600061ffff82169050919050565b611f9781611f80565b8114611fa257600080fd5b50565b600081359050611fb481611f8e565b92915050565b600060208284031215611fd057611fcf611f76565b5b6000611fde84828501611fa5565b91505092915050565b611ff081611eae565b82525050565b600060208201905061200b6000830184611fe7565b92915050565b6000819050919050565b61202481612011565b82525050565b600060208201905061203f600083018461201b565b92915050565b600073ffffffffffffffffffffffffffffffffffffffff82169050919050565b600061207082612045565b9050919050565b61208081612065565b811461208b57600080fd5b50565b60008135905061209d81612077565b92915050565b6000602082840312156120b9576120b8611f76565b5b60006120c78482850161208e565b91505092915050565b6120d981612011565b81146120e457600080fd5b50565b6000813590506120f6816120d0565b92915050565b60006020828403121561211257612111611f76565b5b6000612120848285016120e7565b91505092915050565b60008115159050919050565b61213e81612129565b82525050565b60006020820190506121596000830184612135565b92915050565b6000819050919050565b6121728161215f565b811461217d57600080fd5b50565b60008135905061218f81612169565b92915050565b600080604083850312156121ac576121ab611f76565b5b60006121ba85828601612180565b92505060206121cb8582860161208e565b9150509250929050565b60006040820190506121ea600083018561201b565b6121f7602083018461201b565b9392505050565b6000806040838503121561221557612214611f76565b5b6000612223858286016120e7565b9250506020612234858286016120e7565b9150509250929050565b6122478161215f565b82525050565b6000602082019050612262600083018461223e565b92915050565b600081519050919050565b600082825260208201905092915050565b6000819050602082019050919050565b61229d81612011565b82525050565b60006122af8383612294565b60208301905092915050565b6000602082019050919050565b60006122d382612268565b6122dd8185612273565b93506122e883612284565b8060005b8381101561231957815161230088826122a3565b975061230b836122bb565b9250506001810190506122ec565b5085935050505092915050565b6000602082019050818103600083015261234081846122c8565b905092915050565b61235181611f80565b82525050565b600060208201905061236c6000830184612348565b92915050565b600080fd5b600080fd5b600080fd5b60008083601f84011261239757612396612372565b5b8235905067ffffffffffffffff8111156123b4576123b3612377565b5b6020830191508360208202830111156123d0576123cf61237c565b5b9250929050565b600080600080604085870312156123f1576123f0611f76565b5b600085013567ffffffffffffffff81111561240f5761240e611f7b565b5b61241b87828801612381565b9450945050602085013567ffffffffffffffff81111561243e5761243d611f7b565b5b61244a87828801612381565b925092505092959194509250565b6000806040838503121561246f5761246e611f76565b5b600061247d8582860161208e565b925050602061248e85828601611fa5565b9150509250929050565b60006040820190506124ad6000830185612348565b6124ba602083018461201b565b9392505050565b6124ca81612065565b82525050565b60006020820190506124e560008301846124c1565b92915050565b6000806040838503121561250257612501611f76565b5b60006125108582860161208e565b9250506020612521858286016120e7565b9150509250929050565b7f4e487b7100000000000000000000000000000000000000000000000000000000600052604160045260246000fd5b7f4e487b7100000000000000000000000000000000000000000000000000000000600052603260045260246000fd5b600082825260208201905092915050565b7f416363657373436f6e74726f6c3a2073656e646572206d75737420686176652060008201527f7468652061646d696e20726f6c65000000000000000000000000000000000000602082015250565b60006125f6602e83612589565b91506126018261259a565b604082019050919050565b60006020820190508181036000830152612625816125e9565b9050919050565b7f537461727420626c6f636b206d75737420626520696e2074686520667574757260008201527f6500000000000000000000000000000000000000000000000000000000000000602082015250565b6000612688602183612589565b91506126938261262c565b604082019050919050565b600060208201905081810360008301526126b78161267b565b9050919050565b7f456e6420626c6f636b206d75737420626520616674657220737461727420626c60008201527f6f636b0000000000000000000000000000000000000000000000000000000000602082015250565b600061271a602383612589565b9150612725826126be565b604082019050919050565b600060208201905081810360008301526127498161270d565b9050919050565b7f4c656e677468206d69736d617463680000000000000000000000000000000000600082015250565b6000612786600f83612589565b915061279182612750565b602082019050919050565b600060208201905081810360008301526127b581612779565b9050919050565b7f4e487b7100000000000000000000000000000000000000000000000000000000600052601160045260246000fd5b60006127f682612011565b915061280183612011565b9250828203905081811115612819576128186127bc565b5b92915050565b61282881611eae565b811461283357600080fd5b50565b6000813590506128458161281f565b92915050565b60006020828403121561286157612860611f76565b5b600061286f84828501612836565b91505092915050565b7f4c6173742070726f626162696c697479206d757374206265203130303030303060008201527f3030000000000000000000000000000000000000000000000000000000000000602082015250565b60006128d4602283612589565b91506128df82612878565b604082019050919050565b60006020820190508181036000830152612903816128c7565b9050919050565b600061291582611f80565b915061ffff8203612929576129286127bc565b5b600182019050919050565b7f546f74616c207365676d656e7473206d7573742062652067726561746572207460008201527f68616e2030000000000000000000000000000000000000000000000000000000602082015250565b6000612990602583612589565b915061299b82612934565b604082019050919050565b600060208201905081810360008301526129bf81612983565b9050919050565b7f4f6e6c792075736572206f722061646d696e2063616e2072656368617267652060008201527f7370696e73000000000000000000000000000000000000000000000000000000602082015250565b6000612a22602583612589565b9150612a2d826129c6565b604082019050919050565b60006020820190508181036000830152612a5181612a15565b9050919050565b7f4e6f7420656e6f7567682074696d6520686173207061737365642073696e636560008201527f206c617374207265636861726765000000000000000000000000000000000000602082015250565b6000612ab4602e83612589565b9150612abf82612a58565b604082019050919050565b60006020820190508181036000830152612ae381612aa7565b9050919050565b7f5370696e6e6572206e6f74206163746976650000000000000000000000000000600082015250565b6000612b20601283612589565b9150612b2b82612aea565b602082019050919050565b60006020820190508181036000830152612b4f81612b13565b9050919050565b7f4e6f207370696e7320617661696c61626c650000000000000000000000000000600082015250565b6000612b8c601283612589565b9150612b9782612b56565b602082019050919050565b60006020820190508181036000830152612bbb81612b7f565b9050919050565b6000819050919050565b612bdd612bd882612011565b612bc2565b82525050565b60008160601b9050919050565b6000612bfb82612be3565b9050919050565b6000612c0d82612bf0565b9050919050565b612c25612c2082612065565b612c02565b82525050565b6000612c378288612bcc565b602082019150612c478287612bcc565b602082019150612c578286612c14565b601482019150612c678285612bcc565b602082019150612c778284612bcc565b6020820191508190509695505050505050565b7f4e487b7100000000000000000000000000000000000000000000000000000000600052601260045260246000fd5b6000612cc482612011565b9150612ccf83612011565b925082612cdf57612cde612c8a565b5b828206905092915050565b6000612cf582612011565b9150612d0083612011565b9250828201905080821115612d1857612d176127bc565b5b92915050565b6000612d2982612011565b91507fffffffffffffffffffffffffffffffffffffffffffffffffffffffffffffffff8203612d5b57612d5a6127bc565b5b600182019050919050565b6000612d7182611eae565b915060008203612d8457612d836127bc565b5b600182039050919050565b7f4e6f2076616c6964207365676d656e747320617661696c61626c65206166746560008201527f7220333020617474656d70747300000000000000000000000000000000000000602082015250565b6000612deb602d83612589565b9150612df682612d8f565b604082019050919050565b60006020820190508181036000830152612e1a81612dde565b9050919050565b6000612e2c82611eae565b915067ffffffffffffffff8203612e4657612e456127bc565b5b600182019050919050565b6000612e5c82612011565b915060008203612e6f57612e6e6127bc565b5b600182039050919050565b6000819050919050565b6000612e9f612e9a612e9584611f80565b612e7a565b612011565b9050919050565b612eaf81612e84565b82525050565b6000606082019050612eca6000830186612ea6565b612ed7602083018561201b565b612ee4604083018461201b565b94935050505056fea264697066735822122043a23887b91914c424cb8f1152bdca5c95a067783a39374d93a9368b1ed1e2ba64736f6c63430008180033",
  "linkReferences": {},
  "deployedLinkReferences": {}
}